{
  "_format": "hh-sol-artifact-1",
  "contractName": "Maxity721Token",
  "sourceName": "contracts/maxity/impl/Maxity721Token.sol",
  "abi": [
    {
      "inputs": [
        {
          "internalType": "string",
          "name": "name",
          "type": "string"
        },
        {
          "internalType": "string",
          "name": "symbol",
          "type": "string"
        },
        {
          "internalType": "address",
          "name": "_ngo",
          "type": "address"
        },
        {
          "internalType": "address",
          "name": "_ngowallet",
          "type": "address"
        },
        {
          "internalType": "string",
          "name": "_did",
          "type": "string"
        }
      ],
      "stateMutability": "nonpayable",
      "type": "constructor"
    },
    {
      "anonymous": false,
      "inputs": [
        {
          "indexed": true,
          "internalType": "address",
          "name": "owner",
          "type": "address"
        },
        {
          "indexed": true,
          "internalType": "address",
          "name": "approved",
          "type": "address"
        },
        {
          "indexed": true,
          "internalType": "uint256",
          "name": "tokenId",
          "type": "uint256"
        }
      ],
      "name": "Approval",
      "type": "event"
    },
    {
      "anonymous": false,
      "inputs": [
        {
          "indexed": true,
          "internalType": "address",
          "name": "owner",
          "type": "address"
        },
        {
          "indexed": true,
          "internalType": "address",
          "name": "operator",
          "type": "address"
        },
        {
          "indexed": false,
          "internalType": "bool",
          "name": "approved",
          "type": "bool"
        }
      ],
      "name": "ApprovalForAll",
      "type": "event"
    },
    {
      "anonymous": false,
      "inputs": [
        {
          "indexed": true,
          "internalType": "address",
          "name": "previousOwner",
          "type": "address"
        },
        {
          "indexed": true,
          "internalType": "address",
          "name": "newOwner",
          "type": "address"
        }
      ],
      "name": "OwnershipTransferred",
      "type": "event"
    },
    {
      "anonymous": false,
      "inputs": [
        {
          "indexed": false,
          "internalType": "address",
          "name": "account",
          "type": "address"
        }
      ],
      "name": "Paused",
      "type": "event"
    },
    {
      "anonymous": false,
      "inputs": [
        {
          "indexed": true,
          "internalType": "uint256",
          "name": "tokenid",
          "type": "uint256"
        }
      ],
      "name": "TokenBurn",
      "type": "event"
    },
    {
      "anonymous": false,
      "inputs": [
        {
          "indexed": true,
          "internalType": "uint256",
          "name": "tokenid",
          "type": "uint256"
        },
        {
          "indexed": true,
          "internalType": "address",
          "name": "designer",
          "type": "address"
        },
        {
          "indexed": true,
          "internalType": "address",
          "name": "to",
          "type": "address"
        },
        {
          "indexed": false,
          "internalType": "string",
          "name": "uri",
          "type": "string"
        }
      ],
      "name": "TokenMint",
      "type": "event"
    },
    {
      "anonymous": false,
      "inputs": [
        {
          "indexed": true,
          "internalType": "address",
          "name": "from",
          "type": "address"
        },
        {
          "indexed": true,
          "internalType": "address",
          "name": "to",
          "type": "address"
        },
        {
          "indexed": true,
          "internalType": "uint256",
          "name": "tokenId",
          "type": "uint256"
        }
      ],
      "name": "Transfer",
      "type": "event"
    },
    {
      "anonymous": false,
      "inputs": [
        {
          "indexed": false,
          "internalType": "address",
          "name": "account",
          "type": "address"
        }
      ],
      "name": "Unpaused",
      "type": "event"
    },
    {
      "inputs": [
        {
          "internalType": "address",
          "name": "_addWho",
          "type": "address"
        }
      ],
      "name": "addFreeGasList",
      "outputs": [
        {
          "internalType": "bool",
          "name": "",
          "type": "bool"
        }
      ],
      "stateMutability": "nonpayable",
      "type": "function"
    },
    {
      "inputs": [
        {
          "internalType": "address",
          "name": "_addWhitelist",
          "type": "address"
        }
      ],
      "name": "addWhiteList",
      "outputs": [
        {
          "internalType": "bool",
          "name": "",
          "type": "bool"
        }
      ],
      "stateMutability": "nonpayable",
      "type": "function"
    },
    {
      "inputs": [
        {
          "internalType": "address",
          "name": "to",
          "type": "address"
        },
        {
          "internalType": "uint256",
          "name": "tokenId",
          "type": "uint256"
        }
      ],
      "name": "approve",
      "outputs": [],
      "stateMutability": "nonpayable",
      "type": "function"
    },
    {
      "inputs": [
        {
          "internalType": "address",
          "name": "owner",
          "type": "address"
        }
      ],
      "name": "balanceOf",
      "outputs": [
        {
          "internalType": "uint256",
          "name": "",
          "type": "uint256"
        }
      ],
      "stateMutability": "view",
      "type": "function"
    },
    {
      "inputs": [
        {
          "internalType": "uint256",
          "name": "tokenId",
          "type": "uint256"
        }
      ],
      "name": "burn",
      "outputs": [],
      "stateMutability": "nonpayable",
      "type": "function"
    },
    {
      "inputs": [
        {
          "internalType": "address",
          "name": "_delWho",
          "type": "address"
        }
      ],
      "name": "delFreeGasList",
      "outputs": [
        {
          "internalType": "bool",
          "name": "",
          "type": "bool"
        }
      ],
      "stateMutability": "nonpayable",
      "type": "function"
    },
    {
      "inputs": [
        {
          "internalType": "address",
          "name": "_delWhiteList",
          "type": "address"
        }
      ],
      "name": "delWhiteList",
      "outputs": [
        {
          "internalType": "bool",
          "name": "",
          "type": "bool"
        }
      ],
      "stateMutability": "nonpayable",
      "type": "function"
    },
    {
      "inputs": [],
      "name": "did",
      "outputs": [
        {
          "internalType": "string",
          "name": "",
          "type": "string"
        }
      ],
      "stateMutability": "view",
      "type": "function"
    },
    {
      "inputs": [
        {
          "internalType": "uint256",
          "name": "_tokenid",
          "type": "uint256"
        }
      ],
      "name": "disigner",
      "outputs": [
        {
          "internalType": "address",
          "name": "",
          "type": "address"
        }
      ],
      "stateMutability": "view",
      "type": "function"
    },
    {
      "inputs": [
        {
          "internalType": "uint256",
          "name": "amount",
          "type": "uint256"
        }
      ],
      "name": "emergencyNative",
      "outputs": [],
      "stateMutability": "nonpayable",
      "type": "function"
    },
    {
      "inputs": [
        {
          "internalType": "address",
          "name": "_token",
          "type": "address"
        }
      ],
      "name": "emergencyWithdraw",
      "outputs": [],
      "stateMutability": "nonpayable",
      "type": "function"
    },
    {
      "inputs": [
        {
          "internalType": "uint256",
          "name": "",
          "type": "uint256"
        }
      ],
      "name": "futureRoyalty",
      "outputs": [
        {
          "internalType": "uint256",
          "name": "",
          "type": "uint256"
        }
      ],
      "stateMutability": "view",
      "type": "function"
    },
    {
      "inputs": [],
      "name": "gasCollector",
      "outputs": [
        {
          "internalType": "address",
          "name": "",
          "type": "address"
        }
      ],
      "stateMutability": "view",
      "type": "function"
    },
    {
      "inputs": [],
      "name": "gasFee",
      "outputs": [
        {
          "internalType": "uint256",
          "name": "",
          "type": "uint256"
        }
      ],
      "stateMutability": "view",
      "type": "function"
    },
    {
      "inputs": [],
      "name": "gasToken",
      "outputs": [
        {
          "internalType": "address",
          "name": "",
          "type": "address"
        }
      ],
      "stateMutability": "view",
      "type": "function"
    },
    {
      "inputs": [
        {
          "internalType": "uint256",
          "name": "tokenId",
          "type": "uint256"
        }
      ],
      "name": "getApproved",
      "outputs": [
        {
          "internalType": "address",
          "name": "",
          "type": "address"
        }
      ],
      "stateMutability": "view",
      "type": "function"
    },
    {
      "inputs": [
        {
          "internalType": "uint256",
          "name": "_index",
          "type": "uint256"
        }
      ],
      "name": "getFreeGas",
      "outputs": [
        {
          "internalType": "address",
          "name": "",
          "type": "address"
        }
      ],
      "stateMutability": "view",
      "type": "function"
    },
    {
      "inputs": [],
      "name": "getFreeGasLength",
      "outputs": [
        {
          "internalType": "uint256",
          "name": "",
          "type": "uint256"
        }
      ],
      "stateMutability": "view",
      "type": "function"
    },
    {
      "inputs": [
        {
          "internalType": "uint256",
          "name": "_index",
          "type": "uint256"
        }
      ],
      "name": "getWhiteList",
      "outputs": [
        {
          "internalType": "address",
          "name": "",
          "type": "address"
        }
      ],
      "stateMutability": "view",
      "type": "function"
    },
    {
      "inputs": [],
      "name": "getWhiteListLength",
      "outputs": [
        {
          "internalType": "uint256",
          "name": "",
          "type": "uint256"
        }
      ],
      "stateMutability": "view",
      "type": "function"
    },
    {
      "inputs": [
        {
          "internalType": "address",
          "name": "account",
          "type": "address"
        }
      ],
      "name": "inFreeGasList",
      "outputs": [
        {
          "internalType": "bool",
          "name": "",
          "type": "bool"
        }
      ],
      "stateMutability": "view",
      "type": "function"
    },
    {
      "inputs": [
        {
          "internalType": "address",
          "name": "account",
          "type": "address"
        }
      ],
      "name": "inWhiteList",
      "outputs": [
        {
          "internalType": "bool",
          "name": "",
          "type": "bool"
        }
      ],
      "stateMutability": "view",
      "type": "function"
    },
    {
      "inputs": [
        {
          "internalType": "address",
          "name": "owner",
          "type": "address"
        },
        {
          "internalType": "address",
          "name": "operator",
          "type": "address"
        }
      ],
      "name": "isApprovedForAll",
      "outputs": [
        {
          "internalType": "bool",
          "name": "",
          "type": "bool"
        }
      ],
      "stateMutability": "view",
      "type": "function"
    },
    {
      "inputs": [
        {
          "internalType": "address",
          "name": "designer",
          "type": "address"
        },
        {
          "internalType": "address",
          "name": "to",
          "type": "address"
        },
        {
          "internalType": "uint256[]",
          "name": "_futureRoyaltys",
          "type": "uint256[]"
        },
        {
          "internalType": "string[]",
          "name": "uris",
          "type": "string[]"
        }
      ],
      "name": "mint",
      "outputs": [
        {
          "internalType": "uint256[]",
          "name": "tokenids",
          "type": "uint256[]"
        }
      ],
      "stateMutability": "nonpayable",
      "type": "function"
    },
    {
      "inputs": [],
      "name": "mintMax",
      "outputs": [
        {
          "internalType": "uint256",
          "name": "",
          "type": "uint256"
        }
      ],
      "stateMutability": "view",
      "type": "function"
    },
    {
      "inputs": [],
      "name": "name",
      "outputs": [
        {
          "internalType": "string",
          "name": "",
          "type": "string"
        }
      ],
      "stateMutability": "view",
      "type": "function"
    },
    {
      "inputs": [],
      "name": "ngo",
      "outputs": [
        {
          "internalType": "address",
          "name": "",
          "type": "address"
        }
      ],
      "stateMutability": "view",
      "type": "function"
    },
    {
      "inputs": [],
      "name": "ngowallet",
      "outputs": [
        {
          "internalType": "address",
          "name": "",
          "type": "address"
        }
      ],
      "stateMutability": "view",
      "type": "function"
    },
    {
      "inputs": [],
      "name": "owner",
      "outputs": [
        {
          "internalType": "address",
          "name": "",
          "type": "address"
        }
      ],
      "stateMutability": "view",
      "type": "function"
    },
    {
      "inputs": [
        {
          "internalType": "uint256",
          "name": "tokenId",
          "type": "uint256"
        }
      ],
      "name": "ownerOf",
      "outputs": [
        {
          "internalType": "address",
          "name": "",
          "type": "address"
        }
      ],
      "stateMutability": "view",
      "type": "function"
    },
    {
      "inputs": [],
      "name": "pause",
      "outputs": [],
      "stateMutability": "nonpayable",
      "type": "function"
    },
    {
      "inputs": [],
      "name": "paused",
      "outputs": [
        {
          "internalType": "bool",
          "name": "",
          "type": "bool"
        }
      ],
      "stateMutability": "view",
      "type": "function"
    },
    {
      "inputs": [],
      "name": "renounceOwnership",
      "outputs": [],
      "stateMutability": "nonpayable",
      "type": "function"
    },
    {
      "inputs": [
        {
          "internalType": "address",
          "name": "from",
          "type": "address"
        },
        {
          "internalType": "address",
          "name": "to",
          "type": "address"
        },
        {
          "internalType": "uint256",
          "name": "tokenId",
          "type": "uint256"
        }
      ],
      "name": "safeTransferFrom",
      "outputs": [],
      "stateMutability": "nonpayable",
      "type": "function"
    },
    {
      "inputs": [
        {
          "internalType": "address",
          "name": "from",
          "type": "address"
        },
        {
          "internalType": "address",
          "name": "to",
          "type": "address"
        },
        {
          "internalType": "uint256",
          "name": "tokenId",
          "type": "uint256"
        },
        {
          "internalType": "bytes",
          "name": "_data",
          "type": "bytes"
        }
      ],
      "name": "safeTransferFrom",
      "outputs": [],
      "stateMutability": "nonpayable",
      "type": "function"
    },
    {
      "inputs": [
        {
          "internalType": "address",
          "name": "operator",
          "type": "address"
        },
        {
          "internalType": "bool",
          "name": "approved",
          "type": "bool"
        }
      ],
      "name": "setApprovalForAll",
      "outputs": [],
      "stateMutability": "nonpayable",
      "type": "function"
    },
    {
      "inputs": [
        {
          "internalType": "uint256",
          "name": "_tokenid",
          "type": "uint256"
        },
        {
          "internalType": "uint256",
          "name": "_futureRoyalty",
          "type": "uint256"
        }
      ],
      "name": "setFutureRoyalty",
      "outputs": [],
      "stateMutability": "nonpayable",
      "type": "function"
    },
    {
      "inputs": [
        {
          "internalType": "address",
          "name": "_gasToken",
          "type": "address"
        },
        {
          "internalType": "uint256",
          "name": "_gasFee",
          "type": "uint256"
        }
      ],
      "name": "setGasConfig",
      "outputs": [],
      "stateMutability": "nonpayable",
      "type": "function"
    },
    {
      "inputs": [
        {
          "internalType": "uint256",
          "name": "newMintMax",
          "type": "uint256"
        }
      ],
      "name": "setMintMax",
      "outputs": [],
      "stateMutability": "nonpayable",
      "type": "function"
    },
    {
      "inputs": [
        {
          "internalType": "address",
          "name": "_ngo",
          "type": "address"
        }
      ],
      "name": "setNgo",
      "outputs": [],
      "stateMutability": "nonpayable",
      "type": "function"
    },
    {
      "inputs": [
        {
          "internalType": "address",
          "name": "_ngowallet",
          "type": "address"
        }
      ],
      "name": "setNgoWallet",
      "outputs": [],
      "stateMutability": "nonpayable",
      "type": "function"
    },
    {
      "inputs": [
        {
          "internalType": "bytes4",
          "name": "interfaceId",
          "type": "bytes4"
        }
      ],
      "name": "supportsInterface",
      "outputs": [
        {
          "internalType": "bool",
          "name": "",
          "type": "bool"
        }
      ],
      "stateMutability": "view",
      "type": "function"
    },
    {
      "inputs": [],
      "name": "symbol",
      "outputs": [
        {
          "internalType": "string",
          "name": "",
          "type": "string"
        }
      ],
      "stateMutability": "view",
      "type": "function"
    },
    {
      "inputs": [
        {
          "internalType": "uint256",
          "name": "index",
          "type": "uint256"
        }
      ],
      "name": "tokenByIndex",
      "outputs": [
        {
          "internalType": "uint256",
          "name": "",
          "type": "uint256"
        }
      ],
      "stateMutability": "view",
      "type": "function"
    },
    {
      "inputs": [
        {
          "internalType": "address",
          "name": "owner",
          "type": "address"
        },
        {
          "internalType": "uint256",
          "name": "index",
          "type": "uint256"
        }
      ],
      "name": "tokenOfOwnerByIndex",
      "outputs": [
        {
          "internalType": "uint256",
          "name": "",
          "type": "uint256"
        }
      ],
      "stateMutability": "view",
      "type": "function"
    },
    {
      "inputs": [
        {
          "internalType": "uint256",
          "name": "tokenId",
          "type": "uint256"
        }
      ],
      "name": "tokenURI",
      "outputs": [
        {
          "internalType": "string",
          "name": "",
          "type": "string"
        }
      ],
      "stateMutability": "view",
      "type": "function"
    },
    {
      "inputs": [],
      "name": "totalSupply",
      "outputs": [
        {
          "internalType": "uint256",
          "name": "",
          "type": "uint256"
        }
      ],
      "stateMutability": "view",
      "type": "function"
    },
    {
      "inputs": [
        {
          "internalType": "address",
          "name": "from",
          "type": "address"
        },
        {
          "internalType": "address",
          "name": "to",
          "type": "address"
        },
        {
          "internalType": "uint256",
          "name": "tokenId",
          "type": "uint256"
        }
      ],
      "name": "transferFrom",
      "outputs": [],
      "stateMutability": "nonpayable",
      "type": "function"
    },
    {
      "inputs": [
        {
          "internalType": "address",
          "name": "newOwner",
          "type": "address"
        }
      ],
      "name": "transferOwnership",
      "outputs": [],
      "stateMutability": "nonpayable",
      "type": "function"
    },
    {
      "inputs": [],
      "name": "unpause",
      "outputs": [],
      "stateMutability": "nonpayable",
      "type": "function"
    }
  ],
  "bytecode": "0x608060405260646018553480156200001657600080fd5b50604051620038b3380380620038b38339810160408190526200003991620002b2565b84846200004633620000d2565b6000805460ff60a01b1916905581516200006890600190602085019062000122565b5080516200007e90600290602084019062000122565b5050600b80546001600160a01b038087166001600160a01b031992831617909255600d805492861692909116919091179055508051620000c690600c90602084019062000122565b505050505050620003a6565b600080546001600160a01b038381166001600160a01b0319831681178455604051919092169283917f8be0079c531659141344cd1fd0a4f28419497f9722a3daafe3b4186f6b6457e09190a35050565b828054620001309062000369565b90600052602060002090601f0160209004810192826200015457600085556200019f565b82601f106200016f57805160ff19168380011785556200019f565b828001600101855582156200019f579182015b828111156200019f57825182559160200191906001019062000182565b50620001ad929150620001b1565b5090565b5b80821115620001ad5760008155600101620001b2565b634e487b7160e01b600052604160045260246000fd5b600082601f830112620001f057600080fd5b81516001600160401b03808211156200020d576200020d620001c8565b604051601f8301601f19908116603f01168101908282118183101715620002385762000238620001c8565b816040528381526020925086838588010111156200025557600080fd5b600091505b838210156200027957858201830151818301840152908201906200025a565b838211156200028b5760008385830101525b9695505050505050565b80516001600160a01b0381168114620002ad57600080fd5b919050565b600080600080600060a08688031215620002cb57600080fd5b85516001600160401b0380821115620002e357600080fd5b620002f189838a01620001de565b965060208801519150808211156200030857600080fd5b6200031689838a01620001de565b9550620003266040890162000295565b9450620003366060890162000295565b935060808801519150808211156200034d57600080fd5b506200035c88828901620001de565b9150509295509295909350565b600181811c908216806200037e57607f821691505b60208210811415620003a057634e487b7160e01b600052602260045260246000fd5b50919050565b6134fd80620003b66000396000f3fe608060405234801561001057600080fd5b50600436106102d65760003560e01c806372e9188b11610182578063b9364a90116100e9578063c91d59fe116100a2578063e7cd4a041161007c578063e7cd4a041461062b578063e985e9c51461063e578063f2fde38b1461067a578063f90dbf431461068d57600080fd5b8063c91d59fe146105fd578063ca2331fd14610610578063e6fcc84b1461062357600080fd5b8063b9364a90146105a1578063bb72ce42146105a9578063c042ec05146105b1578063c5190d03146105c4578063c80553f5146105d7578063c87b56dd146105ea57600080fd5b80639d9560071161013b5780639d9560071461052f578063a113074b14610542578063a22cb46514610555578063aa44a6b514610568578063afc3cb491461057b578063b88d4fde1461058e57600080fd5b806372e9188b146104d55780638456cb59146104e8578063892b5007146104f05780638da5cb5b1461050357806395d89b41146105145780639b1879bc1461051c57600080fd5b806342966c68116102415780636352211e116101fa57806369e0e346116101d457806369e0e346146104945780636ff1c9bc146104a757806370a08231146104ba578063715018a6146104cd57600080fd5b80636352211e14610465578063658612e914610478578063696ac24d1461048157600080fd5b806342966c68146103f1578063448177e8146104045780634d155561146104245780634f6ccce71461042d5780635c975abb14610440578063605e5ee11461045257600080fd5b806323b872dd1161029357806323b872dd1461037d5780632c776143146103905780632eb5eca6146103a35780632f745c59146103c35780633f4ba83a146103d657806342842e0e146103de57600080fd5b806301ffc9a7146102db57806306fdde0314610303578063081812fc14610318578063095ea7b31461034357806318160ddd1461035857806319bb03af1461036a575b600080fd5b6102ee6102e9366004612d6c565b6106a0565b60405190151581526020015b60405180910390f35b61030b6106cb565b6040516102fa9190612de1565b61032b610326366004612df4565b61075d565b6040516001600160a01b0390911681526020016102fa565b610356610351366004612e24565b6107ea565b005b6009545b6040519081526020016102fa565b610356610378366004612e4e565b610900565b61035661038b366004612e69565b61094c565b6102ee61039e366004612e4e565b61097d565b61035c6103b1366004612df4565b60116020526000908152604090205481565b61035c6103d1366004612e24565b610a0e565b610356610aa4565b6103566103ec366004612e69565b610ad8565b6103566103ff366004612df4565b610af3565b61041761041236600461300d565b610bec565b6040516102fa91906130e9565b61035c60185481565b61035c61043b366004612df4565b610ede565b600054600160a01b900460ff166102ee565b6102ee610460366004612e4e565b610f71565b61032b610473366004612df4565b610ffd565b61035c600f5481565b61035661048f36600461312d565b611074565b6102ee6104a2366004612e4e565b6110b0565b6103566104b5366004612e4e565b6110bd565b61035c6104c8366004612e4e565b611284565b61035661130b565b6103566104e3366004612df4565b61133f565b610356611376565b60105461032b906001600160a01b031681565b6000546001600160a01b031661032b565b61030b6113a8565b600d5461032b906001600160a01b031681565b61032b61053d366004612df4565b6113b7565b600b5461032b906001600160a01b031681565b61035661056336600461315d565b6113f6565b61032b610576366004612df4565b611401565b610356610589366004612df4565b611437565b61035661059c366004613194565b611466565b61035c61149e565b61035c6114af565b6102ee6105bf366004612e4e565b6114bb565b6102ee6105d2366004612e4e565b6114c8565b6103566105e5366004612e24565b611554565b61030b6105f8366004612df4565b6115a4565b600e5461032b906001600160a01b031681565b61035661061e366004612e4e565b611713565b61030b61175f565b6102ee610639366004612e4e565b6117ed565b6102ee61064c366004613204565b6001600160a01b03918216600090815260066020908152604080832093909416825291909152205460ff1690565b610356610688366004612e4e565b611879565b61032b61069b366004612df4565b611911565b60006001600160e01b0319821663780e9d6360e01b14806106c557506106c582611947565b92915050565b6060600180546106da90613237565b80601f016020809104026020016040519081016040528092919081815260200182805461070690613237565b80156107535780601f1061072857610100808354040283529160200191610753565b820191906000526020600020905b81548152906001019060200180831161073657829003601f168201915b5050505050905090565b600061076882611997565b6107ce5760405162461bcd60e51b815260206004820152602c60248201527f4552433732313a20617070726f76656420717565727920666f72206e6f6e657860448201526b34b9ba32b73a103a37b5b2b760a11b60648201526084015b60405180910390fd5b506000908152600560205260409020546001600160a01b031690565b60006107f582610ffd565b9050806001600160a01b0316836001600160a01b031614156108635760405162461bcd60e51b815260206004820152602160248201527f4552433732313a20617070726f76616c20746f2063757272656e74206f776e656044820152603960f91b60648201526084016107c5565b336001600160a01b038216148061087f575061087f813361064c565b6108f15760405162461bcd60e51b815260206004820152603860248201527f4552433732313a20617070726f76652063616c6c6572206973206e6f74206f7760448201527f6e6572206e6f7220617070726f76656420666f7220616c6c000000000000000060648201526084016107c5565b6108fb83836119b4565b505050565b6000546001600160a01b0316331461092a5760405162461bcd60e51b81526004016107c590613272565b600d80546001600160a01b0319166001600160a01b0392909216919091179055565b6109563382611a22565b6109725760405162461bcd60e51b81526004016107c5906132a7565b6108fb838383611b0b565b600080546001600160a01b031633146109a85760405162461bcd60e51b81526004016107c590613272565b6001600160a01b0382166109fe5760405162461bcd60e51b815260206004820152601e60248201527f5f64656c4d696e74657220697320746865207a65726f2061646472657373000060448201526064016107c5565b6106c5601283611cb2565b919050565b6000610a1983611284565b8210610a7b5760405162461bcd60e51b815260206004820152602b60248201527f455243373231456e756d657261626c653a206f776e657220696e646578206f7560448201526a74206f6620626f756e647360a81b60648201526084016107c5565b506001600160a01b03919091166000908152600760209081526040808320938352929052205490565b6000546001600160a01b03163314610ace5760405162461bcd60e51b81526004016107c590613272565b610ad6611cce565b565b6108fb83838360405180602001604052806000815250611466565b610afc336110b0565b610b485760405162461bcd60e51b815260206004820152601a60248201527f63616c6c6572206973206e6f7420696e2077686974656c69737400000000000060448201526064016107c5565b600054600160a01b900460ff1615610b725760405162461bcd60e51b81526004016107c5906132f8565b610b7b81611d6b565b610b86601982611e12565b5060008181526014602052604090208054610ba090613237565b159050610bbe576000818152601460205260408120610bbe91612c83565b60405181907ff46d91f49abfdfcdc8a0dd76c1e554863a831836c4439af8ff09c13d34b3086390600090a250565b6060610bf7336110b0565b610c435760405162461bcd60e51b815260206004820152601a60248201527f63616c6c6572206973206e6f7420696e2077686974656c69737400000000000060448201526064016107c5565b600054600160a01b900460ff1615610c6d5760405162461bcd60e51b81526004016107c5906132f8565b82516018548110610cce5760405162461bcd60e51b815260206004820152602560248201527f4d6178696d756d20616c6c6f776564206d696e747320666f7220747820657863604482015264195959195960da1b60648201526084016107c5565b60008111610d1e5760405162461bcd60e51b815260206004820152601860248201527f4d696e74436f756e742063616e6e6f74206265207a65726f000000000000000060448201526064016107c5565b82518114610d625760405162461bcd60e51b8152602060048201526011602482015270081b195b99dd1a081b9bdd08195c5d585b607a1b60448201526064016107c5565b60008167ffffffffffffffff811115610d7d57610d7d612ea5565b604051908082528060200260200182016040528015610da6578160200160208202803683370190505b50905060005b82811015610ed157610dc2601780546001019055565b6000610dcd60175490565b9050610dd98882611e1e565b610dfc81878481518110610def57610def613322565b6020026020010151611f5d565b610e086019828b611fe8565b5080838381518110610e1c57610e1c613322565b602002602001018181525050868281518110610e3a57610e3a613322565b60200260200101516011600083815260200190815260200160002081905550876001600160a01b0316896001600160a01b0316827f36a5cd6a1eed628b2f2c75fd94cbd7b78fbd1b99463ed8154794e15c05f528fb898681518110610ea157610ea1613322565b6020026020010151604051610eb69190612de1565b60405180910390a45080610ec98161334e565b915050610dac565b509150505b949350505050565b6000610ee960095490565b8210610f4c5760405162461bcd60e51b815260206004820152602c60248201527f455243373231456e756d657261626c653a20676c6f62616c20696e646578206f60448201526b7574206f6620626f756e647360a01b60648201526084016107c5565b60098281548110610f5f57610f5f613322565b90600052602060002001549050919050565b600080546001600160a01b03163314610f9c5760405162461bcd60e51b81526004016107c590613272565b6001600160a01b038216610ff25760405162461bcd60e51b815260206004820152601e60248201527f5f64656c4d696e74657220697320746865207a65726f2061646472657373000060448201526064016107c5565b6106c5601583611cb2565b6000818152600360205260408120546001600160a01b0316806106c55760405162461bcd60e51b815260206004820152602960248201527f4552433732313a206f776e657220717565727920666f72206e6f6e657869737460448201526832b73a103a37b5b2b760b91b60648201526084016107c5565b6000546001600160a01b0316331461109e5760405162461bcd60e51b81526004016107c590613272565b60009182526011602052604090912055565b60006106c5601583611ffe565b6000546001600160a01b031633146110e75760405162461bcd60e51b81526004016107c590613272565b6040516370a0823160e01b81523060048201526000906001600160a01b038316906370a0823190602401602060405180830381865afa15801561112e573d6000803e3d6000fd5b505050506040513d601f19601f820116820180604052508101906111529190613369565b1161119f5760405162461bcd60e51b815260206004820152601d60248201527f496e73756666696369656e7420636f6e74726163742062616c616e636500000060448201526064016107c5565b6040516370a0823160e01b81523060048201526001600160a01b0382169063a9059cbb90339083906370a0823190602401602060405180830381865afa1580156111ed573d6000803e3d6000fd5b505050506040513d601f19601f820116820180604052508101906112119190613369565b6040516001600160e01b031960e085901b1681526001600160a01b03909216600483015260248201526044016020604051808303816000875af115801561125c573d6000803e3d6000fd5b505050506040513d601f19601f820116820180604052508101906112809190613382565b5050565b60006001600160a01b0382166112ef5760405162461bcd60e51b815260206004820152602a60248201527f4552433732313a2062616c616e636520717565727920666f7220746865207a65604482015269726f206164647265737360b01b60648201526084016107c5565b506001600160a01b031660009081526004602052604090205490565b6000546001600160a01b031633146113355760405162461bcd60e51b81526004016107c590613272565b610ad66000612020565b6000546001600160a01b031633146113695760405162461bcd60e51b81526004016107c590613272565b6113733382612070565b50565b6000546001600160a01b031633146113a05760405162461bcd60e51b81526004016107c590613272565b610ad661213c565b6060600280546106da90613237565b60006106c5826040518060400160405280600f81526020016e1d1bdad95b881b9bdd08199bdd5b99608a1b81525060196121a19092919063ffffffff16565b6112803383836121ae565b600080546001600160a01b0316331461142c5760405162461bcd60e51b81526004016107c590613272565b6106c560158361227d565b6000546001600160a01b031633146114615760405162461bcd60e51b81526004016107c590613272565b601855565b6114703383611a22565b61148c5760405162461bcd60e51b81526004016107c5906132a7565b61149884848484612289565b50505050565b60006114aa601261230b565b905090565b60006114aa601561230b565b60006106c5601283611ffe565b600080546001600160a01b031633146114f35760405162461bcd60e51b81526004016107c590613272565b6001600160a01b0382166115495760405162461bcd60e51b815260206004820152601e60248201527f5f6164644d696e74657220697320746865207a65726f2061646472657373000060448201526064016107c5565b6106c5601283612315565b6000546001600160a01b0316331461157e5760405162461bcd60e51b81526004016107c590613272565b600e80546001600160a01b0319166001600160a01b039390931692909217909155600f55565b60606115af82611997565b6116155760405162461bcd60e51b815260206004820152603160248201527f45524337323155524953746f726167653a2055524920717565727920666f72206044820152703737b732bc34b9ba32b73a103a37b5b2b760791b60648201526084016107c5565b6000828152601460205260408120805461162e90613237565b80601f016020809104026020016040519081016040528092919081815260200182805461165a90613237565b80156116a75780601f1061167c576101008083540402835291602001916116a7565b820191906000526020600020905b81548152906001019060200180831161168a57829003601f168201915b5050505050905060006116c560408051602081019091526000815290565b90508051600014156116d8575092915050565b81511561170a5780826040516020016116f292919061339f565b60405160208183030381529060405292505050919050565b610ed68461232a565b6000546001600160a01b0316331461173d5760405162461bcd60e51b81526004016107c590613272565b600b80546001600160a01b0319166001600160a01b0392909216919091179055565b600c805461176c90613237565b80601f016020809104026020016040519081016040528092919081815260200182805461179890613237565b80156117e55780601f106117ba576101008083540402835291602001916117e5565b820191906000526020600020905b8154815290600101906020018083116117c857829003601f168201915b505050505081565b600080546001600160a01b031633146118185760405162461bcd60e51b81526004016107c590613272565b6001600160a01b03821661186e5760405162461bcd60e51b815260206004820152601e60248201527f5f6164644d696e74657220697320746865207a65726f2061646472657373000060448201526064016107c5565b6106c5601583612315565b6000546001600160a01b031633146118a35760405162461bcd60e51b81526004016107c590613272565b6001600160a01b0381166119085760405162461bcd60e51b815260206004820152602660248201527f4f776e61626c653a206e6577206f776e657220697320746865207a65726f206160448201526564647265737360d01b60648201526084016107c5565b61137381612020565b600080546001600160a01b0316331461193c5760405162461bcd60e51b81526004016107c590613272565b6106c560128361227d565b60006001600160e01b031982166380ac58cd60e01b148061197857506001600160e01b03198216635b5e139f60e01b145b806106c557506301ffc9a760e01b6001600160e01b03198316146106c5565b6000908152600360205260409020546001600160a01b0316151590565b600081815260056020526040902080546001600160a01b0319166001600160a01b03841690811790915581906119e982610ffd565b6001600160a01b03167f8c5be1e5ebec7d5bd14f71427d1e84f3dd0314c0f7b2291e5b200ac8c7c3b92560405160405180910390a45050565b6000611a2d82611997565b611a8e5760405162461bcd60e51b815260206004820152602c60248201527f4552433732313a206f70657261746f7220717565727920666f72206e6f6e657860448201526b34b9ba32b73a103a37b5b2b760a11b60648201526084016107c5565b6000611a9983610ffd565b9050806001600160a01b0316846001600160a01b03161480611ae057506001600160a01b0380821660009081526006602090815260408083209388168352929052205460ff165b80610ed65750836001600160a01b0316611af98461075d565b6001600160a01b031614949350505050565b826001600160a01b0316611b1e82610ffd565b6001600160a01b031614611b825760405162461bcd60e51b815260206004820152602560248201527f4552433732313a207472616e736665722066726f6d20696e636f72726563742060448201526437bbb732b960d91b60648201526084016107c5565b6001600160a01b038216611be45760405162461bcd60e51b8152602060048201526024808201527f4552433732313a207472616e7366657220746f20746865207a65726f206164646044820152637265737360e01b60648201526084016107c5565b611bef838383612401565b611bfa6000826119b4565b6001600160a01b0383166000908152600460205260408120805460019290611c239084906133ce565b90915550506001600160a01b0382166000908152600460205260408120805460019290611c519084906133e5565b909155505060008181526003602052604080822080546001600160a01b0319166001600160a01b0386811691821790925591518493918716917fddf252ad1be2c89b69c2b068fc378daa952ba7f163c4a11628f55a4df523b3ef91a4505050565b6000611cc7836001600160a01b03841661248e565b9392505050565b600054600160a01b900460ff16611d1e5760405162461bcd60e51b815260206004820152601460248201527314185d5cd8589b194e881b9bdd081c185d5cd95960621b60448201526064016107c5565b6000805460ff60a01b191690557f5db9ee0a495bf2e6ff9c91a7834c1ba4fdd244a5e8aa4e537bd38aeae4b073aa335b6040516001600160a01b03909116815260200160405180910390a1565b6000611d7682610ffd565b9050611d8481600084612401565b611d8f6000836119b4565b6001600160a01b0381166000908152600460205260408120805460019290611db89084906133ce565b909155505060008281526003602052604080822080546001600160a01b0319169055518391906001600160a01b038416907fddf252ad1be2c89b69c2b068fc378daa952ba7f163c4a11628f55a4df523b3ef908390a45050565b6000611cc78383612581565b6001600160a01b038216611e745760405162461bcd60e51b815260206004820181905260248201527f4552433732313a206d696e7420746f20746865207a65726f206164647265737360448201526064016107c5565b611e7d81611997565b15611eca5760405162461bcd60e51b815260206004820152601c60248201527f4552433732313a20746f6b656e20616c7265616479206d696e7465640000000060448201526064016107c5565b611ed660008383612401565b6001600160a01b0382166000908152600460205260408120805460019290611eff9084906133e5565b909155505060008181526003602052604080822080546001600160a01b0319166001600160a01b03861690811790915590518392907fddf252ad1be2c89b69c2b068fc378daa952ba7f163c4a11628f55a4df523b3ef908290a45050565b611f6682611997565b611fc95760405162461bcd60e51b815260206004820152602e60248201527f45524337323155524953746f726167653a2055524920736574206f66206e6f6e60448201526d32bc34b9ba32b73a103a37b5b2b760911b60648201526084016107c5565b600082815260146020908152604090912082516108fb92840190612cbd565b6000610ed684846001600160a01b03851661259e565b6001600160a01b03811660009081526001830160205260408120541515611cc7565b600080546001600160a01b038381166001600160a01b0319831681178455604051919092169283917f8be0079c531659141344cd1fd0a4f28419497f9722a3daafe3b4186f6b6457e09190a35050565b604080516000808252602082019092526001600160a01b03841690839060405161209a91906133fd565b60006040518083038185875af1925050503d80600081146120d7576040519150601f19603f3d011682016040523d82523d6000602084013e6120dc565b606091505b50509050806108fb5760405162461bcd60e51b815260206004820152602660248201527f5472616e7366657248656c7065723a204e61746976655f5452414e534645525f60448201526511905253115160d21b60648201526084016107c5565b600054600160a01b900460ff16156121665760405162461bcd60e51b81526004016107c5906132f8565b6000805460ff60a01b1916600160a01b1790557f62e78cea01bee320cd4e420270b5ea74000d11b0c9f74754ebdbfc544b05a258611d4e3390565b6000610ed68484846125bb565b816001600160a01b0316836001600160a01b031614156122105760405162461bcd60e51b815260206004820152601960248201527f4552433732313a20617070726f766520746f2063616c6c65720000000000000060448201526064016107c5565b6001600160a01b03838116600081815260066020908152604080832094871680845294825291829020805460ff191686151590811790915591519182527f17307eab39ab6107e8899845ad3d59bd9653f200f220920489ca2b5937696c31910160405180910390a3505050565b6000611cc78383612607565b612294848484611b0b565b6122a084848484612631565b6114985760405162461bcd60e51b815260206004820152603660248201527f4552433732313a207472616e7366657220746f206e6f6e20455243373231526560448201527563656976657220696d706c656d656e7465722e33333360501b60648201526084016107c5565b60006106c5825490565b6000611cc7836001600160a01b038416612782565b606061233582611997565b6123995760405162461bcd60e51b815260206004820152602f60248201527f4552433732314d657461646174613a2055524920717565727920666f72206e6f60448201526e3732bc34b9ba32b73a103a37b5b2b760891b60648201526084016107c5565b60006123b060408051602081019091526000815290565b905060008151116123d05760405180602001604052806000815250611cc7565b806123da846127d1565b6040516020016123eb92919061339f565b6040516020818303038152906040529392505050565b600054600160a01b900460ff161561242b5760405162461bcd60e51b81526004016107c5906132f8565b612436601233611ffe565b15801561244557506000600f54115b801561245b5750600e546001600160a01b031615155b1561248357600e54601054600f54612483926001600160a01b039081169287929116906128cf565b6108fb8383836129ff565b600081815260018301602052604081205480156125775760006124b26001836133ce565b85549091506000906124c6906001906133ce565b905081811461252b5760008660000182815481106124e6576124e6613322565b906000526020600020015490508087600001848154811061250957612509613322565b6000918252602080832090910192909255918252600188019052604090208390555b855486908061253c5761253c613419565b6001900381819060005260206000200160009055905585600101600086815260200190815260200160002060009055600193505050506106c5565b60009150506106c5565b60008181526002830160205260408120819055611cc78383612ab7565b60008281526002840160205260408120829055610ed68484612ac3565b6000828152600284016020526040812054801515806125df57506125df8585612acf565b83906125fe5760405162461bcd60e51b81526004016107c59190612de1565b50949350505050565b600082600001828154811061261e5761261e613322565b9060005260206000200154905092915050565b60006001600160a01b0384163b1561277a57604051630a85bd0160e11b81526001600160a01b0385169063150b7a029061267590339089908890889060040161342f565b6020604051808303816000875af19250505080156126b0575060408051601f3d908101601f191682019092526126ad9181019061346c565b60015b612760573d8080156126de576040519150601f19603f3d011682016040523d82523d6000602084013e6126e3565b606091505b5080516127585760405162461bcd60e51b815260206004820152603760248201527f4552433732313a207472616e7366657220746f206e6f6e20455243373231526560448201527f63656976657220696d706c656d656e7465722e2e31313100000000000000000060648201526084016107c5565b805181602001fd5b6001600160e01b031916630a85bd0160e11b149050610ed6565b506001610ed6565b60008181526001830160205260408120546127c9575081546001818101845560008481526020808220909301849055845484825282860190935260409020919091556106c5565b5060006106c5565b6060816127f55750506040805180820190915260018152600360fc1b602082015290565b8160005b811561281f57806128098161334e565b91506128189050600a8361349f565b91506127f9565b60008167ffffffffffffffff81111561283a5761283a612ea5565b6040519080825280601f01601f191660200182016040528015612864576020820181803683370190505b5090505b8415610ed6576128796001836133ce565b9150612886600a866134b3565b6128919060306133e5565b60f81b8183815181106128a6576128a6613322565b60200101906001600160f81b031916908160001a9053506128c8600a8661349f565b9450612868565b604080516001600160a01b0385811660248301528481166044830152606480830185905283518084039091018152608490920183526020820180516001600160e01b03166323b872dd60e01b179052915160009283929088169161293391906133fd565b6000604051808303816000865af19150503d8060008114612970576040519150601f19603f3d011682016040523d82523d6000602084013e612975565b606091505b509150915081801561299f57508051158061299f57508080602001905181019061299f9190613382565b6129f75760405162461bcd60e51b8152602060048201526024808201527f5472616e7366657248656c7065723a205452414e534645525f46524f4d5f46416044820152631253115160e21b60648201526084016107c5565b505050505050565b6001600160a01b038316612a5a57612a5581600980546000838152600a60205260408120829055600182018355919091527f6e1540171b6c0c960b71a7020d9f60077f6af931a8bbf590da0223dacf75c7af0155565b612a7d565b816001600160a01b0316836001600160a01b031614612a7d57612a7d8382612adb565b6001600160a01b038216612a94576108fb81612b78565b826001600160a01b0316826001600160a01b0316146108fb576108fb8282612c27565b6000611cc7838361248e565b6000611cc78383612782565b6000611cc78383612c6b565b60006001612ae884611284565b612af291906133ce565b600083815260086020526040902054909150808214612b45576001600160a01b03841660009081526007602090815260408083208584528252808320548484528184208190558352600890915290208190555b5060009182526008602090815260408084208490556001600160a01b039094168352600781528383209183525290812055565b600954600090612b8a906001906133ce565b6000838152600a602052604081205460098054939450909284908110612bb257612bb2613322565b906000526020600020015490508060098381548110612bd357612bd3613322565b6000918252602080832090910192909255828152600a90915260408082208490558582528120556009805480612c0b57612c0b613419565b6001900381819060005260206000200160009055905550505050565b6000612c3283611284565b6001600160a01b039093166000908152600760209081526040808320868452825280832085905593825260089052919091209190915550565b60008181526001830160205260408120541515611cc7565b508054612c8f90613237565b6000825580601f10612c9f575050565b601f0160209004906000526020600020908101906113739190612d41565b828054612cc990613237565b90600052602060002090601f016020900481019282612ceb5760008555612d31565b82601f10612d0457805160ff1916838001178555612d31565b82800160010185558215612d31579182015b82811115612d31578251825591602001919060010190612d16565b50612d3d929150612d41565b5090565b5b80821115612d3d5760008155600101612d42565b6001600160e01b03198116811461137357600080fd5b600060208284031215612d7e57600080fd5b8135611cc781612d56565b60005b83811015612da4578181015183820152602001612d8c565b838111156114985750506000910152565b60008151808452612dcd816020860160208601612d89565b601f01601f19169290920160200192915050565b602081526000611cc76020830184612db5565b600060208284031215612e0657600080fd5b5035919050565b80356001600160a01b0381168114610a0957600080fd5b60008060408385031215612e3757600080fd5b612e4083612e0d565b946020939093013593505050565b600060208284031215612e6057600080fd5b611cc782612e0d565b600080600060608486031215612e7e57600080fd5b612e8784612e0d565b9250612e9560208501612e0d565b9150604084013590509250925092565b634e487b7160e01b600052604160045260246000fd5b604051601f8201601f1916810167ffffffffffffffff81118282101715612ee457612ee4612ea5565b604052919050565b600067ffffffffffffffff821115612f0657612f06612ea5565b5060051b60200190565b600067ffffffffffffffff831115612f2a57612f2a612ea5565b612f3d601f8401601f1916602001612ebb565b9050828152838383011115612f5157600080fd5b828260208301376000602084830101529392505050565b600082601f830112612f7957600080fd5b81356020612f8e612f8983612eec565b612ebb565b82815260059290921b84018101918181019086841115612fad57600080fd5b8286015b8481101561300257803567ffffffffffffffff811115612fd15760008081fd5b8701603f81018913612fe35760008081fd5b612ff4898683013560408401612f10565b845250918301918301612fb1565b509695505050505050565b6000806000806080858703121561302357600080fd5b61302c85612e0d565b9350602061303b818701612e0d565b9350604086013567ffffffffffffffff8082111561305857600080fd5b818801915088601f83011261306c57600080fd5b813561307a612f8982612eec565b81815260059190911b8301840190848101908b83111561309957600080fd5b938501935b828510156130b75784358252938501939085019061309e565b9650505060608801359250808311156130cf57600080fd5b50506130dd87828801612f68565b91505092959194509250565b6020808252825182820181905260009190848201906040850190845b8181101561312157835183529284019291840191600101613105565b50909695505050505050565b6000806040838503121561314057600080fd5b50508035926020909101359150565b801515811461137357600080fd5b6000806040838503121561317057600080fd5b61317983612e0d565b915060208301356131898161314f565b809150509250929050565b600080600080608085870312156131aa57600080fd5b6131b385612e0d565b93506131c160208601612e0d565b925060408501359150606085013567ffffffffffffffff8111156131e457600080fd5b8501601f810187136131f557600080fd5b6130dd87823560208401612f10565b6000806040838503121561321757600080fd5b61322083612e0d565b915061322e60208401612e0d565b90509250929050565b600181811c9082168061324b57607f821691505b6020821081141561326c57634e487b7160e01b600052602260045260246000fd5b50919050565b6020808252818101527f4f776e61626c653a2063616c6c6572206973206e6f7420746865206f776e6572604082015260600190565b60208082526031908201527f4552433732313a207472616e736665722063616c6c6572206973206e6f74206f6040820152701ddb995c881b9bdc88185c1c1c9bdd9959607a1b606082015260800190565b60208082526010908201526f14185d5cd8589b194e881c185d5cd95960821b604082015260600190565b634e487b7160e01b600052603260045260246000fd5b634e487b7160e01b600052601160045260246000fd5b600060001982141561336257613362613338565b5060010190565b60006020828403121561337b57600080fd5b5051919050565b60006020828403121561339457600080fd5b8151611cc78161314f565b600083516133b1818460208801612d89565b8351908301906133c5818360208801612d89565b01949350505050565b6000828210156133e0576133e0613338565b500390565b600082198211156133f8576133f8613338565b500190565b6000825161340f818460208701612d89565b9190910192915050565b634e487b7160e01b600052603160045260246000fd5b6001600160a01b038581168252841660208201526040810183905260806060820181905260009061346290830184612db5565b9695505050505050565b60006020828403121561347e57600080fd5b8151611cc781612d56565b634e487b7160e01b600052601260045260246000fd5b6000826134ae576134ae613489565b500490565b6000826134c2576134c2613489565b50069056fea2646970667358221220aa5a97bcb07f652f75860de7488b6d9f8f5774485ba0da3c023619993545d6e664736f6c634300080a0033",
  "linkReferences": {},
  "deployedLinkReferences": {}
}