{
  "_format": "hh-sol-artifact-1",
  "contractName": "MBackup",
  "sourceName": "contracts/maxity/impl/MBackup.sol",
  "abi": [
    {
      "inputs": [
        {
          "internalType": "uint256",
          "name": "minimal_amount",
          "type": "uint256"
        },
        {
          "internalType": "address",
          "name": "_lpToken",
          "type": "address"
        },
        {
          "internalType": "address",
          "name": "_UToken",
          "type": "address"
        },
        {
          "internalType": "address",
          "name": "_emergencyAddress",
          "type": "address"
        },
        {
          "internalType": "address",
          "name": "_masterChef",
          "type": "address"
        }
      ],
      "stateMutability": "nonpayable",
      "type": "constructor"
    },
    {
      "anonymous": false,
      "inputs": [
        {
          "indexed": true,
          "internalType": "address",
          "name": "previousOwner",
          "type": "address"
        },
        {
          "indexed": true,
          "internalType": "address",
          "name": "newOwner",
          "type": "address"
        }
      ],
      "name": "OwnershipTransferred",
      "type": "event"
    },
    {
      "anonymous": false,
      "inputs": [
        {
          "indexed": false,
          "internalType": "uint256",
          "name": "amountIn",
          "type": "uint256"
        },
        {
          "indexed": false,
          "internalType": "uint256",
          "name": "amountOut",
          "type": "uint256"
        }
      ],
      "name": "ProfitShare",
      "type": "event"
    },
    {
      "inputs": [],
      "name": "MINIMAL_AMOUNT",
      "outputs": [
        {
          "internalType": "uint256",
          "name": "",
          "type": "uint256"
        }
      ],
      "stateMutability": "view",
      "type": "function"
    },
    {
      "inputs": [],
      "name": "UToken",
      "outputs": [
        {
          "internalType": "address",
          "name": "",
          "type": "address"
        }
      ],
      "stateMutability": "view",
      "type": "function"
    },
    {
      "inputs": [
        {
          "internalType": "address",
          "name": "_newCaller",
          "type": "address"
        }
      ],
      "name": "addCaller",
      "outputs": [
        {
          "internalType": "bool",
          "name": "",
          "type": "bool"
        }
      ],
      "stateMutability": "nonpayable",
      "type": "function"
    },
    {
      "inputs": [
        {
          "internalType": "address",
          "name": "_delCaller",
          "type": "address"
        }
      ],
      "name": "delCaller",
      "outputs": [
        {
          "internalType": "bool",
          "name": "",
          "type": "bool"
        }
      ],
      "stateMutability": "nonpayable",
      "type": "function"
    },
    {
      "inputs": [],
      "name": "emergencyAddress",
      "outputs": [
        {
          "internalType": "address",
          "name": "",
          "type": "address"
        }
      ],
      "stateMutability": "view",
      "type": "function"
    },
    {
      "inputs": [
        {
          "internalType": "uint256",
          "name": "amount",
          "type": "uint256"
        }
      ],
      "name": "emergencyNative",
      "outputs": [],
      "stateMutability": "nonpayable",
      "type": "function"
    },
    {
      "inputs": [
        {
          "internalType": "address",
          "name": "_token",
          "type": "address"
        }
      ],
      "name": "emergencyWithdraw",
      "outputs": [],
      "stateMutability": "nonpayable",
      "type": "function"
    },
    {
      "inputs": [
        {
          "internalType": "uint256",
          "name": "_index",
          "type": "uint256"
        }
      ],
      "name": "getCaller",
      "outputs": [
        {
          "internalType": "address",
          "name": "",
          "type": "address"
        }
      ],
      "stateMutability": "view",
      "type": "function"
    },
    {
      "inputs": [],
      "name": "getCallerLength",
      "outputs": [
        {
          "internalType": "uint256",
          "name": "",
          "type": "uint256"
        }
      ],
      "stateMutability": "view",
      "type": "function"
    },
    {
      "inputs": [
        {
          "internalType": "address",
          "name": "_call",
          "type": "address"
        }
      ],
      "name": "isCaller",
      "outputs": [
        {
          "internalType": "bool",
          "name": "",
          "type": "bool"
        }
      ],
      "stateMutability": "view",
      "type": "function"
    },
    {
      "inputs": [],
      "name": "lpToken",
      "outputs": [
        {
          "internalType": "address",
          "name": "",
          "type": "address"
        }
      ],
      "stateMutability": "view",
      "type": "function"
    },
    {
      "inputs": [],
      "name": "masterChef",
      "outputs": [
        {
          "internalType": "contract IMasterChef",
          "name": "",
          "type": "address"
        }
      ],
      "stateMutability": "view",
      "type": "function"
    },
    {
      "inputs": [],
      "name": "owner",
      "outputs": [
        {
          "internalType": "address",
          "name": "",
          "type": "address"
        }
      ],
      "stateMutability": "view",
      "type": "function"
    },
    {
      "inputs": [],
      "name": "profit",
      "outputs": [
        {
          "internalType": "uint256",
          "name": "amountOut",
          "type": "uint256"
        },
        {
          "internalType": "uint256",
          "name": "amountIn",
          "type": "uint256"
        }
      ],
      "stateMutability": "nonpayable",
      "type": "function"
    },
    {
      "inputs": [],
      "name": "profitV",
      "outputs": [
        {
          "internalType": "uint256",
          "name": "amountOut",
          "type": "uint256"
        },
        {
          "internalType": "uint256",
          "name": "amountIn",
          "type": "uint256"
        }
      ],
      "stateMutability": "view",
      "type": "function"
    },
    {
      "inputs": [],
      "name": "renounceOwnership",
      "outputs": [],
      "stateMutability": "nonpayable",
      "type": "function"
    },
    {
      "inputs": [
        {
          "internalType": "address",
          "name": "_newAddress",
          "type": "address"
        }
      ],
      "name": "setEmergencyAddress",
      "outputs": [],
      "stateMutability": "nonpayable",
      "type": "function"
    },
    {
      "inputs": [
        {
          "internalType": "address",
          "name": "_masterChef",
          "type": "address"
        }
      ],
      "name": "setMasterChef",
      "outputs": [],
      "stateMutability": "nonpayable",
      "type": "function"
    },
    {
      "inputs": [
        {
          "internalType": "uint256",
          "name": "minimal_amount",
          "type": "uint256"
        }
      ],
      "name": "setMinimal",
      "outputs": [],
      "stateMutability": "nonpayable",
      "type": "function"
    },
    {
      "inputs": [
        {
          "internalType": "address",
          "name": "newOwner",
          "type": "address"
        }
      ],
      "name": "transferOwnership",
      "outputs": [],
      "stateMutability": "nonpayable",
      "type": "function"
    }
  ],
  "bytecode": "0x60806040523480156200001157600080fd5b506040516200127e3803806200127e833981016040819052620000349162000154565b6200003f33620000e7565b6001600160a01b0382166200008c5760405162461bcd60e51b815260206004820152600f60248201526e4973207a65726f206164647265737360881b604482015260640160405180910390fd5b600580546001600160a01b03199081166001600160a01b0396871617909155600680548216948616949094179093556007949094556004805483169184169190911790556001805490911692909116919091179055620001bb565b600080546001600160a01b038381166001600160a01b0319831681178455604051919092169283917f8be0079c531659141344cd1fd0a4f28419497f9722a3daafe3b4186f6b6457e09190a35050565b80516001600160a01b03811681146200014f57600080fd5b919050565b600080600080600060a086880312156200016d57600080fd5b855194506200017f6020870162000137565b93506200018f6040870162000137565b92506200019f6060870162000137565b9150620001af6080870162000137565b90509295509295909350565b6110b380620001cb6000396000f3fe608060405234801561001057600080fd5b506004361061012c5760003560e01c806372e9188b116100ad578063a2d9f4dc11610071578063a2d9f4dc14610268578063a8b0b3ed1461027b578063e28ee8621461028e578063f2fde38b146102a1578063fddf3f73146102b457600080fd5b806372e9188b14610216578063747293fb146102295780637ac07dcc1461023c5780638b1d9c711461024f5780638da5cb5b1461025757600080fd5b8063575a86b2116100f4578063575a86b2146101b85780635fcbd285146101cb57806366d16cc3146101de5780636ff1c9bc146101fb578063715018a61461020e57600080fd5b806303fd9b4814610131578063231a418c1461014d5780632aa11ffb1461017057806342177a581461018557806352bc13e11461018d575b600080fd5b61013a60075481565b6040519081526020015b60405180910390f35b61016061015b366004610f3f565b6102c7565b6040519015158152602001610144565b61018361017e366004610f3f565b610362565b005b61013a6103f6565b6006546101a0906001600160a01b031681565b6040516001600160a01b039091168152602001610144565b6001546101a0906001600160a01b031681565b6005546101a0906001600160a01b031681565b6101e6610407565b60408051928352602083019190915201610144565b610183610209366004610f3f565b61062c565b6101836107fd565b610183610224366004610f68565b610833565b610160610237366004610f3f565b61086a565b61016061024a366004610f3f565b6108f6565b6101e6610903565b6000546001600160a01b03166101a0565b610183610276366004610f3f565b6109a9565b6101a0610289366004610f68565b6109f5565b61018361029c366004610f68565b610a5b565b6101836102af366004610f3f565b610a8a565b6004546101a0906001600160a01b031681565b600080546001600160a01b031633146102fb5760405162461bcd60e51b81526004016102f290610f81565b60405180910390fd5b6001600160a01b0382166103515760405162461bcd60e51b815260206004820152601d60248201527f44656c43616c6c657220697320746865207a65726f206164647265737300000060448201526064016102f2565b61035c600283610b22565b92915050565b6000546001600160a01b0316331461038c5760405162461bcd60e51b81526004016102f290610f81565b6001600160a01b0381166103d45760405162461bcd60e51b815260206004820152600f60248201526e4973207a65726f206164647265737360881b60448201526064016102f2565b600480546001600160a01b0319166001600160a01b0392909216919091179055565b60006104026002610b3e565b905090565b600080610413336108f6565b6104505760405162461bcd60e51b815260206004820152600e60248201526d2737ba103a34329031b0b63632b960911b60448201526064016102f2565b600154604051630441a3e760e41b815260006004820181905260248201526001600160a01b039091169063441a3e7090604401600060405180830381600087803b15801561049d57600080fd5b505af11580156104b1573d6000803e3d6000fd5b50506006546040516370a0823160e01b8152306004820152600093506001600160a01b0390911691506370a0823190602401602060405180830381865afa158015610500573d6000803e3d6000fd5b505050506040513d601f19601f820116820180604052508101906105249190610fb6565b90506007548110156105445760075461053d9082610b48565b9250610555565b600754610552908290610b48565b91505b811561057857600654600554610578916001600160a01b03908116911684610b54565b600554604051639f37088960e01b8152600481018590523060248201526001600160a01b0390911690639f370889906044016020604051808303816000875af11580156105c9573d6000803e3d6000fd5b505050506040513d601f19601f820116820180604052508101906105ed9190610fb6565b5060408051838152602081018590527fa972fb55c34b71f92f2dbd1f7df07a2e02f70025cfe19a0aa37f61d1c2ca0124910160405180910390a1509091565b6000546001600160a01b031633146106565760405162461bcd60e51b81526004016102f290610f81565b6040516370a0823160e01b81523060048201526000906001600160a01b038316906370a0823190602401602060405180830381865afa15801561069d573d6000803e3d6000fd5b505050506040513d601f19601f820116820180604052508101906106c19190610fb6565b1161070e5760405162461bcd60e51b815260206004820152601d60248201527f496e73756666696369656e7420636f6e74726163742062616c616e636500000060448201526064016102f2565b600480546040516370a0823160e01b815230928101929092526001600160a01b038381169263a9059cbb92919091169083906370a0823190602401602060405180830381865afa158015610766573d6000803e3d6000fd5b505050506040513d601f19601f8201168201806040525081019061078a9190610fb6565b6040516001600160e01b031960e085901b1681526001600160a01b03909216600483015260248201526044016020604051808303816000875af11580156107d5573d6000803e3d6000fd5b505050506040513d601f19601f820116820180604052508101906107f99190610fcf565b5050565b6000546001600160a01b031633146108275760405162461bcd60e51b81526004016102f290610f81565b6108316000610c6f565b565b6000546001600160a01b0316331461085d5760405162461bcd60e51b81526004016102f290610f81565b6108673382610cbf565b50565b600080546001600160a01b031633146108955760405162461bcd60e51b81526004016102f290610f81565b6001600160a01b0382166108eb5760405162461bcd60e51b815260206004820152601d60248201527f4e657743616c6c657220697320746865207a65726f206164647265737300000060448201526064016102f2565b61035c600283610d90565b600061035c600283610da5565b6006546040516370a0823160e01b8152306004820152600091829182916001600160a01b0316906370a0823190602401602060405180830381865afa158015610950573d6000803e3d6000fd5b505050506040513d601f19601f820116820180604052508101906109749190610fb6565b90506007548110156109945760075461098d9082610b48565b9250509091565b6007546109a2908290610b48565b9150509091565b6000546001600160a01b031633146109d35760405162461bcd60e51b81526004016102f290610f81565b600180546001600160a01b0319166001600160a01b0392909216919091179055565b60006001610a016103f6565b610a0b9190610ff1565b821115610a505760405162461bcd60e51b8152602060048201526013602482015272696e646578206f7574206f6620626f756e647360681b60448201526064016102f2565b61035c600283610dc7565b6000546001600160a01b03163314610a855760405162461bcd60e51b81526004016102f290610f81565b600755565b6000546001600160a01b03163314610ab45760405162461bcd60e51b81526004016102f290610f81565b6001600160a01b038116610b195760405162461bcd60e51b815260206004820152602660248201527f4f776e61626c653a206e6577206f776e657220697320746865207a65726f206160448201526564647265737360d01b60648201526084016102f2565b61086781610c6f565b6000610b37836001600160a01b038416610dd3565b9392505050565b600061035c825490565b6000610b378284610ff1565b604080516001600160a01b038481166024830152604480830185905283518084039091018152606490920183526020820180516001600160e01b031663a9059cbb60e01b1790529151600092839290871691610bb09190611016565b6000604051808303816000865af19150503d8060008114610bed576040519150601f19603f3d011682016040523d82523d6000602084013e610bf2565b606091505b5091509150818015610c1c575080511580610c1c575080806020019051810190610c1c9190610fcf565b610c685760405162461bcd60e51b815260206004820152601f60248201527f5472616e7366657248656c7065723a205452414e534645525f4641494c45440060448201526064016102f2565b5050505050565b600080546001600160a01b038381166001600160a01b0319831681178455604051919092169283917f8be0079c531659141344cd1fd0a4f28419497f9722a3daafe3b4186f6b6457e09190a35050565b604080516000808252602082019092526001600160a01b038416908390604051610ce99190611016565b60006040518083038185875af1925050503d8060008114610d26576040519150601f19603f3d011682016040523d82523d6000602084013e610d2b565b606091505b5050905080610d8b5760405162461bcd60e51b815260206004820152602660248201527f5472616e7366657248656c7065723a204e61746976655f5452414e534645525f60448201526511905253115160d21b60648201526084016102f2565b505050565b6000610b37836001600160a01b038416610ec6565b6001600160a01b03811660009081526001830160205260408120541515610b37565b6000610b378383610f15565b60008181526001830160205260408120548015610ebc576000610df7600183610ff1565b8554909150600090610e0b90600190610ff1565b9050818114610e70576000866000018281548110610e2b57610e2b611051565b9060005260206000200154905080876000018481548110610e4e57610e4e611051565b6000918252602080832090910192909255918252600188019052604090208390555b8554869080610e8157610e81611067565b60019003818190600052602060002001600090559055856001016000868152602001908152602001600020600090556001935050505061035c565b600091505061035c565b6000818152600183016020526040812054610f0d5750815460018181018455600084815260208082209093018490558454848252828601909352604090209190915561035c565b50600061035c565b6000826000018281548110610f2c57610f2c611051565b9060005260206000200154905092915050565b600060208284031215610f5157600080fd5b81356001600160a01b0381168114610b3757600080fd5b600060208284031215610f7a57600080fd5b5035919050565b6020808252818101527f4f776e61626c653a2063616c6c6572206973206e6f7420746865206f776e6572604082015260600190565b600060208284031215610fc857600080fd5b5051919050565b600060208284031215610fe157600080fd5b81518015158114610b3757600080fd5b60008282101561101157634e487b7160e01b600052601160045260246000fd5b500390565b6000825160005b81811015611037576020818601810151858301520161101d565b81811115611046576000828501525b509190910192915050565b634e487b7160e01b600052603260045260246000fd5b634e487b7160e01b600052603160045260246000fdfea2646970667358221220d6b457b502bee2628caa217905292cac040f85a448de9f85260663aa9f84f9d964736f6c634300080a0033",
  "linkReferences": {},
  "deployedLinkReferences": {}
}