{
  "_format": "hh-sol-artifact-1",
  "contractName": "MaxitNGO",
  "sourceName": "contracts/maxity/impl/MaxitNGO.sol",
  "abi": [
    {
      "inputs": [
        {
          "internalType": "string",
          "name": "_name",
          "type": "string"
        },
        {
          "internalType": "address",
          "name": "_wallet",
          "type": "address"
        }
      ],
      "stateMutability": "nonpayable",
      "type": "constructor"
    },
    {
      "anonymous": false,
      "inputs": [
        {
          "indexed": true,
          "internalType": "address",
          "name": "previousOwner",
          "type": "address"
        },
        {
          "indexed": true,
          "internalType": "address",
          "name": "newOwner",
          "type": "address"
        }
      ],
      "name": "OwnershipTransferred",
      "type": "event"
    },
    {
      "inputs": [],
      "name": "ambassador",
      "outputs": [
        {
          "internalType": "string",
          "name": "",
          "type": "string"
        }
      ],
      "stateMutability": "view",
      "type": "function"
    },
    {
      "inputs": [],
      "name": "category",
      "outputs": [
        {
          "internalType": "string",
          "name": "",
          "type": "string"
        }
      ],
      "stateMutability": "view",
      "type": "function"
    },
    {
      "inputs": [],
      "name": "contactAddress",
      "outputs": [
        {
          "internalType": "string",
          "name": "",
          "type": "string"
        }
      ],
      "stateMutability": "view",
      "type": "function"
    },
    {
      "inputs": [],
      "name": "docs",
      "outputs": [
        {
          "internalType": "string",
          "name": "",
          "type": "string"
        }
      ],
      "stateMutability": "view",
      "type": "function"
    },
    {
      "inputs": [],
      "name": "email",
      "outputs": [
        {
          "internalType": "string",
          "name": "",
          "type": "string"
        }
      ],
      "stateMutability": "view",
      "type": "function"
    },
    {
      "inputs": [],
      "name": "name",
      "outputs": [
        {
          "internalType": "string",
          "name": "",
          "type": "string"
        }
      ],
      "stateMutability": "view",
      "type": "function"
    },
    {
      "inputs": [],
      "name": "org",
      "outputs": [
        {
          "internalType": "string",
          "name": "",
          "type": "string"
        }
      ],
      "stateMutability": "view",
      "type": "function"
    },
    {
      "inputs": [],
      "name": "orgNumber",
      "outputs": [
        {
          "internalType": "string",
          "name": "",
          "type": "string"
        }
      ],
      "stateMutability": "view",
      "type": "function"
    },
    {
      "inputs": [],
      "name": "owner",
      "outputs": [
        {
          "internalType": "address",
          "name": "",
          "type": "address"
        }
      ],
      "stateMutability": "view",
      "type": "function"
    },
    {
      "inputs": [],
      "name": "phone",
      "outputs": [
        {
          "internalType": "string",
          "name": "",
          "type": "string"
        }
      ],
      "stateMutability": "view",
      "type": "function"
    },
    {
      "inputs": [],
      "name": "purpose",
      "outputs": [
        {
          "internalType": "string",
          "name": "",
          "type": "string"
        }
      ],
      "stateMutability": "view",
      "type": "function"
    },
    {
      "inputs": [],
      "name": "renounceOwnership",
      "outputs": [],
      "stateMutability": "nonpayable",
      "type": "function"
    },
    {
      "inputs": [],
      "name": "token",
      "outputs": [
        {
          "internalType": "address",
          "name": "",
          "type": "address"
        }
      ],
      "stateMutability": "view",
      "type": "function"
    },
    {
      "inputs": [
        {
          "internalType": "address",
          "name": "newOwner",
          "type": "address"
        }
      ],
      "name": "transferOwnership",
      "outputs": [],
      "stateMutability": "nonpayable",
      "type": "function"
    },
    {
      "inputs": [],
      "name": "wallet",
      "outputs": [
        {
          "internalType": "address",
          "name": "",
          "type": "address"
        }
      ],
      "stateMutability": "view",
      "type": "function"
    },
    {
      "inputs": [],
      "name": "website",
      "outputs": [
        {
          "internalType": "string",
          "name": "",
          "type": "string"
        }
      ],
      "stateMutability": "view",
      "type": "function"
    }
  ],
  "bytecode": "0x60c0604052600b60808190526a616161406161612e636f6d60a81b60a09081526200002e9160039190620002ee565b50604080518082019091526008808252671bdc99cb9d195cdd60c21b60209092019182526200006091600491620002ee565b5060408051808201909152600e8082526d1bdc99d39d5b58995c8b9d195cdd60921b60209092019182526200009891600591620002ee565b506040805180820190915260138082527f636f6e74616374416464726573732e74657374000000000000000000000000006020909201918252620000df91600691620002ee565b5060408051808201909152600a808252691c1a1bdb994b9d195cdd60b21b60209092019182526200011391600791620002ee565b5060408051808201909152600c8082526b1dd9589cda5d194b9d195cdd60a21b60209092019182526200014991600891620002ee565b5060408051808201909152600f8082526e185b58985cdcd8591bdc8b9d195cdd608a1b60209092019182526200018291600991620002ee565b506040805180820190915260108082526f1bdc98d85d1959dbdc9e59cb9d195cdd60821b6020909201918252620001bc91600a91620002ee565b5060408051808201909152600980825268191bd8dccb9d195cdd60ba1b6020909201918252620001ef91600c91620002ee565b5060408051808201909152600c8082526b1c1d5c9c1bdcd94b9d195cdd60a21b60209092019182526200022591600d91620002ee565b503480156200023357600080fd5b5060405162000a7038038062000a708339810160408190526200025691620003c7565b62000261336200029e565b815162000276906002906020850190620002ee565b50600b80546001600160a01b0319166001600160a01b039290921691909117905550620004f5565b600080546001600160a01b038381166001600160a01b0319831681178455604051919092169283917f8be0079c531659141344cd1fd0a4f28419497f9722a3daafe3b4186f6b6457e09190a35050565b828054620002fc90620004b8565b90600052602060002090601f0160209004810192826200032057600085556200036b565b82601f106200033b57805160ff19168380011785556200036b565b828001600101855582156200036b579182015b828111156200036b5782518255916020019190600101906200034e565b50620003799291506200037d565b5090565b5b808211156200037957600081556001016200037e565b634e487b7160e01b600052604160045260246000fd5b80516001600160a01b0381168114620003c257600080fd5b919050565b60008060408385031215620003db57600080fd5b82516001600160401b0380821115620003f357600080fd5b818501915085601f8301126200040857600080fd5b8151818111156200041d576200041d62000394565b604051601f8201601f19908116603f0116810190838211818310171562000448576200044862000394565b816040528281526020935088848487010111156200046557600080fd5b600091505b828210156200048957848201840151818301850152908301906200046a565b828211156200049b5760008484830101525b9550620004ad915050858201620003aa565b925050509250929050565b600181811c90821680620004cd57607f821691505b60208210811415620004ef57634e487b7160e01b600052602260045260246000fd5b50919050565b61056b80620005056000396000f3fe608060405234801561001057600080fd5b50600436106101005760003560e01c80639284f49711610097578063cc1e2cb011610066578063cc1e2cb0146101a9578063ef430aa6146101b1578063f2fde38b146101b9578063fc0c546a146101cc57600080fd5b80639284f497146101895780639887271214610191578063beb0a41614610199578063c6701cc4146101a157600080fd5b806370740aab116100d357806370740aab1461015e578063715018a614610166578063820e93f5146101705780638da5cb5b1461017857600080fd5b806306fdde03146101055780633a78a7d614610123578063521eb2731461012b5780635b1d1c1f14610156575b600080fd5b61010d6101df565b60405161011a9190610475565b60405180910390f35b61010d61026d565b600b5461013e906001600160a01b031681565b6040516001600160a01b03909116815260200161011a565b61010d61027a565b61010d610287565b61016e610294565b005b61010d6102ff565b6000546001600160a01b031661013e565b61010d61030c565b61010d610319565b61010d610326565b61010d610333565b61010d610340565b61010d61034d565b61016e6101c73660046104ca565b61035a565b60015461013e906001600160a01b031681565b600280546101ec906104fa565b80601f0160208091040260200160405190810160405280929190818152602001828054610218906104fa565b80156102655780601f1061023a57610100808354040283529160200191610265565b820191906000526020600020905b81548152906001019060200180831161024857829003601f168201915b505050505081565b600980546101ec906104fa565b600c80546101ec906104fa565b600d80546101ec906104fa565b6000546001600160a01b031633146102f35760405162461bcd60e51b815260206004820181905260248201527f4f776e61626c653a2063616c6c6572206973206e6f7420746865206f776e657260448201526064015b60405180910390fd5b6102fd6000610425565b565b600380546101ec906104fa565b600780546101ec906104fa565b600580546101ec906104fa565b600880546101ec906104fa565b600680546101ec906104fa565b600480546101ec906104fa565b600a80546101ec906104fa565b6000546001600160a01b031633146103b45760405162461bcd60e51b815260206004820181905260248201527f4f776e61626c653a2063616c6c6572206973206e6f7420746865206f776e657260448201526064016102ea565b6001600160a01b0381166104195760405162461bcd60e51b815260206004820152602660248201527f4f776e61626c653a206e6577206f776e657220697320746865207a65726f206160448201526564647265737360d01b60648201526084016102ea565b61042281610425565b50565b600080546001600160a01b038381166001600160a01b0319831681178455604051919092169283917f8be0079c531659141344cd1fd0a4f28419497f9722a3daafe3b4186f6b6457e09190a35050565b600060208083528351808285015260005b818110156104a257858101830151858201604001528201610486565b818111156104b4576000604083870101525b50601f01601f1916929092016040019392505050565b6000602082840312156104dc57600080fd5b81356001600160a01b03811681146104f357600080fd5b9392505050565b600181811c9082168061050e57607f821691505b6020821081141561052f57634e487b7160e01b600052602260045260246000fd5b5091905056fea264697066735822122023d94e4cd21a210c059bfc3aac98ccbf9382264f68ef5440ff2f5578725b068964736f6c634300080a0033",
  "linkReferences": {},
  "deployedLinkReferences": {}
}