{
  "_format": "hh-sol-artifact-1",
  "contractName": "MPool",
  "sourceName": "contracts/maxity/impl/MPool.sol",
  "abi": [
    {
      "inputs": [
        {
          "internalType": "address",
          "name": "_MAX",
          "type": "address"
        },
        {
          "internalType": "address",
          "name": "_refs",
          "type": "address"
        },
        {
          "internalType": "uint256",
          "name": "_blockRewards",
          "type": "uint256"
        },
        {
          "internalType": "uint256",
          "name": "_startBlock",
          "type": "uint256"
        }
      ],
      "stateMutability": "nonpayable",
      "type": "constructor"
    },
    {
      "anonymous": false,
      "inputs": [
        {
          "indexed": true,
          "internalType": "address",
          "name": "user",
          "type": "address"
        },
        {
          "indexed": true,
          "internalType": "address",
          "name": "touser",
          "type": "address"
        },
        {
          "indexed": true,
          "internalType": "uint256",
          "name": "pid",
          "type": "uint256"
        },
        {
          "indexed": false,
          "internalType": "uint256",
          "name": "amount",
          "type": "uint256"
        }
      ],
      "name": "Deposit",
      "type": "event"
    },
    {
      "anonymous": false,
      "inputs": [
        {
          "indexed": true,
          "internalType": "address",
          "name": "user",
          "type": "address"
        },
        {
          "indexed": true,
          "internalType": "uint256",
          "name": "pid",
          "type": "uint256"
        },
        {
          "indexed": false,
          "internalType": "uint256",
          "name": "amount",
          "type": "uint256"
        },
        {
          "indexed": true,
          "internalType": "address",
          "name": "_to",
          "type": "address"
        }
      ],
      "name": "EmergencyWithdraw",
      "type": "event"
    },
    {
      "anonymous": false,
      "inputs": [
        {
          "indexed": true,
          "internalType": "address",
          "name": "user",
          "type": "address"
        },
        {
          "indexed": true,
          "internalType": "uint256",
          "name": "pid",
          "type": "uint256"
        },
        {
          "indexed": true,
          "internalType": "address",
          "name": "to",
          "type": "address"
        },
        {
          "indexed": false,
          "internalType": "uint256",
          "name": "lockAmount",
          "type": "uint256"
        },
        {
          "indexed": false,
          "internalType": "uint256",
          "name": "transferAmount",
          "type": "uint256"
        }
      ],
      "name": "LockPool",
      "type": "event"
    },
    {
      "anonymous": false,
      "inputs": [
        {
          "indexed": true,
          "internalType": "address",
          "name": "previousOwner",
          "type": "address"
        },
        {
          "indexed": true,
          "internalType": "address",
          "name": "newOwner",
          "type": "address"
        }
      ],
      "name": "OwnershipTransferred",
      "type": "event"
    },
    {
      "anonymous": false,
      "inputs": [
        {
          "indexed": true,
          "internalType": "address",
          "name": "user",
          "type": "address"
        },
        {
          "indexed": true,
          "internalType": "uint256",
          "name": "pid",
          "type": "uint256"
        },
        {
          "indexed": true,
          "internalType": "address",
          "name": "from",
          "type": "address"
        },
        {
          "indexed": false,
          "internalType": "uint256",
          "name": "unlockAmount",
          "type": "uint256"
        },
        {
          "indexed": false,
          "internalType": "uint256",
          "name": "transferAmount",
          "type": "uint256"
        }
      ],
      "name": "UnLockPool",
      "type": "event"
    },
    {
      "anonymous": false,
      "inputs": [
        {
          "indexed": true,
          "internalType": "address",
          "name": "user",
          "type": "address"
        },
        {
          "indexed": true,
          "internalType": "uint256",
          "name": "pid",
          "type": "uint256"
        },
        {
          "indexed": false,
          "internalType": "uint256",
          "name": "amount",
          "type": "uint256"
        },
        {
          "indexed": true,
          "internalType": "address",
          "name": "_to",
          "type": "address"
        }
      ],
      "name": "Withdraw",
      "type": "event"
    },
    {
      "inputs": [
        {
          "internalType": "address",
          "name": "",
          "type": "address"
        }
      ],
      "name": "LpOfPid",
      "outputs": [
        {
          "internalType": "uint256",
          "name": "",
          "type": "uint256"
        }
      ],
      "stateMutability": "view",
      "type": "function"
    },
    {
      "inputs": [],
      "name": "MAX",
      "outputs": [
        {
          "internalType": "contract IMintableToken",
          "name": "",
          "type": "address"
        }
      ],
      "stateMutability": "view",
      "type": "function"
    },
    {
      "inputs": [],
      "name": "MAXRouter",
      "outputs": [
        {
          "internalType": "address",
          "name": "",
          "type": "address"
        }
      ],
      "stateMutability": "view",
      "type": "function"
    },
    {
      "inputs": [],
      "name": "MAXV",
      "outputs": [
        {
          "internalType": "uint256",
          "name": "",
          "type": "uint256"
        }
      ],
      "stateMutability": "view",
      "type": "function"
    },
    {
      "inputs": [
        {
          "internalType": "uint256",
          "name": "_allocPoint",
          "type": "uint256"
        },
        {
          "internalType": "contract IERC20",
          "name": "_lpToken",
          "type": "address"
        },
        {
          "internalType": "bool",
          "name": "_withUpdate",
          "type": "bool"
        },
        {
          "internalType": "address",
          "name": "_investPool",
          "type": "address"
        }
      ],
      "name": "add",
      "outputs": [],
      "stateMutability": "nonpayable",
      "type": "function"
    },
    {
      "inputs": [
        {
          "internalType": "address",
          "name": "_addLP",
          "type": "address"
        }
      ],
      "name": "addMultLP",
      "outputs": [
        {
          "internalType": "bool",
          "name": "",
          "type": "bool"
        }
      ],
      "stateMutability": "nonpayable",
      "type": "function"
    },
    {
      "inputs": [
        {
          "internalType": "address",
          "name": "_user",
          "type": "address"
        }
      ],
      "name": "allPending",
      "outputs": [
        {
          "internalType": "uint256",
          "name": "totalRewardAmount",
          "type": "uint256"
        },
        {
          "internalType": "uint256",
          "name": "totalTokenAmount",
          "type": "uint256"
        }
      ],
      "stateMutability": "view",
      "type": "function"
    },
    {
      "inputs": [],
      "name": "blockRewards",
      "outputs": [
        {
          "internalType": "uint256",
          "name": "",
          "type": "uint256"
        }
      ],
      "stateMutability": "view",
      "type": "function"
    },
    {
      "inputs": [
        {
          "internalType": "uint256",
          "name": "_pid",
          "type": "uint256"
        },
        {
          "internalType": "uint256",
          "name": "_amount",
          "type": "uint256"
        },
        {
          "internalType": "address",
          "name": "_to",
          "type": "address"
        }
      ],
      "name": "deposit",
      "outputs": [],
      "stateMutability": "nonpayable",
      "type": "function"
    },
    {
      "inputs": [
        {
          "internalType": "uint256",
          "name": "amount",
          "type": "uint256"
        }
      ],
      "name": "emergencyNative",
      "outputs": [],
      "stateMutability": "nonpayable",
      "type": "function"
    },
    {
      "inputs": [
        {
          "internalType": "uint256",
          "name": "_pid",
          "type": "uint256"
        },
        {
          "internalType": "address",
          "name": "_to",
          "type": "address"
        }
      ],
      "name": "emergencyWithdraw",
      "outputs": [],
      "stateMutability": "nonpayable",
      "type": "function"
    },
    {
      "inputs": [
        {
          "internalType": "uint256",
          "name": "_lastRewardBlock",
          "type": "uint256"
        }
      ],
      "name": "getBlockRewards",
      "outputs": [
        {
          "internalType": "uint256",
          "name": "",
          "type": "uint256"
        }
      ],
      "stateMutability": "view",
      "type": "function"
    },
    {
      "inputs": [
        {
          "internalType": "uint256",
          "name": "_pid",
          "type": "uint256"
        }
      ],
      "name": "getMultLPAddress",
      "outputs": [
        {
          "internalType": "address",
          "name": "",
          "type": "address"
        }
      ],
      "stateMutability": "view",
      "type": "function"
    },
    {
      "inputs": [],
      "name": "getMultLPLength",
      "outputs": [
        {
          "internalType": "uint256",
          "name": "",
          "type": "uint256"
        }
      ],
      "stateMutability": "view",
      "type": "function"
    },
    {
      "inputs": [
        {
          "internalType": "address",
          "name": "_LP",
          "type": "address"
        }
      ],
      "name": "isMultLP",
      "outputs": [
        {
          "internalType": "bool",
          "name": "",
          "type": "bool"
        }
      ],
      "stateMutability": "view",
      "type": "function"
    },
    {
      "inputs": [
        {
          "internalType": "address",
          "name": "_lpToken",
          "type": "address"
        },
        {
          "internalType": "uint256",
          "name": "_unlockAmount",
          "type": "uint256"
        },
        {
          "internalType": "uint256",
          "name": "_feeAmount",
          "type": "uint256"
        },
        {
          "internalType": "address",
          "name": "_feeAddr",
          "type": "address"
        },
        {
          "internalType": "address",
          "name": "_unlockuser",
          "type": "address"
        }
      ],
      "name": "lenderUnlock",
      "outputs": [],
      "stateMutability": "nonpayable",
      "type": "function"
    },
    {
      "inputs": [
        {
          "internalType": "address",
          "name": "",
          "type": "address"
        },
        {
          "internalType": "address",
          "name": "",
          "type": "address"
        },
        {
          "internalType": "uint256",
          "name": "",
          "type": "uint256"
        }
      ],
      "name": "lockAmounts",
      "outputs": [
        {
          "internalType": "uint256",
          "name": "",
          "type": "uint256"
        }
      ],
      "stateMutability": "view",
      "type": "function"
    },
    {
      "inputs": [],
      "name": "massUpdatePools",
      "outputs": [],
      "stateMutability": "nonpayable",
      "type": "function"
    },
    {
      "inputs": [],
      "name": "multLpChef",
      "outputs": [
        {
          "internalType": "address",
          "name": "",
          "type": "address"
        }
      ],
      "stateMutability": "view",
      "type": "function"
    },
    {
      "inputs": [],
      "name": "multLpToken",
      "outputs": [
        {
          "internalType": "address",
          "name": "",
          "type": "address"
        }
      ],
      "stateMutability": "view",
      "type": "function"
    },
    {
      "inputs": [],
      "name": "owner",
      "outputs": [
        {
          "internalType": "address",
          "name": "",
          "type": "address"
        }
      ],
      "stateMutability": "view",
      "type": "function"
    },
    {
      "inputs": [],
      "name": "paused",
      "outputs": [
        {
          "internalType": "bool",
          "name": "",
          "type": "bool"
        }
      ],
      "stateMutability": "view",
      "type": "function"
    },
    {
      "inputs": [
        {
          "internalType": "uint256",
          "name": "_pid",
          "type": "uint256"
        },
        {
          "internalType": "address",
          "name": "_user",
          "type": "address"
        }
      ],
      "name": "pending",
      "outputs": [
        {
          "internalType": "uint256",
          "name": "",
          "type": "uint256"
        },
        {
          "internalType": "uint256",
          "name": "",
          "type": "uint256"
        }
      ],
      "stateMutability": "view",
      "type": "function"
    },
    {
      "inputs": [
        {
          "internalType": "address",
          "name": "_token",
          "type": "address"
        }
      ],
      "name": "pidFromLPAddr",
      "outputs": [
        {
          "internalType": "uint256",
          "name": "pid",
          "type": "uint256"
        }
      ],
      "stateMutability": "view",
      "type": "function"
    },
    {
      "inputs": [
        {
          "internalType": "uint256",
          "name": "",
          "type": "uint256"
        }
      ],
      "name": "poolCorrespond",
      "outputs": [
        {
          "internalType": "uint256",
          "name": "",
          "type": "uint256"
        }
      ],
      "stateMutability": "view",
      "type": "function"
    },
    {
      "inputs": [
        {
          "internalType": "uint256",
          "name": "",
          "type": "uint256"
        }
      ],
      "name": "poolInfo",
      "outputs": [
        {
          "internalType": "contract IERC20",
          "name": "lpToken",
          "type": "address"
        },
        {
          "internalType": "uint256",
          "name": "allocPoint",
          "type": "uint256"
        },
        {
          "internalType": "uint256",
          "name": "lastRewardBlock",
          "type": "uint256"
        },
        {
          "internalType": "uint256",
          "name": "accRewardPerShare",
          "type": "uint256"
        },
        {
          "internalType": "uint256",
          "name": "accMultLpPerShare",
          "type": "uint256"
        },
        {
          "internalType": "uint256",
          "name": "totalAmount",
          "type": "uint256"
        },
        {
          "internalType": "address",
          "name": "investPool",
          "type": "address"
        }
      ],
      "stateMutability": "view",
      "type": "function"
    },
    {
      "inputs": [],
      "name": "poolLength",
      "outputs": [
        {
          "internalType": "uint256",
          "name": "",
          "type": "uint256"
        }
      ],
      "stateMutability": "view",
      "type": "function"
    },
    {
      "inputs": [],
      "name": "refs",
      "outputs": [
        {
          "internalType": "contract IReferences",
          "name": "",
          "type": "address"
        }
      ],
      "stateMutability": "view",
      "type": "function"
    },
    {
      "inputs": [],
      "name": "renounceOwnership",
      "outputs": [],
      "stateMutability": "nonpayable",
      "type": "function"
    },
    {
      "inputs": [
        {
          "internalType": "address",
          "name": "_multLpToken",
          "type": "address"
        },
        {
          "internalType": "address",
          "name": "_multLpChef",
          "type": "address"
        }
      ],
      "name": "replaceMultLP",
      "outputs": [],
      "stateMutability": "nonpayable",
      "type": "function"
    },
    {
      "inputs": [
        {
          "internalType": "uint256",
          "name": "blockNumber",
          "type": "uint256"
        }
      ],
      "name": "reward",
      "outputs": [
        {
          "internalType": "uint256",
          "name": "",
          "type": "uint256"
        }
      ],
      "stateMutability": "view",
      "type": "function"
    },
    {
      "inputs": [
        {
          "internalType": "uint256",
          "name": "_pid",
          "type": "uint256"
        },
        {
          "internalType": "uint256",
          "name": "_allocPoint",
          "type": "uint256"
        },
        {
          "internalType": "bool",
          "name": "_withUpdate",
          "type": "bool"
        }
      ],
      "name": "set",
      "outputs": [],
      "stateMutability": "nonpayable",
      "type": "function"
    },
    {
      "inputs": [
        {
          "internalType": "uint256",
          "name": "_blockRewards",
          "type": "uint256"
        }
      ],
      "name": "setBlockRewards",
      "outputs": [],
      "stateMutability": "nonpayable",
      "type": "function"
    },
    {
      "inputs": [
        {
          "internalType": "address",
          "name": "_MAXRouter",
          "type": "address"
        }
      ],
      "name": "setMAXRouter",
      "outputs": [],
      "stateMutability": "nonpayable",
      "type": "function"
    },
    {
      "inputs": [
        {
          "internalType": "address",
          "name": "_multLpToken",
          "type": "address"
        },
        {
          "internalType": "address",
          "name": "_multLpChef",
          "type": "address"
        }
      ],
      "name": "setMultLP",
      "outputs": [],
      "stateMutability": "nonpayable",
      "type": "function"
    },
    {
      "inputs": [],
      "name": "setPause",
      "outputs": [],
      "stateMutability": "nonpayable",
      "type": "function"
    },
    {
      "inputs": [
        {
          "internalType": "uint256",
          "name": "_pid",
          "type": "uint256"
        },
        {
          "internalType": "uint256",
          "name": "_sid",
          "type": "uint256"
        }
      ],
      "name": "setPoolCorr",
      "outputs": [],
      "stateMutability": "nonpayable",
      "type": "function"
    },
    {
      "inputs": [
        {
          "internalType": "address",
          "name": "_refs",
          "type": "address"
        }
      ],
      "name": "setRefs",
      "outputs": [],
      "stateMutability": "nonpayable",
      "type": "function"
    },
    {
      "inputs": [
        {
          "internalType": "uint256",
          "name": "_startBlock",
          "type": "uint256"
        }
      ],
      "name": "setStartBlock",
      "outputs": [],
      "stateMutability": "nonpayable",
      "type": "function"
    },
    {
      "inputs": [],
      "name": "startBlock",
      "outputs": [
        {
          "internalType": "uint256",
          "name": "",
          "type": "uint256"
        }
      ],
      "stateMutability": "view",
      "type": "function"
    },
    {
      "inputs": [],
      "name": "totalAllocPoint",
      "outputs": [
        {
          "internalType": "uint256",
          "name": "",
          "type": "uint256"
        }
      ],
      "stateMutability": "view",
      "type": "function"
    },
    {
      "inputs": [
        {
          "internalType": "address",
          "name": "newOwner",
          "type": "address"
        }
      ],
      "name": "transferOwnership",
      "outputs": [],
      "stateMutability": "nonpayable",
      "type": "function"
    },
    {
      "inputs": [
        {
          "internalType": "uint256",
          "name": "_pid",
          "type": "uint256"
        }
      ],
      "name": "updatePool",
      "outputs": [],
      "stateMutability": "nonpayable",
      "type": "function"
    },
    {
      "inputs": [
        {
          "internalType": "uint256",
          "name": "",
          "type": "uint256"
        },
        {
          "internalType": "address",
          "name": "",
          "type": "address"
        }
      ],
      "name": "userInfo",
      "outputs": [
        {
          "internalType": "uint256",
          "name": "amount",
          "type": "uint256"
        },
        {
          "internalType": "uint256",
          "name": "rewardDebt",
          "type": "uint256"
        },
        {
          "internalType": "uint256",
          "name": "lockedAmount",
          "type": "uint256"
        },
        {
          "internalType": "uint256",
          "name": "multLpRewardDebt",
          "type": "uint256"
        }
      ],
      "stateMutability": "view",
      "type": "function"
    },
    {
      "inputs": [
        {
          "internalType": "uint256",
          "name": "_pid",
          "type": "uint256"
        },
        {
          "internalType": "uint256",
          "name": "_lendAmount",
          "type": "uint256"
        },
        {
          "internalType": "address",
          "name": "_lender",
          "type": "address"
        }
      ],
      "name": "userLock",
      "outputs": [],
      "stateMutability": "nonpayable",
      "type": "function"
    },
    {
      "inputs": [
        {
          "internalType": "address",
          "name": "_user",
          "type": "address"
        },
        {
          "internalType": "uint256",
          "name": "_pid",
          "type": "uint256"
        },
        {
          "internalType": "uint256",
          "name": "_lendAmount",
          "type": "uint256"
        },
        {
          "internalType": "address",
          "name": "_lender",
          "type": "address"
        }
      ],
      "name": "userLockFromRouter",
      "outputs": [],
      "stateMutability": "nonpayable",
      "type": "function"
    },
    {
      "inputs": [
        {
          "internalType": "uint256",
          "name": "_pid",
          "type": "uint256"
        },
        {
          "internalType": "uint256",
          "name": "_amount",
          "type": "uint256"
        },
        {
          "internalType": "address",
          "name": "_to",
          "type": "address"
        }
      ],
      "name": "withdraw",
      "outputs": [],
      "stateMutability": "nonpayable",
      "type": "function"
    }
  ],
  "bytecode": "0x6080604052600b805460ff191690556000600c553480156200002057600080fd5b5060405162003fd138038062003fd18339810160408190526200004391620000fa565b6200004e336200008d565b600380546001600160a01b039586166001600160a01b0319918216179091556004805494909516931692909217909255600591909155600d5562000142565b600080546001600160a01b038381166001600160a01b0319831681178455604051919092169283917f8be0079c531659141344cd1fd0a4f28419497f9722a3daafe3b4186f6b6457e09190a35050565b80516001600160a01b0381168114620000f557600080fd5b919050565b600080600080608085870312156200011157600080fd5b6200011c85620000dd565b93506200012c60208601620000dd565b6040860151606090960151949790965092505050565b613e7f80620001526000396000f3fe608060405234801561001057600080fd5b50600436106102955760003560e01c80638dbdbe6d11610167578063d431b1ac116100ce578063e6ab8d4811610087578063e6ab8d4814610673578063e715e2341461067b578063f2fde38b1461068e578063f35e4a6e146106a1578063f548f9c8146106b4578063f7cacda7146106c757600080fd5b8063d431b1ac14610620578063d49d518114610628578063da2448cb1461063b578063dfc7b95b14610644578063e442b94014610657578063e4c75c271461066057600080fd5b8063b0c7044b11610120578063b0c7044b14610594578063b337d32c146105b4578063cb4502c4146105c7578063cd19c096146105e7578063d2b4aeb9146105fa578063d3ed0b491461060d57600080fd5b80638dbdbe6d146104d55780638f998679146104e857806393f1a40b146104fb578063a02f98581461055b578063a9fb763c1461056e578063aaae43cc1461058157600080fd5b806356c5867d1161020b578063705bbc01116101c4578063705bbc0114610470578063715018a61461048357806372e9188b1461048b5780637f3709a31461049e5780637fe6f5ac146104b15780638da5cb5b146104c457600080fd5b806356c5867d146103e95780635c975abb1461040c5780635f70edcf146104195780636139fbb21461042c578063630b5ba11461045557806364482f791461045d57600080fd5b80631526fe271161025d5780631526fe271461033257806317caf6f1146103865780632f940c701461038f57806343154907146103a257806348cd4cb1146103cd57806351eb05a6146103d657600080fd5b806305208a5c1461029a578063081e3eda146102af5780630ad58d2f146102c65780630c9c774b146102d95780630e7af17b14610301575b600080fd5b6102ad6102a83660046139eb565b6106da565b005b6006545b6040519081526020015b60405180910390f35b6102ad6102d43660046139eb565b610717565b6102ec6102e7366004613a24565b61079e565b604080519283526020830191909152016102bd565b6102b361030f366004613a41565b600860209081526000938452604080852082529284528284209052825290205481565b610345610340366004613a82565b6107f4565b604080516001600160a01b03988916815260208101979097528601949094526060850192909252608084015260a083015290911660c082015260e0016102bd565b6102b3600c5481565b6102ad61039d366004613a9b565b61084f565b6103b56103b0366004613a82565b6108c9565b6040516001600160a01b0390911681526020016102bd565b6102b3600d5481565b6102ad6103e4366004613a82565b610936565b6103fc6103f7366004613a24565b610a7e565b60405190151581526020016102bd565b600b546103fc9060ff1681565b6102ad610427366004613ad9565b610b7c565b6102b361043a366004613a24565b6001600160a01b031660009081526009602052604090205490565b6102ad610ee4565b6102ad61046b366004613b2c565b610f0f565b600f546103b5906001600160a01b031681565b6102ad610fbe565b6102ad610499366004613a82565b610ff4565b6102b36104ac366004613a82565b61102b565b6103fc6104bf366004613a24565b61108a565b6000546001600160a01b03166103b5565b6102ad6104e33660046139eb565b611097565b6010546103b5906001600160a01b031681565b61053b610509366004613a9b565b600760209081526000928352604080842090915290825290208054600182015460028301546003909301549192909184565b6040805194855260208501939093529183015260608201526080016102bd565b6004546103b5906001600160a01b031681565b6102b361057c366004613a82565b611113565b6102ad61058f366004613b5a565b611135565b6102b36105a2366004613a24565b60096020526000908152604090205481565b6102ad6105c2366004613b88565b611309565b6102b36105d5366004613a82565b600a6020526000908152604090205481565b6102ad6105f5366004613baa565b61139e565b6102ad610608366004613a82565b61141f565b6102ad61061b366004613a24565b61144e565b6102ad61149a565b6003546103b5906001600160a01b031681565b6102b360055481565b600e546103b5906001600160a01b031681565b6102b360001981565b6102ec61066e366004613a9b565b6114d8565b6102b3611558565b6102ad610689366004613b5a565b611569565b6102ad61069c366004613a24565b611623565b6102ad6106af366004613a82565b6116bb565b6102ad6106c2366004613a24565b6116ea565b6102ad6106d5366004613be9565b611736565b600b5460ff16156107065760405162461bcd60e51b81526004016106fd90613c48565b60405180910390fd5b61071233848484611b63565b505050565b600b5460ff161561073a5760405162461bcd60e51b81526004016106fd90613c48565b60006006848154811061074f5761074f613c7f565b600091825260209091206007909102018054909150610776906001600160a01b031661108a565b1561078c5761078784843385611eed565b610798565b61079884843385612273565b50505050565b6006546000908190815b818110156107ed576000806107bd83886114d8565b90925090506107cc8683612444565b95506107d88582612444565b94505050806107e690613cab565b90506107a8565b5050915091565b6006818154811061080457600080fd5b600091825260209091206007909102018054600182015460028301546003840154600485015460058601546006909601546001600160a01b0395861697509395929491939092911687565b600b5460ff16156108725760405162461bcd60e51b81526004016106fd90613c48565b60006006838154811061088757610887613c7f565b6000918252602090912060079091020180549091506108ae906001600160a01b031661108a565b156108be57610712833384612457565b6107128333846126dc565b600060016108d5611558565b6108df9190613cc6565b8211156109255760405162461bcd60e51b815260206004820152601460248201527306e6f742066696e642074686973206d756c744c560641b60448201526064016106fd565b6109306001836127dd565b92915050565b60006006828154811061094b5761094b613c7f565b906000526020600020906007020190508060020154431161096a575050565b60058101548061097f57504360029091015550565b600061098e836002015461102b565b90506000811161099e5750505050565b60006109c3600c546109bd8660010154856127e990919063ffffffff16565b906127f5565b6003546040516340c10f1960e01b8152306004820152602481018390529192506000916001600160a01b03909116906340c10f19906044016020604051808303816000875af1158015610a1a573d6000803e3d6000fd5b505050506040513d601f19601f82011682018060405250810190610a3e9190613cdd565b90508015610a6d57610a67610a5c856109bd8564e8d4a510006127e9565b600387015490612444565b60038601555b438560020181905550505050505050565b600080546001600160a01b03163314610aa95760405162461bcd60e51b81526004016106fd90613cfa565b6001600160a01b038216610af85760405162461bcd60e51b81526020600482015260166024820152754c5020697320746865207a65726f206164647265737360501b60448201526064016106fd565b600e5460405163095ea7b360e01b81526001600160a01b03918216600482015260001960248201529083169063095ea7b3906044016020604051808303816000875af1158015610b4c573d6000803e3d6000fd5b505050506040513d601f19601f82011682018060405250810190610b709190613cdd565b50610930600183612801565b6000546001600160a01b03163314610ba65760405162461bcd60e51b81526004016106fd90613cfa565b6001600160a01b038316610bfc5760405162461bcd60e51b815260206004820152601c60248201527f5f6c70546f6b656e20697320746865207a65726f20616464726573730000000060448201526064016106fd565b6001600160a01b03831660009081526009602052604090205415610c5b5760405162461bcd60e51b815260206004820152601660248201527517db1c151bdad95b88185b1c9958591e48195e1a5cdd60521b60448201526064016106fd565b6000610c6660065490565b118015610ca85750826001600160a01b03166006600081548110610c8c57610c8c613c7f565b60009182526020909120600790910201546001600160a01b0316145b15610cf55760405162461bcd60e51b815260206004820152601b60248201527f5f6c70546f6b656e20616c726561647920657869737420696e2030000000000060448201526064016106fd565b8115610d0357610d03610ee4565b6000600d544311610d1657600d54610d18565b435b600c54909150610d289086612444565b600c556040805160e0810182526001600160a01b038087168252602082018881529282018481526000606084018181526080850182815260a0860183815289861660c08801908152600680546001818101835591909652975160079095027ff652222313e28459528d920b65115c16c04f3efc82aaedc97be59f3f377c0d3f810180549689166001600160a01b031997881617905598517ff652222313e28459528d920b65115c16c04f3efc82aaedc97be59f3f377c0d408a015594517ff652222313e28459528d920b65115c16c04f3efc82aaedc97be59f3f377c0d4189015591517ff652222313e28459528d920b65115c16c04f3efc82aaedc97be59f3f377c0d42880155517ff652222313e28459528d920b65115c16c04f3efc82aaedc97be59f3f377c0d43870155517ff652222313e28459528d920b65115c16c04f3efc82aaedc97be59f3f377c0d4486015590517ff652222313e28459528d920b65115c16c04f3efc82aaedc97be59f3f377c0d45909401805494909216931692909217909155610eb760065490565b610ec19190613cc6565b6001600160a01b0390941660009081526009602052604090209390935550505050565b60065460005b81811015610f0b57610efb81610936565b610f0481613cab565b9050610eea565b5050565b6000546001600160a01b03163314610f395760405162461bcd60e51b81526004016106fd90613cfa565b8015610f4757610f47610ee4565b610f8a82610f8460068681548110610f6157610f61613c7f565b906000526020600020906007020160010154600c5461281690919063ffffffff16565b90612444565b600c819055508160068481548110610fa457610fa4613c7f565b906000526020600020906007020160010181905550505050565b6000546001600160a01b03163314610fe85760405162461bcd60e51b81526004016106fd90613cfa565b610ff26000612822565b565b6000546001600160a01b0316331461101e5760405162461bcd60e51b81526004016106fd90613cfa565b6110283382612872565b50565b6000600d5443111561108257600d54821161106c576109306005546110666001611060600d544361281690919063ffffffff16565b90612816565b906127e9565b6005546109309061106660016110604387612816565b506000919050565b600061093060018361293e565b600b5460ff16156110ba5760405162461bcd60e51b81526004016106fd90613c48565b6000600684815481106110cf576110cf613c7f565b6000918252602090912060079091020180549091506110f6906001600160a01b031661108a565b156111075761078784843385612960565b61079884843385612efa565b60006109306005546110666001611060600d548761281690919063ffffffff16565b6000546001600160a01b0316331461115f5760405162461bcd60e51b81526004016106fd90613cfa565b6001600160a01b0382161580159061117f57506001600160a01b03811615155b6111c15760405162461bcd60e51b8152602060048201526013602482015272697320746865207a65726f206164647265737360681b60448201526064016106fd565b600b5460ff16151560011461120f5760405162461bcd60e51b815260206004820152601460248201527327379036b4b734b7339039bab9b832b739b4b7b760611b60448201526064016106fd565b600f80546001600160a01b038085166001600160a01b031992831617909255600e8054928416929091169190911790556000611249611558565b90505b8015610712576000611260600160006127dd565b6001600160a01b03808216600090815260096020908152604080832054600e54818552600a90935292819020549051632989754760e11b81529495509193921691635312ea8e916112b79160040190815260200190565b600060405180830381600087803b1580156112d157600080fd5b505af11580156112e5573d6000803e3d6000fd5b505050506112f4600183613072565b50826112ff81613d2f565b935050505061124c565b6000546001600160a01b031633146113335760405162461bcd60e51b81526004016106fd90613cfa565b600161133e60065490565b6113489190613cc6565b82111561138c5760405162461bcd60e51b81526020600482015260126024820152711b9bdd08199a5b99081d1a1a5cc81c1bdbdb60721b60448201526064016106fd565b6000918252600a602052604090912055565b600b5460ff16156113c15760405162461bcd60e51b81526004016106fd90613c48565b6010546001600160a01b031633146114135760405162461bcd60e51b815260206004820152601560248201527437b7363c9031b0b63610333937b6903937baba32b960591b60448201526064016106fd565b61079884848484611b63565b6000546001600160a01b031633146114495760405162461bcd60e51b81526004016106fd90613cfa565b600555565b6000546001600160a01b031633146114785760405162461bcd60e51b81526004016106fd90613cfa565b601080546001600160a01b0319166001600160a01b0392909216919091179055565b6000546001600160a01b031633146114c45760405162461bcd60e51b81526004016106fd90613cfa565b600b805460ff19811660ff90911615179055565b6000806000600685815481106114f0576114f0613c7f565b600091825260209091206007909102018054909150611517906001600160a01b031661108a565b15611537576000806115298787613087565b909550935061155192505050565b600061154386866132bb565b935060009250611551915050565b9250929050565b600061156460016133f4565b905090565b6000546001600160a01b031633146115935760405162461bcd60e51b81526004016106fd90613cfa565b6001600160a01b038216158015906115b357506001600160a01b03811615155b6115f55760405162461bcd60e51b8152602060048201526013602482015272697320746865207a65726f206164647265737360681b60448201526064016106fd565b600f80546001600160a01b039384166001600160a01b031991821617909155600e8054929093169116179055565b6000546001600160a01b0316331461164d5760405162461bcd60e51b81526004016106fd90613cfa565b6001600160a01b0381166116b25760405162461bcd60e51b815260206004820152602660248201527f4f776e61626c653a206e6577206f776e657220697320746865207a65726f206160448201526564647265737360d01b60648201526084016106fd565b61102881612822565b6000546001600160a01b031633146116e55760405162461bcd60e51b81526004016106fd90613cfa565b600d55565b6000546001600160a01b031633146117145760405162461bcd60e51b81526004016106fd90613cfa565b600480546001600160a01b0319166001600160a01b0392909216919091179055565b600b5460ff16156117595760405162461bcd60e51b81526004016106fd90613c48565b6000841161179e5760405162461bcd60e51b8152602060048201526012602482015271756e6c6f636b20616d6f756e74207a65726f60701b60448201526064016106fd565b838311156117e15760405162461bcd60e51b815260206004820152601060248201526f3332b29020b6b7bab73a1032b93937b960811b60448201526064016106fd565b6001600160a01b0380861660009081526009602090815260408083205433808552600884528285209587168552948352818420818552909252909120548611156118645760405162461bcd60e51b81526020600482015260146024820152731d5b9b1bd8dac8185b5bdd5b9d08195e18d9595960621b60448201526064016106fd565b60006006828154811061187957611879613c7f565b60009182526020808320858452600780835260408086206001600160a01b038b1687529093529190932080549290910290920192508811156118f05760405162461bcd60e51b815260206004820152601060248201526f75736572206c7020616d6f756e74203f60801b60448201526064016106fd565b878160020154101561193b5760405162461bcd60e51b815260206004820152601460248201527375736572206c6f636b656420616d6f756e74203f60601b60448201526064016106fd565b60068201546001600160a01b03166119f25786881115611999576001600160a01b03861661198a5761198584306119728b8b612816565b85546001600160a01b03169291906133fe565b611999565b61199984876119728b8b612816565b6001600160a01b0380851690849087167f73f22f9413f0b6509cfe49786e8006db2774297414aa4c27e28ddbda26d99f848b6119d5818d612816565b6040805192835260208301919091520160405180910390a4611a4b565b836001600160a01b031683866001600160a01b03167f73f22f9413f0b6509cfe49786e8006db2774297414aa4c27e28ddbda26d99f848b6000604051611a42929190918252602082015260400190565b60405180910390a45b6002810154611a5a9089612816565b60028201556001600160a01b038085166000908152600860209081526040808320938916835292815282822086835290522054611a979089612816565b6001600160a01b038086166000908152600860209081526040808320938a168352928152828220878352905220558615611b5857611ad483610936565b6000611b02826001015461106064e8d4a510006109bd876003015487600001546127e990919063ffffffff16565b90508015611b1457611b148682613469565b8154611b209089612816565b82556005830154611b319089612816565b600584015560038301548254611b519164e8d4a51000916109bd916127e9565b6001830155505b505050505050505050565b60008211611ba65760405162461bcd60e51b815260206004820152601060248201526f6c656e6420616d6f756e74207a65726f60801b60448201526064016106fd565b600060068481548110611bbb57611bbb613c7f565b60009182526020808320878452600780835260408086206001600160a01b038c168752909352919093208054929091029092019250611c355760405162461bcd60e51b81526020600482015260166024820152751d5cd95c881a185d99481b9bc81b1c08185b5bdd5b9d60521b60448201526064016106fd565b6000611caa846001600160a01b031663da0009686040518163ffffffff1660e01b81526004016020604051808303816000875af1158015611c7a573d6000803e3d6000fd5b505050506040513d601f19601f82011682018060405250810190611c9e9190613d46565b6109bd876127106127e9565b8254600284015491925090611cbf9083612444565b1115611d015760405162461bcd60e51b81526020600482015260116024820152701b9bdd08195b9bdd59da08185b5bdd5b9d607a1b60448201526064016106fd565b60068301546001600160a01b0316611d85578254611d29906001600160a01b031685836135e7565b836001600160a01b031686886001600160a01b03167f8e65daeb74255bbc967a99fbb7cfa45573a8b8a1ac2fab47f3081c2ee92592068485604051611d78929190918252602082015260400190565b60405180910390a4611dde565b836001600160a01b031686886001600160a01b03167f8e65daeb74255bbc967a99fbb7cfa45573a8b8a1ac2fab47f3081c2ee9259206846000604051611dd5929190918252602082015260400190565b60405180910390a45b6001600160a01b038085166000908152600860209081526040808320938b16835292815282822089835290522054611e169082612444565b6001600160a01b038086166000908152600860209081526040808320938c1683529281528282208a8352905220556002820154611e539082612444565b600283015582546006840154604051634626ddb360e01b81526001600160a01b038a81166004830152928316602482015260448101889052908216606482015290851690634626ddb3906084016020604051808303816000875af1158015611ebf573d6000803e3d6000fd5b505050506040513d601f19601f82011682018060405250810190611ee39190613d46565b5050505050505050565b600060068581548110611f0257611f02613c7f565b60009182526020808320888452600780835260408086206001600160a01b038a16875290935291909320600281015481549390920290930193508691611f4791612816565b1015611f8a5760405162461bcd60e51b81526020600482015260126024820152711dda5d1a191c985dce881b9bdd0819dbdbd960721b60448201526064016106fd565b611f9386610936565b6000611fc1826001015461106064e8d4a510006109bd876003015487600001546127e990919063ffffffff16565b90508015611fd357611fd38482613469565b85156121e557600f546040516370a0823160e01b81523060048201526000916001600160a01b0316906370a0823190602401602060405180830381865afa158015612022573d6000803e3d6000fd5b505050506040513d601f19601f820116820180604052508101906120469190613d46565b600e5460008a8152600a602052604090819020549051630441a3e760e41b81526004810191909152602481018a90529192506001600160a01b03169063441a3e7090604401600060405180830381600087803b1580156120a557600080fd5b505af11580156120b9573d6000803e3d6000fd5b5050600f546040516370a0823160e01b8152306004820152600093506001600160a01b0390911691506370a0823190602401602060405180830381865afa158015612108573d6000803e3d6000fd5b505050506040513d601f19601f8201168201806040525081019061212c9190613d46565b905061216061215586600501546109bd64e8d4a51000611066878761281690919063ffffffff16565b600487015490612444565b600486018190556003850154855460009261218a92916110609164e8d4a51000916109bd916127e9565b905080156121a957600f546121a9906001600160a01b031688836135e7565b84546121b5908a612816565b855560058601546121c6908a612816565b600587015585546121e1906001600160a01b0316888b6135e7565b5050505b600383015482546122009164e8d4a51000916109bd916127e9565b6001830155600483015482546122209164e8d4a51000916109bd916127e9565b60038301556040518681526001600160a01b038086169189918816907f8166bf25f8a2b7ed3c85049207da4358d16edbed977d23fa2ee6f0dde3ec2132906020015b60405180910390a450505050505050565b60006006858154811061228857612288613c7f565b60009182526020808320888452600780835260408086206001600160a01b038a168752909352919093206002810154815493909202909301935086916122cd91612816565b10156123105760405162461bcd60e51b81526020600482015260126024820152711dda5d1a191c985dce881b9bdd0819dbdbd960721b60448201526064016106fd565b61231986610936565b6000612347826001015461106064e8d4a510006109bd876003015487600001546127e990919063ffffffff16565b90508015612359576123598482613469565b85156123e357815461236b9087612816565b808355600283015411156123b95760405162461bcd60e51b81526020600482015260156024820152741b1bd8dac8185b5bdd5b9d0e881b9bdd0819dbdbd9605a1b60448201526064016106fd565b60058301546123c89087612816565b600584015582546123e3906001600160a01b031685886135e7565b600383015482546123fe9164e8d4a51000916109bd916127e9565b60018301556040518681526001600160a01b038086169189918816907f8166bf25f8a2b7ed3c85049207da4358d16edbed977d23fa2ee6f0dde3ec213290602001612262565b60006124508284613d5f565b9392505050565b60006006848154811061246c5761246c613c7f565b60009182526020808320878452600780835260408086206001600160a01b038a1687529093529184206002810154815494909302909101945092916124b091612816565b600f546040516370a0823160e01b81523060048201529192506000916001600160a01b03909116906370a0823190602401602060405180830381865afa1580156124fe573d6000803e3d6000fd5b505050506040513d601f19601f820116820180604052508101906125229190613d46565b600e546000898152600a602052604090819020549051630441a3e760e41b81526004810191909152602481018590529192506001600160a01b03169063441a3e7090604401600060405180830381600087803b15801561258157600080fd5b505af1158015612595573d6000803e3d6000fd5b5050600f546040516370a0823160e01b8152306004820152600093506001600160a01b0390911691506370a0823190602401602060405180830381865afa1580156125e4573d6000803e3d6000fd5b505050506040513d601f19601f820116820180604052508101906126089190613d46565b905061263161215586600501546109bd64e8d4a51000611066878761281690919063ffffffff16565b600486015583546126429084612816565b808555600386015461265f9164e8d4a51000916109bd91906127e9565b6001850155845461267a906001600160a01b031687856135e7565b60058501546126899084612816565b60058601556040518381526001600160a01b03808816918a918a16907f2cac5e20e1541d836381527a43f651851e302817b71dc8e810284e69210c1c6b9060200160405180910390a45050505050505050565b6000600684815481106126f1576126f1613c7f565b60009182526020808320878452600780835260408086206001600160a01b038a16875290935291842060028101548154949093029091019450929161273591612816565b82549091506127449082612816565b80835560038401546127619164e8d4a51000916109bd91906127e9565b6001830155825461277c906001600160a01b031685836135e7565b600583015461278b9082612816565b60058401556040518181526001600160a01b038086169188918816907f2cac5e20e1541d836381527a43f651851e302817b71dc8e810284e69210c1c6b906020015b60405180910390a4505050505050565b60006124508383613617565b60006124508284613d77565b60006124508284613d96565b6000612450836001600160a01b038416613641565b60006124508284613cc6565b600080546001600160a01b038381166001600160a01b0319831681178455604051919092169283917f8be0079c531659141344cd1fd0a4f28419497f9722a3daafe3b4186f6b6457e09190a35050565b604080516000808252602082019092526001600160a01b03841690839060405161289c9190613de4565b60006040518083038185875af1925050503d80600081146128d9576040519150601f19603f3d011682016040523d82523d6000602084013e6128de565b606091505b50509050806107125760405162461bcd60e51b815260206004820152602660248201527f5472616e7366657248656c7065723a204e61746976655f5452414e534645525f60448201526511905253115160d21b60648201526084016106fd565b6001600160a01b03811660009081526001830160205260408120541515612450565b60006006858154811061297557612975613c7f565b60009182526020808320888452600780835260408086206001600160a01b038916875290935291909320910290910191506129af86610936565b805415612bc05760006129e4826001015461106064e8d4a510006109bd876003015487600001546127e990919063ffffffff16565b905080156129f6576129f68482613469565b600f546040516370a0823160e01b81523060048201526000916001600160a01b0316906370a0823190602401602060405180830381865afa158015612a3f573d6000803e3d6000fd5b505050506040513d601f19601f82011682018060405250810190612a639190613d46565b600e5460008a8152600a6020526040808220549051631c57762b60e31b8152600481019190915260248101919091529192506001600160a01b03169063e2bbb15890604401600060405180830381600087803b158015612ac257600080fd5b505af1158015612ad6573d6000803e3d6000fd5b5050600f546040516370a0823160e01b8152306004820152600093506001600160a01b0390911691506370a0823190602401602060405180830381865afa158015612b25573d6000803e3d6000fd5b505050506040513d601f19601f82011682018060405250810190612b499190613d46565b9050612b7261215586600501546109bd64e8d4a51000611066878761281690919063ffffffff16565b6004860181905560038501548554600092612b9c92916110609164e8d4a51000916109bd916127e9565b90508015612bbb57600f54612bbb906001600160a01b031688836135e7565b505050505b8415612e715760068201546001600160a01b0316612bf4578154612bef906001600160a01b03168530886133fe565b612c14565b60068201548254612c14916001600160a01b0391821691879116886133fe565b6005820154612cc057600e546000878152600a602052604090819020549051631c57762b60e31b81526001600160a01b039092169163e2bbb15891612c66918990600401918252602082015260400190565b600060405180830381600087803b158015612c8057600080fd5b505af1158015612c94573d6000803e3d6000fd5b50508254612ca59250905086612444565b81556005820154612cb69086612444565b6005830155612e71565b600f546040516370a0823160e01b81523060048201526000916001600160a01b0316906370a0823190602401602060405180830381865afa158015612d09573d6000803e3d6000fd5b505050506040513d601f19601f82011682018060405250810190612d2d9190613d46565b600e546000898152600a602052604090819020549051631c57762b60e31b81526004810191909152602481018990529192506001600160a01b03169063e2bbb15890604401600060405180830381600087803b158015612d8c57600080fd5b505af1158015612da0573d6000803e3d6000fd5b5050600f546040516370a0823160e01b8152306004820152600093506001600160a01b0390911691506370a0823190602401602060405180830381865afa158015612def573d6000803e3d6000fd5b505050506040513d601f19601f82011682018060405250810190612e139190613d46565b9050612e47612e3c85600501546109bd64e8d4a51000611066878761281690919063ffffffff16565b600486015490612444565b60048501558254612e589088612444565b83556005840154612e699088612444565b600585015550505b60038201548154612e8c9164e8d4a51000916109bd916127e9565b600182015560048201548154612eac9164e8d4a51000916109bd916127e9565b816003018190555085836001600160a01b0316856001600160a01b03167fdcbc1c05240f31ff3ad067ef1ee35ce4997762752e3a095284754544f4c709d7886040516127cd91815260200190565b600060068581548110612f0f57612f0f613c7f565b60009182526020808320888452600780835260408086206001600160a01b03891687529093529190932091029091019150612f4986610936565b805415612f92576000612f7e826001015461106064e8d4a510006109bd876003015487600001546127e990919063ffffffff16565b90508015612f9057612f908482613469565b505b84156130095760068201546001600160a01b0316612fc6578154612fc1906001600160a01b03168530886133fe565b612fe6565b60068201548254612fe6916001600160a01b0391821691879116886133fe565b8054612ff29086612444565b815560058201546130039086612444565b60058301555b600382015481546130249164e8d4a51000916109bd916127e9565b816001018190555085836001600160a01b0316856001600160a01b03167fdcbc1c05240f31ff3ad067ef1ee35ce4997762752e3a095284754544f4c709d7886040516127cd91815260200190565b6000612450836001600160a01b038416613690565b60008060006006858154811061309f5761309f613c7f565b60009182526020808320888452600780835260408086206001600160a01b038b1687529093529190932091029091016003810154600482015483549294509091156132ab57600e546000898152600a602052604080822054905163e4c75c2760e01b8152600481019190915230602482015290916001600160a01b03169063e4c75c2790604401602060405180830381865afa158015613143573d6000803e3d6000fd5b505050506040513d601f19601f820116820180604052508101906131679190613d46565b905061319361318c86600501546109bd64e8d4a51000856127e990919063ffffffff16565b8390612444565b915060006131bf856003015461106064e8d4a510006109bd878a600001546127e990919063ffffffff16565b905085600201544311156132655760006131dc876002015461102b565b905060006131fd600c546109bd8a60010154856127e990919063ffffffff16565b905061322961322289600501546109bd64e8d4a51000856127e990919063ffffffff16565b8790612444565b9550613253876001015461106064e8d4a510006109bd8a8c600001546127e990919063ffffffff16565b83995099505050505050505050611551565b85600201544314156132a857613299856001015461106064e8d4a510006109bd888a600001546127e990919063ffffffff16565b97509550611551945050505050565b50505b5060009788975095505050505050565b600080600684815481106132d1576132d1613c7f565b60009182526020808320878452600780835260408086206001600160a01b038a1687529093529190932091029091016003810154600582015483549294509091156133e75783600201544311156133a8576000613331856002015461102b565b90506000613352600c546109bd8860010154856127e990919063ffffffff16565b905061337161336a846109bd8464e8d4a510006127e9565b8590612444565b935061339b856001015461106064e8d4a510006109bd888a600001546127e990919063ffffffff16565b9650505050505050610930565b83600201544314156133e7576133dc836001015461106064e8d4a510006109bd8688600001546127e990919063ffffffff16565b945050505050610930565b5060009695505050505050565b6000610930825490565b6040516001600160a01b03808516602483015283166044820152606481018290526107989085906323b872dd60e01b906084015b60408051601f198184030181529190526020810180516001600160e01b03166001600160e01b031990931692909217909152613783565b6003546040516370a0823160e01b81523060048201526000916001600160a01b0316906370a0823190602401602060405180830381865afa1580156134b2573d6000803e3d6000fd5b505050506040513d601f19601f820116820180604052508101906134d69190613d46565b9050808211156134e4578091505b6004546001600160a01b0316156135705760048054604051631494d4b760e11b81526001600160a01b038681169382019390935260248101859052911690632929a96e906044016020604051808303816000875af115801561354a573d6000803e3d6000fd5b505050506040513d601f19601f8201168201806040525081019061356e9190613d46565b505b60035460405163a9059cbb60e01b81526001600160a01b038581166004830152602482018590529091169063a9059cbb906044016020604051808303816000875af11580156135c3573d6000803e3d6000fd5b505050506040513d601f19601f820116820180604052508101906107989190613cdd565b6040516001600160a01b03831660248201526044810182905261071290849063a9059cbb60e01b90606401613432565b600082600001828154811061362e5761362e613c7f565b9060005260206000200154905092915050565b600081815260018301602052604081205461368857508154600181810184556000848152602080822090930184905584548482528286019093526040902091909155610930565b506000610930565b600081815260018301602052604081205480156137795760006136b4600183613cc6565b85549091506000906136c890600190613cc6565b905081811461372d5760008660000182815481106136e8576136e8613c7f565b906000526020600020015490508087600001848154811061370b5761370b613c7f565b6000918252602080832090910192909255918252600188019052604090208390555b855486908061373e5761373e613e00565b600190038181906000526020600020016000905590558560010160008681526020019081526020016000206000905560019350505050610930565b6000915050610930565b60006137d8826040518060400160405280602081526020017f5361666545524332303a206c6f772d6c6576656c2063616c6c206661696c6564815250856001600160a01b03166138559092919063ffffffff16565b80519091501561071257808060200190518101906137f69190613cdd565b6107125760405162461bcd60e51b815260206004820152602a60248201527f5361666545524332303a204552433230206f7065726174696f6e20646964206e6044820152691bdd081cdd58d8d9595960b21b60648201526084016106fd565b6060613864848460008561386c565b949350505050565b6060824710156138cd5760405162461bcd60e51b815260206004820152602660248201527f416464726573733a20696e73756666696369656e742062616c616e636520666f6044820152651c8818d85b1b60d21b60648201526084016106fd565b6001600160a01b0385163b6139245760405162461bcd60e51b815260206004820152601d60248201527f416464726573733a2063616c6c20746f206e6f6e2d636f6e747261637400000060448201526064016106fd565b600080866001600160a01b031685876040516139409190613de4565b60006040518083038185875af1925050503d806000811461397d576040519150601f19603f3d011682016040523d82523d6000602084013e613982565b606091505b509150915061399282828661399d565b979650505050505050565b606083156139ac575081612450565b8251156139bc5782518084602001fd5b8160405162461bcd60e51b81526004016106fd9190613e16565b6001600160a01b038116811461102857600080fd5b600080600060608486031215613a0057600080fd5b83359250602084013591506040840135613a19816139d6565b809150509250925092565b600060208284031215613a3657600080fd5b8135612450816139d6565b600080600060608486031215613a5657600080fd5b8335613a61816139d6565b92506020840135613a71816139d6565b929592945050506040919091013590565b600060208284031215613a9457600080fd5b5035919050565b60008060408385031215613aae57600080fd5b823591506020830135613ac0816139d6565b809150509250929050565b801515811461102857600080fd5b60008060008060808587031215613aef57600080fd5b843593506020850135613b01816139d6565b92506040850135613b1181613acb565b91506060850135613b21816139d6565b939692955090935050565b600080600060608486031215613b4157600080fd5b83359250602084013591506040840135613a1981613acb565b60008060408385031215613b6d57600080fd5b8235613b78816139d6565b91506020830135613ac0816139d6565b60008060408385031215613b9b57600080fd5b50508035926020909101359150565b60008060008060808587031215613bc057600080fd5b8435613bcb816139d6565b935060208501359250604085013591506060850135613b21816139d6565b600080600080600060a08688031215613c0157600080fd5b8535613c0c816139d6565b945060208601359350604086013592506060860135613c2a816139d6565b91506080860135613c3a816139d6565b809150509295509295909350565b60208082526019908201527f4d696e696e6720686173206265656e2073757370656e64656400000000000000604082015260600190565b634e487b7160e01b600052603260045260246000fd5b634e487b7160e01b600052601160045260246000fd5b6000600019821415613cbf57613cbf613c95565b5060010190565b600082821015613cd857613cd8613c95565b500390565b600060208284031215613cef57600080fd5b815161245081613acb565b6020808252818101527f4f776e61626c653a2063616c6c6572206973206e6f7420746865206f776e6572604082015260600190565b600081613d3e57613d3e613c95565b506000190190565b600060208284031215613d5857600080fd5b5051919050565b60008219821115613d7257613d72613c95565b500190565b6000816000190483118215151615613d9157613d91613c95565b500290565b600082613db357634e487b7160e01b600052601260045260246000fd5b500490565b60005b83811015613dd3578181015183820152602001613dbb565b838111156107985750506000910152565b60008251613df6818460208701613db8565b9190910192915050565b634e487b7160e01b600052603160045260246000fd5b6020815260008251806020840152613e35816040850160208701613db8565b601f01601f1916919091016040019291505056fea26469706673582212207f686ee5caf945bdd65263b0de393a1d8d19f213f0618133b3b0786f91a9a32464736f6c634300080a0033",
  "linkReferences": {},
  "deployedLinkReferences": {}
}