{
  "_format": "hh-sol-artifact-1",
  "contractName": "GUTToken",
  "sourceName": "contracts/maxity/impl/GUTToken.sol",
  "abi": [
    {
      "inputs": [
        {
          "internalType": "string",
          "name": "name",
          "type": "string"
        },
        {
          "internalType": "string",
          "name": "symbol",
          "type": "string"
        }
      ],
      "stateMutability": "nonpayable",
      "type": "constructor"
    },
    {
      "anonymous": false,
      "inputs": [
        {
          "indexed": true,
          "internalType": "address",
          "name": "owner",
          "type": "address"
        },
        {
          "indexed": true,
          "internalType": "address",
          "name": "spender",
          "type": "address"
        },
        {
          "indexed": false,
          "internalType": "uint256",
          "name": "value",
          "type": "uint256"
        }
      ],
      "name": "Approval",
      "type": "event"
    },
    {
      "anonymous": false,
      "inputs": [
        {
          "indexed": true,
          "internalType": "address",
          "name": "user",
          "type": "address"
        },
        {
          "indexed": true,
          "internalType": "address",
          "name": "to",
          "type": "address"
        },
        {
          "indexed": false,
          "internalType": "uint256",
          "name": "amount",
          "type": "uint256"
        },
        {
          "indexed": false,
          "internalType": "uint256",
          "name": "fee",
          "type": "uint256"
        }
      ],
      "name": "Deposit",
      "type": "event"
    },
    {
      "anonymous": false,
      "inputs": [
        {
          "indexed": true,
          "internalType": "address",
          "name": "previousOwner",
          "type": "address"
        },
        {
          "indexed": true,
          "internalType": "address",
          "name": "newOwner",
          "type": "address"
        }
      ],
      "name": "OwnershipTransferred",
      "type": "event"
    },
    {
      "anonymous": false,
      "inputs": [
        {
          "indexed": true,
          "internalType": "address",
          "name": "from",
          "type": "address"
        },
        {
          "indexed": true,
          "internalType": "address",
          "name": "to",
          "type": "address"
        },
        {
          "indexed": false,
          "internalType": "uint256",
          "name": "value",
          "type": "uint256"
        }
      ],
      "name": "Transfer",
      "type": "event"
    },
    {
      "anonymous": false,
      "inputs": [
        {
          "indexed": true,
          "internalType": "address",
          "name": "user",
          "type": "address"
        },
        {
          "indexed": true,
          "internalType": "address",
          "name": "to",
          "type": "address"
        },
        {
          "indexed": false,
          "internalType": "uint256",
          "name": "amount",
          "type": "uint256"
        },
        {
          "indexed": false,
          "internalType": "uint256",
          "name": "fee",
          "type": "uint256"
        }
      ],
      "name": "Withdraw",
      "type": "event"
    },
    {
      "inputs": [
        {
          "internalType": "address",
          "name": "_addMinter",
          "type": "address"
        }
      ],
      "name": "addMinter",
      "outputs": [
        {
          "internalType": "bool",
          "name": "",
          "type": "bool"
        }
      ],
      "stateMutability": "nonpayable",
      "type": "function"
    },
    {
      "inputs": [
        {
          "internalType": "address",
          "name": "owner",
          "type": "address"
        },
        {
          "internalType": "address",
          "name": "spender",
          "type": "address"
        }
      ],
      "name": "allowance",
      "outputs": [
        {
          "internalType": "uint256",
          "name": "",
          "type": "uint256"
        }
      ],
      "stateMutability": "view",
      "type": "function"
    },
    {
      "inputs": [
        {
          "internalType": "address",
          "name": "spender",
          "type": "address"
        },
        {
          "internalType": "uint256",
          "name": "amount",
          "type": "uint256"
        }
      ],
      "name": "approve",
      "outputs": [
        {
          "internalType": "bool",
          "name": "",
          "type": "bool"
        }
      ],
      "stateMutability": "nonpayable",
      "type": "function"
    },
    {
      "inputs": [
        {
          "internalType": "address",
          "name": "account",
          "type": "address"
        }
      ],
      "name": "balanceOf",
      "outputs": [
        {
          "internalType": "uint256",
          "name": "",
          "type": "uint256"
        }
      ],
      "stateMutability": "view",
      "type": "function"
    },
    {
      "inputs": [
        {
          "internalType": "address",
          "name": "_from",
          "type": "address"
        },
        {
          "internalType": "uint256",
          "name": "_amount",
          "type": "uint256"
        }
      ],
      "name": "burn",
      "outputs": [
        {
          "internalType": "bool",
          "name": "",
          "type": "bool"
        }
      ],
      "stateMutability": "nonpayable",
      "type": "function"
    },
    {
      "inputs": [],
      "name": "decimals",
      "outputs": [
        {
          "internalType": "uint8",
          "name": "",
          "type": "uint8"
        }
      ],
      "stateMutability": "view",
      "type": "function"
    },
    {
      "inputs": [
        {
          "internalType": "address",
          "name": "spender",
          "type": "address"
        },
        {
          "internalType": "uint256",
          "name": "subtractedValue",
          "type": "uint256"
        }
      ],
      "name": "decreaseAllowance",
      "outputs": [
        {
          "internalType": "bool",
          "name": "",
          "type": "bool"
        }
      ],
      "stateMutability": "nonpayable",
      "type": "function"
    },
    {
      "inputs": [
        {
          "internalType": "address",
          "name": "_delMinter",
          "type": "address"
        }
      ],
      "name": "delMinter",
      "outputs": [
        {
          "internalType": "bool",
          "name": "",
          "type": "bool"
        }
      ],
      "stateMutability": "nonpayable",
      "type": "function"
    },
    {
      "inputs": [
        {
          "internalType": "uint256",
          "name": "_index",
          "type": "uint256"
        }
      ],
      "name": "getMinter",
      "outputs": [
        {
          "internalType": "address",
          "name": "",
          "type": "address"
        }
      ],
      "stateMutability": "view",
      "type": "function"
    },
    {
      "inputs": [],
      "name": "getMinterLength",
      "outputs": [
        {
          "internalType": "uint256",
          "name": "",
          "type": "uint256"
        }
      ],
      "stateMutability": "view",
      "type": "function"
    },
    {
      "inputs": [
        {
          "internalType": "address",
          "name": "spender",
          "type": "address"
        },
        {
          "internalType": "uint256",
          "name": "addedValue",
          "type": "uint256"
        }
      ],
      "name": "increaseAllowance",
      "outputs": [
        {
          "internalType": "bool",
          "name": "",
          "type": "bool"
        }
      ],
      "stateMutability": "nonpayable",
      "type": "function"
    },
    {
      "inputs": [
        {
          "internalType": "address",
          "name": "account",
          "type": "address"
        }
      ],
      "name": "isMinter",
      "outputs": [
        {
          "internalType": "bool",
          "name": "",
          "type": "bool"
        }
      ],
      "stateMutability": "view",
      "type": "function"
    },
    {
      "inputs": [
        {
          "internalType": "address",
          "name": "_to",
          "type": "address"
        },
        {
          "internalType": "uint256",
          "name": "_amount",
          "type": "uint256"
        }
      ],
      "name": "mint",
      "outputs": [
        {
          "internalType": "bool",
          "name": "",
          "type": "bool"
        }
      ],
      "stateMutability": "nonpayable",
      "type": "function"
    },
    {
      "inputs": [],
      "name": "name",
      "outputs": [
        {
          "internalType": "string",
          "name": "",
          "type": "string"
        }
      ],
      "stateMutability": "view",
      "type": "function"
    },
    {
      "inputs": [],
      "name": "owner",
      "outputs": [
        {
          "internalType": "address",
          "name": "",
          "type": "address"
        }
      ],
      "stateMutability": "view",
      "type": "function"
    },
    {
      "inputs": [],
      "name": "renounceOwnership",
      "outputs": [],
      "stateMutability": "nonpayable",
      "type": "function"
    },
    {
      "inputs": [],
      "name": "symbol",
      "outputs": [
        {
          "internalType": "string",
          "name": "",
          "type": "string"
        }
      ],
      "stateMutability": "view",
      "type": "function"
    },
    {
      "inputs": [],
      "name": "totalSupply",
      "outputs": [
        {
          "internalType": "uint256",
          "name": "",
          "type": "uint256"
        }
      ],
      "stateMutability": "view",
      "type": "function"
    },
    {
      "inputs": [
        {
          "internalType": "address",
          "name": "to",
          "type": "address"
        },
        {
          "internalType": "uint256",
          "name": "amount",
          "type": "uint256"
        }
      ],
      "name": "transfer",
      "outputs": [
        {
          "internalType": "bool",
          "name": "",
          "type": "bool"
        }
      ],
      "stateMutability": "nonpayable",
      "type": "function"
    },
    {
      "inputs": [
        {
          "internalType": "address",
          "name": "from",
          "type": "address"
        },
        {
          "internalType": "address",
          "name": "to",
          "type": "address"
        },
        {
          "internalType": "uint256",
          "name": "amount",
          "type": "uint256"
        }
      ],
      "name": "transferFrom",
      "outputs": [
        {
          "internalType": "bool",
          "name": "",
          "type": "bool"
        }
      ],
      "stateMutability": "nonpayable",
      "type": "function"
    },
    {
      "inputs": [
        {
          "internalType": "address",
          "name": "newOwner",
          "type": "address"
        }
      ],
      "name": "transferOwnership",
      "outputs": [],
      "stateMutability": "nonpayable",
      "type": "function"
    }
  ],
  "bytecode": "0x60806040523480156200001157600080fd5b506040516200154e3803806200154e833981016040819052620000349162000251565b8151829082906200004d906003906020850190620000de565b50805162000063906004906020840190620000de565b505050620000806200007a6200008860201b60201c565b6200008c565b5050620002f8565b3390565b600580546001600160a01b038381166001600160a01b0319831681179093556040519116919082907f8be0079c531659141344cd1fd0a4f28419497f9722a3daafe3b4186f6b6457e090600090a35050565b828054620000ec90620002bb565b90600052602060002090601f0160209004810192826200011057600085556200015b565b82601f106200012b57805160ff19168380011785556200015b565b828001600101855582156200015b579182015b828111156200015b5782518255916020019190600101906200013e565b50620001699291506200016d565b5090565b5b808211156200016957600081556001016200016e565b634e487b7160e01b600052604160045260246000fd5b600082601f830112620001ac57600080fd5b81516001600160401b0380821115620001c957620001c962000184565b604051601f8301601f19908116603f01168101908282118183101715620001f457620001f462000184565b816040528381526020925086838588010111156200021157600080fd5b600091505b8382101562000235578582018301518183018401529082019062000216565b83821115620002475760008385830101525b9695505050505050565b600080604083850312156200026557600080fd5b82516001600160401b03808211156200027d57600080fd5b6200028b868387016200019a565b93506020850151915080821115620002a257600080fd5b50620002b1858286016200019a565b9150509250929050565b600181811c90821680620002d057607f821691505b60208210811415620002f257634e487b7160e01b600052602260045260246000fd5b50919050565b61124680620003086000396000f3fe608060405234801561001057600080fd5b50600436106101375760003560e01c806370a08231116100b85780639dc29fac1161007c5780639dc29fac1461027c578063a457c2d71461028f578063a9059cbb146102a2578063aa271e1a146102b5578063dd62ed3e146102c8578063f2fde38b146102db57600080fd5b806370a082311461021d578063715018a6146102465780638da5cb5b1461025057806395d89b4114610261578063983b2d561461026957600080fd5b806323b872dd116100ff57806323b872dd146101aa578063313ce567146101bd57806339509351146101cc57806340c10f19146101df5780635b7121f8146101f257600080fd5b80630323aac71461013c57806306fdde0314610157578063095ea7b31461016c57806318160ddd1461018f57806323338b8814610197575b600080fd5b6101446102ee565b6040519081526020015b60405180910390f35b61015f6102ff565b60405161014e9190610ff6565b61017f61017a366004611062565b610391565b604051901515815260200161014e565b600254610144565b61017f6101a536600461108c565b6103ab565b61017f6101b83660046110a7565b61045b565b6040516012815260200161014e565b61017f6101da366004611062565b61047f565b61017f6101ed366004611062565b6104a1565b6102056102003660046110e3565b610506565b6040516001600160a01b03909116815260200161014e565b61014461022b36600461108c565b6001600160a01b031660009081526020819052604090205490565b61024e6105a1565b005b6005546001600160a01b0316610205565b61015f6105d7565b61017f61027736600461108c565b6105e6565b61017f61028a366004611062565b610685565b61017f61029d366004611062565b6106e1565b61017f6102b0366004611062565b61075c565b61017f6102c336600461108c565b61076a565b6101446102d63660046110fc565b610777565b61024e6102e936600461108c565b6107a2565b60006102fa600661083d565b905090565b60606003805461030e9061112f565b80601f016020809104026020016040519081016040528092919081815260200182805461033a9061112f565b80156103875780601f1061035c57610100808354040283529160200191610387565b820191906000526020600020905b81548152906001019060200180831161036a57829003601f168201915b5050505050905090565b60003361039f818585610847565b60019150505b92915050565b6005546000906001600160a01b031633146103e15760405162461bcd60e51b81526004016103d89061116a565b60405180910390fd5b6001600160a01b0382166104485760405162461bcd60e51b815260206004820152602860248201527f42474d546f6b656e3a205f64656c4d696e74657220697320746865207a65726f604482015267206164647265737360c01b60648201526084016103d8565b61045360068361096c565b90505b919050565b600033610469858285610988565b610474858585610a02565b506001949350505050565b60003361039f8185856104928383610777565b61049c91906111b5565b610847565b60006104ac3361076a565b6104f35760405162461bcd60e51b815260206004820152601860248201527731b0b63632b91034b9903737ba103a34329036b4b73a32b960411b60448201526064016103d8565b6104fd8383610bd0565b50600192915050565b6005546000906001600160a01b031633146105335760405162461bcd60e51b81526004016103d89061116a565b600161053d6102ee565b61054791906111cd565b8211156105965760405162461bcd60e51b815260206004820152601d60248201527f42474d546f6b656e3a20696e646578206f7574206f6620626f756e647300000060448201526064016103d8565b610453600683610caf565b6005546001600160a01b031633146105cb5760405162461bcd60e51b81526004016103d89061116a565b6105d56000610cbb565b565b60606004805461030e9061112f565b6005546000906001600160a01b031633146106135760405162461bcd60e51b81526004016103d89061116a565b6001600160a01b03821661067a5760405162461bcd60e51b815260206004820152602860248201527f42474d546f6b656e3a205f6164644d696e74657220697320746865207a65726f604482015267206164647265737360c01b60648201526084016103d8565b610453600683610d0d565b60006106903361076a565b6106d75760405162461bcd60e51b815260206004820152601860248201527731b0b63632b91034b9903737ba103a34329036b4b73a32b960411b60448201526064016103d8565b6104fd8383610d22565b600033816106ef8286610777565b90508381101561074f5760405162461bcd60e51b815260206004820152602560248201527f45524332303a2064656372656173656420616c6c6f77616e63652062656c6f77604482015264207a65726f60d81b60648201526084016103d8565b6104748286868403610847565b60003361039f818585610a02565b6000610453600683610e68565b6001600160a01b03918216600090815260016020908152604080832093909416825291909152205490565b6005546001600160a01b031633146107cc5760405162461bcd60e51b81526004016103d89061116a565b6001600160a01b0381166108315760405162461bcd60e51b815260206004820152602660248201527f4f776e61626c653a206e6577206f776e657220697320746865207a65726f206160448201526564647265737360d01b60648201526084016103d8565b61083a81610cbb565b50565b6000610453825490565b6001600160a01b0383166108a95760405162461bcd60e51b8152602060048201526024808201527f45524332303a20617070726f76652066726f6d20746865207a65726f206164646044820152637265737360e01b60648201526084016103d8565b6001600160a01b03821661090a5760405162461bcd60e51b815260206004820152602260248201527f45524332303a20617070726f766520746f20746865207a65726f206164647265604482015261737360f01b60648201526084016103d8565b6001600160a01b0383811660008181526001602090815260408083209487168084529482529182902085905590518481527f8c5be1e5ebec7d5bd14f71427d1e84f3dd0314c0f7b2291e5b200ac8c7c3b92591015b60405180910390a3505050565b6000610981836001600160a01b038416610e8a565b9392505050565b60006109948484610777565b905060001981146109fc57818110156109ef5760405162461bcd60e51b815260206004820152601d60248201527f45524332303a20696e73756666696369656e7420616c6c6f77616e636500000060448201526064016103d8565b6109fc8484848403610847565b50505050565b6001600160a01b038316610a665760405162461bcd60e51b815260206004820152602560248201527f45524332303a207472616e736665722066726f6d20746865207a65726f206164604482015264647265737360d81b60648201526084016103d8565b6001600160a01b038216610ac85760405162461bcd60e51b815260206004820152602360248201527f45524332303a207472616e7366657220746f20746865207a65726f206164647260448201526265737360e81b60648201526084016103d8565b6001600160a01b03831660009081526020819052604090205481811015610b405760405162461bcd60e51b815260206004820152602660248201527f45524332303a207472616e7366657220616d6f756e7420657863656564732062604482015265616c616e636560d01b60648201526084016103d8565b6001600160a01b03808516600090815260208190526040808220858503905591851681529081208054849290610b779084906111b5565b92505081905550826001600160a01b0316846001600160a01b03167fddf252ad1be2c89b69c2b068fc378daa952ba7f163c4a11628f55a4df523b3ef84604051610bc391815260200190565b60405180910390a36109fc565b6001600160a01b038216610c265760405162461bcd60e51b815260206004820152601f60248201527f45524332303a206d696e7420746f20746865207a65726f20616464726573730060448201526064016103d8565b8060026000828254610c3891906111b5565b90915550506001600160a01b03821660009081526020819052604081208054839290610c659084906111b5565b90915550506040518181526001600160a01b038316906000907fddf252ad1be2c89b69c2b068fc378daa952ba7f163c4a11628f55a4df523b3ef9060200160405180910390a35050565b60006109818383610f7d565b600580546001600160a01b038381166001600160a01b0319831681179093556040519116919082907f8be0079c531659141344cd1fd0a4f28419497f9722a3daafe3b4186f6b6457e090600090a35050565b6000610981836001600160a01b038416610fa7565b6001600160a01b038216610d825760405162461bcd60e51b815260206004820152602160248201527f45524332303a206275726e2066726f6d20746865207a65726f206164647265736044820152607360f81b60648201526084016103d8565b6001600160a01b03821660009081526020819052604090205481811015610df65760405162461bcd60e51b815260206004820152602260248201527f45524332303a206275726e20616d6f756e7420657863656564732062616c616e604482015261636560f01b60648201526084016103d8565b6001600160a01b0383166000908152602081905260408120838303905560028054849290610e259084906111cd565b90915550506040518281526000906001600160a01b038516907fddf252ad1be2c89b69c2b068fc378daa952ba7f163c4a11628f55a4df523b3ef9060200161095f565b6001600160a01b03811660009081526001830160205260408120541515610981565b60008181526001830160205260408120548015610f73576000610eae6001836111cd565b8554909150600090610ec2906001906111cd565b9050818114610f27576000866000018281548110610ee257610ee26111e4565b9060005260206000200154905080876000018481548110610f0557610f056111e4565b6000918252602080832090910192909255918252600188019052604090208390555b8554869080610f3857610f386111fa565b6001900381819060005260206000200160009055905585600101600086815260200190815260200160002060009055600193505050506103a5565b60009150506103a5565b6000826000018281548110610f9457610f946111e4565b9060005260206000200154905092915050565b6000818152600183016020526040812054610fee575081546001818101845560008481526020808220909301849055845484825282860190935260409020919091556103a5565b5060006103a5565b600060208083528351808285015260005b8181101561102357858101830151858201604001528201611007565b81811115611035576000604083870101525b50601f01601f1916929092016040019392505050565b80356001600160a01b038116811461045657600080fd5b6000806040838503121561107557600080fd5b61107e8361104b565b946020939093013593505050565b60006020828403121561109e57600080fd5b6109818261104b565b6000806000606084860312156110bc57600080fd5b6110c58461104b565b92506110d36020850161104b565b9150604084013590509250925092565b6000602082840312156110f557600080fd5b5035919050565b6000806040838503121561110f57600080fd5b6111188361104b565b91506111266020840161104b565b90509250929050565b600181811c9082168061114357607f821691505b6020821081141561116457634e487b7160e01b600052602260045260246000fd5b50919050565b6020808252818101527f4f776e61626c653a2063616c6c6572206973206e6f7420746865206f776e6572604082015260600190565b634e487b7160e01b600052601160045260246000fd5b600082198211156111c8576111c861119f565b500190565b6000828210156111df576111df61119f565b500390565b634e487b7160e01b600052603260045260246000fd5b634e487b7160e01b600052603160045260246000fdfea264697066735822122099e01820778db488b2f8379552712d96f8a8447478f5289db312a1af4792082964736f6c634300080a0033",
  "linkReferences": {},
  "deployedLinkReferences": {}
}