{
  "_format": "hh-sol-artifact-1",
  "contractName": "MProfitShare",
  "sourceName": "contracts/maxity/impl/MProfitShare.sol",
  "abi": [
    {
      "inputs": [
        {
          "internalType": "address",
          "name": "_shareToken",
          "type": "address"
        },
        {
          "internalType": "uint256",
          "name": "_startBlock",
          "type": "uint256"
        }
      ],
      "stateMutability": "nonpayable",
      "type": "constructor"
    },
    {
      "anonymous": false,
      "inputs": [
        {
          "indexed": true,
          "internalType": "address",
          "name": "previousOwner",
          "type": "address"
        },
        {
          "indexed": true,
          "internalType": "address",
          "name": "newOwner",
          "type": "address"
        }
      ],
      "name": "OwnershipTransferred",
      "type": "event"
    },
    {
      "inputs": [
        {
          "internalType": "address",
          "name": "",
          "type": "address"
        }
      ],
      "name": "LpOfPid",
      "outputs": [
        {
          "internalType": "uint256",
          "name": "",
          "type": "uint256"
        }
      ],
      "stateMutability": "view",
      "type": "function"
    },
    {
      "inputs": [
        {
          "internalType": "uint256",
          "name": "_allocPoint",
          "type": "uint256"
        },
        {
          "internalType": "address",
          "name": "_pool",
          "type": "address"
        },
        {
          "internalType": "bool",
          "name": "_withUpdate",
          "type": "bool"
        }
      ],
      "name": "add",
      "outputs": [],
      "stateMutability": "nonpayable",
      "type": "function"
    },
    {
      "inputs": [
        {
          "internalType": "uint256",
          "name": "",
          "type": "uint256"
        },
        {
          "internalType": "uint256",
          "name": "amount",
          "type": "uint256"
        }
      ],
      "name": "deposit",
      "outputs": [],
      "stateMutability": "nonpayable",
      "type": "function"
    },
    {
      "inputs": [
        {
          "internalType": "uint256",
          "name": "",
          "type": "uint256"
        }
      ],
      "name": "emergencyWithdraw",
      "outputs": [],
      "stateMutability": "nonpayable",
      "type": "function"
    },
    {
      "inputs": [],
      "name": "massUpdatePools",
      "outputs": [],
      "stateMutability": "nonpayable",
      "type": "function"
    },
    {
      "inputs": [],
      "name": "owner",
      "outputs": [
        {
          "internalType": "address",
          "name": "",
          "type": "address"
        }
      ],
      "stateMutability": "view",
      "type": "function"
    },
    {
      "inputs": [],
      "name": "paused",
      "outputs": [
        {
          "internalType": "bool",
          "name": "",
          "type": "bool"
        }
      ],
      "stateMutability": "view",
      "type": "function"
    },
    {
      "inputs": [
        {
          "internalType": "uint256",
          "name": "",
          "type": "uint256"
        },
        {
          "internalType": "address",
          "name": "_pool",
          "type": "address"
        }
      ],
      "name": "pending",
      "outputs": [
        {
          "internalType": "uint256",
          "name": "amount",
          "type": "uint256"
        }
      ],
      "stateMutability": "view",
      "type": "function"
    },
    {
      "inputs": [
        {
          "internalType": "uint256",
          "name": "",
          "type": "uint256"
        }
      ],
      "name": "poolCorrespond",
      "outputs": [
        {
          "internalType": "uint256",
          "name": "",
          "type": "uint256"
        }
      ],
      "stateMutability": "view",
      "type": "function"
    },
    {
      "inputs": [
        {
          "internalType": "uint256",
          "name": "",
          "type": "uint256"
        }
      ],
      "name": "poolInfo",
      "outputs": [
        {
          "internalType": "address",
          "name": "poolAddr",
          "type": "address"
        },
        {
          "internalType": "uint256",
          "name": "allocPoint",
          "type": "uint256"
        },
        {
          "internalType": "uint256",
          "name": "lastRewardBlock",
          "type": "uint256"
        },
        {
          "internalType": "uint256",
          "name": "accRewards",
          "type": "uint256"
        },
        {
          "internalType": "uint256",
          "name": "rewardDebt",
          "type": "uint256"
        },
        {
          "internalType": "uint256",
          "name": "totalAmount",
          "type": "uint256"
        }
      ],
      "stateMutability": "view",
      "type": "function"
    },
    {
      "inputs": [],
      "name": "poolLength",
      "outputs": [
        {
          "internalType": "uint256",
          "name": "",
          "type": "uint256"
        }
      ],
      "stateMutability": "view",
      "type": "function"
    },
    {
      "inputs": [],
      "name": "renounceOwnership",
      "outputs": [],
      "stateMutability": "nonpayable",
      "type": "function"
    },
    {
      "inputs": [],
      "name": "reserve",
      "outputs": [
        {
          "internalType": "uint256",
          "name": "",
          "type": "uint256"
        }
      ],
      "stateMutability": "view",
      "type": "function"
    },
    {
      "inputs": [
        {
          "internalType": "uint256",
          "name": "_startBlock",
          "type": "uint256"
        }
      ],
      "name": "setStartBlock",
      "outputs": [],
      "stateMutability": "nonpayable",
      "type": "function"
    },
    {
      "inputs": [],
      "name": "shareToken",
      "outputs": [
        {
          "internalType": "address",
          "name": "",
          "type": "address"
        }
      ],
      "stateMutability": "view",
      "type": "function"
    },
    {
      "inputs": [],
      "name": "startBlock",
      "outputs": [
        {
          "internalType": "uint256",
          "name": "",
          "type": "uint256"
        }
      ],
      "stateMutability": "view",
      "type": "function"
    },
    {
      "inputs": [],
      "name": "totalAllocPoint",
      "outputs": [
        {
          "internalType": "uint256",
          "name": "",
          "type": "uint256"
        }
      ],
      "stateMutability": "view",
      "type": "function"
    },
    {
      "inputs": [
        {
          "internalType": "address",
          "name": "newOwner",
          "type": "address"
        }
      ],
      "name": "transferOwnership",
      "outputs": [],
      "stateMutability": "nonpayable",
      "type": "function"
    },
    {
      "inputs": [
        {
          "internalType": "uint256",
          "name": "",
          "type": "uint256"
        },
        {
          "internalType": "uint256",
          "name": "amount",
          "type": "uint256"
        }
      ],
      "name": "withdraw",
      "outputs": [],
      "stateMutability": "nonpayable",
      "type": "function"
    }
  ],
  "bytecode": "0x60806040526007805460ff19169055600060085534801561001f57600080fd5b50604051610ed9380380610ed983398101604081905261003e916100c0565b61004733610070565b600380546001600160a01b0319166001600160a01b0393909316929092179091556009556100fa565b600080546001600160a01b038381166001600160a01b0319831681178455604051919092169283917f8be0079c531659141344cd1fd0a4f28419497f9722a3daafe3b4186f6b6457e09190a35050565b600080604083850312156100d357600080fd5b82516001600160a01b03811681146100ea57600080fd5b6020939093015192949293505050565b610dd0806101096000396000f3fe608060405234801561001057600080fd5b50600436106101215760003560e01c80636c9fa59e116100ad578063cd3293de11610071578063cd3293de1461027d578063e2bbb158146101a5578063e4c75c2714610286578063f2fde38b14610299578063f35e4a6e146102ac57600080fd5b80636c9fa59e146101f9578063715018a6146102245780638da5cb5b1461022c578063b0c7044b1461023d578063cb4502c41461025d57600080fd5b8063441a3e70116100f4578063441a3e70146101a557806348cd4cb1146101b85780635312ea8e146101c15780635c975abb146101d4578063630b5ba1146101f157600080fd5b8063081e3eda146101265780631526fe271461013d57806317caf6f1146101875780631eaaa04514610190575b600080fd5b6004545b6040519081526020015b60405180910390f35b61015061014b366004610b1a565b6102bf565b604080516001600160a01b0390971687526020870195909552938501929092526060840152608083015260a082015260c001610134565b61012a60085481565b6101a361019e366004610b5d565b61030f565b005b6101a36101b3366004610b9d565b61054a565b61012a60095481565b6101a36101cf366004610b1a565b6105ed565b6007546101e19060ff1681565b6040519015158152602001610134565b6101a3610691565b60035461020c906001600160a01b031681565b6040516001600160a01b039091168152602001610134565b6101a361075c565b6000546001600160a01b031661020c565b61012a61024b366004610bbf565b60056020526000908152604090205481565b61012a61026b366004610b1a565b60066020526000908152604090205481565b61012a600a5481565b61012a610294366004610bda565b610792565b6101a36102a7366004610bbf565b610828565b6101a36102ba366004610b1a565b6108c3565b600481815481106102cf57600080fd5b60009182526020909120600690910201805460018201546002830154600384015460048501546005909501546001600160a01b0390941695509193909286565b6000546001600160a01b031633146103425760405162461bcd60e51b815260040161033990610c06565b60405180910390fd5b6001600160a01b0382166103985760405162461bcd60e51b815260206004820152601960248201527f5f706f6f6c20697320746865207a65726f2061646472657373000000000000006044820152606401610339565b80156103a6576103a6610691565b600060095443116103b9576009546103bb565b435b6008549091506103cb90856108f2565b6008556040805160c0810182526001600160a01b038581168252602082018781529282018481526000606084018181526080850182815260a0860183815260048054600180820183559582905288517f8a35acfbc15ff81a39ae7d344fd709f28e8600b4aa8c65c6b64bfe7fe36bd19b600690920291820180546001600160a01b031916919099161790975597517f8a35acfbc15ff81a39ae7d344fd709f28e8600b4aa8c65c6b64bfe7fe36bd19c87015593517f8a35acfbc15ff81a39ae7d344fd709f28e8600b4aa8c65c6b64bfe7fe36bd19d86015590517f8a35acfbc15ff81a39ae7d344fd709f28e8600b4aa8c65c6b64bfe7fe36bd19e850155517f8a35acfbc15ff81a39ae7d344fd709f28e8600b4aa8c65c6b64bfe7fe36bd19f84015590517f8a35acfbc15ff81a39ae7d344fd709f28e8600b4aa8c65c6b64bfe7fe36bd1a09092019190915591549091906105279190610c51565b6001600160a01b0390941660009081526005602052604090209390935550505050565b60075460ff161561056d5760405162461bcd60e51b815260040161033990610c68565b3360008181526005602052604081205460048054909190811061059257610592610c9f565b906000526020600020906006020190506105bd8160040154826003015461090590919063ffffffff16565b925082156105e7576003546105dc906001600160a01b03168385610911565b600381015460048201555b50505050565b60075460ff16156106105760405162461bcd60e51b815260040161033990610c68565b3360008181526005602052604081205460048054909190811061063557610635610c9f565b9060005260206000209060060201905060006106628260040154836003015461090590919063ffffffff16565b905080156105e757600354610681906001600160a01b03168483610911565b6003820154600483015550505050565b600480546003546040516370a0823160e01b8152309381019390935290916000916001600160a01b0316906370a0823190602401602060405180830381865afa1580156106e2573d6000803e3d6000fd5b505050506040513d601f19601f820116820180604052508101906107069190610cb5565b905080600a541415610716575050565b600061072d600a548361090590919063ffffffff16565b905060005b83811015610754576107448183610a2c565b61074d81610cce565b9050610732565b5050600a5550565b6000546001600160a01b031633146107865760405162461bcd60e51b815260040161033990610c06565b6107906000610ab2565b565b60075460009060ff16156107b85760405162461bcd60e51b815260040161033990610c68565b6001600160a01b0382166000908152600560205260408120546004805490919081106107e6576107e6610c9f565b9060005260206000209060060201905061082064e8d4a5100061081a8360040154846003015461090590919063ffffffff16565b90610b02565b949350505050565b6000546001600160a01b031633146108525760405162461bcd60e51b815260040161033990610c06565b6001600160a01b0381166108b75760405162461bcd60e51b815260206004820152602660248201527f4f776e61626c653a206e6577206f776e657220697320746865207a65726f206160448201526564647265737360d01b6064820152608401610339565b6108c081610ab2565b50565b6000546001600160a01b031633146108ed5760405162461bcd60e51b815260040161033990610c06565b600955565b60006108fe8284610ce9565b9392505050565b60006108fe8284610c51565b604080516001600160a01b038481166024830152604480830185905283518084039091018152606490920183526020820180516001600160e01b031663a9059cbb60e01b179052915160009283929087169161096d9190610d01565b6000604051808303816000865af19150503d80600081146109aa576040519150601f19603f3d011682016040523d82523d6000602084013e6109af565b606091505b50915091508180156109d95750805115806109d95750808060200190518101906109d99190610d3c565b610a255760405162461bcd60e51b815260206004820152601f60248201527f5472616e7366657248656c7065723a205452414e534645525f4641494c4544006044820152606401610339565b5050505050565b600060048381548110610a4157610a41610c9f565b9060005260206000209060060201905080600201544311610a6157505050565b6000610a8f60085461081a8460010154610a8964e8d4a5100088610b0e90919063ffffffff16565b90610b0e565b6003830154909150610aa190826108f2565b600383015550436002909101555050565b600080546001600160a01b038381166001600160a01b0319831681178455604051919092169283917f8be0079c531659141344cd1fd0a4f28419497f9722a3daafe3b4186f6b6457e09190a35050565b60006108fe8284610d59565b60006108fe8284610d7b565b600060208284031215610b2c57600080fd5b5035919050565b80356001600160a01b0381168114610b4a57600080fd5b919050565b80151581146108c057600080fd5b600080600060608486031215610b7257600080fd5b83359250610b8260208501610b33565b91506040840135610b9281610b4f565b809150509250925092565b60008060408385031215610bb057600080fd5b50508035926020909101359150565b600060208284031215610bd157600080fd5b6108fe82610b33565b60008060408385031215610bed57600080fd5b82359150610bfd60208401610b33565b90509250929050565b6020808252818101527f4f776e61626c653a2063616c6c6572206973206e6f7420746865206f776e6572604082015260600190565b634e487b7160e01b600052601160045260246000fd5b600082821015610c6357610c63610c3b565b500390565b60208082526019908201527f4d696e696e6720686173206265656e2073757370656e64656400000000000000604082015260600190565b634e487b7160e01b600052603260045260246000fd5b600060208284031215610cc757600080fd5b5051919050565b6000600019821415610ce257610ce2610c3b565b5060010190565b60008219821115610cfc57610cfc610c3b565b500190565b6000825160005b81811015610d225760208186018101518583015201610d08565b81811115610d31576000828501525b509190910192915050565b600060208284031215610d4e57600080fd5b81516108fe81610b4f565b600082610d7657634e487b7160e01b600052601260045260246000fd5b500490565b6000816000190483118215151615610d9557610d95610c3b565b50029056fea2646970667358221220d8365c1ad6891276317d49731d3373bce892d4f908aa302b46c2820436dfd1d064736f6c634300080a0033",
  "linkReferences": {},
  "deployedLinkReferences": {}
}