{
  "_format": "hh-sol-artifact-1",
  "contractName": "MaxityRouter",
  "sourceName": "contracts/maxity/MaxityRouter.sol",
  "abi": [
    {
      "inputs": [
        {
          "internalType": "address",
          "name": "_wrappedNative",
          "type": "address"
        }
      ],
      "stateMutability": "nonpayable",
      "type": "constructor"
    },
    {
      "anonymous": false,
      "inputs": [
        {
          "indexed": true,
          "internalType": "address",
          "name": "previousOwner",
          "type": "address"
        },
        {
          "indexed": true,
          "internalType": "address",
          "name": "newOwner",
          "type": "address"
        }
      ],
      "name": "OwnershipTransferred",
      "type": "event"
    },
    {
      "inputs": [
        {
          "internalType": "address",
          "name": "_token",
          "type": "address"
        },
        {
          "internalType": "uint256",
          "name": "amountToken",
          "type": "uint256"
        },
        {
          "internalType": "address",
          "name": "to",
          "type": "address"
        },
        {
          "internalType": "bool",
          "name": "topool",
          "type": "bool"
        }
      ],
      "name": "addBonusPool",
      "outputs": [
        {
          "internalType": "uint256",
          "name": "amountU",
          "type": "uint256"
        },
        {
          "internalType": "uint256",
          "name": "liqudity",
          "type": "uint256"
        }
      ],
      "stateMutability": "nonpayable",
      "type": "function"
    },
    {
      "inputs": [
        {
          "internalType": "address",
          "name": "_game",
          "type": "address"
        }
      ],
      "name": "addGame",
      "outputs": [],
      "stateMutability": "nonpayable",
      "type": "function"
    },
    {
      "inputs": [
        {
          "internalType": "address",
          "name": "_token",
          "type": "address"
        },
        {
          "internalType": "uint256",
          "name": "_tokenid",
          "type": "uint256"
        },
        {
          "internalType": "address",
          "name": "token_to",
          "type": "address"
        },
        {
          "internalType": "address",
          "name": "nativeSweep",
          "type": "address"
        }
      ],
      "name": "bidNative",
      "outputs": [],
      "stateMutability": "payable",
      "type": "function"
    },
    {
      "inputs": [
        {
          "internalType": "address",
          "name": "_token",
          "type": "address"
        },
        {
          "internalType": "uint256",
          "name": "_tokenid",
          "type": "uint256"
        },
        {
          "internalType": "address",
          "name": "token_to",
          "type": "address"
        },
        {
          "internalType": "address",
          "name": "nativeSweep",
          "type": "address"
        }
      ],
      "name": "buyNative",
      "outputs": [],
      "stateMutability": "payable",
      "type": "function"
    },
    {
      "inputs": [
        {
          "internalType": "address",
          "name": "_token",
          "type": "address"
        },
        {
          "internalType": "uint256",
          "name": "_tokenid",
          "type": "uint256"
        }
      ],
      "name": "delist",
      "outputs": [],
      "stateMutability": "nonpayable",
      "type": "function"
    },
    {
      "inputs": [
        {
          "internalType": "uint256",
          "name": "amount",
          "type": "uint256"
        }
      ],
      "name": "emergencyNative",
      "outputs": [],
      "stateMutability": "nonpayable",
      "type": "function"
    },
    {
      "inputs": [
        {
          "internalType": "address",
          "name": "_token",
          "type": "address"
        }
      ],
      "name": "emergencyWithdraw",
      "outputs": [],
      "stateMutability": "nonpayable",
      "type": "function"
    },
    {
      "inputs": [],
      "name": "feeTo",
      "outputs": [
        {
          "internalType": "address",
          "name": "",
          "type": "address"
        }
      ],
      "stateMutability": "view",
      "type": "function"
    },
    {
      "inputs": [
        {
          "internalType": "address",
          "name": "",
          "type": "address"
        }
      ],
      "name": "games",
      "outputs": [
        {
          "internalType": "contract IGame",
          "name": "",
          "type": "address"
        }
      ],
      "stateMutability": "view",
      "type": "function"
    },
    {
      "inputs": [
        {
          "internalType": "address",
          "name": "_user",
          "type": "address"
        }
      ],
      "name": "getUserExtData",
      "outputs": [
        {
          "internalType": "bytes",
          "name": "",
          "type": "bytes"
        }
      ],
      "stateMutability": "view",
      "type": "function"
    },
    {
      "inputs": [],
      "name": "lptoken",
      "outputs": [
        {
          "internalType": "address",
          "name": "",
          "type": "address"
        }
      ],
      "stateMutability": "view",
      "type": "function"
    },
    {
      "inputs": [],
      "name": "market",
      "outputs": [
        {
          "internalType": "address",
          "name": "",
          "type": "address"
        }
      ],
      "stateMutability": "view",
      "type": "function"
    },
    {
      "inputs": [],
      "name": "maxityBackup",
      "outputs": [
        {
          "internalType": "address",
          "name": "",
          "type": "address"
        }
      ],
      "stateMutability": "view",
      "type": "function"
    },
    {
      "inputs": [],
      "name": "maxityPool",
      "outputs": [
        {
          "internalType": "address",
          "name": "",
          "type": "address"
        }
      ],
      "stateMutability": "view",
      "type": "function"
    },
    {
      "inputs": [],
      "name": "maxityProfitShare",
      "outputs": [
        {
          "internalType": "address",
          "name": "",
          "type": "address"
        }
      ],
      "stateMutability": "view",
      "type": "function"
    },
    {
      "inputs": [],
      "name": "maxityRefs",
      "outputs": [
        {
          "internalType": "address",
          "name": "",
          "type": "address"
        }
      ],
      "stateMutability": "view",
      "type": "function"
    },
    {
      "inputs": [
        {
          "internalType": "address",
          "name": "_token",
          "type": "address"
        },
        {
          "internalType": "address",
          "name": "designer",
          "type": "address"
        },
        {
          "internalType": "uint256[]",
          "name": "_futureRoyaltys",
          "type": "uint256[]"
        },
        {
          "internalType": "string[]",
          "name": "tokenURIOrigins",
          "type": "string[]"
        },
        {
          "internalType": "uint256[]",
          "name": "base_prices",
          "type": "uint256[]"
        },
        {
          "internalType": "uint256[]",
          "name": "incre_prices",
          "type": "uint256[]"
        },
        {
          "internalType": "uint256[]",
          "name": "starttimes",
          "type": "uint256[]"
        },
        {
          "internalType": "uint256[]",
          "name": "deadlines",
          "type": "uint256[]"
        },
        {
          "internalType": "bytes",
          "name": "",
          "type": "bytes"
        }
      ],
      "name": "mintAndAuctionMax721",
      "outputs": [
        {
          "internalType": "uint256[]",
          "name": "tokenids",
          "type": "uint256[]"
        }
      ],
      "stateMutability": "nonpayable",
      "type": "function"
    },
    {
      "inputs": [
        {
          "internalType": "address",
          "name": "_token",
          "type": "address"
        },
        {
          "internalType": "address",
          "name": "designer",
          "type": "address"
        },
        {
          "internalType": "uint256[]",
          "name": "_futureRoyaltys",
          "type": "uint256[]"
        },
        {
          "internalType": "string[]",
          "name": "tokenURIOrigins",
          "type": "string[]"
        },
        {
          "internalType": "uint256[]",
          "name": "unit_prices",
          "type": "uint256[]"
        },
        {
          "internalType": "bytes",
          "name": "",
          "type": "bytes"
        }
      ],
      "name": "mintAndSellMax721",
      "outputs": [
        {
          "internalType": "uint256[]",
          "name": "tokenids",
          "type": "uint256[]"
        }
      ],
      "stateMutability": "nonpayable",
      "type": "function"
    },
    {
      "inputs": [
        {
          "internalType": "address",
          "name": "_token",
          "type": "address"
        },
        {
          "internalType": "address",
          "name": "designer",
          "type": "address"
        },
        {
          "internalType": "uint256[]",
          "name": "_futureRoyaltys",
          "type": "uint256[]"
        },
        {
          "internalType": "string[]",
          "name": "tokenURIOrigins",
          "type": "string[]"
        },
        {
          "internalType": "bytes",
          "name": "",
          "type": "bytes"
        }
      ],
      "name": "mintMax721",
      "outputs": [
        {
          "internalType": "uint256[]",
          "name": "tokenids",
          "type": "uint256[]"
        }
      ],
      "stateMutability": "nonpayable",
      "type": "function"
    },
    {
      "inputs": [],
      "name": "owner",
      "outputs": [
        {
          "internalType": "address",
          "name": "",
          "type": "address"
        }
      ],
      "stateMutability": "view",
      "type": "function"
    },
    {
      "inputs": [
        {
          "internalType": "uint256",
          "name": "amountU",
          "type": "uint256"
        }
      ],
      "name": "profitShare",
      "outputs": [],
      "stateMutability": "nonpayable",
      "type": "function"
    },
    {
      "inputs": [],
      "name": "refStore",
      "outputs": [
        {
          "internalType": "address",
          "name": "",
          "type": "address"
        }
      ],
      "stateMutability": "view",
      "type": "function"
    },
    {
      "inputs": [
        {
          "internalType": "address",
          "name": "upper",
          "type": "address"
        },
        {
          "internalType": "address",
          "name": "distributor",
          "type": "address"
        },
        {
          "internalType": "bytes",
          "name": "extdata",
          "type": "bytes"
        }
      ],
      "name": "registerUser",
      "outputs": [],
      "stateMutability": "nonpayable",
      "type": "function"
    },
    {
      "inputs": [
        {
          "internalType": "address",
          "name": "_token",
          "type": "address"
        },
        {
          "internalType": "uint256",
          "name": "liquidity",
          "type": "uint256"
        },
        {
          "internalType": "address",
          "name": "to",
          "type": "address"
        }
      ],
      "name": "removeBonusPool",
      "outputs": [
        {
          "internalType": "uint256",
          "name": "amountToken",
          "type": "uint256"
        },
        {
          "internalType": "uint256",
          "name": "amountU",
          "type": "uint256"
        }
      ],
      "stateMutability": "nonpayable",
      "type": "function"
    },
    {
      "inputs": [],
      "name": "renounceOwnership",
      "outputs": [],
      "stateMutability": "nonpayable",
      "type": "function"
    },
    {
      "inputs": [
        {
          "internalType": "address",
          "name": "_feeTo",
          "type": "address"
        }
      ],
      "name": "setFeeTo",
      "outputs": [],
      "stateMutability": "nonpayable",
      "type": "function"
    },
    {
      "inputs": [
        {
          "internalType": "address",
          "name": "_lptoken",
          "type": "address"
        }
      ],
      "name": "setLPToken",
      "outputs": [],
      "stateMutability": "nonpayable",
      "type": "function"
    },
    {
      "inputs": [
        {
          "internalType": "address",
          "name": "_market",
          "type": "address"
        }
      ],
      "name": "setMarket",
      "outputs": [],
      "stateMutability": "nonpayable",
      "type": "function"
    },
    {
      "inputs": [
        {
          "internalType": "address",
          "name": "_refStore",
          "type": "address"
        }
      ],
      "name": "setRefStore",
      "outputs": [],
      "stateMutability": "nonpayable",
      "type": "function"
    },
    {
      "inputs": [
        {
          "internalType": "address",
          "name": "_sweeper",
          "type": "address"
        }
      ],
      "name": "setSweeper",
      "outputs": [],
      "stateMutability": "nonpayable",
      "type": "function"
    },
    {
      "inputs": [
        {
          "internalType": "address",
          "name": "_tokenU",
          "type": "address"
        }
      ],
      "name": "setTokenU",
      "outputs": [],
      "stateMutability": "nonpayable",
      "type": "function"
    },
    {
      "inputs": [
        {
          "internalType": "bytes",
          "name": "extdata",
          "type": "bytes"
        }
      ],
      "name": "setUserExtData",
      "outputs": [],
      "stateMutability": "nonpayable",
      "type": "function"
    },
    {
      "inputs": [
        {
          "internalType": "address",
          "name": "_wrappedNative",
          "type": "address"
        }
      ],
      "name": "setWrappedNative",
      "outputs": [],
      "stateMutability": "nonpayable",
      "type": "function"
    },
    {
      "inputs": [
        {
          "internalType": "address",
          "name": "_maxityBackup",
          "type": "address"
        }
      ],
      "name": "setmaxityBackup",
      "outputs": [],
      "stateMutability": "nonpayable",
      "type": "function"
    },
    {
      "inputs": [
        {
          "internalType": "address",
          "name": "_maxityPool",
          "type": "address"
        }
      ],
      "name": "setmaxityPool",
      "outputs": [],
      "stateMutability": "nonpayable",
      "type": "function"
    },
    {
      "inputs": [
        {
          "internalType": "address",
          "name": "_maxityProfitShare",
          "type": "address"
        }
      ],
      "name": "setmaxityProfitShare",
      "outputs": [],
      "stateMutability": "nonpayable",
      "type": "function"
    },
    {
      "inputs": [
        {
          "internalType": "address",
          "name": "_maxityRefs",
          "type": "address"
        }
      ],
      "name": "setmaxityRefs",
      "outputs": [],
      "stateMutability": "nonpayable",
      "type": "function"
    },
    {
      "inputs": [
        {
          "internalType": "address",
          "name": "_token",
          "type": "address"
        },
        {
          "internalType": "uint256",
          "name": "amountToken",
          "type": "uint256"
        },
        {
          "internalType": "address",
          "name": "to",
          "type": "address"
        }
      ],
      "name": "swapTokenForUT",
      "outputs": [
        {
          "internalType": "uint256",
          "name": "amountU",
          "type": "uint256"
        }
      ],
      "stateMutability": "nonpayable",
      "type": "function"
    },
    {
      "inputs": [
        {
          "internalType": "address",
          "name": "_token",
          "type": "address"
        },
        {
          "internalType": "uint256",
          "name": "amountU",
          "type": "uint256"
        },
        {
          "internalType": "address",
          "name": "to",
          "type": "address"
        }
      ],
      "name": "swapUTForToken",
      "outputs": [
        {
          "internalType": "uint256",
          "name": "amountToken",
          "type": "uint256"
        }
      ],
      "stateMutability": "nonpayable",
      "type": "function"
    },
    {
      "inputs": [],
      "name": "sweeper",
      "outputs": [
        {
          "internalType": "address",
          "name": "",
          "type": "address"
        }
      ],
      "stateMutability": "view",
      "type": "function"
    },
    {
      "inputs": [],
      "name": "tokenU",
      "outputs": [
        {
          "internalType": "address",
          "name": "",
          "type": "address"
        }
      ],
      "stateMutability": "view",
      "type": "function"
    },
    {
      "inputs": [
        {
          "internalType": "address",
          "name": "newOwner",
          "type": "address"
        }
      ],
      "name": "transferOwnership",
      "outputs": [],
      "stateMutability": "nonpayable",
      "type": "function"
    },
    {
      "inputs": [
        {
          "internalType": "uint256",
          "name": "_pid",
          "type": "uint256"
        },
        {
          "internalType": "uint256",
          "name": "_lendAmount",
          "type": "uint256"
        },
        {
          "internalType": "address",
          "name": "_lender",
          "type": "address"
        }
      ],
      "name": "userLend",
      "outputs": [],
      "stateMutability": "nonpayable",
      "type": "function"
    },
    {
      "inputs": [
        {
          "internalType": "address",
          "name": "_lender",
          "type": "address"
        },
        {
          "internalType": "address",
          "name": "_lpToken",
          "type": "address"
        },
        {
          "internalType": "uint256",
          "name": "_utAmount",
          "type": "uint256"
        }
      ],
      "name": "userPayFromRouter",
      "outputs": [],
      "stateMutability": "nonpayable",
      "type": "function"
    },
    {
      "inputs": [],
      "name": "wrappedNative",
      "outputs": [
        {
          "internalType": "address",
          "name": "",
          "type": "address"
        }
      ],
      "stateMutability": "view",
      "type": "function"
    }
  ],
  "bytecode": "0x60806040523480156200001157600080fd5b506040516200324f3803806200324f8339810160408190526200003491620000b5565b6200003f3362000065565b600b80546001600160a01b0319166001600160a01b0392909216919091179055620000e7565b600080546001600160a01b038381166001600160a01b0319831681178455604051919092169283917f8be0079c531659141344cd1fd0a4f28419497f9722a3daafe3b4186f6b6457e09190a35050565b600060208284031215620000c857600080fd5b81516001600160a01b0381168114620000e057600080fd5b9392505050565b61315880620000f76000396000f3fe6080604052600436106102725760003560e01c80638da5cb5b1161014f578063da83c276116100c1578063f2fde38b1161007a578063f2fde38b146107a2578063f363393b146107c2578063f3a578da146107e2578063f46901ed14610802578063f4d51edb14610822578063f852c8471461084257600080fd5b8063da83c276146106e1578063dd512a7514610701578063eb6d3a1114610714578063edfa0a9014610734578063ef896b2814610762578063f074258e1461078257600080fd5b8063b652e98611610113578063b652e98614610619578063bb18d04b1461064e578063bd88dc4c1461066e578063c2d802eb1461068e578063c9480f33146106ae578063d72d04db146106c157600080fd5b80638da5cb5b1461056e5780639189a59e1461058c5780639a68b847146105ac578063a70485bf146105d9578063b1574e52146105f957600080fd5b80633b5bdccf116101e85780636ff1c9bc116101ac5780636ff1c9bc146104a3578063715018a6146104c357806372e9188b146104d857806379131a19146104f857806380f556051461052e5780638b420e621461054e57600080fd5b80633b5bdccf146104035780634a244e541461042357806352cb60ca146104435780636a678a9c146104635780636dcea85f1461048357600080fd5b806316cad8841161023a57806316cad884146103435780631c151706146103635780631d8256ee1461038357806323d4c2ba146103a35780632a33239a146103c35780632d38541f146103e357600080fd5b8063017e7e5814610277578063055d536e146102b457806305927a8f146102d65780630e3e01ad146102f657806311309ecd14610316575b600080fd5b34801561028357600080fd5b50600554610297906001600160a01b031681565b6040516001600160a01b0390911681526020015b60405180910390f35b3480156102c057600080fd5b506102d46102cf3660046125a5565b610862565b005b3480156102e257600080fd5b506102d46102f13660046125e1565b610949565b34801561030257600080fd5b506102d46103113660046125e1565b610995565b34801561032257600080fd5b50610336610331366004612818565b6109e1565b6040516102ab919061299a565b34801561034f57600080fd5b50600754610297906001600160a01b031681565b34801561036f57600080fd5b506102d461037e3660046125e1565b610d44565b34801561038f57600080fd5b5061033661039e3660046129ad565b610d90565b3480156103af57600080fd5b506102d46103be3660046125e1565b610f9d565b3480156103cf57600080fd5b506102d46103de366004612a82565b610fe9565b3480156103ef57600080fd5b506102d46103fe366004612abb565b6110cb565b34801561040f57600080fd5b50600954610297906001600160a01b031681565b34801561042f57600080fd5b50600354610297906001600160a01b031681565b34801561044f57600080fd5b506102d461045e3660046125e1565b61114a565b34801561046f57600080fd5b506102d461047e3660046125e1565b611196565b34801561048f57600080fd5b506102d461049e3660046125e1565b6111e2565b3480156104af57600080fd5b506102d46104be3660046125e1565b61122e565b3480156104cf57600080fd5b506102d46113f5565b3480156104e457600080fd5b506102d46104f3366004612a82565b61142b565b34801561050457600080fd5b506102976105133660046125e1565b600c602052600090815260409020546001600160a01b031681565b34801561053a57600080fd5b50600a54610297906001600160a01b031681565b34801561055a57600080fd5b506102d46105693660046125e1565b611462565b34801561057a57600080fd5b506000546001600160a01b0316610297565b34801561059857600080fd5b50600654610297906001600160a01b031681565b3480156105b857600080fd5b506105cc6105c73660046125e1565b6114ae565b6040516102ab9190612b71565b3480156105e557600080fd5b506103366105f4366004612b84565b611527565b34801561060557600080fd5b506102d46106143660046125e1565b61164e565b34801561062557600080fd5b50610639610634366004612c34565b61169a565b604080519283526020830191909152016102ab565b34801561065a57600080fd5b50600154610297906001600160a01b031681565b34801561067a57600080fd5b50600254610297906001600160a01b031681565b34801561069a57600080fd5b506106396106a9366004612c7e565b6117a8565b6102d46106bc366004612ccd565b611a4c565b3480156106cd57600080fd5b506102d46106dc3660046125e1565b611cb7565b3480156106ed57600080fd5b506102d46106fc366004612d1a565b611d0b565b6102d461070f366004612ccd565b611d57565b34801561072057600080fd5b50600b54610297906001600160a01b031681565b34801561074057600080fd5b5061075461074f366004612c34565b611ede565b6040519081526020016102ab565b34801561076e57600080fd5b5061075461077d366004612c34565b611f78565b34801561078e57600080fd5b506102d461079d366004612d4f565b611fd2565b3480156107ae57600080fd5b506102d46107bd3660046125e1565b61205e565b3480156107ce57600080fd5b50600454610297906001600160a01b031681565b3480156107ee57600080fd5b506102d46107fd3660046125e1565b6120f6565b34801561080e57600080fd5b506102d461081d3660046125e1565b612142565b34801561082e57600080fd5b50600854610297906001600160a01b031681565b34801561084e57600080fd5b506102d461085d366004612d79565b61218e565b6001600160a01b0383166108bd5760405162461bcd60e51b815260206004820152601a60248201527f5f6c656e646572207368617265206973207a65726f206164647200000000000060448201526064015b60405180910390fd5b80156108db576003546108db906001600160a01b031633858461222c565b6040516302aea9b760e11b81523360048201526001600160a01b0383811660248301526044820183905284169063055d536e906064015b600060405180830381600087803b15801561092c57600080fd5b505af1158015610940573d6000803e3d6000fd5b50505050505050565b6000546001600160a01b031633146109735760405162461bcd60e51b81526004016108b490612da5565b600780546001600160a01b0319166001600160a01b0392909216919091179055565b6000546001600160a01b031633146109bf5760405162461bcd60e51b81526004016108b490612da5565b600880546001600160a01b0319166001600160a01b0392909216919091179055565b6040516334f071a360e11b81523360048201526060906001600160a01b038c16906369e0e34690602401602060405180830381865afa158015610a28573d6000803e3d6000fd5b505050506040513d601f19601f82011682018060405250810190610a4c9190612dda565b610a895760405162461bcd60e51b815260206004820152600e60248201526d1b9bdd081dda1a5d19481b1a5cdd60921b60448201526064016108b4565b885187518114610aed5760405162461bcd60e51b815260206004820152602960248201527f626173655f707269636573206c656e677468206e6f7420657175616c73206d696044820152680dce840d8cadccee8d60bb1b60648201526084016108b4565b86518114610b505760405162461bcd60e51b815260206004820152602a60248201527f696e6372655f707269636573206c656e677468206e6f7420657175616c73206d6044820152690d2dce840d8cadccee8d60b31b60648201526084016108b4565b85518114610bb15760405162461bcd60e51b815260206004820152602860248201527f737461727474696d6573206c656e677468206e6f7420657175616c73206d696e6044820152670e840d8cadccee8d60c31b60648201526084016108b4565b84518114610c115760405162461bcd60e51b815260206004820152602760248201527f646561646c696e6573206c656e677468206e6f7420657175616c73206d696e74604482015266040d8cadccee8d60cb1b60648201526084016108b4565b60008c6001600160a01b031663448177e88d600a60009054906101000a90046001600160a01b03168e8e6040518563ffffffff1660e01b8152600401610c5a9493929190612df7565b6000604051808303816000875af1158015610c79573d6000803e3d6000fd5b505050506040513d6000823e601f3d908101601f19168201604052610ca19190810190612e84565b9050600a60009054906101000a90046001600160a01b03166001600160a01b0316637470a8528e838c8c8c8c336040518863ffffffff1660e01b8152600401610cf09796959493929190612f0a565b6020604051808303816000875af1158015610d0f573d6000803e3d6000fd5b505050506040513d601f19601f82011682018060405250810190610d339190612f92565b509c9b505050505050505050505050565b6000546001600160a01b03163314610d6e5760405162461bcd60e51b81526004016108b490612da5565b600280546001600160a01b0319166001600160a01b0392909216919091179055565b6040516334f071a360e11b81523360048201526060906001600160a01b038916906369e0e34690602401602060405180830381865afa158015610dd7573d6000803e3d6000fd5b505050506040513d601f19601f82011682018060405250810190610dfb9190612dda565b610e385760405162461bcd60e51b815260206004820152600e60248201526d1b9bdd081dda1a5d19481b1a5cdd60921b60448201526064016108b4565b8351865114610e955760405162461bcd60e51b815260206004820152602360248201527f5072696365206c656e677468206e6f7420657175616c73206d696e74206c656e6044820152620cee8d60eb1b60648201526084016108b4565b600a546040516308902efd60e31b81526000916001600160a01b03808c169263448177e892610ecf928d929116908c908c90600401612df7565b6000604051808303816000875af1158015610eee573d6000803e3d6000fd5b505050506040513d6000823e601f3d908101601f19168201604052610f169190810190612e84565b600a5460405163ac98aee760e01b81529192506001600160a01b03169063ac98aee790610f4d908c9085908a903390600401612fab565b6020604051808303816000875af1158015610f6c573d6000803e3d6000fd5b505050506040513d601f19601f82011682018060405250810190610f909190612f92565b5098975050505050505050565b6000546001600160a01b03163314610fc75760405162461bcd60e51b81526004016108b490612da5565b600680546001600160a01b0319166001600160a01b0392909216919091179055565b6009546001600160a01b03166110415760405162461bcd60e51b815260206004820152601960248201527f70726f666974207368617265206973207a65726f20616464720000000000000060448201526064016108b4565b600354600954611060916001600160a01b03908116913391168461222c565b600960009054906101000a90046001600160a01b03166001600160a01b031663630b5ba16040518163ffffffff1660e01b8152600401600060405180830381600087803b1580156110b057600080fd5b505af11580156110c4573d6000803e3d6000fd5b5050505050565b600754604051633bf880f360e01b81526001600160a01b0390911690633bf880f390611101903390879087908790600401612ff4565b6020604051808303816000875af1158015611120573d6000803e3d6000fd5b505050506040513d601f19601f820116820180604052508101906111449190612dda565b50505050565b6000546001600160a01b031633146111745760405162461bcd60e51b81526004016108b490612da5565b600b80546001600160a01b0319166001600160a01b0392909216919091179055565b6000546001600160a01b031633146111c05760405162461bcd60e51b81526004016108b490612da5565b600480546001600160a01b0319166001600160a01b0392909216919091179055565b6000546001600160a01b0316331461120c5760405162461bcd60e51b81526004016108b490612da5565b600a80546001600160a01b0319166001600160a01b0392909216919091179055565b6000546001600160a01b031633146112585760405162461bcd60e51b81526004016108b490612da5565b6040516370a0823160e01b81523060048201526000906001600160a01b038316906370a0823190602401602060405180830381865afa15801561129f573d6000803e3d6000fd5b505050506040513d601f19601f820116820180604052508101906112c39190612f92565b116113105760405162461bcd60e51b815260206004820152601d60248201527f496e73756666696369656e7420636f6e74726163742062616c616e636500000060448201526064016108b4565b6040516370a0823160e01b81523060048201526001600160a01b0382169063a9059cbb90339083906370a0823190602401602060405180830381865afa15801561135e573d6000803e3d6000fd5b505050506040513d601f19601f820116820180604052508101906113829190612f92565b6040516001600160e01b031960e085901b1681526001600160a01b03909216600483015260248201526044016020604051808303816000875af11580156113cd573d6000803e3d6000fd5b505050506040513d601f19601f820116820180604052508101906113f19190612dda565b5050565b6000546001600160a01b0316331461141f5760405162461bcd60e51b81526004016108b490612da5565b6114296000612354565b565b6000546001600160a01b031633146114555760405162461bcd60e51b81526004016108b490612da5565b61145f33826123a4565b50565b6000546001600160a01b0316331461148c5760405162461bcd60e51b81526004016108b490612da5565b600380546001600160a01b0319166001600160a01b0392909216919091179055565b600754604051639a68b84760e01b81526001600160a01b0383811660048301526060921690639a68b84790602401600060405180830381865afa1580156114f9573d6000803e3d6000fd5b505050506040513d6000823e601f3d908101601f191682016040526115219190810190613032565b50919050565b6040516334f071a360e11b81523360048201526060906001600160a01b038816906369e0e34690602401602060405180830381865afa15801561156e573d6000803e3d6000fd5b505050506040513d601f19601f820116820180604052508101906115929190612dda565b6115ca5760405162461bcd60e51b81526020600482015260096024820152683737ba1037bbb732b960b91b60448201526064016108b4565b6040516308902efd60e31b81526001600160a01b0388169063448177e8906115fc90899033908a908a90600401612df7565b6000604051808303816000875af115801561161b573d6000803e3d6000fd5b505050506040513d6000823e601f3d908101601f191682016040526116439190810190612e84565b979650505050505050565b6000546001600160a01b031633146116785760405162461bcd60e51b81526004016108b490612da5565b600180546001600160a01b0319166001600160a01b0392909216919091179055565b60045460009081906116b7906001600160a01b031633818761222c565b6004805460405163226bf2d160e21b815230928101929092526001600160a01b0316906389afcb44906024016020604051808303816000875af1158015611702573d6000803e3d6000fd5b505050506040513d601f19601f820116820180604052508101906117269190612f92565b600354604051631a4ca37b60e21b81529192506001600160a01b0316906369328dec9061175b908890859088906004016130a9565b6020604051808303816000875af115801561177a573d6000803e3d6000fd5b505050506040513d601f19601f8201168201806040525081019061179e9190612f92565b9150935093915050565b6000806117b78633308861222c565b6003546117cf9087906001600160a01b031687612475565b60035460048054604051633d14d1b760e21b81526001600160a01b039384169363f45346dc93611807938c938c9390911691016130a9565b6020604051808303816000875af1158015611826573d6000803e3d6000fd5b505050506040513d601f19601f8201168201806040525081019061184a9190612f92565b915082156119ce57600480546040516335313c2160e11b815230928101929092526001600160a01b031690636a627842906024016020604051808303816000875af115801561189d573d6000803e3d6000fd5b505050506040513d601f19601f820116820180604052508101906118c19190612f92565b6001546004805460405163309cfdd960e11b81526001600160a01b039182169281019290925292935060009290911690636139fbb290602401602060405180830381865afa158015611917573d6000803e3d6000fd5b505050506040513d601f19601f8201168201806040525081019061193b9190612f92565b60045460015491925061195b916001600160a01b03918216911684612475565b600154604051638dbdbe6d60e01b815260048101839052602481018490526001600160a01b03878116604483015290911690638dbdbe6d90606401600060405180830381600087803b1580156119b057600080fd5b505af11580156119c4573d6000803e3d6000fd5b5050505050611a43565b600480546040516335313c2160e11b81526001600160a01b0387811693820193909352911690636a627842906024016020604051808303816000875af1158015611a1c573d6000803e3d6000fd5b505050506040513d601f19601f82011682018060405250810190611a409190612f92565b90505b94509492505050565b600b60009054906101000a90046001600160a01b03166001600160a01b031663d0e30db0346040518263ffffffff1660e01b81526004016000604051808303818588803b158015611a9c57600080fd5b505af1158015611ab0573d6000803e3d6000fd5b5050600b54600a5460405163095ea7b360e01b81526001600160a01b0391821660048201523460248201529116935063095ea7b3925060440190506020604051808303816000875af1158015611b0a573d6000803e3d6000fd5b505050506040513d601f19601f82011682018060405250810190611b2e9190612dda565b611b3a57611b3a6130cc565b600a5460405163a7ff3b2360e01b81526001600160a01b0386811660048301526024820186905234604483015284811660648301529091169063a7ff3b23906084016020604051808303816000875af1158015611b9b573d6000803e3d6000fd5b505050506040513d601f19601f82011682018060405250810190611bbf9190612dda565b50600b546040516370a0823160e01b81523060048201526000916001600160a01b0316906370a08231906024015b6020604051808303816000875af1158015611c0c573d6000803e3d6000fd5b505050506040513d601f19601f82011682018060405250810190611c309190612f92565b905080156110c457600b5460405163a9059cbb60e01b81526001600160a01b038481166004830152602482018490529091169063a9059cbb906044016020604051808303816000875af1158015611c8b573d6000803e3d6000fd5b505050506040513d601f19601f82011682018060405250810190611caf9190612dda565b505050505050565b6000546001600160a01b03163314611ce15760405162461bcd60e51b81526004016108b490612da5565b6001600160a01b03166000818152600c6020526040902080546001600160a01b0319169091179055565b6007546040516312717d8760e01b81526001600160a01b03909116906312717d8790611d3d90339085906004016130e2565b600060405180830381600087803b1580156110b057600080fd5b600b60009054906101000a90046001600160a01b03166001600160a01b031663d0e30db0346040518263ffffffff1660e01b81526004016000604051808303818588803b158015611da757600080fd5b505af1158015611dbb573d6000803e3d6000fd5b5050600b54600a5460405163095ea7b360e01b81526001600160a01b0391821660048201523460248201529116935063095ea7b3925060440190506020604051808303816000875af1158015611e15573d6000803e3d6000fd5b505050506040513d601f19601f82011682018060405250810190611e399190612dda565b611e4557611e456130cc565b600a54604051636db0e3b760e11b81526001600160a01b039091169063db61c76e90611e79908790879087906004016130a9565b600060405180830381600087803b158015611e9357600080fd5b505af1158015611ea7573d6000803e3d6000fd5b5050600b546040516370a0823160e01b8152306004820152600093506001600160a01b0390911691506370a0823190602401611bed565b600354600090611ef9906001600160a01b031633308661222c565b600354604051631a4ca37b60e21b81526001600160a01b03909116906369328dec90611f2d908790879087906004016130a9565b6020604051808303816000875af1158015611f4c573d6000803e3d6000fd5b505050506040513d601f19601f82011682018060405250810190611f709190612f92565b949350505050565b6000611f868433308661222c565b600354611f9e9085906001600160a01b031685612475565b600354604051633d14d1b760e21b81526001600160a01b039091169063f45346dc90611f2d908790879087906004016130a9565b6000546001600160a01b03163314611ffc5760405162461bcd60e51b81526004016108b490612da5565b600a5460405163783a12c760e11b81526001600160a01b038481166004830152602482018490529091169063f074258e90604401600060405180830381600087803b15801561204a57600080fd5b505af1158015611caf573d6000803e3d6000fd5b6000546001600160a01b031633146120885760405162461bcd60e51b81526004016108b490612da5565b6001600160a01b0381166120ed5760405162461bcd60e51b815260206004820152602660248201527f4f776e61626c653a206e6577206f776e657220697320746865207a65726f206160448201526564647265737360d01b60648201526084016108b4565b61145f81612354565b6000546001600160a01b031633146121205760405162461bcd60e51b81526004016108b490612da5565b600980546001600160a01b0319166001600160a01b0392909216919091179055565b6000546001600160a01b0316331461216c5760405162461bcd60e51b81526004016108b490612da5565b600580546001600160a01b0319166001600160a01b0392909216919091179055565b6001546001600160a01b03166121e65760405162461bcd60e51b815260206004820152601760248201527f6d6178697479506f6f6c206973207a65726f206164647200000000000000000060448201526064016108b4565b60015460405163668ce04b60e11b815233600482015260248101859052604481018490526001600160a01b0383811660648301529091169063cd19c09690608401610912565b604080516001600160a01b0385811660248301528481166044830152606480830185905283518084039091018152608490920183526020820180516001600160e01b03166323b872dd60e01b17905291516000928392908816916122909190613106565b6000604051808303816000865af19150503d80600081146122cd576040519150601f19603f3d011682016040523d82523d6000602084013e6122d2565b606091505b50915091508180156122fc5750805115806122fc5750808060200190518101906122fc9190612dda565b611caf5760405162461bcd60e51b8152602060048201526024808201527f5472616e7366657248656c7065723a205452414e534645525f46524f4d5f46416044820152631253115160e21b60648201526084016108b4565b600080546001600160a01b038381166001600160a01b0319831681178455604051919092169283917f8be0079c531659141344cd1fd0a4f28419497f9722a3daafe3b4186f6b6457e09190a35050565b604080516000808252602082019092526001600160a01b0384169083906040516123ce9190613106565b60006040518083038185875af1925050503d806000811461240b576040519150601f19603f3d011682016040523d82523d6000602084013e612410565b606091505b50509050806124705760405162461bcd60e51b815260206004820152602660248201527f5472616e7366657248656c7065723a204e61746976655f5452414e534645525f60448201526511905253115160d21b60648201526084016108b4565b505050565b604080516001600160a01b038481166024830152604480830185905283518084039091018152606490920183526020820180516001600160e01b031663095ea7b360e01b17905291516000928392908716916124d19190613106565b6000604051808303816000865af19150503d806000811461250e576040519150601f19603f3d011682016040523d82523d6000602084013e612513565b606091505b509150915081801561253d57508051158061253d57508080602001905181019061253d9190612dda565b6110c45760405162461bcd60e51b815260206004820152601e60248201527f5472616e7366657248656c7065723a20415050524f56455f4641494c4544000060448201526064016108b4565b80356001600160a01b03811681146125a057600080fd5b919050565b6000806000606084860312156125ba57600080fd5b6125c384612589565b92506125d160208501612589565b9150604084013590509250925092565b6000602082840312156125f357600080fd5b6125fc82612589565b9392505050565b634e487b7160e01b600052604160045260246000fd5b604051601f8201601f1916810167ffffffffffffffff8111828210171561264257612642612603565b604052919050565b600067ffffffffffffffff82111561266457612664612603565b5060051b60200190565b600082601f83011261267f57600080fd5b8135602061269461268f8361264a565b612619565b82815260059290921b840181019181810190868411156126b357600080fd5b8286015b848110156126ce57803583529183019183016126b7565b509695505050505050565b600067ffffffffffffffff8211156126f3576126f3612603565b50601f01601f191660200190565b600061270f61268f846126d9565b905082815283838301111561272357600080fd5b828260208301376000602084830101529392505050565b600082601f83011261274b57600080fd5b8135602061275b61268f8361264a565b82815260059290921b8401810191818101908684111561277a57600080fd5b8286015b848110156126ce57803567ffffffffffffffff81111561279e5760008081fd5b8701603f810189136127b05760008081fd5b6127c1898683013560408401612701565b84525091830191830161277e565b60008083601f8401126127e157600080fd5b50813567ffffffffffffffff8111156127f957600080fd5b60208301915083602082850101111561281157600080fd5b9250929050565b6000806000806000806000806000806101208b8d03121561283857600080fd5b6128418b612589565b995061284f60208c01612589565b985060408b013567ffffffffffffffff8082111561286c57600080fd5b6128788e838f0161266e565b995060608d013591508082111561288e57600080fd5b61289a8e838f0161273a565b985060808d01359150808211156128b057600080fd5b6128bc8e838f0161266e565b975060a08d01359150808211156128d257600080fd5b6128de8e838f0161266e565b965060c08d01359150808211156128f457600080fd5b6129008e838f0161266e565b955060e08d013591508082111561291657600080fd5b6129228e838f0161266e565b94506101008d013591508082111561293957600080fd5b506129468d828e016127cf565b915080935050809150509295989b9194979a5092959850565b600081518084526020808501945080840160005b8381101561298f57815187529582019590820190600101612973565b509495945050505050565b6020815260006125fc602083018461295f565b600080600080600080600060c0888a0312156129c857600080fd5b6129d188612589565b96506129df60208901612589565b9550604088013567ffffffffffffffff808211156129fc57600080fd5b612a088b838c0161266e565b965060608a0135915080821115612a1e57600080fd5b612a2a8b838c0161273a565b955060808a0135915080821115612a4057600080fd5b612a4c8b838c0161266e565b945060a08a0135915080821115612a6257600080fd5b50612a6f8a828b016127cf565b989b979a50959850939692959293505050565b600060208284031215612a9457600080fd5b5035919050565b600082601f830112612aac57600080fd5b6125fc83833560208501612701565b600080600060608486031215612ad057600080fd5b612ad984612589565b9250612ae760208501612589565b9150604084013567ffffffffffffffff811115612b0357600080fd5b612b0f86828701612a9b565b9150509250925092565b60005b83811015612b34578181015183820152602001612b1c565b838111156111445750506000910152565b60008151808452612b5d816020860160208601612b19565b601f01601f19169290920160200192915050565b6020815260006125fc6020830184612b45565b60008060008060008060a08789031215612b9d57600080fd5b612ba687612589565b9550612bb460208801612589565b9450604087013567ffffffffffffffff80821115612bd157600080fd5b612bdd8a838b0161266e565b95506060890135915080821115612bf357600080fd5b612bff8a838b0161273a565b94506080890135915080821115612c1557600080fd5b50612c2289828a016127cf565b979a9699509497509295939492505050565b600080600060608486031215612c4957600080fd5b612c5284612589565b925060208401359150612c6760408501612589565b90509250925092565b801515811461145f57600080fd5b60008060008060808587031215612c9457600080fd5b612c9d85612589565b935060208501359250612cb260408601612589565b91506060850135612cc281612c70565b939692955090935050565b60008060008060808587031215612ce357600080fd5b612cec85612589565b935060208501359250612d0160408601612589565b9150612d0f60608601612589565b905092959194509250565b600060208284031215612d2c57600080fd5b813567ffffffffffffffff811115612d4357600080fd5b611f7084828501612a9b565b60008060408385031215612d6257600080fd5b612d6b83612589565b946020939093013593505050565b600080600060608486031215612d8e57600080fd5b8335925060208401359150612c6760408501612589565b6020808252818101527f4f776e61626c653a2063616c6c6572206973206e6f7420746865206f776e6572604082015260600190565b600060208284031215612dec57600080fd5b81516125fc81612c70565b600060018060a01b03808716835260208187168185015260806040850152612e22608085018761295f565b915083820360608501528185518084528284019150828160051b85010183880160005b83811015612e7357601f19878403018552612e61838351612b45565b94860194925090850190600101612e45565b50909b9a5050505050505050505050565b60006020808385031215612e9757600080fd5b825167ffffffffffffffff811115612eae57600080fd5b8301601f81018513612ebf57600080fd5b8051612ecd61268f8261264a565b81815260059190911b82018301908381019087831115612eec57600080fd5b928401925b8284101561164357835182529284019290840190612ef1565b600060018060a01b03808a16835260e06020840152612f2c60e084018a61295f565b8381036040850152612f3e818a61295f565b90508381036060850152612f52818961295f565b90508381036080850152612f66818861295f565b905083810360a0850152612f7a818761295f565b92505080841660c08401525098975050505050505050565b600060208284031215612fa457600080fd5b5051919050565b600060018060a01b03808716835260806020840152612fcd608084018761295f565b8381036040850152612fdf818761295f565b92505080841660608401525095945050505050565b6001600160a01b03858116825284811660208301528316604082015260806060820181905260009061302890830184612b45565b9695505050505050565b60006020828403121561304457600080fd5b815167ffffffffffffffff81111561305b57600080fd5b8201601f8101841361306c57600080fd5b805161307a61268f826126d9565b81815285602083850101111561308f57600080fd5b6130a0826020830160208601612b19565b95945050505050565b6001600160a01b0393841681526020810192909252909116604082015260600190565b634e487b7160e01b600052600160045260246000fd5b6001600160a01b0383168152604060208201819052600090611f7090830184612b45565b60008251613118818460208701612b19565b919091019291505056fea26469706673582212208f6371dca0c2c82cbbd52abca76eded679f1b77d28e0b7f76220d19fd7e4c4bb64736f6c634300080a0033",
  "linkReferences": {},
  "deployedLinkReferences": {}
}