{
  "_format": "hh-sol-artifact-1",
  "contractName": "WertFeeCollector",
  "sourceName": "contracts/maxity/wert/WertFeeCollector.sol",
  "abi": [
    {
      "inputs": [],
      "stateMutability": "nonpayable",
      "type": "constructor"
    },
    {
      "anonymous": false,
      "inputs": [
        {
          "indexed": true,
          "internalType": "address",
          "name": "to",
          "type": "address"
        },
        {
          "indexed": false,
          "internalType": "uint256",
          "name": "allocPoint",
          "type": "uint256"
        },
        {
          "indexed": false,
          "internalType": "uint256",
          "name": "totalAllocPoint",
          "type": "uint256"
        }
      ],
      "name": "AddReceiver",
      "type": "event"
    },
    {
      "anonymous": false,
      "inputs": [
        {
          "indexed": true,
          "internalType": "address",
          "name": "previousOwner",
          "type": "address"
        },
        {
          "indexed": true,
          "internalType": "address",
          "name": "newOwner",
          "type": "address"
        }
      ],
      "name": "OwnershipTransferred",
      "type": "event"
    },
    {
      "anonymous": false,
      "inputs": [
        {
          "indexed": true,
          "internalType": "address",
          "name": "to",
          "type": "address"
        },
        {
          "indexed": false,
          "internalType": "uint256",
          "name": "allocPoint",
          "type": "uint256"
        },
        {
          "indexed": false,
          "internalType": "uint256",
          "name": "totalAllocPoint",
          "type": "uint256"
        }
      ],
      "name": "RemoveReceiver",
      "type": "event"
    },
    {
      "anonymous": false,
      "inputs": [
        {
          "indexed": true,
          "internalType": "address",
          "name": "from",
          "type": "address"
        },
        {
          "indexed": true,
          "internalType": "address",
          "name": "to",
          "type": "address"
        },
        {
          "indexed": true,
          "internalType": "address",
          "name": "token",
          "type": "address"
        },
        {
          "indexed": false,
          "internalType": "uint256",
          "name": "amount",
          "type": "uint256"
        }
      ],
      "name": "Withdraw",
      "type": "event"
    },
    {
      "anonymous": false,
      "inputs": [
        {
          "indexed": true,
          "internalType": "address",
          "name": "from",
          "type": "address"
        },
        {
          "indexed": true,
          "internalType": "address",
          "name": "to",
          "type": "address"
        },
        {
          "indexed": true,
          "internalType": "address",
          "name": "token",
          "type": "address"
        },
        {
          "indexed": false,
          "internalType": "uint256",
          "name": "amount",
          "type": "uint256"
        }
      ],
      "name": "WithdrawAll",
      "type": "event"
    },
    {
      "inputs": [
        {
          "internalType": "address",
          "name": "receiver",
          "type": "address"
        },
        {
          "internalType": "uint256",
          "name": "allocPoint",
          "type": "uint256"
        }
      ],
      "name": "addAllocReceiver",
      "outputs": [
        {
          "internalType": "address",
          "name": "",
          "type": "address"
        }
      ],
      "stateMutability": "nonpayable",
      "type": "function"
    },
    {
      "inputs": [
        {
          "internalType": "contract IERC20",
          "name": "_token",
          "type": "address"
        },
        {
          "internalType": "bool",
          "name": "_withUpdate",
          "type": "bool"
        }
      ],
      "name": "addBonusInfo",
      "outputs": [],
      "stateMutability": "nonpayable",
      "type": "function"
    },
    {
      "inputs": [
        {
          "internalType": "uint256",
          "name": "",
          "type": "uint256"
        }
      ],
      "name": "bonusInfo",
      "outputs": [
        {
          "internalType": "contract IERC20",
          "name": "token",
          "type": "address"
        },
        {
          "internalType": "uint256",
          "name": "lastRewardBlock",
          "type": "uint256"
        },
        {
          "internalType": "uint256",
          "name": "totalAmount",
          "type": "uint256"
        }
      ],
      "stateMutability": "view",
      "type": "function"
    },
    {
      "inputs": [],
      "name": "bonusLength",
      "outputs": [
        {
          "internalType": "uint256",
          "name": "",
          "type": "uint256"
        }
      ],
      "stateMutability": "view",
      "type": "function"
    },
    {
      "inputs": [
        {
          "internalType": "address",
          "name": "",
          "type": "address"
        }
      ],
      "name": "bonusOfPid",
      "outputs": [
        {
          "internalType": "uint256",
          "name": "",
          "type": "uint256"
        }
      ],
      "stateMutability": "view",
      "type": "function"
    },
    {
      "inputs": [
        {
          "internalType": "address",
          "name": "token",
          "type": "address"
        },
        {
          "internalType": "uint256",
          "name": "amount",
          "type": "uint256"
        }
      ],
      "name": "feeShare",
      "outputs": [
        {
          "internalType": "uint256",
          "name": "",
          "type": "uint256"
        }
      ],
      "stateMutability": "nonpayable",
      "type": "function"
    },
    {
      "inputs": [
        {
          "internalType": "address",
          "name": "receiver",
          "type": "address"
        },
        {
          "internalType": "address",
          "name": "token",
          "type": "address"
        }
      ],
      "name": "getFeeAmount",
      "outputs": [
        {
          "internalType": "uint256",
          "name": "",
          "type": "uint256"
        }
      ],
      "stateMutability": "view",
      "type": "function"
    },
    {
      "inputs": [],
      "name": "massUpdateBonus",
      "outputs": [],
      "stateMutability": "nonpayable",
      "type": "function"
    },
    {
      "inputs": [],
      "name": "owner",
      "outputs": [
        {
          "internalType": "address",
          "name": "",
          "type": "address"
        }
      ],
      "stateMutability": "view",
      "type": "function"
    },
    {
      "inputs": [
        {
          "internalType": "address",
          "name": "_token",
          "type": "address"
        }
      ],
      "name": "pidFromAddr",
      "outputs": [
        {
          "internalType": "uint256",
          "name": "pid",
          "type": "uint256"
        }
      ],
      "stateMutability": "view",
      "type": "function"
    },
    {
      "inputs": [
        {
          "internalType": "address",
          "name": "",
          "type": "address"
        }
      ],
      "name": "receiverInfos",
      "outputs": [
        {
          "internalType": "uint256",
          "name": "allocPoint",
          "type": "uint256"
        },
        {
          "internalType": "uint256",
          "name": "lastRewardBlock",
          "type": "uint256"
        }
      ],
      "stateMutability": "view",
      "type": "function"
    },
    {
      "inputs": [
        {
          "internalType": "address",
          "name": "receiver",
          "type": "address"
        },
        {
          "internalType": "uint256",
          "name": "allocPoint",
          "type": "uint256"
        },
        {
          "internalType": "address",
          "name": "remainto",
          "type": "address"
        }
      ],
      "name": "removeAllocReceiver",
      "outputs": [
        {
          "internalType": "address",
          "name": "",
          "type": "address"
        }
      ],
      "stateMutability": "nonpayable",
      "type": "function"
    },
    {
      "inputs": [],
      "name": "renounceOwnership",
      "outputs": [],
      "stateMutability": "nonpayable",
      "type": "function"
    },
    {
      "inputs": [],
      "name": "totalAllocPoint",
      "outputs": [
        {
          "internalType": "uint256",
          "name": "",
          "type": "uint256"
        }
      ],
      "stateMutability": "view",
      "type": "function"
    },
    {
      "inputs": [
        {
          "internalType": "address",
          "name": "newOwner",
          "type": "address"
        }
      ],
      "name": "transferOwnership",
      "outputs": [],
      "stateMutability": "nonpayable",
      "type": "function"
    },
    {
      "inputs": [
        {
          "internalType": "uint256",
          "name": "_pid",
          "type": "uint256"
        }
      ],
      "name": "updatePool",
      "outputs": [],
      "stateMutability": "nonpayable",
      "type": "function"
    },
    {
      "inputs": [
        {
          "internalType": "address",
          "name": "to",
          "type": "address"
        },
        {
          "internalType": "address",
          "name": "token",
          "type": "address"
        },
        {
          "internalType": "uint256",
          "name": "amount",
          "type": "uint256"
        }
      ],
      "name": "withdraw",
      "outputs": [
        {
          "internalType": "uint256",
          "name": "",
          "type": "uint256"
        }
      ],
      "stateMutability": "nonpayable",
      "type": "function"
    },
    {
      "inputs": [
        {
          "internalType": "address",
          "name": "to",
          "type": "address"
        },
        {
          "internalType": "address",
          "name": "token",
          "type": "address"
        }
      ],
      "name": "withdrawAll",
      "outputs": [
        {
          "internalType": "uint256",
          "name": "",
          "type": "uint256"
        }
      ],
      "stateMutability": "nonpayable",
      "type": "function"
    }
  ],
  "bytecode": "0x608060405234801561001057600080fd5b5061001a3361001f565b61006f565b600080546001600160a01b038381166001600160a01b0319831681178455604051919092169283917f8be0079c531659141344cd1fd0a4f28419497f9722a3daafe3b4186f6b6457e09190a35050565b61131e8061007e6000396000f3fe608060405234801561001057600080fd5b50600436106101165760003560e01c8063715018a6116100a25780639be2801e116100715780639be2801e146102835780639db1928a14610296578063cd676ef2146102a9578063d9caed12146102bc578063f2fde38b146102cf57600080fd5b8063715018a61461024f57806385e87765146102575780638da5cb5b1461025f5780638f6460081461027057600080fd5b80632cb7baf9116100e95780632cb7baf914610190578063452e122a146101bb57806351eb05a6146101e45780635ca09a53146101f75780636b1f69a51461021757600080fd5b8063048d58ca1461011b57806309cae2c81461015c57806310135b391461017d57806317caf6f114610187575b600080fd5b61014261012936600461100b565b6001602081905260009182526040909120805491015482565b604080519283526020830191909152015b60405180910390f35b61016f61016a366004611028565b6102e2565b604051908152602001610153565b6101856103f7565b005b61016f60045481565b6101a361019e366004611061565b61044c565b6040516001600160a01b039091168152602001610153565b61016f6101c936600461100b565b6001600160a01b031660009081526002602052604090205490565b6101856101f23660046110a3565b6105f2565b61016f61020536600461100b565b60026020526000908152604090205481565b61022a6102253660046110a3565b6106e3565b604080516001600160a01b039094168452602084019290925290820152606001610153565b610185610720565b60035461016f565b6000546001600160a01b03166101a3565b61016f61027e366004611028565b610756565b6101856102913660046110ca565b61080e565b61016f6102a43660046110f8565b610a84565b6101a36102b73660046110f8565b610b75565b61016f6102ca366004611124565b610c7a565b6101856102dd36600461100b565b610dbc565b336000818152600160205260408120805491929161031b5760405162461bcd60e51b815260040161031290611165565b60405180910390fd5b6001600160a01b038416600090815260026020526040812054600380549192918390811061034b5761034b61118b565b6000918252602080832060026003909302018201546001600160a01b038a16845291860190526040822054600454865492945061039e926103989190610392908790610e54565b90610e67565b90610e73565b6001600160a01b03881660009081526002860160205260409020549091506103c69082610e7f565b6001600160a01b03881660009081526002860160205260409020556103ec878983610e8b565b979650505050505050565b6000546001600160a01b031633146104215760405162461bcd60e51b8152600401610312906111a1565b60035460005b8181101561044857610438816105f2565b610441816111ec565b9050610427565b5050565b600080546001600160a01b031633146104775760405162461bcd60e51b8152600401610312906111a1565b6001600160a01b0384166000908152600160205260409020546104cd5760405162461bcd60e51b815260206004820152600e60248201526d1d5cd95c881b9bdd08195e1a5cdd60921b6044820152606401610312565b60035460005b818110156105c7576000600382815481106104f0576104f061118b565b600091825260208083206001600160a01b03808c1685526001835260408086206003909502909201805490911685526002938401909252832054600454928201549194506105499290916103989190610392908c610e54565b90508015610567578154610567906001600160a01b03168783610e8b565b610584600454610392898560020154610e5490919063ffffffff16565b6001600160a01b03808a16600090815260016020908152604080832096549093168252600290950190945290922091909155506105c0816111ec565b90506104d3565b50506001600160a01b0390931660009081526001602081905260408220918255439101555090919050565b6000546001600160a01b0316331461061c5760405162461bcd60e51b8152600401610312906111a1565b6000600382815481106106315761063161118b565b9060005260206000209060030201905080600101544311610650575050565b60028101548061066557504360019091015550565b81546040516370a0823160e01b81523060048201526000916001600160a01b0316906370a0823190602401602060405180830381865afa1580156106ad573d6000803e3d6000fd5b505050506040513d601f19601f820116820180604052508101906106d19190611207565b60028401555050436001909101555b50565b600381815481106106f357600080fd5b60009182526020909120600390910201805460018201546002909201546001600160a01b03909116925083565b6000546001600160a01b0316331461074a5760405162461bcd60e51b8152600401610312906111a1565b6107546000610fa6565b565b6001600160a01b0382166000908152600160205260408120805461078c5760405162461bcd60e51b815260040161031290611165565b6001600160a01b03831660009081526002602052604081205460038054919291839081106107bc576107bc61118b565b6000918252602080832060026003909302018201546001600160a01b038916845291860190526040909120546004548554929350610804926103989190610392908690610e54565b9695505050505050565b6000546001600160a01b031633146108385760405162461bcd60e51b8152600401610312906111a1565b6001600160a01b03821661088e5760405162461bcd60e51b815260206004820152601a60248201527f5f746f6b656e20697320746865207a65726f20616464726573730000000000006044820152606401610312565b6001600160a01b038216600090815260026020526040902054156108eb5760405162461bcd60e51b815260206004820152601460248201527317dd1bdad95b88185b1c9958591e48195e1a5cdd60621b6044820152606401610312565b60006108f660035490565b1180156109385750816001600160a01b0316600360008154811061091c5761091c61118b565b60009182526020909120600390910201546001600160a01b0316145b156109855760405162461bcd60e51b815260206004820152601960248201527f5f746f6b656e20616c726561647920657869737420696e2030000000000000006044820152606401610312565b8015610993576109936103f7565b604080516060810182526001600160a01b0384811682524360208301818152600094840185815260038054600180820183559782905295517fc2575a0e9e593c00f959f8c92f12db2869c3395a3b0502d05e2516446f71f85b96820296870180546001600160a01b031916919096161790945590517fc2575a0e9e593c00f959f8c92f12db2869c3395a3b0502d05e2516446f71f85c850155517fc2575a0e9e593c00f959f8c92f12db2869c3395a3b0502d05e2516446f71f85d9093019290925554909190610a639190611220565b6001600160a01b039093166000908152600260205260409020929092555050565b6001600160a01b038216600081815260026020526040812054600380549293919283908110610ab557610ab561118b565b60009182526020909120600390910201546001600160a01b031614610b0f5760405162461bcd60e51b815260206004820152601060248201526f746f6b656e206e6f7420657175616c7360801b6044820152606401610312565b610b468360038381548110610b2657610b2661118b565b906000526020600020906003020160020154610e7f90919063ffffffff16565b60038281548110610b5957610b5961118b565b9060005260206000209060030201600201819055505092915050565b600080546001600160a01b03163314610ba05760405162461bcd60e51b8152600401610312906111a1565b6001600160a01b03831660009081526001602081905260409091208054848255439190920155600454610bdf908490610bd99084610e73565b90610e7f565b60045560035460005b81811015610c7157600060038281548110610c0557610c0561118b565b90600052602060002090600302019050610c32600454610392888460020154610e5490919063ffffffff16565b6001600160a01b03808916600090815260016020908152604080832095549093168252600290940190935290912055610c6a816111ec565b9050610be8565b50505092915050565b3360008181526001602052604081208054919291610caa5760405162461bcd60e51b815260040161031290611165565b6001600160a01b0385166000908152600260205260408120546003805491929183908110610cda57610cda61118b565b6000918252602080832060026003909302018201546001600160a01b038b168452918601905260408220546004548654929450610d21926103989190610392908790610e54565b905086811015610d645760405162461bcd60e51b815260206004820152600e60248201526d6e6f7420656e6f7567682066656560901b6044820152606401610312565b6001600160a01b0388166000908152600285016020526040902054610d899088610e7f565b6001600160a01b0389166000908152600286016020526040902055610daf888a89610e8b565b5094979650505050505050565b6000546001600160a01b03163314610de65760405162461bcd60e51b8152600401610312906111a1565b6001600160a01b038116610e4b5760405162461bcd60e51b815260206004820152602660248201527f4f776e61626c653a206e6577206f776e657220697320746865207a65726f206160448201526564647265737360d01b6064820152608401610312565b6106e081610fa6565b6000610e608284611237565b9392505050565b6000610e608284611256565b6000610e608284611220565b6000610e608284611278565b604080516001600160a01b038481166024830152604480830185905283518084039091018152606490920183526020820180516001600160e01b031663a9059cbb60e01b1790529151600092839290871691610ee79190611290565b6000604051808303816000865af19150503d8060008114610f24576040519150601f19603f3d011682016040523d82523d6000602084013e610f29565b606091505b5091509150818015610f53575080511580610f53575080806020019051810190610f5391906112cb565b610f9f5760405162461bcd60e51b815260206004820152601f60248201527f5472616e7366657248656c7065723a205452414e534645525f4641494c4544006044820152606401610312565b5050505050565b600080546001600160a01b038381166001600160a01b0319831681178455604051919092169283917f8be0079c531659141344cd1fd0a4f28419497f9722a3daafe3b4186f6b6457e09190a35050565b6001600160a01b03811681146106e057600080fd5b60006020828403121561101d57600080fd5b8135610e6081610ff6565b6000806040838503121561103b57600080fd5b823561104681610ff6565b9150602083013561105681610ff6565b809150509250929050565b60008060006060848603121561107657600080fd5b833561108181610ff6565b925060208401359150604084013561109881610ff6565b809150509250925092565b6000602082840312156110b557600080fd5b5035919050565b80151581146106e057600080fd5b600080604083850312156110dd57600080fd5b82356110e881610ff6565b91506020830135611056816110bc565b6000806040838503121561110b57600080fd5b823561111681610ff6565b946020939093013593505050565b60008060006060848603121561113957600080fd5b833561114481610ff6565b9250602084013561115481610ff6565b929592945050506040919091013590565b6020808252600c908201526b3737ba103932b1b2b4bb32b960a11b604082015260600190565b634e487b7160e01b600052603260045260246000fd5b6020808252818101527f4f776e61626c653a2063616c6c6572206973206e6f7420746865206f776e6572604082015260600190565b634e487b7160e01b600052601160045260246000fd5b6000600019821415611200576112006111d6565b5060010190565b60006020828403121561121957600080fd5b5051919050565b600082821015611232576112326111d6565b500390565b6000816000190483118215151615611251576112516111d6565b500290565b60008261127357634e487b7160e01b600052601260045260246000fd5b500490565b6000821982111561128b5761128b6111d6565b500190565b6000825160005b818110156112b15760208186018101518583015201611297565b818111156112c0576000828501525b509190910192915050565b6000602082840312156112dd57600080fd5b8151610e60816110bc56fea2646970667358221220e78f80af96f2907b17b650427ed34523bf718977780ab1bd77335d1163bd13d264736f6c634300080a0033",
  "linkReferences": {},
  "deployedLinkReferences": {}
}