{
  "_format": "hh-sol-artifact-1",
  "contractName": "UTToken",
  "sourceName": "contracts/maxity/impl/UTToken.sol",
  "abi": [
    {
      "inputs": [
        {
          "internalType": "string",
          "name": "name",
          "type": "string"
        },
        {
          "internalType": "string",
          "name": "symbol",
          "type": "string"
        },
        {
          "internalType": "uint256",
          "name": "_chargeInFee",
          "type": "uint256"
        },
        {
          "internalType": "uint256",
          "name": "_chargeOutFee",
          "type": "uint256"
        },
        {
          "internalType": "address",
          "name": "_feeTo",
          "type": "address"
        }
      ],
      "stateMutability": "nonpayable",
      "type": "constructor"
    },
    {
      "anonymous": false,
      "inputs": [
        {
          "indexed": true,
          "internalType": "address",
          "name": "owner",
          "type": "address"
        },
        {
          "indexed": true,
          "internalType": "address",
          "name": "spender",
          "type": "address"
        },
        {
          "indexed": false,
          "internalType": "uint256",
          "name": "value",
          "type": "uint256"
        }
      ],
      "name": "Approval",
      "type": "event"
    },
    {
      "anonymous": false,
      "inputs": [
        {
          "indexed": true,
          "internalType": "address",
          "name": "user",
          "type": "address"
        },
        {
          "indexed": true,
          "internalType": "address",
          "name": "to",
          "type": "address"
        },
        {
          "indexed": false,
          "internalType": "uint256",
          "name": "amount",
          "type": "uint256"
        },
        {
          "indexed": false,
          "internalType": "uint256",
          "name": "fee",
          "type": "uint256"
        }
      ],
      "name": "Deposit",
      "type": "event"
    },
    {
      "anonymous": false,
      "inputs": [
        {
          "indexed": true,
          "internalType": "address",
          "name": "previousOwner",
          "type": "address"
        },
        {
          "indexed": true,
          "internalType": "address",
          "name": "newOwner",
          "type": "address"
        }
      ],
      "name": "OwnershipTransferred",
      "type": "event"
    },
    {
      "anonymous": false,
      "inputs": [
        {
          "indexed": true,
          "internalType": "address",
          "name": "from",
          "type": "address"
        },
        {
          "indexed": true,
          "internalType": "address",
          "name": "to",
          "type": "address"
        },
        {
          "indexed": false,
          "internalType": "uint256",
          "name": "value",
          "type": "uint256"
        }
      ],
      "name": "Transfer",
      "type": "event"
    },
    {
      "anonymous": false,
      "inputs": [
        {
          "indexed": true,
          "internalType": "address",
          "name": "user",
          "type": "address"
        },
        {
          "indexed": true,
          "internalType": "address",
          "name": "to",
          "type": "address"
        },
        {
          "indexed": false,
          "internalType": "uint256",
          "name": "amount",
          "type": "uint256"
        },
        {
          "indexed": false,
          "internalType": "uint256",
          "name": "fee",
          "type": "uint256"
        }
      ],
      "name": "Withdraw",
      "type": "event"
    },
    {
      "inputs": [],
      "name": "MINIMAL_U",
      "outputs": [
        {
          "internalType": "uint256",
          "name": "",
          "type": "uint256"
        }
      ],
      "stateMutability": "view",
      "type": "function"
    },
    {
      "inputs": [
        {
          "internalType": "address",
          "name": "_addMinter",
          "type": "address"
        }
      ],
      "name": "addMinter",
      "outputs": [
        {
          "internalType": "bool",
          "name": "",
          "type": "bool"
        }
      ],
      "stateMutability": "nonpayable",
      "type": "function"
    },
    {
      "inputs": [
        {
          "internalType": "address",
          "name": "_token",
          "type": "address"
        }
      ],
      "name": "addUSDToken",
      "outputs": [
        {
          "internalType": "uint256",
          "name": "decimals",
          "type": "uint256"
        }
      ],
      "stateMutability": "nonpayable",
      "type": "function"
    },
    {
      "inputs": [
        {
          "internalType": "address",
          "name": "owner",
          "type": "address"
        },
        {
          "internalType": "address",
          "name": "spender",
          "type": "address"
        }
      ],
      "name": "allowance",
      "outputs": [
        {
          "internalType": "uint256",
          "name": "",
          "type": "uint256"
        }
      ],
      "stateMutability": "view",
      "type": "function"
    },
    {
      "inputs": [
        {
          "internalType": "address",
          "name": "_token",
          "type": "address"
        },
        {
          "internalType": "uint256",
          "name": "amountU",
          "type": "uint256"
        }
      ],
      "name": "amountTokenForU",
      "outputs": [
        {
          "internalType": "uint256",
          "name": "amountToken",
          "type": "uint256"
        }
      ],
      "stateMutability": "view",
      "type": "function"
    },
    {
      "inputs": [
        {
          "internalType": "address",
          "name": "_token",
          "type": "address"
        },
        {
          "internalType": "uint256",
          "name": "amountToken",
          "type": "uint256"
        }
      ],
      "name": "amountUFromToken",
      "outputs": [
        {
          "internalType": "uint256",
          "name": "amountU",
          "type": "uint256"
        }
      ],
      "stateMutability": "view",
      "type": "function"
    },
    {
      "inputs": [
        {
          "internalType": "address",
          "name": "spender",
          "type": "address"
        },
        {
          "internalType": "uint256",
          "name": "amount",
          "type": "uint256"
        }
      ],
      "name": "approve",
      "outputs": [
        {
          "internalType": "bool",
          "name": "",
          "type": "bool"
        }
      ],
      "stateMutability": "nonpayable",
      "type": "function"
    },
    {
      "inputs": [
        {
          "internalType": "address",
          "name": "account",
          "type": "address"
        }
      ],
      "name": "balanceOf",
      "outputs": [
        {
          "internalType": "uint256",
          "name": "",
          "type": "uint256"
        }
      ],
      "stateMutability": "view",
      "type": "function"
    },
    {
      "inputs": [
        {
          "internalType": "address",
          "name": "_from",
          "type": "address"
        },
        {
          "internalType": "uint256",
          "name": "_amount",
          "type": "uint256"
        }
      ],
      "name": "burn",
      "outputs": [
        {
          "internalType": "bool",
          "name": "",
          "type": "bool"
        }
      ],
      "stateMutability": "nonpayable",
      "type": "function"
    },
    {
      "inputs": [],
      "name": "chargeInFee",
      "outputs": [
        {
          "internalType": "uint256",
          "name": "",
          "type": "uint256"
        }
      ],
      "stateMutability": "view",
      "type": "function"
    },
    {
      "inputs": [],
      "name": "chargeOutFee",
      "outputs": [
        {
          "internalType": "uint256",
          "name": "",
          "type": "uint256"
        }
      ],
      "stateMutability": "view",
      "type": "function"
    },
    {
      "inputs": [],
      "name": "decimals",
      "outputs": [
        {
          "internalType": "uint8",
          "name": "",
          "type": "uint8"
        }
      ],
      "stateMutability": "view",
      "type": "function"
    },
    {
      "inputs": [
        {
          "internalType": "address",
          "name": "spender",
          "type": "address"
        },
        {
          "internalType": "uint256",
          "name": "subtractedValue",
          "type": "uint256"
        }
      ],
      "name": "decreaseAllowance",
      "outputs": [
        {
          "internalType": "bool",
          "name": "",
          "type": "bool"
        }
      ],
      "stateMutability": "nonpayable",
      "type": "function"
    },
    {
      "inputs": [
        {
          "internalType": "address",
          "name": "_delMinter",
          "type": "address"
        }
      ],
      "name": "delMinter",
      "outputs": [
        {
          "internalType": "bool",
          "name": "",
          "type": "bool"
        }
      ],
      "stateMutability": "nonpayable",
      "type": "function"
    },
    {
      "inputs": [
        {
          "internalType": "address",
          "name": "_token",
          "type": "address"
        },
        {
          "internalType": "uint256",
          "name": "amountToken",
          "type": "uint256"
        },
        {
          "internalType": "address",
          "name": "_to",
          "type": "address"
        }
      ],
      "name": "deposit",
      "outputs": [
        {
          "internalType": "uint256",
          "name": "amountU",
          "type": "uint256"
        }
      ],
      "stateMutability": "nonpayable",
      "type": "function"
    },
    {
      "inputs": [],
      "name": "feeTo",
      "outputs": [
        {
          "internalType": "address",
          "name": "",
          "type": "address"
        }
      ],
      "stateMutability": "view",
      "type": "function"
    },
    {
      "inputs": [
        {
          "internalType": "uint256",
          "name": "_index",
          "type": "uint256"
        }
      ],
      "name": "getMinter",
      "outputs": [
        {
          "internalType": "address",
          "name": "",
          "type": "address"
        }
      ],
      "stateMutability": "view",
      "type": "function"
    },
    {
      "inputs": [],
      "name": "getMinterLength",
      "outputs": [
        {
          "internalType": "uint256",
          "name": "",
          "type": "uint256"
        }
      ],
      "stateMutability": "view",
      "type": "function"
    },
    {
      "inputs": [
        {
          "internalType": "address",
          "name": "spender",
          "type": "address"
        },
        {
          "internalType": "uint256",
          "name": "addedValue",
          "type": "uint256"
        }
      ],
      "name": "increaseAllowance",
      "outputs": [
        {
          "internalType": "bool",
          "name": "",
          "type": "bool"
        }
      ],
      "stateMutability": "nonpayable",
      "type": "function"
    },
    {
      "inputs": [
        {
          "internalType": "address",
          "name": "account",
          "type": "address"
        }
      ],
      "name": "isMinter",
      "outputs": [
        {
          "internalType": "bool",
          "name": "",
          "type": "bool"
        }
      ],
      "stateMutability": "view",
      "type": "function"
    },
    {
      "inputs": [
        {
          "internalType": "address",
          "name": "_to",
          "type": "address"
        },
        {
          "internalType": "uint256",
          "name": "_amount",
          "type": "uint256"
        }
      ],
      "name": "mint",
      "outputs": [
        {
          "internalType": "bool",
          "name": "",
          "type": "bool"
        }
      ],
      "stateMutability": "nonpayable",
      "type": "function"
    },
    {
      "inputs": [],
      "name": "name",
      "outputs": [
        {
          "internalType": "string",
          "name": "",
          "type": "string"
        }
      ],
      "stateMutability": "view",
      "type": "function"
    },
    {
      "inputs": [],
      "name": "owner",
      "outputs": [
        {
          "internalType": "address",
          "name": "",
          "type": "address"
        }
      ],
      "stateMutability": "view",
      "type": "function"
    },
    {
      "inputs": [],
      "name": "renounceOwnership",
      "outputs": [],
      "stateMutability": "nonpayable",
      "type": "function"
    },
    {
      "inputs": [
        {
          "internalType": "uint256",
          "name": "_chargeInFee",
          "type": "uint256"
        },
        {
          "internalType": "uint256",
          "name": "_chargeOutFee",
          "type": "uint256"
        },
        {
          "internalType": "address",
          "name": "_feeTo",
          "type": "address"
        }
      ],
      "name": "setChargeFee",
      "outputs": [],
      "stateMutability": "nonpayable",
      "type": "function"
    },
    {
      "inputs": [],
      "name": "symbol",
      "outputs": [
        {
          "internalType": "string",
          "name": "",
          "type": "string"
        }
      ],
      "stateMutability": "view",
      "type": "function"
    },
    {
      "inputs": [],
      "name": "totalSupply",
      "outputs": [
        {
          "internalType": "uint256",
          "name": "",
          "type": "uint256"
        }
      ],
      "stateMutability": "view",
      "type": "function"
    },
    {
      "inputs": [
        {
          "internalType": "address",
          "name": "to",
          "type": "address"
        },
        {
          "internalType": "uint256",
          "name": "amount",
          "type": "uint256"
        }
      ],
      "name": "transfer",
      "outputs": [
        {
          "internalType": "bool",
          "name": "",
          "type": "bool"
        }
      ],
      "stateMutability": "nonpayable",
      "type": "function"
    },
    {
      "inputs": [
        {
          "internalType": "address",
          "name": "from",
          "type": "address"
        },
        {
          "internalType": "address",
          "name": "to",
          "type": "address"
        },
        {
          "internalType": "uint256",
          "name": "amount",
          "type": "uint256"
        }
      ],
      "name": "transferFrom",
      "outputs": [
        {
          "internalType": "bool",
          "name": "",
          "type": "bool"
        }
      ],
      "stateMutability": "nonpayable",
      "type": "function"
    },
    {
      "inputs": [
        {
          "internalType": "address",
          "name": "newOwner",
          "type": "address"
        }
      ],
      "name": "transferOwnership",
      "outputs": [],
      "stateMutability": "nonpayable",
      "type": "function"
    },
    {
      "inputs": [
        {
          "internalType": "address",
          "name": "",
          "type": "address"
        }
      ],
      "name": "usdTokensDecimal",
      "outputs": [
        {
          "internalType": "uint256",
          "name": "",
          "type": "uint256"
        }
      ],
      "stateMutability": "view",
      "type": "function"
    },
    {
      "inputs": [
        {
          "internalType": "address",
          "name": "_token",
          "type": "address"
        },
        {
          "internalType": "uint256",
          "name": "amountU",
          "type": "uint256"
        },
        {
          "internalType": "address",
          "name": "_to",
          "type": "address"
        }
      ],
      "name": "withdraw",
      "outputs": [
        {
          "internalType": "uint256",
          "name": "amountToken",
          "type": "uint256"
        }
      ],
      "stateMutability": "nonpayable",
      "type": "function"
    }
  ],
  "bytecode": "0x6080604052678ac7230489e8000060085560006009556000600a553480156200002757600080fd5b506040516200215d3803806200215d8339810160408190526200004a916200033e565b84518590859062000063906003906020850190620001cb565b50805162000079906004906020840190620001cb565b50505062000096620000906200017560201b60201c565b62000179565b6305f5e1008310620000ef5760405162461bcd60e51b815260206004820152601560248201527f636861726765496e46656520746f6f206c61726765000000000000000000000060448201526064015b60405180910390fd5b6305f5e1008210620001445760405162461bcd60e51b815260206004820152601660248201527f6368617267654f757446656520746f6f206c61726765000000000000000000006044820152606401620000e6565b600992909255600a55600b80546001600160a01b0319166001600160a01b03909216919091179055506200041d9050565b3390565b600580546001600160a01b038381166001600160a01b0319831681179093556040519116919082907f8be0079c531659141344cd1fd0a4f28419497f9722a3daafe3b4186f6b6457e090600090a35050565b828054620001d990620003e0565b90600052602060002090601f016020900481019282620001fd576000855562000248565b82601f106200021857805160ff191683800117855562000248565b8280016001018555821562000248579182015b82811115620002485782518255916020019190600101906200022b565b50620002569291506200025a565b5090565b5b808211156200025657600081556001016200025b565b634e487b7160e01b600052604160045260246000fd5b600082601f8301126200029957600080fd5b81516001600160401b0380821115620002b657620002b662000271565b604051601f8301601f19908116603f01168101908282118183101715620002e157620002e162000271565b81604052838152602092508683858801011115620002fe57600080fd5b600091505b8382101562000322578582018301518183018401529082019062000303565b83821115620003345760008385830101525b9695505050505050565b600080600080600060a086880312156200035757600080fd5b85516001600160401b03808211156200036f57600080fd5b6200037d89838a0162000287565b965060208801519150808211156200039457600080fd5b50620003a38882890162000287565b6040880151606089015160808a0151929750909550935090506001600160a01b0381168114620003d257600080fd5b809150509295509295909350565b600181811c90821680620003f557607f821691505b602082108114156200041757634e487b7160e01b600052602260045260246000fd5b50919050565b611d30806200042d6000396000f3fe608060405234801561001057600080fd5b50600436106101f05760003560e01c806369328dec1161010f5780639d3e2e22116100a2578063aa271e1a11610071578063aa271e1a1461041b578063dd62ed3e1461042e578063f2fde38b14610441578063f45346dc1461045457600080fd5b80639d3e2e22146103cf5780639dc29fac146103e2578063a457c2d7146103f5578063a9059cbb1461040857600080fd5b806376221220116100de57806376221220146103905780638da5cb5b146103a357806395d89b41146103b4578063983b2d56146103bc57600080fd5b806369328dec146103395780636de954db1461034c57806370a082311461035f578063715018a61461038857600080fd5b806323a501b411610187578063395093511161015657806339509351146102f757806340c10f191461030a5780635b7121f81461031d5780635bf903511461033057600080fd5b806323a501b4146102ac57806323b872dd146102cc578063294ac921146102df578063313ce567146102e857600080fd5b8063095ea7b3116101c3578063095ea7b3146102595780630e2dca5e1461027c57806318160ddd1461029157806323338b881461029957600080fd5b8063017e7e58146101f55780630323aac71461022557806306fdde031461023b57806307e3ec6414610250575b600080fd5b600b54610208906001600160a01b031681565b6040516001600160a01b0390911681526020015b60405180910390f35b61022d610467565b60405190815260200161021c565b610243610478565b60405161021c9190611908565b61022d60085481565b61026c610267366004611952565b61050a565b604051901515815260200161021c565b61028f61028a36600461197c565b610524565b005b60025461022d565b61026c6102a73660046119b1565b610618565b61022d6102ba3660046119b1565b600c6020526000908152604090205481565b61026c6102da3660046119cc565b6106bf565b61022d60095481565b6040516012815260200161021c565b61026c610305366004611952565b6106e3565b61026c610318366004611952565b610705565b61020861032b366004611a08565b61076a565b61022d600a5481565b61022d610347366004611a21565b610805565b61022d61035a366004611952565b610912565b61022d61036d3660046119b1565b6001600160a01b031660009081526020819052604090205490565b61028f6109d4565b61022d61039e3660046119b1565b610a0a565b6005546001600160a01b0316610208565b610243610ac0565b61026c6103ca3660046119b1565b610acf565b61022d6103dd366004611952565b610b6e565b61026c6103f0366004611952565b610bf9565b61026c610403366004611952565b610c55565b61026c610416366004611952565b610cd0565b61026c6104293660046119b1565b610cde565b61022d61043c366004611a54565b610ceb565b61028f61044f3660046119b1565b610d16565b61022d610462366004611a21565b610db1565b60006104736006610eb4565b905090565b60606003805461048790611a87565b80601f01602080910402602001604051908101604052809291908181526020018280546104b390611a87565b80156105005780601f106104d557610100808354040283529160200191610500565b820191906000526020600020905b8154815290600101906020018083116104e357829003601f168201915b5050505050905090565b600033610518818585610ebe565b60019150505b92915050565b6005546001600160a01b031633146105575760405162461bcd60e51b815260040161054e90611ac2565b60405180910390fd5b6305f5e10083106105a25760405162461bcd60e51b8152602060048201526015602482015274636861726765496e46656520746f6f206c6172676560581b604482015260640161054e565b6305f5e10082106105ee5760405162461bcd60e51b81526020600482015260166024820152756368617267654f757446656520746f6f206c6172676560501b604482015260640161054e565b600992909255600a55600b80546001600160a01b0319166001600160a01b03909216919091179055565b6005546000906001600160a01b031633146106455760405162461bcd60e51b815260040161054e90611ac2565b6001600160a01b0382166106ac5760405162461bcd60e51b815260206004820152602860248201527f42474d546f6b656e3a205f64656c4d696e74657220697320746865207a65726f604482015267206164647265737360c01b606482015260840161054e565b6106b7600683610fe3565b90505b919050565b6000336106cd858285610fff565b6106d8858585611079565b506001949350505050565b6000336105188185856106f68383610ceb565b6107009190611b0d565b610ebe565b600061071033610cde565b6107575760405162461bcd60e51b815260206004820152601860248201527731b0b63632b91034b9903737ba103a34329036b4b73a32b960411b604482015260640161054e565b6107618383611247565b50600192915050565b6005546000906001600160a01b031633146107975760405162461bcd60e51b815260040161054e90611ac2565b60016107a1610467565b6107ab9190611b25565b8211156107fa5760405162461bcd60e51b815260206004820152601d60248201527f42474d546f6b656e3a20696e646578206f7574206f6620626f756e6473000000604482015260640161054e565b6106b7600683611326565b600060085483116108485760405162461bcd60e51b815260206004820152600d60248201526c616d6f756e7420746f206c6f7760981b604482015260640161054e565b6108528484610912565b905061085e3384611332565b600a546000901561089b5761088c6305f5e100610886600a548561147890919063ffffffff16565b90611484565b90506108988282611490565b91505b60408051838152602081018390526001600160a01b0385169133917ff341246adaac6f497bc2a656f546ab9e182111d630394f0c57c710a59a2cb567910160405180910390a36108ec85848461149c565b801561090a57600b5461090a9086906001600160a01b03168361149c565b509392505050565b6001600160a01b0382166000908152600c6020526040812054806109715760405162461bcd60e51b81526020600482015260166024820152753737ba103932b3b4b9ba32b9102aa9a2103a37b5b2b760511b604482015260640161054e565b6012808210156109a15761099a6109888284611490565b61099390600a611c20565b8590611484565b92506109cc565b808211156109c85761099a6109b68383611490565b6109c190600a611c20565b8590611478565b8392505b505092915050565b6005546001600160a01b031633146109fe5760405162461bcd60e51b815260040161054e90611ac2565b610a0860006115b7565b565b6005546000906001600160a01b03163314610a375760405162461bcd60e51b815260040161054e90611ac2565b816001600160a01b031663313ce5676040518163ffffffff1660e01b8152600401602060405180830381865afa158015610a75573d6000803e3d6000fd5b505050506040513d601f19601f82011682018060405250810190610a999190611c2c565b6001600160a01b039092166000908152600c6020526040902060ff92909216918290555090565b60606004805461048790611a87565b6005546000906001600160a01b03163314610afc5760405162461bcd60e51b815260040161054e90611ac2565b6001600160a01b038216610b635760405162461bcd60e51b815260206004820152602860248201527f42474d546f6b656e3a205f6164644d696e74657220697320746865207a65726f604482015267206164647265737360c01b606482015260840161054e565b6106b7600683611609565b6001600160a01b0382166000908152600c602052604081205480610bcd5760405162461bcd60e51b81526020600482015260166024820152753737ba103932b3b4b9ba32b9102aa9a2103a37b5b2b760511b604482015260640161054e565b601280821015610be45761099a6109b68284611490565b808211156109c85761099a6109888383611490565b6000610c0433610cde565b610c4b5760405162461bcd60e51b815260206004820152601860248201527731b0b63632b91034b9903737ba103a34329036b4b73a32b960411b604482015260640161054e565b6107618383611332565b60003381610c638286610ceb565b905083811015610cc35760405162461bcd60e51b815260206004820152602560248201527f45524332303a2064656372656173656420616c6c6f77616e63652062656c6f77604482015264207a65726f60d81b606482015260840161054e565b6106d88286868403610ebe565b600033610518818585611079565b60006106b760068361161e565b6001600160a01b03918216600090815260016020908152604080832093909416825291909152205490565b6005546001600160a01b03163314610d405760405162461bcd60e51b815260040161054e90611ac2565b6001600160a01b038116610da55760405162461bcd60e51b815260206004820152602660248201527f4f776e61626c653a206e6577206f776e657220697320746865207a65726f206160448201526564647265737360d01b606482015260840161054e565b610dae816115b7565b50565b6000610dbd8484610b6e565b90506008548111610e005760405162461bcd60e51b815260206004820152600d60248201526c616d6f756e7420746f206c6f7760981b604482015260640161054e565b610e0c84333086611640565b60095460009015610e6457610e346305f5e1006108866009548761147890919063ffffffff16565b9050610e44856103dd8684611490565b91508015610e6457600b54610e649086906001600160a01b03168361149c565b60408051858152602081018390526001600160a01b0385169133917fdcbc1c05240f31ff3ad067ef1ee35ce4997762752e3a095284754544f4c709d7910160405180910390a361090a8383611247565b60006106b7825490565b6001600160a01b038316610f205760405162461bcd60e51b8152602060048201526024808201527f45524332303a20617070726f76652066726f6d20746865207a65726f206164646044820152637265737360e01b606482015260840161054e565b6001600160a01b038216610f815760405162461bcd60e51b815260206004820152602260248201527f45524332303a20617070726f766520746f20746865207a65726f206164647265604482015261737360f01b606482015260840161054e565b6001600160a01b0383811660008181526001602090815260408083209487168084529482529182902085905590518481527f8c5be1e5ebec7d5bd14f71427d1e84f3dd0314c0f7b2291e5b200ac8c7c3b92591015b60405180910390a3505050565b6000610ff8836001600160a01b038416611770565b9392505050565b600061100b8484610ceb565b9050600019811461107357818110156110665760405162461bcd60e51b815260206004820152601d60248201527f45524332303a20696e73756666696369656e7420616c6c6f77616e6365000000604482015260640161054e565b6110738484848403610ebe565b50505050565b6001600160a01b0383166110dd5760405162461bcd60e51b815260206004820152602560248201527f45524332303a207472616e736665722066726f6d20746865207a65726f206164604482015264647265737360d81b606482015260840161054e565b6001600160a01b03821661113f5760405162461bcd60e51b815260206004820152602360248201527f45524332303a207472616e7366657220746f20746865207a65726f206164647260448201526265737360e81b606482015260840161054e565b6001600160a01b038316600090815260208190526040902054818110156111b75760405162461bcd60e51b815260206004820152602660248201527f45524332303a207472616e7366657220616d6f756e7420657863656564732062604482015265616c616e636560d01b606482015260840161054e565b6001600160a01b038085166000908152602081905260408082208585039055918516815290812080548492906111ee908490611b0d565b92505081905550826001600160a01b0316846001600160a01b03167fddf252ad1be2c89b69c2b068fc378daa952ba7f163c4a11628f55a4df523b3ef8460405161123a91815260200190565b60405180910390a3611073565b6001600160a01b03821661129d5760405162461bcd60e51b815260206004820152601f60248201527f45524332303a206d696e7420746f20746865207a65726f206164647265737300604482015260640161054e565b80600260008282546112af9190611b0d565b90915550506001600160a01b038216600090815260208190526040812080548392906112dc908490611b0d565b90915550506040518181526001600160a01b038316906000907fddf252ad1be2c89b69c2b068fc378daa952ba7f163c4a11628f55a4df523b3ef9060200160405180910390a35050565b6000610ff88383611863565b6001600160a01b0382166113925760405162461bcd60e51b815260206004820152602160248201527f45524332303a206275726e2066726f6d20746865207a65726f206164647265736044820152607360f81b606482015260840161054e565b6001600160a01b038216600090815260208190526040902054818110156114065760405162461bcd60e51b815260206004820152602260248201527f45524332303a206275726e20616d6f756e7420657863656564732062616c616e604482015261636560f01b606482015260840161054e565b6001600160a01b0383166000908152602081905260408120838303905560028054849290611435908490611b25565b90915550506040518281526000906001600160a01b038516907fddf252ad1be2c89b69c2b068fc378daa952ba7f163c4a11628f55a4df523b3ef90602001610fd6565b6000610ff88284611c4f565b6000610ff88284611c6e565b6000610ff88284611b25565b604080516001600160a01b038481166024830152604480830185905283518084039091018152606490920183526020820180516001600160e01b031663a9059cbb60e01b17905291516000928392908716916114f89190611c90565b6000604051808303816000865af19150503d8060008114611535576040519150601f19603f3d011682016040523d82523d6000602084013e61153a565b606091505b50915091508180156115645750805115806115645750808060200190518101906115649190611cac565b6115b05760405162461bcd60e51b815260206004820152601f60248201527f5472616e7366657248656c7065723a205452414e534645525f4641494c454400604482015260640161054e565b5050505050565b600580546001600160a01b038381166001600160a01b0319831681179093556040519116919082907f8be0079c531659141344cd1fd0a4f28419497f9722a3daafe3b4186f6b6457e090600090a35050565b6000610ff8836001600160a01b03841661188d565b6001600160a01b03811660009081526001830160205260408120541515610ff8565b604080516001600160a01b0385811660248301528481166044830152606480830185905283518084039091018152608490920183526020820180516001600160e01b03166323b872dd60e01b17905291516000928392908816916116a49190611c90565b6000604051808303816000865af19150503d80600081146116e1576040519150601f19603f3d011682016040523d82523d6000602084013e6116e6565b606091505b50915091508180156117105750805115806117105750808060200190518101906117109190611cac565b6117685760405162461bcd60e51b8152602060048201526024808201527f5472616e7366657248656c7065723a205452414e534645525f46524f4d5f46416044820152631253115160e21b606482015260840161054e565b505050505050565b60008181526001830160205260408120548015611859576000611794600183611b25565b85549091506000906117a890600190611b25565b905081811461180d5760008660000182815481106117c8576117c8611cce565b90600052602060002001549050808760000184815481106117eb576117eb611cce565b6000918252602080832090910192909255918252600188019052604090208390555b855486908061181e5761181e611ce4565b60019003818190600052602060002001600090559055856001016000868152602001908152602001600020600090556001935050505061051e565b600091505061051e565b600082600001828154811061187a5761187a611cce565b9060005260206000200154905092915050565b60008181526001830160205260408120546118d45750815460018181018455600084815260208082209093018490558454848252828601909352604090209190915561051e565b50600061051e565b60005b838110156118f75781810151838201526020016118df565b838111156110735750506000910152565b60208152600082518060208401526119278160408501602087016118dc565b601f01601f19169190910160400192915050565b80356001600160a01b03811681146106ba57600080fd5b6000806040838503121561196557600080fd5b61196e8361193b565b946020939093013593505050565b60008060006060848603121561199157600080fd5b83359250602084013591506119a86040850161193b565b90509250925092565b6000602082840312156119c357600080fd5b610ff88261193b565b6000806000606084860312156119e157600080fd5b6119ea8461193b565b92506119f86020850161193b565b9150604084013590509250925092565b600060208284031215611a1a57600080fd5b5035919050565b600080600060608486031215611a3657600080fd5b611a3f8461193b565b9250602084013591506119a86040850161193b565b60008060408385031215611a6757600080fd5b611a708361193b565b9150611a7e6020840161193b565b90509250929050565b600181811c90821680611a9b57607f821691505b60208210811415611abc57634e487b7160e01b600052602260045260246000fd5b50919050565b6020808252818101527f4f776e61626c653a2063616c6c6572206973206e6f7420746865206f776e6572604082015260600190565b634e487b7160e01b600052601160045260246000fd5b60008219821115611b2057611b20611af7565b500190565b600082821015611b3757611b37611af7565b500390565b600181815b80851115611b77578160001904821115611b5d57611b5d611af7565b80851615611b6a57918102915b93841c9390800290611b41565b509250929050565b600082611b8e5750600161051e565b81611b9b5750600061051e565b8160018114611bb15760028114611bbb57611bd7565b600191505061051e565b60ff841115611bcc57611bcc611af7565b50506001821b61051e565b5060208310610133831016604e8410600b8410161715611bfa575081810a61051e565b611c048383611b3c565b8060001904821115611c1857611c18611af7565b029392505050565b6000610ff88383611b7f565b600060208284031215611c3e57600080fd5b815160ff81168114610ff857600080fd5b6000816000190483118215151615611c6957611c69611af7565b500290565b600082611c8b57634e487b7160e01b600052601260045260246000fd5b500490565b60008251611ca28184602087016118dc565b9190910192915050565b600060208284031215611cbe57600080fd5b81518015158114610ff857600080fd5b634e487b7160e01b600052603260045260246000fd5b634e487b7160e01b600052603160045260246000fdfea26469706673582212201550aa7e9b55b943e0e99fd79e4d4e3331a833a6f253f7852efe5e84ec72a99f64736f6c634300080a0033",
  "linkReferences": {},
  "deployedLinkReferences": {}
}