{
  "_format": "hh-sol-artifact-1",
  "contractName": "LPToken",
  "sourceName": "contracts/maxity/impl/LPToken.sol",
  "abi": [
    {
      "inputs": [
        {
          "internalType": "address",
          "name": "_token",
          "type": "address"
        }
      ],
      "stateMutability": "nonpayable",
      "type": "constructor"
    },
    {
      "anonymous": false,
      "inputs": [
        {
          "indexed": true,
          "internalType": "address",
          "name": "owner",
          "type": "address"
        },
        {
          "indexed": true,
          "internalType": "address",
          "name": "spender",
          "type": "address"
        },
        {
          "indexed": false,
          "internalType": "uint256",
          "name": "value",
          "type": "uint256"
        }
      ],
      "name": "Approval",
      "type": "event"
    },
    {
      "anonymous": false,
      "inputs": [
        {
          "indexed": true,
          "internalType": "address",
          "name": "sender",
          "type": "address"
        },
        {
          "indexed": false,
          "internalType": "uint256",
          "name": "amount",
          "type": "uint256"
        },
        {
          "indexed": true,
          "internalType": "address",
          "name": "to",
          "type": "address"
        }
      ],
      "name": "Burn",
      "type": "event"
    },
    {
      "anonymous": false,
      "inputs": [
        {
          "indexed": true,
          "internalType": "address",
          "name": "sender",
          "type": "address"
        },
        {
          "indexed": false,
          "internalType": "uint256",
          "name": "amount",
          "type": "uint256"
        }
      ],
      "name": "Mint",
      "type": "event"
    },
    {
      "anonymous": false,
      "inputs": [
        {
          "indexed": true,
          "internalType": "address",
          "name": "previousOwner",
          "type": "address"
        },
        {
          "indexed": true,
          "internalType": "address",
          "name": "newOwner",
          "type": "address"
        }
      ],
      "name": "OwnershipTransferred",
      "type": "event"
    },
    {
      "anonymous": false,
      "inputs": [
        {
          "indexed": false,
          "internalType": "uint256",
          "name": "reserve",
          "type": "uint256"
        }
      ],
      "name": "ShareProfit",
      "type": "event"
    },
    {
      "anonymous": false,
      "inputs": [
        {
          "indexed": false,
          "internalType": "uint256",
          "name": "reserve",
          "type": "uint256"
        }
      ],
      "name": "Sync",
      "type": "event"
    },
    {
      "anonymous": false,
      "inputs": [
        {
          "indexed": true,
          "internalType": "address",
          "name": "from",
          "type": "address"
        },
        {
          "indexed": true,
          "internalType": "address",
          "name": "to",
          "type": "address"
        },
        {
          "indexed": false,
          "internalType": "uint256",
          "name": "value",
          "type": "uint256"
        }
      ],
      "name": "Transfer",
      "type": "event"
    },
    {
      "inputs": [],
      "name": "MINIMUM_LIQUIDITY",
      "outputs": [
        {
          "internalType": "uint256",
          "name": "",
          "type": "uint256"
        }
      ],
      "stateMutability": "view",
      "type": "function"
    },
    {
      "inputs": [
        {
          "internalType": "address",
          "name": "_addMinter",
          "type": "address"
        }
      ],
      "name": "addMinter",
      "outputs": [
        {
          "internalType": "bool",
          "name": "",
          "type": "bool"
        }
      ],
      "stateMutability": "nonpayable",
      "type": "function"
    },
    {
      "inputs": [
        {
          "internalType": "address",
          "name": "owner",
          "type": "address"
        },
        {
          "internalType": "address",
          "name": "spender",
          "type": "address"
        }
      ],
      "name": "allowance",
      "outputs": [
        {
          "internalType": "uint256",
          "name": "",
          "type": "uint256"
        }
      ],
      "stateMutability": "view",
      "type": "function"
    },
    {
      "inputs": [
        {
          "internalType": "address",
          "name": "spender",
          "type": "address"
        },
        {
          "internalType": "uint256",
          "name": "amount",
          "type": "uint256"
        }
      ],
      "name": "approve",
      "outputs": [
        {
          "internalType": "bool",
          "name": "",
          "type": "bool"
        }
      ],
      "stateMutability": "nonpayable",
      "type": "function"
    },
    {
      "inputs": [
        {
          "internalType": "address",
          "name": "account",
          "type": "address"
        }
      ],
      "name": "balanceOf",
      "outputs": [
        {
          "internalType": "uint256",
          "name": "",
          "type": "uint256"
        }
      ],
      "stateMutability": "view",
      "type": "function"
    },
    {
      "inputs": [
        {
          "internalType": "address",
          "name": "_to",
          "type": "address"
        }
      ],
      "name": "burn",
      "outputs": [
        {
          "internalType": "uint256",
          "name": "",
          "type": "uint256"
        }
      ],
      "stateMutability": "nonpayable",
      "type": "function"
    },
    {
      "inputs": [],
      "name": "decimals",
      "outputs": [
        {
          "internalType": "uint8",
          "name": "",
          "type": "uint8"
        }
      ],
      "stateMutability": "view",
      "type": "function"
    },
    {
      "inputs": [
        {
          "internalType": "address",
          "name": "spender",
          "type": "address"
        },
        {
          "internalType": "uint256",
          "name": "subtractedValue",
          "type": "uint256"
        }
      ],
      "name": "decreaseAllowance",
      "outputs": [
        {
          "internalType": "bool",
          "name": "",
          "type": "bool"
        }
      ],
      "stateMutability": "nonpayable",
      "type": "function"
    },
    {
      "inputs": [
        {
          "internalType": "address",
          "name": "_delMinter",
          "type": "address"
        }
      ],
      "name": "delMinter",
      "outputs": [
        {
          "internalType": "bool",
          "name": "",
          "type": "bool"
        }
      ],
      "stateMutability": "nonpayable",
      "type": "function"
    },
    {
      "inputs": [
        {
          "internalType": "uint256",
          "name": "_index",
          "type": "uint256"
        }
      ],
      "name": "getMinter",
      "outputs": [
        {
          "internalType": "address",
          "name": "",
          "type": "address"
        }
      ],
      "stateMutability": "view",
      "type": "function"
    },
    {
      "inputs": [],
      "name": "getMinterLength",
      "outputs": [
        {
          "internalType": "uint256",
          "name": "",
          "type": "uint256"
        }
      ],
      "stateMutability": "view",
      "type": "function"
    },
    {
      "inputs": [
        {
          "internalType": "address",
          "name": "spender",
          "type": "address"
        },
        {
          "internalType": "uint256",
          "name": "addedValue",
          "type": "uint256"
        }
      ],
      "name": "increaseAllowance",
      "outputs": [
        {
          "internalType": "bool",
          "name": "",
          "type": "bool"
        }
      ],
      "stateMutability": "nonpayable",
      "type": "function"
    },
    {
      "inputs": [
        {
          "internalType": "address",
          "name": "account",
          "type": "address"
        }
      ],
      "name": "isMinter",
      "outputs": [
        {
          "internalType": "bool",
          "name": "",
          "type": "bool"
        }
      ],
      "stateMutability": "view",
      "type": "function"
    },
    {
      "inputs": [
        {
          "internalType": "address",
          "name": "_to",
          "type": "address"
        }
      ],
      "name": "mint",
      "outputs": [
        {
          "internalType": "uint256",
          "name": "liquidity",
          "type": "uint256"
        }
      ],
      "stateMutability": "nonpayable",
      "type": "function"
    },
    {
      "inputs": [],
      "name": "name",
      "outputs": [
        {
          "internalType": "string",
          "name": "",
          "type": "string"
        }
      ],
      "stateMutability": "view",
      "type": "function"
    },
    {
      "inputs": [],
      "name": "owner",
      "outputs": [
        {
          "internalType": "address",
          "name": "",
          "type": "address"
        }
      ],
      "stateMutability": "view",
      "type": "function"
    },
    {
      "inputs": [
        {
          "internalType": "uint256",
          "name": "amountOut",
          "type": "uint256"
        },
        {
          "internalType": "address",
          "name": "_to",
          "type": "address"
        }
      ],
      "name": "profit",
      "outputs": [
        {
          "internalType": "uint256",
          "name": "",
          "type": "uint256"
        }
      ],
      "stateMutability": "nonpayable",
      "type": "function"
    },
    {
      "inputs": [],
      "name": "renounceOwnership",
      "outputs": [],
      "stateMutability": "nonpayable",
      "type": "function"
    },
    {
      "inputs": [],
      "name": "reserve",
      "outputs": [
        {
          "internalType": "uint256",
          "name": "",
          "type": "uint256"
        }
      ],
      "stateMutability": "view",
      "type": "function"
    },
    {
      "inputs": [
        {
          "internalType": "address",
          "name": "to",
          "type": "address"
        }
      ],
      "name": "skim",
      "outputs": [],
      "stateMutability": "nonpayable",
      "type": "function"
    },
    {
      "inputs": [],
      "name": "symbol",
      "outputs": [
        {
          "internalType": "string",
          "name": "",
          "type": "string"
        }
      ],
      "stateMutability": "view",
      "type": "function"
    },
    {
      "inputs": [],
      "name": "sync",
      "outputs": [],
      "stateMutability": "nonpayable",
      "type": "function"
    },
    {
      "inputs": [],
      "name": "token",
      "outputs": [
        {
          "internalType": "address",
          "name": "",
          "type": "address"
        }
      ],
      "stateMutability": "view",
      "type": "function"
    },
    {
      "inputs": [],
      "name": "totalSupply",
      "outputs": [
        {
          "internalType": "uint256",
          "name": "",
          "type": "uint256"
        }
      ],
      "stateMutability": "view",
      "type": "function"
    },
    {
      "inputs": [
        {
          "internalType": "address",
          "name": "to",
          "type": "address"
        },
        {
          "internalType": "uint256",
          "name": "amount",
          "type": "uint256"
        }
      ],
      "name": "transfer",
      "outputs": [
        {
          "internalType": "bool",
          "name": "",
          "type": "bool"
        }
      ],
      "stateMutability": "nonpayable",
      "type": "function"
    },
    {
      "inputs": [
        {
          "internalType": "address",
          "name": "from",
          "type": "address"
        },
        {
          "internalType": "address",
          "name": "to",
          "type": "address"
        },
        {
          "internalType": "uint256",
          "name": "amount",
          "type": "uint256"
        }
      ],
      "name": "transferFrom",
      "outputs": [
        {
          "internalType": "bool",
          "name": "",
          "type": "bool"
        }
      ],
      "stateMutability": "nonpayable",
      "type": "function"
    },
    {
      "inputs": [
        {
          "internalType": "address",
          "name": "newOwner",
          "type": "address"
        }
      ],
      "name": "transferOwnership",
      "outputs": [],
      "stateMutability": "nonpayable",
      "type": "function"
    }
  ],
  "bytecode": "0x60806040526001600a556103e8600b553480156200001c57600080fd5b5060405162001cd938038062001cd98339810160408190526200003f91620001ec565b6040518060400160405280600b81526020016a2123a69026282a37b5b2b760a91b815250604051806040016040528060038152602001620424c560ec1b81525081600390805190602001906200009792919062000146565b508051620000ad90600490602084019062000146565b505050620000ca620000c4620000f060201b60201c565b620000f4565b600880546001600160a01b0319166001600160a01b03929092169190911790556200025b565b3390565b600580546001600160a01b038381166001600160a01b0319831681179093556040519116919082907f8be0079c531659141344cd1fd0a4f28419497f9722a3daafe3b4186f6b6457e090600090a35050565b82805462000154906200021e565b90600052602060002090601f016020900481019282620001785760008555620001c3565b82601f106200019357805160ff1916838001178555620001c3565b82800160010185558215620001c3579182015b82811115620001c3578251825591602001919060010190620001a6565b50620001d1929150620001d5565b5090565b5b80821115620001d15760008155600101620001d6565b600060208284031215620001ff57600080fd5b81516001600160a01b03811681146200021757600080fd5b9392505050565b600181811c908216806200023357607f821691505b602082108114156200025557634e487b7160e01b600052602260045260246000fd5b50919050565b611a6e806200026b6000396000f3fe608060405234801561001057600080fd5b50600436106101a95760003560e01c80638da5cb5b116100f9578063ba9a7a5611610097578063dd62ed3e11610071578063dd62ed3e14610372578063f2fde38b14610385578063fc0c546a14610398578063fff6cae9146103ab57600080fd5b8063ba9a7a561461034d578063bc25cf7714610356578063cd3293de1461036957600080fd5b80639f370889116100d35780639f37088914610301578063a457c2d714610314578063a9059cbb14610327578063aa271e1a1461033a57600080fd5b80638da5cb5b146102d557806395d89b41146102e6578063983b2d56146102ee57600080fd5b8063313ce567116101665780636a627842116101405780636a6278421461027c57806370a082311461028f578063715018a6146102b857806389afcb44146102c257600080fd5b8063313ce5671461022f578063395093511461023e5780635b7121f81461025157600080fd5b80630323aac7146101ae57806306fdde03146101c9578063095ea7b3146101de57806318160ddd1461020157806323338b881461020957806323b872dd1461021c575b600080fd5b6101b66103b3565b6040519081526020015b60405180910390f35b6101d16103c4565b6040516101c09190611724565b6101f16101ec36600461176e565b610456565b60405190151581526020016101c0565b6002546101b6565b6101f1610217366004611798565b610470565b6101f161022a3660046117b3565b610520565b604051601281526020016101c0565b6101f161024c36600461176e565b610544565b61026461025f3660046117ef565b610566565b6040516001600160a01b0390911681526020016101c0565b6101b661028a366004611798565b610601565b6101b661029d366004611798565b6001600160a01b031660009081526020819052604090205490565b6102c06107d3565b005b6101b66102d0366004611798565b610809565b6005546001600160a01b0316610264565b6101d16109c0565b6101f16102fc366004611798565b6109cf565b6101b661030f366004611808565b610a6e565b6101f161032236600461176e565b610aec565b6101f161033536600461176e565b610b67565b6101f1610348366004611798565b610b75565b6101b6600b5481565b6102c0610364366004611798565b610b82565b6101b660095481565b6101b6610380366004611834565b610c3a565b6102c0610393366004611798565b610c65565b600854610264906001600160a01b031681565b6102c0610d00565b60006103bf6006610d36565b905090565b6060600380546103d39061185e565b80601f01602080910402602001604051908101604052809291908181526020018280546103ff9061185e565b801561044c5780601f106104215761010080835404028352916020019161044c565b820191906000526020600020905b81548152906001019060200180831161042f57829003601f168201915b5050505050905090565b600033610464818585610d40565b60019150505b92915050565b6005546000906001600160a01b031633146104a65760405162461bcd60e51b815260040161049d90611899565b60405180910390fd5b6001600160a01b03821661050d5760405162461bcd60e51b815260206004820152602860248201527f42474d546f6b656e3a205f64656c4d696e74657220697320746865207a65726f604482015267206164647265737360c01b606482015260840161049d565b610518600683610e65565b90505b919050565b60003361052e858285610e81565b610539858585610efb565b506001949350505050565b6000336104648185856105578383610c3a565b61056191906118e4565b610d40565b6005546000906001600160a01b031633146105935760405162461bcd60e51b815260040161049d90611899565b600161059d6103b3565b6105a791906118fc565b8211156105f65760405162461bcd60e51b815260206004820152601d60248201527f42474d546f6b656e3a20696e646578206f7574206f6620626f756e6473000000604482015260640161049d565b6105186006836110c9565b600061060c33610b75565b6106285760405162461bcd60e51b815260040161049d90611913565b600a5460011461064a5760405162461bcd60e51b815260040161049d9061194a565b6000600a8190556009546008546040516370a0823160e01b81523060048201529192916001600160a01b03909116906370a0823190602401602060405180830381865afa15801561069f573d6000803e3d6000fd5b505050506040513d601f19601f820116820180604052508101906106c39190611974565b905060006106dc600954836110d590919063ffffffff16565b905060006106e960025490565b9050806106f857829450610710565b8361070383836110e1565b61070d919061198d565b94505b6000851161076f5760405162461bcd60e51b815260206004820152602660248201527f4c50546f6b656e3a20494e53554646494349454e545f4c49515549444954595f60448201526513525395115160d21b606482015260840161049d565b61077986866110ed565b6107816111cc565b856001600160a01b03167f0f6798a560793a54c3bcfe86a93cde1e73087d944c0ea20544137d4121396885836040516107bc91815260200190565b60405180910390a250506001600a55509092915050565b6005546001600160a01b031633146107fd5760405162461bcd60e51b815260040161049d90611899565b6108076000611272565b565b600061081433610b75565b6108305760405162461bcd60e51b815260040161049d90611913565b600a546001146108525760405162461bcd60e51b815260040161049d9061194a565b6000600a8190556008546040516370a0823160e01b81523060048201526001600160a01b03909116919082906370a0823190602401602060405180830381865afa1580156108a4573d6000803e3d6000fd5b505050506040513d601f19601f820116820180604052508101906108c89190611974565b30600090815260208190526040812054600254929350916108e983856110e1565b6108f3919061198d565b9050600082116109555760405162461bcd60e51b815260206004820152602760248201527f424c50546f6b656e3a20494e53554646494349454e545f4c495155494449545960448201526617d0955493915160ca1b606482015260840161049d565b61095f30836112c4565b61096a84878361140a565b6109726111cc565b6040518281526001600160a01b0387169033907fdbdf9b8e4b75e75b162d151ec8fc7f0561cabab5fcccfa2600be62223e4300c49060200160405180910390a36001600a5595945050505050565b6060600480546103d39061185e565b6005546000906001600160a01b031633146109fc5760405162461bcd60e51b815260040161049d90611899565b6001600160a01b038216610a635760405162461bcd60e51b815260206004820152602860248201527f42474d546f6b656e3a205f6164644d696e74657220697320746865207a65726f604482015267206164647265737360c01b606482015260840161049d565b610518600683611555565b6000610a7933610b75565b610a955760405162461bcd60e51b815260040161049d90611913565b600a54600114610ab75760405162461bcd60e51b815260040161049d9061194a565b6000600a558215610ad957600854610ad9906001600160a01b0316838561140a565b610ae16111cc565b6001600a5592915050565b60003381610afa8286610c3a565b905083811015610b5a5760405162461bcd60e51b815260206004820152602560248201527f45524332303a2064656372656173656420616c6c6f77616e63652062656c6f77604482015264207a65726f60d81b606482015260840161049d565b6105398286868403610d40565b600033610464818585610efb565b600061051860068361156a565b600a54600114610ba45760405162461bcd60e51b815260040161049d9061194a565b6000600a556008546009546040516370a0823160e01b81523060048201526001600160a01b0390921691610c319183918591610c2c9184906370a0823190602401602060405180830381865afa158015610c02573d6000803e3d6000fd5b505050506040513d601f19601f82011682018060405250810190610c269190611974565b906110d5565b61140a565b50506001600a55565b6001600160a01b03918216600090815260016020908152604080832093909416825291909152205490565b6005546001600160a01b03163314610c8f5760405162461bcd60e51b815260040161049d90611899565b6001600160a01b038116610cf45760405162461bcd60e51b815260206004820152602660248201527f4f776e61626c653a206e6577206f776e657220697320746865207a65726f206160448201526564647265737360d01b606482015260840161049d565b610cfd81611272565b50565b600a54600114610d225760405162461bcd60e51b815260040161049d9061194a565b6000600a55610d2f6111cc565b6001600a55565b6000610518825490565b6001600160a01b038316610da25760405162461bcd60e51b8152602060048201526024808201527f45524332303a20617070726f76652066726f6d20746865207a65726f206164646044820152637265737360e01b606482015260840161049d565b6001600160a01b038216610e035760405162461bcd60e51b815260206004820152602260248201527f45524332303a20617070726f766520746f20746865207a65726f206164647265604482015261737360f01b606482015260840161049d565b6001600160a01b0383811660008181526001602090815260408083209487168084529482529182902085905590518481527f8c5be1e5ebec7d5bd14f71427d1e84f3dd0314c0f7b2291e5b200ac8c7c3b92591015b60405180910390a3505050565b6000610e7a836001600160a01b03841661158c565b9392505050565b6000610e8d8484610c3a565b90506000198114610ef55781811015610ee85760405162461bcd60e51b815260206004820152601d60248201527f45524332303a20696e73756666696369656e7420616c6c6f77616e6365000000604482015260640161049d565b610ef58484848403610d40565b50505050565b6001600160a01b038316610f5f5760405162461bcd60e51b815260206004820152602560248201527f45524332303a207472616e736665722066726f6d20746865207a65726f206164604482015264647265737360d81b606482015260840161049d565b6001600160a01b038216610fc15760405162461bcd60e51b815260206004820152602360248201527f45524332303a207472616e7366657220746f20746865207a65726f206164647260448201526265737360e81b606482015260840161049d565b6001600160a01b038316600090815260208190526040902054818110156110395760405162461bcd60e51b815260206004820152602660248201527f45524332303a207472616e7366657220616d6f756e7420657863656564732062604482015265616c616e636560d01b606482015260840161049d565b6001600160a01b038085166000908152602081905260408082208585039055918516815290812080548492906110709084906118e4565b92505081905550826001600160a01b0316846001600160a01b03167fddf252ad1be2c89b69c2b068fc378daa952ba7f163c4a11628f55a4df523b3ef846040516110bc91815260200190565b60405180910390a3610ef5565b6000610e7a838361167f565b6000610e7a82846118fc565b6000610e7a82846119af565b6001600160a01b0382166111435760405162461bcd60e51b815260206004820152601f60248201527f45524332303a206d696e7420746f20746865207a65726f206164647265737300604482015260640161049d565b806002600082825461115591906118e4565b90915550506001600160a01b038216600090815260208190526040812080548392906111829084906118e4565b90915550506040518181526001600160a01b038316906000907fddf252ad1be2c89b69c2b068fc378daa952ba7f163c4a11628f55a4df523b3ef9060200160405180910390a35050565b6008546040516370a0823160e01b81523060048201526001600160a01b03909116906370a0823190602401602060405180830381865afa158015611214573d6000803e3d6000fd5b505050506040513d601f19601f820116820180604052508101906112389190611974565b60098190556040519081527f8a0df8ef054fae2c3d2d19a7b322e864870cc9fd3cb07fb9526309c596244bf49060200160405180910390a1565b600580546001600160a01b038381166001600160a01b0319831681179093556040519116919082907f8be0079c531659141344cd1fd0a4f28419497f9722a3daafe3b4186f6b6457e090600090a35050565b6001600160a01b0382166113245760405162461bcd60e51b815260206004820152602160248201527f45524332303a206275726e2066726f6d20746865207a65726f206164647265736044820152607360f81b606482015260840161049d565b6001600160a01b038216600090815260208190526040902054818110156113985760405162461bcd60e51b815260206004820152602260248201527f45524332303a206275726e20616d6f756e7420657863656564732062616c616e604482015261636560f01b606482015260840161049d565b6001600160a01b03831660009081526020819052604081208383039055600280548492906113c79084906118fc565b90915550506040518281526000906001600160a01b038516907fddf252ad1be2c89b69c2b068fc378daa952ba7f163c4a11628f55a4df523b3ef90602001610e58565b604080518082018252601981527f7472616e7366657228616464726573732c75696e74323536290000000000000060209182015281516001600160a01b0385811660248301526044808301869052845180840390910181526064909201845291810180516001600160e01b031663a9059cbb60e01b1790529151600092839287169161149691906119ce565b6000604051808303816000865af19150503d80600081146114d3576040519150601f19603f3d011682016040523d82523d6000602084013e6114d8565b606091505b509150915081801561150257508051158061150257508080602001905181019061150291906119ea565b61154e5760405162461bcd60e51b815260206004820152601960248201527f424c50546f6b656e3a205452414e534645525f4641494c454400000000000000604482015260640161049d565b5050505050565b6000610e7a836001600160a01b0384166116a9565b6001600160a01b03811660009081526001830160205260408120541515610e7a565b600081815260018301602052604081205480156116755760006115b06001836118fc565b85549091506000906115c4906001906118fc565b90508181146116295760008660000182815481106115e4576115e4611a0c565b906000526020600020015490508087600001848154811061160757611607611a0c565b6000918252602080832090910192909255918252600188019052604090208390555b855486908061163a5761163a611a22565b60019003818190600052602060002001600090559055856001016000868152602001908152602001600020600090556001935050505061046a565b600091505061046a565b600082600001828154811061169657611696611a0c565b9060005260206000200154905092915050565b60008181526001830160205260408120546116f05750815460018181018455600084815260208082209093018490558454848252828601909352604090209190915561046a565b50600061046a565b60005b838110156117135781810151838201526020016116fb565b83811115610ef55750506000910152565b60208152600082518060208401526117438160408501602087016116f8565b601f01601f19169190910160400192915050565b80356001600160a01b038116811461051b57600080fd5b6000806040838503121561178157600080fd5b61178a83611757565b946020939093013593505050565b6000602082840312156117aa57600080fd5b610e7a82611757565b6000806000606084860312156117c857600080fd5b6117d184611757565b92506117df60208501611757565b9150604084013590509250925092565b60006020828403121561180157600080fd5b5035919050565b6000806040838503121561181b57600080fd5b8235915061182b60208401611757565b90509250929050565b6000806040838503121561184757600080fd5b61185083611757565b915061182b60208401611757565b600181811c9082168061187257607f821691505b6020821081141561189357634e487b7160e01b600052602260045260246000fd5b50919050565b6020808252818101527f4f776e61626c653a2063616c6c6572206973206e6f7420746865206f776e6572604082015260600190565b634e487b7160e01b600052601160045260246000fd5b600082198211156118f7576118f76118ce565b500190565b60008282101561190e5761190e6118ce565b500390565b60208082526018908201527f63616c6c6572206973206e6f7420746865206d696e7465720000000000000000604082015260600190565b60208082526010908201526f109314151bdad95b8e881313d0d2d15160821b604082015260600190565b60006020828403121561198657600080fd5b5051919050565b6000826119aa57634e487b7160e01b600052601260045260246000fd5b500490565b60008160001904831182151516156119c9576119c96118ce565b500290565b600082516119e08184602087016116f8565b9190910192915050565b6000602082840312156119fc57600080fd5b81518015158114610e7a57600080fd5b634e487b7160e01b600052603260045260246000fd5b634e487b7160e01b600052603160045260246000fdfea26469706673582212208bb28d9fb345a79cdd99d3ccc989f2b5735ce09059bafead2e8a19f37c01a21264736f6c634300080a0033",
  "linkReferences": {},
  "deployedLinkReferences": {}
}