{
  "_format": "hh-sol-artifact-1",
  "contractName": "NoneFeeLender",
  "sourceName": "contracts/maxity/impl/NonFeeLender.sol",
  "abi": [
    {
      "inputs": [
        {
          "internalType": "address",
          "name": "_ut",
          "type": "address"
        },
        {
          "internalType": "address",
          "name": "_mPool",
          "type": "address"
        },
        {
          "internalType": "uint256",
          "name": "_lendUTRatio",
          "type": "uint256"
        }
      ],
      "stateMutability": "nonpayable",
      "type": "constructor"
    },
    {
      "anonymous": false,
      "inputs": [
        {
          "indexed": true,
          "internalType": "address",
          "name": "previousOwner",
          "type": "address"
        },
        {
          "indexed": true,
          "internalType": "address",
          "name": "newOwner",
          "type": "address"
        }
      ],
      "name": "OwnershipTransferred",
      "type": "event"
    },
    {
      "anonymous": false,
      "inputs": [
        {
          "indexed": true,
          "internalType": "address",
          "name": "user",
          "type": "address"
        },
        {
          "indexed": false,
          "internalType": "uint256",
          "name": "utAmount",
          "type": "uint256"
        },
        {
          "indexed": false,
          "internalType": "uint256",
          "name": "unlockAmount",
          "type": "uint256"
        }
      ],
      "name": "Repayment",
      "type": "event"
    },
    {
      "anonymous": false,
      "inputs": [
        {
          "indexed": true,
          "internalType": "address",
          "name": "user",
          "type": "address"
        },
        {
          "indexed": true,
          "internalType": "address",
          "name": "lpToken",
          "type": "address"
        },
        {
          "indexed": false,
          "internalType": "uint256",
          "name": "lockAmount",
          "type": "uint256"
        },
        {
          "indexed": false,
          "internalType": "uint256",
          "name": "utAmount",
          "type": "uint256"
        },
        {
          "indexed": false,
          "internalType": "address",
          "name": "pool",
          "type": "address"
        }
      ],
      "name": "UserLend",
      "type": "event"
    },
    {
      "inputs": [],
      "name": "UT",
      "outputs": [
        {
          "internalType": "contract IMintableToken",
          "name": "",
          "type": "address"
        }
      ],
      "stateMutability": "view",
      "type": "function"
    },
    {
      "inputs": [],
      "name": "bgmRouter",
      "outputs": [
        {
          "internalType": "address",
          "name": "",
          "type": "address"
        }
      ],
      "stateMutability": "view",
      "type": "function"
    },
    {
      "inputs": [],
      "name": "lendUTRatio",
      "outputs": [
        {
          "internalType": "uint256",
          "name": "",
          "type": "uint256"
        }
      ],
      "stateMutability": "view",
      "type": "function"
    },
    {
      "inputs": [],
      "name": "mPool",
      "outputs": [
        {
          "internalType": "address",
          "name": "",
          "type": "address"
        }
      ],
      "stateMutability": "view",
      "type": "function"
    },
    {
      "inputs": [],
      "name": "owner",
      "outputs": [
        {
          "internalType": "address",
          "name": "",
          "type": "address"
        }
      ],
      "stateMutability": "view",
      "type": "function"
    },
    {
      "inputs": [],
      "name": "renounceOwnership",
      "outputs": [],
      "stateMutability": "nonpayable",
      "type": "function"
    },
    {
      "inputs": [
        {
          "internalType": "address",
          "name": "_bgmRouter",
          "type": "address"
        }
      ],
      "name": "setBGMRouter",
      "outputs": [],
      "stateMutability": "nonpayable",
      "type": "function"
    },
    {
      "inputs": [
        {
          "internalType": "uint256",
          "name": "_lendUTRatio",
          "type": "uint256"
        }
      ],
      "name": "setLendUTRatio",
      "outputs": [],
      "stateMutability": "nonpayable",
      "type": "function"
    },
    {
      "inputs": [
        {
          "internalType": "address",
          "name": "_ut",
          "type": "address"
        }
      ],
      "name": "setUTToken",
      "outputs": [],
      "stateMutability": "nonpayable",
      "type": "function"
    },
    {
      "inputs": [
        {
          "internalType": "address",
          "name": "_mPool",
          "type": "address"
        }
      ],
      "name": "setmPool",
      "outputs": [],
      "stateMutability": "nonpayable",
      "type": "function"
    },
    {
      "inputs": [
        {
          "internalType": "address",
          "name": "newOwner",
          "type": "address"
        }
      ],
      "name": "transferOwnership",
      "outputs": [],
      "stateMutability": "nonpayable",
      "type": "function"
    },
    {
      "inputs": [
        {
          "internalType": "address",
          "name": "",
          "type": "address"
        },
        {
          "internalType": "address",
          "name": "",
          "type": "address"
        }
      ],
      "name": "userInfos",
      "outputs": [
        {
          "internalType": "uint256",
          "name": "lockAmount",
          "type": "uint256"
        },
        {
          "internalType": "uint256",
          "name": "utAmount",
          "type": "uint256"
        }
      ],
      "stateMutability": "view",
      "type": "function"
    },
    {
      "inputs": [
        {
          "internalType": "address",
          "name": "_user",
          "type": "address"
        },
        {
          "internalType": "address",
          "name": "_lpToken",
          "type": "address"
        },
        {
          "internalType": "uint256",
          "name": "_lockAmount",
          "type": "uint256"
        },
        {
          "internalType": "address",
          "name": "_investpool",
          "type": "address"
        }
      ],
      "name": "userLockForLend",
      "outputs": [
        {
          "internalType": "uint256",
          "name": "utAmount",
          "type": "uint256"
        }
      ],
      "stateMutability": "nonpayable",
      "type": "function"
    },
    {
      "inputs": [
        {
          "internalType": "address",
          "name": "_user",
          "type": "address"
        },
        {
          "internalType": "address",
          "name": "_lpToken",
          "type": "address"
        },
        {
          "internalType": "uint256",
          "name": "_utAmount",
          "type": "uint256"
        }
      ],
      "name": "userPayFromRouter",
      "outputs": [],
      "stateMutability": "nonpayable",
      "type": "function"
    },
    {
      "inputs": [
        {
          "internalType": "address",
          "name": "_lpToken",
          "type": "address"
        },
        {
          "internalType": "uint256",
          "name": "_utAmount",
          "type": "uint256"
        }
      ],
      "name": "userRepay",
      "outputs": [
        {
          "internalType": "uint256",
          "name": "unlockAmount",
          "type": "uint256"
        }
      ],
      "stateMutability": "nonpayable",
      "type": "function"
    }
  ],
  "bytecode": "0x608060405234801561001057600080fd5b50604051610cee380380610cee83398101604081905261002f916100dc565b61003833610070565b600180546001600160a01b039485166001600160a01b0319918216179091556002805493909416921691909117909155600455610118565b600080546001600160a01b038381166001600160a01b0319831681178455604051919092169283917f8be0079c531659141344cd1fd0a4f28419497f9722a3daafe3b4186f6b6457e09190a35050565b80516001600160a01b03811681146100d757600080fd5b919050565b6000806000606084860312156100f157600080fd5b6100fa846100c0565b9250610108602085016100c0565b9150604084015190509250925092565b610bc7806101276000396000f3fe608060405234801561001057600080fd5b50600436106100f55760003560e01c8063771e901a11610097578063c43ecb4b11610066578063c43ecb4b146101eb578063c9b5279c146101fe578063da00096814610245578063f2fde38b1461024e57600080fd5b8063771e901a146101a15780638da5cb5b146101b4578063ba970ae6146101c5578063bcc286fd146101d857600080fd5b8063439b4dda116100d3578063439b4dda146101525780634626ddb314610173578063715018a614610186578063739939021461018e57600080fd5b8063055d536e146100fa578063356ae2c01461010f57806338dcd4fd14610122575b600080fd5b61010d61010836600461099a565b610261565b005b61010d61011d3660046109d6565b6102c9565b600554610135906001600160a01b031681565b6040516001600160a01b0390911681526020015b60405180910390f35b6101656101603660046109ef565b6102f8565b604051908152602001610149565b610165610181366004610a19565b61030c565b61010d6104d9565b600154610135906001600160a01b031681565b61010d6101af366004610a66565b61050f565b6000546001600160a01b0316610135565b61010d6101d3366004610a66565b61055b565b61010d6101e6366004610a66565b6105a7565b600254610135906001600160a01b031681565b61023061020c366004610a81565b60036020908152600092835260408084209091529082529020805460019091015482565b60408051928352602083019190915201610149565b61016560045481565b61010d61025c366004610a66565b6105f3565b6005546001600160a01b031633146102b85760405162461bcd60e51b815260206004820152601560248201527437b7363c9031b0b63610333937b6903937baba32b960591b60448201526064015b60405180910390fd5b6102c383838361068e565b50505050565b6000546001600160a01b031633146102f35760405162461bcd60e51b81526004016102af90610ab4565b600455565b600061030533848461068e565b9392505050565b6002546000906001600160a01b0316331461035f5760405162461bcd60e51b81526020600482015260136024820152721bdb9b1e4818d85b1b08199c9bdb481c1bdbdb606a1b60448201526064016102af565b6001600160a01b0380861660009081526003602090815260408083209388168352929052206004546103a0906127109061039a9087906108fe565b9061090a565b9150600082116103e35760405162461bcd60e51b815260206004820152600e60248201526d757420616d6f756e74207a65726f60901b60448201526064016102af565b80546103ef9085610916565b815560018101546104009083610916565b600182810191909155546040516340c10f1960e01b81526001600160a01b03888116600483015260248201859052909116906340c10f19906044016020604051808303816000875af115801561045a573d6000803e3d6000fd5b505050506040513d601f19601f8201168201806040525081019061047e9190610ae9565b5060408051858152602081018490526001600160a01b03858116828401529151878316928916917fd888a969925b3295882ecaa298403468b676702280a2d1f5c1e08387b80b6c39919081900360600190a350949350505050565b6000546001600160a01b031633146105035760405162461bcd60e51b81526004016102af90610ab4565b61050d6000610922565b565b6000546001600160a01b031633146105395760405162461bcd60e51b81526004016102af90610ab4565b600280546001600160a01b0319166001600160a01b0392909216919091179055565b6000546001600160a01b031633146105855760405162461bcd60e51b81526004016102af90610ab4565b600180546001600160a01b0319166001600160a01b0392909216919091179055565b6000546001600160a01b031633146105d15760405162461bcd60e51b81526004016102af90610ab4565b600580546001600160a01b0319166001600160a01b0392909216919091179055565b6000546001600160a01b0316331461061d5760405162461bcd60e51b81526004016102af90610ab4565b6001600160a01b0381166106825760405162461bcd60e51b815260206004820152602660248201527f4f776e61626c653a206e6577206f776e657220697320746865207a65726f206160448201526564647265737360d01b60648201526084016102af565b61068b81610922565b50565b60008082116106d55760405162461bcd60e51b81526020600482015260136024820152723ab9b2b9103aba20b6b7bab73a1032b93937b960691b60448201526064016102af565b6001600160a01b03808516600090815260036020908152604080832093871683529290522060018101548311156107445760405162461bcd60e51b81526020600482015260136024820152727573657220726570617920746f206c6172676560681b60448201526064016102af565b6004546107579061039a856127106108fe565b815490925082111561076857805491505b600154604051632770a7eb60e21b81526001600160a01b0387811660048301526024820186905290911690639dc29fac906044016020604051808303816000875af11580156107bb573d6000803e3d6000fd5b505050506040513d601f19601f820116820180604052508101906107df9190610ae9565b5080546107ec9083610972565b815560018101546107fd9084610972565b600182015560025460405163095ea7b360e01b81526001600160a01b039182166004820152602481018490529085169063095ea7b3906044016020604051808303816000875af1158015610855573d6000803e3d6000fd5b505050506040513d601f19601f820116820180604052508101906108799190610ae9565b5060025460405163f7cacda760e01b81526001600160a01b03868116600483015260248201859052600060448301819052606483015287811660848301529091169063f7cacda79060a401600060405180830381600087803b1580156108de57600080fd5b505af11580156108f2573d6000803e3d6000fd5b50505050509392505050565b60006103058284610b21565b60006103058284610b40565b60006103058284610b62565b600080546001600160a01b038381166001600160a01b0319831681178455604051919092169283917f8be0079c531659141344cd1fd0a4f28419497f9722a3daafe3b4186f6b6457e09190a35050565b60006103058284610b7a565b80356001600160a01b038116811461099557600080fd5b919050565b6000806000606084860312156109af57600080fd5b6109b88461097e565b92506109c66020850161097e565b9150604084013590509250925092565b6000602082840312156109e857600080fd5b5035919050565b60008060408385031215610a0257600080fd5b610a0b8361097e565b946020939093013593505050565b60008060008060808587031215610a2f57600080fd5b610a388561097e565b9350610a466020860161097e565b925060408501359150610a5b6060860161097e565b905092959194509250565b600060208284031215610a7857600080fd5b6103058261097e565b60008060408385031215610a9457600080fd5b610a9d8361097e565b9150610aab6020840161097e565b90509250929050565b6020808252818101527f4f776e61626c653a2063616c6c6572206973206e6f7420746865206f776e6572604082015260600190565b600060208284031215610afb57600080fd5b8151801515811461030557600080fd5b634e487b7160e01b600052601160045260246000fd5b6000816000190483118215151615610b3b57610b3b610b0b565b500290565b600082610b5d57634e487b7160e01b600052601260045260246000fd5b500490565b60008219821115610b7557610b75610b0b565b500190565b600082821015610b8c57610b8c610b0b565b50039056fea264697066735822122044ed2a0dd22d87576e8594502d71959511d6c8de6bc652df5031af3bd231aa2f64736f6c634300080a0033",
  "linkReferences": {},
  "deployedLinkReferences": {}
}