{
  "_format": "hh-sol-artifact-1",
  "contractName": "Airdrop",
  "sourceName": "contracts/maxity/airdrop/airdrop.sol",
  "abi": [
    {
      "inputs": [
        {
          "internalType": "address",
          "name": "_usdt",
          "type": "address"
        },
        {
          "internalType": "address",
          "name": "_tokenA",
          "type": "address"
        }
      ],
      "stateMutability": "nonpayable",
      "type": "constructor"
    },
    {
      "anonymous": false,
      "inputs": [
        {
          "indexed": true,
          "internalType": "address",
          "name": "user",
          "type": "address"
        },
        {
          "indexed": true,
          "internalType": "uint256",
          "name": "pid",
          "type": "uint256"
        },
        {
          "indexed": false,
          "internalType": "uint256",
          "name": "amount",
          "type": "uint256"
        }
      ],
      "name": "EmergencyWithdraw",
      "type": "event"
    },
    {
      "anonymous": false,
      "inputs": [
        {
          "indexed": true,
          "internalType": "address",
          "name": "previousOwner",
          "type": "address"
        },
        {
          "indexed": true,
          "internalType": "address",
          "name": "newOwner",
          "type": "address"
        }
      ],
      "name": "OwnershipTransferred",
      "type": "event"
    },
    {
      "anonymous": false,
      "inputs": [
        {
          "indexed": true,
          "internalType": "address",
          "name": "user",
          "type": "address"
        },
        {
          "indexed": true,
          "internalType": "uint256",
          "name": "pid",
          "type": "uint256"
        },
        {
          "indexed": false,
          "internalType": "uint256",
          "name": "amount",
          "type": "uint256"
        }
      ],
      "name": "RequestWithdraw",
      "type": "event"
    },
    {
      "anonymous": false,
      "inputs": [
        {
          "indexed": true,
          "internalType": "address",
          "name": "user",
          "type": "address"
        },
        {
          "indexed": true,
          "internalType": "uint256",
          "name": "pid",
          "type": "uint256"
        },
        {
          "indexed": false,
          "internalType": "uint256",
          "name": "amount",
          "type": "uint256"
        }
      ],
      "name": "Withdraw",
      "type": "event"
    },
    {
      "inputs": [],
      "name": "currentPeroid",
      "outputs": [
        {
          "internalType": "uint256",
          "name": "",
          "type": "uint256"
        }
      ],
      "stateMutability": "view",
      "type": "function"
    },
    {
      "inputs": [
        {
          "internalType": "uint256",
          "name": "_startBlock",
          "type": "uint256"
        },
        {
          "internalType": "uint256",
          "name": "_endBlock",
          "type": "uint256"
        },
        {
          "internalType": "uint256",
          "name": "_price",
          "type": "uint256"
        },
        {
          "internalType": "uint256",
          "name": "_rewardPerUser",
          "type": "uint256"
        },
        {
          "internalType": "uint256",
          "name": "_totalReward",
          "type": "uint256"
        }
      ],
      "name": "newAirdrop",
      "outputs": [],
      "stateMutability": "nonpayable",
      "type": "function"
    },
    {
      "inputs": [],
      "name": "owner",
      "outputs": [
        {
          "internalType": "address",
          "name": "",
          "type": "address"
        }
      ],
      "stateMutability": "view",
      "type": "function"
    },
    {
      "inputs": [
        {
          "internalType": "uint256",
          "name": "",
          "type": "uint256"
        }
      ],
      "name": "peroidInfo",
      "outputs": [
        {
          "internalType": "uint256",
          "name": "startBlock",
          "type": "uint256"
        },
        {
          "internalType": "uint256",
          "name": "endBlock",
          "type": "uint256"
        },
        {
          "internalType": "uint256",
          "name": "price",
          "type": "uint256"
        },
        {
          "internalType": "uint256",
          "name": "rewardPerUser",
          "type": "uint256"
        },
        {
          "internalType": "uint256",
          "name": "totalReward",
          "type": "uint256"
        },
        {
          "internalType": "uint256",
          "name": "totalAlloc",
          "type": "uint256"
        },
        {
          "internalType": "uint256",
          "name": "totalRequest",
          "type": "uint256"
        }
      ],
      "stateMutability": "view",
      "type": "function"
    },
    {
      "inputs": [],
      "name": "peroidLength",
      "outputs": [
        {
          "internalType": "uint256",
          "name": "",
          "type": "uint256"
        }
      ],
      "stateMutability": "view",
      "type": "function"
    },
    {
      "inputs": [],
      "name": "renounceOwnership",
      "outputs": [],
      "stateMutability": "nonpayable",
      "type": "function"
    },
    {
      "inputs": [],
      "name": "requestWithdraw",
      "outputs": [],
      "stateMutability": "nonpayable",
      "type": "function"
    },
    {
      "inputs": [],
      "name": "tokenA",
      "outputs": [
        {
          "internalType": "address",
          "name": "",
          "type": "address"
        }
      ],
      "stateMutability": "view",
      "type": "function"
    },
    {
      "inputs": [],
      "name": "totalAllocAmount",
      "outputs": [
        {
          "internalType": "uint256",
          "name": "",
          "type": "uint256"
        }
      ],
      "stateMutability": "view",
      "type": "function"
    },
    {
      "inputs": [],
      "name": "totalRewardAmount",
      "outputs": [
        {
          "internalType": "uint256",
          "name": "",
          "type": "uint256"
        }
      ],
      "stateMutability": "view",
      "type": "function"
    },
    {
      "inputs": [
        {
          "internalType": "address",
          "name": "newOwner",
          "type": "address"
        }
      ],
      "name": "transferOwnership",
      "outputs": [],
      "stateMutability": "nonpayable",
      "type": "function"
    },
    {
      "inputs": [],
      "name": "usdt",
      "outputs": [
        {
          "internalType": "address",
          "name": "",
          "type": "address"
        }
      ],
      "stateMutability": "view",
      "type": "function"
    },
    {
      "inputs": [
        {
          "internalType": "uint256",
          "name": "",
          "type": "uint256"
        },
        {
          "internalType": "address",
          "name": "",
          "type": "address"
        }
      ],
      "name": "userInfo",
      "outputs": [
        {
          "internalType": "uint256",
          "name": "amount",
          "type": "uint256"
        },
        {
          "internalType": "uint256",
          "name": "rewardDebt",
          "type": "uint256"
        }
      ],
      "stateMutability": "view",
      "type": "function"
    },
    {
      "inputs": [
        {
          "internalType": "uint256",
          "name": "",
          "type": "uint256"
        },
        {
          "internalType": "address",
          "name": "",
          "type": "address"
        }
      ],
      "name": "userRequestInfo",
      "outputs": [
        {
          "internalType": "uint256",
          "name": "amount",
          "type": "uint256"
        },
        {
          "internalType": "uint256",
          "name": "rewardDebt",
          "type": "uint256"
        }
      ],
      "stateMutability": "view",
      "type": "function"
    },
    {
      "inputs": [],
      "name": "withdraw",
      "outputs": [],
      "stateMutability": "nonpayable",
      "type": "function"
    }
  ],
  "bytecode": "0x608060405260006006556000600755600060085534801561001f57600080fd5b50604051610f2c380380610f2c83398101604081905261003e916100e4565b61004733610078565b600180546001600160a01b039384166001600160a01b03199182161790915560028054929093169116179055610117565b600080546001600160a01b038381166001600160a01b0319831681178455604051919092169283917f8be0079c531659141344cd1fd0a4f28419497f9722a3daafe3b4186f6b6457e09190a35050565b80516001600160a01b03811681146100df57600080fd5b919050565b600080604083850312156100f757600080fd5b610100836100c8565b915061010e602084016100c8565b90509250929050565b610e06806101266000396000f3fe608060405234801561001057600080fd5b50600436106100f55760003560e01c80638da5cb5b11610097578063a332251411610066578063a332251414610245578063b3423eec1461024e578063cbec979214610256578063f2fde38b1461026957600080fd5b80638da5cb5b146101f05780638e73064f1461020157806393f1a40b1461020a5780639a012d5e1461023c57600080fd5b80633ccfd60b116100d35780633ccfd60b14610185578063579294311461018f578063715018a6146101a15780637514ce29146101a957600080fd5b80630b1a0f84146100fa5780630fc63d10146101475780632f48ab7d14610172575b600080fd5b61010d610108366004610c4b565b61027c565b604080519788526020880196909652948601939093526060850191909152608084015260a083015260c082015260e0015b60405180910390f35b60025461015a906001600160a01b031681565b6040516001600160a01b03909116815260200161013e565b60015461015a906001600160a01b031681565b61018d6102ce565b005b6003545b60405190815260200161013e565b61018d610566565b6101db6101b7366004610c80565b60056020908152600092835260408084209091529082529020805460019091015482565b6040805192835260208301919091520161013e565b6000546001600160a01b031661015a565b61019360075481565b6101db610218366004610c80565b60046020908152600092835260408084209091529082529020805460019091015482565b61019360085481565b61019360065481565b61018d61059c565b61018d610264366004610cac565b610764565b61018d610277366004610ce7565b610902565b6003818154811061028c57600080fd5b90600052602060002090600702016000915090508060000154908060010154908060020154908060030154908060040154908060050154908060060154905087565b6000546001600160a01b031633146103015760405162461bcd60e51b81526004016102f890610d02565b60405180910390fd5b600354600854106103425760405162461bcd60e51b815260206004820152600b60248201526a4e6f2041697244726f707360a81b60448201526064016102f8565b600060036008548154811061035957610359610d37565b9060005260206000209060070201905080600001544310156103ab5760405162461bcd60e51b815260206004820152600b60248201526a139bdd0814dd185c9d195960aa1b60448201526064016102f8565b80600101544311156103f65760405162461bcd60e51b8152602060048201526014602482015273105a5c911c9bdc0814195c9bda5908115b99195960621b60448201526064016102f8565b60048101546003820154600583015461040e9161099d565b106104675760405162461bcd60e51b815260206004820152602360248201527f41697244726f7020416c6c6f63416d6f756e74206578656564204d6178416d6f6044820152621d5b9d60ea1b60648201526084016102f8565b600854600090815260046020908152604080832033845290915290208054156104c75760405162461bcd60e51b81526020600482015260126024820152710aae6cae440c2d8e4cac2c8f240cccae8c6d60731b60448201526064016102f8565b60015460028301546104e6916001600160a01b031690339030906109b0565b600382015460058301546104f99161099d565b6005830155600382015480825560018201819055600254610527916001600160a01b03909116903390610ae0565b600854815460405190815233907ff279e6a1f5e320cca91135676d9cb6e44ca8a08c0b88342bcdb1144f6511b568906020015b60405180910390a35050565b6000546001600160a01b031633146105905760405162461bcd60e51b81526004016102f890610d02565b61059a6000610bfb565b565b600354600854106105dd5760405162461bcd60e51b815260206004820152600b60248201526a4e6f2041697244726f707360a81b60448201526064016102f8565b60006003600854815481106105f4576105f4610d37565b9060005260206000209060070201905080600001544310156106465760405162461bcd60e51b815260206004820152600b60248201526a139bdd0814dd185c9d195960aa1b60448201526064016102f8565b80600101544311156106915760405162461bcd60e51b8152602060048201526014602482015273105a5c911c9bdc0814195c9bda5908115b99195960621b60448201526064016102f8565b6008546000908152600560209081526040808320338452909152902080541561070e5760405162461bcd60e51b815260206004820152602960248201527f5573657220616c72656164792072657175657374656420666f722063757272656044820152681b9d081c195c9bda5960ba1b60648201526084016102f8565b600382015460068301546107219161099d565b600683015560038201548082556008546040519182529033907febeaa8785285a4f7c37a305351997dceebabc3c357dab98023dc37514a1b6ed69060200161055a565b6000546001600160a01b0316331461078e5760405162461bcd60e51b81526004016102f890610d02565b6002546107a6906001600160a01b03163330846109b0565b6003805460088190556040805160e0810182529788526020880196875287019485526060870193845260808701928352600060a0880181815260c089018281526001840185559390915296517fc2575a0e9e593c00f959f8c92f12db2869c3395a3b0502d05e2516446f71f85b60079092029182015594517fc2575a0e9e593c00f959f8c92f12db2869c3395a3b0502d05e2516446f71f85c86015592517fc2575a0e9e593c00f959f8c92f12db2869c3395a3b0502d05e2516446f71f85d85015590517fc2575a0e9e593c00f959f8c92f12db2869c3395a3b0502d05e2516446f71f85e840155517fc2575a0e9e593c00f959f8c92f12db2869c3395a3b0502d05e2516446f71f85f83015591517fc2575a0e9e593c00f959f8c92f12db2869c3395a3b0502d05e2516446f71f86082015590517fc2575a0e9e593c00f959f8c92f12db2869c3395a3b0502d05e2516446f71f86190910155565b6000546001600160a01b0316331461092c5760405162461bcd60e51b81526004016102f890610d02565b6001600160a01b0381166109915760405162461bcd60e51b815260206004820152602660248201527f4f776e61626c653a206e6577206f776e657220697320746865207a65726f206160448201526564647265737360d01b60648201526084016102f8565b61099a81610bfb565b50565b60006109a98284610d4d565b9392505050565b604080516001600160a01b0385811660248301528481166044830152606480830185905283518084039091018152608490920183526020820180516001600160e01b03166323b872dd60e01b1790529151600092839290881691610a149190610d73565b6000604051808303816000865af19150503d8060008114610a51576040519150601f19603f3d011682016040523d82523d6000602084013e610a56565b606091505b5091509150818015610a80575080511580610a80575080806020019051810190610a809190610dae565b610ad85760405162461bcd60e51b8152602060048201526024808201527f5472616e7366657248656c7065723a205452414e534645525f46524f4d5f46416044820152631253115160e21b60648201526084016102f8565b505050505050565b604080516001600160a01b038481166024830152604480830185905283518084039091018152606490920183526020820180516001600160e01b031663a9059cbb60e01b1790529151600092839290871691610b3c9190610d73565b6000604051808303816000865af19150503d8060008114610b79576040519150601f19603f3d011682016040523d82523d6000602084013e610b7e565b606091505b5091509150818015610ba8575080511580610ba8575080806020019051810190610ba89190610dae565b610bf45760405162461bcd60e51b815260206004820152601f60248201527f5472616e7366657248656c7065723a205452414e534645525f4641494c45440060448201526064016102f8565b5050505050565b600080546001600160a01b038381166001600160a01b0319831681178455604051919092169283917f8be0079c531659141344cd1fd0a4f28419497f9722a3daafe3b4186f6b6457e09190a35050565b600060208284031215610c5d57600080fd5b5035919050565b80356001600160a01b0381168114610c7b57600080fd5b919050565b60008060408385031215610c9357600080fd5b82359150610ca360208401610c64565b90509250929050565b600080600080600060a08688031215610cc457600080fd5b505083359560208501359550604085013594606081013594506080013592509050565b600060208284031215610cf957600080fd5b6109a982610c64565b6020808252818101527f4f776e61626c653a2063616c6c6572206973206e6f7420746865206f776e6572604082015260600190565b634e487b7160e01b600052603260045260246000fd5b60008219821115610d6e57634e487b7160e01b600052601160045260246000fd5b500190565b6000825160005b81811015610d945760208186018101518583015201610d7a565b81811115610da3576000828501525b509190910192915050565b600060208284031215610dc057600080fd5b815180151581146109a957600080fdfea26469706673582212201159fc16497d6530aaf10836ed9761cef93a45d52c86fa1898f505bf5472b4ef64736f6c634300080a0033",
  "linkReferences": {},
  "deployedLinkReferences": {}
}