{
  "_format": "hh-sol-artifact-1",
  "contractName": "MaxityMarketPlace",
  "sourceName": "contracts/maxity/impl/MaxityMarketPlace.sol",
  "abi": [
    {
      "inputs": [
        {
          "internalType": "address",
          "name": "_ut",
          "type": "address"
        },
        {
          "internalType": "address",
          "name": "_feeTo",
          "type": "address"
        }
      ],
      "stateMutability": "nonpayable",
      "type": "constructor"
    },
    {
      "anonymous": false,
      "inputs": [
        {
          "indexed": true,
          "internalType": "address",
          "name": "_token",
          "type": "address"
        },
        {
          "indexed": true,
          "internalType": "uint256",
          "name": "_tokenid",
          "type": "uint256"
        },
        {
          "indexed": true,
          "internalType": "address",
          "name": "buyer",
          "type": "address"
        },
        {
          "indexed": false,
          "internalType": "uint256",
          "name": "bid_price",
          "type": "uint256"
        }
      ],
      "name": "BidOnTokenId",
      "type": "event"
    },
    {
      "anonymous": false,
      "inputs": [
        {
          "indexed": true,
          "internalType": "address",
          "name": "previousOwner",
          "type": "address"
        },
        {
          "indexed": true,
          "internalType": "address",
          "name": "newOwner",
          "type": "address"
        }
      ],
      "name": "OwnershipTransferred",
      "type": "event"
    },
    {
      "anonymous": false,
      "inputs": [
        {
          "indexed": false,
          "internalType": "address",
          "name": "account",
          "type": "address"
        }
      ],
      "name": "Paused",
      "type": "event"
    },
    {
      "anonymous": false,
      "inputs": [
        {
          "indexed": true,
          "internalType": "address",
          "name": "_token",
          "type": "address"
        },
        {
          "indexed": true,
          "internalType": "uint256",
          "name": "_tokenid",
          "type": "uint256"
        },
        {
          "indexed": true,
          "internalType": "address",
          "name": "seller",
          "type": "address"
        }
      ],
      "name": "TokenIdDelist",
      "type": "event"
    },
    {
      "anonymous": false,
      "inputs": [
        {
          "indexed": true,
          "internalType": "address",
          "name": "_token",
          "type": "address"
        },
        {
          "indexed": true,
          "internalType": "uint256",
          "name": "_tokenid",
          "type": "uint256"
        },
        {
          "indexed": true,
          "internalType": "address",
          "name": "seller",
          "type": "address"
        },
        {
          "indexed": false,
          "internalType": "uint256",
          "name": "base_price",
          "type": "uint256"
        },
        {
          "indexed": false,
          "internalType": "uint256",
          "name": "incre_price",
          "type": "uint256"
        },
        {
          "indexed": false,
          "internalType": "uint256",
          "name": "deadline",
          "type": "uint256"
        }
      ],
      "name": "TokenIdOnAuction",
      "type": "event"
    },
    {
      "anonymous": false,
      "inputs": [
        {
          "indexed": true,
          "internalType": "address",
          "name": "_token",
          "type": "address"
        },
        {
          "indexed": true,
          "internalType": "uint256",
          "name": "_tokenid",
          "type": "uint256"
        },
        {
          "indexed": true,
          "internalType": "address",
          "name": "seller",
          "type": "address"
        },
        {
          "indexed": false,
          "internalType": "uint256",
          "name": "fixprice",
          "type": "uint256"
        }
      ],
      "name": "TokenIdOnSale",
      "type": "event"
    },
    {
      "anonymous": false,
      "inputs": [
        {
          "indexed": true,
          "internalType": "address",
          "name": "_token",
          "type": "address"
        },
        {
          "indexed": true,
          "internalType": "uint256",
          "name": "_tokenid",
          "type": "uint256"
        },
        {
          "indexed": false,
          "internalType": "address",
          "name": "buyer",
          "type": "address"
        },
        {
          "indexed": false,
          "internalType": "address",
          "name": "seller",
          "type": "address"
        },
        {
          "indexed": false,
          "internalType": "uint256",
          "name": "price",
          "type": "uint256"
        },
        {
          "indexed": false,
          "internalType": "uint256",
          "name": "sold_count",
          "type": "uint256"
        }
      ],
      "name": "TokenIdSaled",
      "type": "event"
    },
    {
      "anonymous": false,
      "inputs": [
        {
          "indexed": false,
          "internalType": "address",
          "name": "account",
          "type": "address"
        }
      ],
      "name": "Unpaused",
      "type": "event"
    },
    {
      "inputs": [
        {
          "internalType": "address",
          "name": "_token",
          "type": "address"
        },
        {
          "internalType": "uint256[]",
          "name": "_tokenids",
          "type": "uint256[]"
        },
        {
          "internalType": "uint256[]",
          "name": "base_prices",
          "type": "uint256[]"
        },
        {
          "internalType": "uint256[]",
          "name": "incre_prices",
          "type": "uint256[]"
        },
        {
          "internalType": "uint256[]",
          "name": "starttimes",
          "type": "uint256[]"
        },
        {
          "internalType": "uint256[]",
          "name": "deadlines",
          "type": "uint256[]"
        },
        {
          "internalType": "address",
          "name": "_seller",
          "type": "address"
        }
      ],
      "name": "auctionMax721",
      "outputs": [
        {
          "internalType": "uint256",
          "name": "amountU",
          "type": "uint256"
        }
      ],
      "stateMutability": "nonpayable",
      "type": "function"
    },
    {
      "inputs": [
        {
          "internalType": "address",
          "name": "_token",
          "type": "address"
        },
        {
          "internalType": "uint256",
          "name": "_tokenid",
          "type": "uint256"
        },
        {
          "internalType": "uint256",
          "name": "amount",
          "type": "uint256"
        },
        {
          "internalType": "address",
          "name": "to",
          "type": "address"
        }
      ],
      "name": "bid",
      "outputs": [
        {
          "internalType": "bool",
          "name": "",
          "type": "bool"
        }
      ],
      "stateMutability": "nonpayable",
      "type": "function"
    },
    {
      "inputs": [
        {
          "internalType": "address",
          "name": "_token",
          "type": "address"
        },
        {
          "internalType": "uint256",
          "name": "_tokenid",
          "type": "uint256"
        },
        {
          "internalType": "address",
          "name": "to",
          "type": "address"
        }
      ],
      "name": "buy",
      "outputs": [],
      "stateMutability": "nonpayable",
      "type": "function"
    },
    {
      "inputs": [
        {
          "internalType": "address",
          "name": "_token",
          "type": "address"
        },
        {
          "internalType": "uint256",
          "name": "_tokenid",
          "type": "uint256"
        }
      ],
      "name": "checkAuctionDone",
      "outputs": [
        {
          "internalType": "bool",
          "name": "",
          "type": "bool"
        }
      ],
      "stateMutability": "nonpayable",
      "type": "function"
    },
    {
      "inputs": [
        {
          "internalType": "address",
          "name": "_token",
          "type": "address"
        },
        {
          "internalType": "uint256",
          "name": "_tokenid",
          "type": "uint256"
        }
      ],
      "name": "delist",
      "outputs": [],
      "stateMutability": "nonpayable",
      "type": "function"
    },
    {
      "inputs": [
        {
          "internalType": "address",
          "name": "token",
          "type": "address"
        },
        {
          "internalType": "address",
          "name": "to",
          "type": "address"
        }
      ],
      "name": "emergencyWithdraw",
      "outputs": [],
      "stateMutability": "nonpayable",
      "type": "function"
    },
    {
      "inputs": [
        {
          "internalType": "address",
          "name": "token",
          "type": "address"
        },
        {
          "internalType": "uint256",
          "name": "tokenId",
          "type": "uint256"
        },
        {
          "internalType": "address",
          "name": "to",
          "type": "address"
        }
      ],
      "name": "emergencyWithdrawNFT",
      "outputs": [],
      "stateMutability": "nonpayable",
      "type": "function"
    },
    {
      "inputs": [],
      "name": "feeTo",
      "outputs": [
        {
          "internalType": "address",
          "name": "",
          "type": "address"
        }
      ],
      "stateMutability": "view",
      "type": "function"
    },
    {
      "inputs": [
        {
          "internalType": "address",
          "name": "",
          "type": "address"
        },
        {
          "internalType": "uint256",
          "name": "",
          "type": "uint256"
        }
      ],
      "name": "marketUnits",
      "outputs": [
        {
          "internalType": "bool",
          "name": "isAuction",
          "type": "bool"
        },
        {
          "internalType": "uint256",
          "name": "fixprice",
          "type": "uint256"
        },
        {
          "internalType": "uint256",
          "name": "base_price",
          "type": "uint256"
        },
        {
          "internalType": "uint256",
          "name": "incre_price",
          "type": "uint256"
        },
        {
          "internalType": "uint256",
          "name": "starttime",
          "type": "uint256"
        },
        {
          "internalType": "uint256",
          "name": "deadline",
          "type": "uint256"
        },
        {
          "internalType": "uint256",
          "name": "cur_bid_price",
          "type": "uint256"
        },
        {
          "internalType": "address",
          "name": "price_offer",
          "type": "address"
        },
        {
          "internalType": "address",
          "name": "seller",
          "type": "address"
        },
        {
          "internalType": "bool",
          "name": "firstSell",
          "type": "bool"
        }
      ],
      "stateMutability": "view",
      "type": "function"
    },
    {
      "inputs": [
        {
          "internalType": "address",
          "name": "_operator",
          "type": "address"
        },
        {
          "internalType": "address",
          "name": "_from",
          "type": "address"
        },
        {
          "internalType": "uint256",
          "name": "_tokenId",
          "type": "uint256"
        },
        {
          "internalType": "bytes",
          "name": "data",
          "type": "bytes"
        }
      ],
      "name": "onERC721Received",
      "outputs": [
        {
          "internalType": "bytes4",
          "name": "",
          "type": "bytes4"
        }
      ],
      "stateMutability": "nonpayable",
      "type": "function"
    },
    {
      "inputs": [],
      "name": "owner",
      "outputs": [
        {
          "internalType": "address",
          "name": "",
          "type": "address"
        }
      ],
      "stateMutability": "view",
      "type": "function"
    },
    {
      "inputs": [],
      "name": "paused",
      "outputs": [
        {
          "internalType": "bool",
          "name": "",
          "type": "bool"
        }
      ],
      "stateMutability": "view",
      "type": "function"
    },
    {
      "inputs": [],
      "name": "renounceOwnership",
      "outputs": [],
      "stateMutability": "nonpayable",
      "type": "function"
    },
    {
      "inputs": [
        {
          "internalType": "address",
          "name": "_token",
          "type": "address"
        },
        {
          "internalType": "uint256[]",
          "name": "_tokenids",
          "type": "uint256[]"
        },
        {
          "internalType": "uint256[]",
          "name": "_prices",
          "type": "uint256[]"
        },
        {
          "internalType": "address",
          "name": "_seller",
          "type": "address"
        }
      ],
      "name": "sellByFixPrice",
      "outputs": [
        {
          "internalType": "uint256",
          "name": "",
          "type": "uint256"
        }
      ],
      "stateMutability": "nonpayable",
      "type": "function"
    },
    {
      "inputs": [
        {
          "internalType": "address",
          "name": "_feeTo",
          "type": "address"
        }
      ],
      "name": "setFeeTo",
      "outputs": [],
      "stateMutability": "nonpayable",
      "type": "function"
    },
    {
      "inputs": [
        {
          "internalType": "address",
          "name": "_ut",
          "type": "address"
        }
      ],
      "name": "setUTToken",
      "outputs": [],
      "stateMutability": "nonpayable",
      "type": "function"
    },
    {
      "inputs": [
        {
          "internalType": "address",
          "name": "",
          "type": "address"
        },
        {
          "internalType": "uint256",
          "name": "",
          "type": "uint256"
        }
      ],
      "name": "soldCount",
      "outputs": [
        {
          "internalType": "uint256",
          "name": "",
          "type": "uint256"
        }
      ],
      "stateMutability": "view",
      "type": "function"
    },
    {
      "inputs": [
        {
          "internalType": "address",
          "name": "newOwner",
          "type": "address"
        }
      ],
      "name": "transferOwnership",
      "outputs": [],
      "stateMutability": "nonpayable",
      "type": "function"
    },
    {
      "inputs": [],
      "name": "ut",
      "outputs": [
        {
          "internalType": "address",
          "name": "",
          "type": "address"
        }
      ],
      "stateMutability": "view",
      "type": "function"
    }
  ],
  "bytecode": "0x60806040523480156200001157600080fd5b506040516200250e3803806200250e8339810160408190526200003491620000eb565b6200003f336200007e565b6000805460ff60a01b19169055600380546001600160a01b039384166001600160a01b0319918216179091556004805492909316911617905562000123565b600080546001600160a01b038381166001600160a01b0319831681178455604051919092169283917f8be0079c531659141344cd1fd0a4f28419497f9722a3daafe3b4186f6b6457e09190a35050565b80516001600160a01b0381168114620000e657600080fd5b919050565b60008060408385031215620000ff57600080fd5b6200010a83620000ce565b91506200011a60208401620000ce565b90509250929050565b6123db80620001336000396000f3fe608060405234801561001057600080fd5b50600436106101215760003560e01c8063ac98aee7116100ad578063db61c76e11610071578063db61c76e14610344578063f074258e14610357578063f2fde38b1461036a578063f46901ed1461037d578063ff3e39591461039057600080fd5b8063ac98aee7146102e5578063b1a81295146102f8578063ba970ae61461030b578063ce6882c11461031e578063d6dda7151461033157600080fd5b8063715018a6116100f4578063715018a6146101c15780637470a852146101c95780638da5cb5b146101ea5780639487a2ca146101fb578063a7ff3b23146102d257600080fd5b8063017e7e5814610126578063150b7a02146101565780635c975abb1461018e5780636382d9ad146101ac575b600080fd5b600454610139906001600160a01b031681565b6040516001600160a01b0390911681526020015b60405180910390f35b610175610164366004611dd6565b630a85bd0160e11b95945050505050565b6040516001600160e01b0319909116815260200161014d565b600054600160a01b900460ff165b604051901515815260200161014d565b6101bf6101ba366004611e75565b6103bb565b005b6101bf610471565b6101dc6101d7366004611f5f565b6104a7565b60405190815260200161014d565b6000546001600160a01b0316610139565b610278610209366004612052565b6001602081815260009384526040808520909152918352912080549181015460028201546003830154600484015460058501546006860154600787015460089097015460ff988916989697959694959394929391926001600160a01b0392831692821691600160a01b9004168a565b604080519a15158b5260208b0199909952978901969096526060880194909452608087019290925260a086015260c08501526001600160a01b0390811660e08501521661010083015215156101208201526101400161014d565b61019c6102e036600461207e565b6107ec565b6101dc6102f33660046120c8565b610a5e565b6101bf610306366004612146565b610cd0565b6101bf610319366004612188565b610dd6565b600354610139906001600160a01b031681565b61019c61033f366004612052565b610e22565b6101bf610352366004612146565b610f8a565b6101bf610365366004612052565b6110da565b6101bf610378366004612188565b611323565b6101bf61038b366004612188565b6113be565b6101dc61039e366004612052565b600260209081526000928352604080842090915290825290205481565b6000546001600160a01b031633146103ee5760405162461bcd60e51b81526004016103e5906121a5565b60405180910390fd5b6040516370a0823160e01b81523060048201526000906001600160a01b038416906370a0823190602401602060405180830381865afa158015610435573d6000803e3d6000fd5b505050506040513d601f19601f8201168201806040525081019061045991906121da565b9050801561046c5761046c83838361140a565b505050565b6000546001600160a01b0316331461049b5760405162461bcd60e51b81526004016103e5906121a5565b6104a56000611525565b565b8551600090815b818110156107df5760008982815181106104ca576104ca6121f3565b6020908102919091018101516001600160a01b038d811660009081526001845260408082208483529094529290922060080154909250161561053e5760405162461bcd60e51b815260206004820152600d60248201526c185b1c9958591e481cd85b1959609a1b60448201526064016103e5565b6001600160a01b038b1660008181526001602090815260408083208584529091529081902090516331a9108f60e11b81526004810184905290913091636352211e90602401602060405180830381865afa1580156105a0573d6000803e3d6000fd5b505050506040513d601f19601f820116820180604052508101906105c49190612209565b6001600160a01b03161461063557604051632142170760e11b81526001600160a01b038d16906342842e0e9061060290339030908790600401612226565b600060405180830381600087803b15801561061c57600080fd5b505af1158015610630573d6000803e3d6000fd5b505050505b6008810180546001600160a01b0319166001600160a01b038816179055805460ff1916600117815589518a9084908110610671576106716121f3565b60200260200101518160020181905550888381518110610693576106936121f3565b602002602001015181600301819055508783815181106106b5576106b56121f3565b602002602001015181600401819055508683815181106106d7576106d76121f3565b602002602001015181600501819055508983815181106106f9576106f96121f3565b602002602001015181600601819055508060080160009054906101000a90046001600160a01b03166001600160a01b0316828d6001600160a01b03167f99938038917b923dbb41c815a5fc5f1bf53b898219a050f106634215d52a458f8d8781518110610768576107686121f3565b60200260200101518d8881518110610782576107826121f3565b60200260200101518c898151811061079c5761079c6121f3565b60200260200101516040516107c4939291909283526020830191909152604082015260600190565b60405180910390a45050806107d890612260565b90506104ae565b5098975050505050505050565b6001600160a01b0380851660009081526001602090815260408083208784529091528120600881015491929091166108365760405162461bcd60e51b81526004016103e59061227b565b6040516331a9108f60e11b81526004810186905230906001600160a01b03881690636352211e90602401602060405180830381865afa15801561087d573d6000803e3d6000fd5b505050506040513d601f19601f820116820180604052508101906108a19190612209565b6001600160a01b0316146108c75760405162461bcd60e51b81526004016103e5906122a1565b805460ff166109125760405162461bcd60e51b81526020600482015260176024820152763a37b5b2b71034b9903737ba1037b71030bab1ba34b7b760491b60448201526064016103e5565b80600401544210156109665760405162461bcd60e51b815260206004820152601a60248201527f746f6b656e2061756374696f6e206973206e6f7420737461727400000000000060448201526064016103e5565b6109708686610e22565b1561097f576000915050610a56565b600061099c8260030154836006015461157590919063ffffffff16565b9050808510610a4f576003546109bd906001600160a01b0316333088611588565b600354600783015460068401546109e1926001600160a01b0390811692169061140a565b6007820180546001600160a01b0319166001600160a01b038681169182179092556006840187905560405187815290918891908a16907fe6eb358db7a4e6354cbd359ed326213e82287bb48554cac751221ac0375148939060200160405180910390a4600192505050610a56565b6000925050505b949350505050565b8251600090815b81811015610cc6576000868281518110610a8157610a816121f3565b6020908102919091018101516001600160a01b038a8116600090815260018452604080822084835290945292909220600801549092501615610af55760405162461bcd60e51b815260206004820152600d60248201526c185b1c9958591e481cd85b1959609a1b60448201526064016103e5565b6001600160a01b03881660008181526001602090815260408083208584529091529081902090516331a9108f60e11b81526004810184905290913091636352211e90602401602060405180830381865afa158015610b57573d6000803e3d6000fd5b505050506040513d601f19601f82011682018060405250810190610b7b9190612209565b6001600160a01b031614610bec576040516323b872dd60e01b81526001600160a01b038a16906323b872dd90610bb990339030908790600401612226565b600060405180830381600087803b158015610bd357600080fd5b505af1158015610be7573d6000803e3d6000fd5b505050505b6008810180546001600160a01b0319166001600160a01b038816179055805460ff191681558651879084908110610c2557610c256121f3565b602002602001015181600101819055508060080160009054906101000a90046001600160a01b03166001600160a01b0316828a6001600160a01b03167f2aa010bbfb7086f48733a699ebeccda2dd3d28929599703e59370321bf4bdc158a8781518110610c9457610c946121f3565b6020026020010151604051610cab91815260200190565b60405180910390a4505080610cbf90612260565b9050610a65565b5095945050505050565b6000546001600160a01b03163314610cfa5760405162461bcd60e51b81526004016103e5906121a5565b6040516370a0823160e01b81523060048201526000906001600160a01b038516906370a0823190602401602060405180830381865afa158015610d41573d6000803e3d6000fd5b505050506040513d601f19601f82011682018060405250810190610d6591906121da565b90508015610dd057604051632142170760e11b81526001600160a01b038516906342842e0e90610d9d90309086908890600401612226565b600060405180830381600087803b158015610db757600080fd5b505af1158015610dcb573d6000803e3d6000fd5b505050505b50505050565b6000546001600160a01b03163314610e005760405162461bcd60e51b81526004016103e5906121a5565b600380546001600160a01b0319166001600160a01b0392909216919091179055565b6001600160a01b038083166000908152600160209081526040808320858452909152812060088101549192909116610e6c5760405162461bcd60e51b81526004016103e59061227b565b6040516331a9108f60e11b81526004810184905230906001600160a01b03861690636352211e90602401602060405180830381865afa158015610eb3573d6000803e3d6000fd5b505050506040513d601f19601f82011682018060405250810190610ed79190612209565b6001600160a01b031614610efd5760405162461bcd60e51b81526004016103e5906122a1565b805460ff16610f485760405162461bcd60e51b81526020600482015260176024820152763a37b5b2b71034b9903737ba1037b71030bab1ba34b7b760491b60448201526064016103e5565b42816005015410610f7e5760068101546007820154610f749186918691906001600160a01b03166116b4565b6001915050610f84565b60009150505b92915050565b6001600160a01b03808416600090815260016020908152604080832086845290915290206008810154909116610fd25760405162461bcd60e51b81526004016103e59061227b565b6040516331a9108f60e11b81526004810184905230906001600160a01b03861690636352211e90602401602060405180830381865afa158015611019573d6000803e3d6000fd5b505050506040513d601f19601f8201168201806040525081019061103d9190612209565b6001600160a01b0316146110635760405162461bcd60e51b81526004016103e5906122a1565b805460ff16156110ab5760405162461bcd60e51b81526020600482015260136024820152723a37b5b2b71034b99037b71030bab1ba34b7b760691b60448201526064016103e5565b60035460018201546110ca916001600160a01b03169033903090611588565b610dd084848360010154856116b4565b6001600160a01b038083166000908152600160209081526040808320858452909152902060088101549091166111225760405162461bcd60e51b81526004016103e59061227b565b6040516331a9108f60e11b81526004810183905230906001600160a01b03851690636352211e90602401602060405180830381865afa158015611169573d6000803e3d6000fd5b505050506040513d601f19601f8201168201806040525081019061118d9190612209565b6001600160a01b0316146111b35760405162461bcd60e51b81526004016103e5906122a1565b805460ff16156111fb5760405162461bcd60e51b81526020600482015260136024820152723a37b5b2b71034b99037b71030bab1ba34b7b760691b60448201526064016103e5565b60088101546001600160a01b031633148061122057506000546001600160a01b031633145b61126c5760405162461bcd60e51b815260206004820152601960248201527f6f6e6c792073656c6c6572206f722063616e2064656c6973740000000000000060448201526064016103e5565b60088101546040516323b872dd60e01b81526001600160a01b03808616926323b872dd926112a292309216908790600401612226565b600060405180830381600087803b1580156112bc57600080fd5b505af11580156112d0573d6000803e3d6000fd5b5050506008820180546001600160a01b031916905550604051339083906001600160a01b038616907fcc7258ccd7aa186b240dbcbff1216138f95294321d1bf5e11f0a09a99d70386390600090a4505050565b6000546001600160a01b0316331461134d5760405162461bcd60e51b81526004016103e5906121a5565b6001600160a01b0381166113b25760405162461bcd60e51b815260206004820152602660248201527f4f776e61626c653a206e6577206f776e657220697320746865207a65726f206160448201526564647265737360d01b60648201526084016103e5565b6113bb81611525565b50565b6000546001600160a01b031633146113e85760405162461bcd60e51b81526004016103e5906121a5565b600480546001600160a01b0319166001600160a01b0392909216919091179055565b604080516001600160a01b038481166024830152604480830185905283518084039091018152606490920183526020820180516001600160e01b031663a9059cbb60e01b179052915160009283929087169161146691906122d8565b6000604051808303816000865af19150503d80600081146114a3576040519150601f19603f3d011682016040523d82523d6000602084013e6114a8565b606091505b50915091508180156114d25750805115806114d25750808060200190518101906114d29190612313565b61151e5760405162461bcd60e51b815260206004820152601f60248201527f5472616e7366657248656c7065723a205452414e534645525f4641494c45440060448201526064016103e5565b5050505050565b600080546001600160a01b038381166001600160a01b0319831681178455604051919092169283917f8be0079c531659141344cd1fd0a4f28419497f9722a3daafe3b4186f6b6457e09190a35050565b60006115818284612335565b9392505050565b600080856001600160a01b03166323b872dd8686866040516024016115af93929190612226565b6040516020818303038152906040529060e01b6020820180516001600160e01b0383818316178352505050506040516115e891906122d8565b6000604051808303816000865af19150503d8060008114611625576040519150601f19603f3d011682016040523d82523d6000602084013e61162a565b606091505b50915091508180156116545750805115806116545750808060200190518101906116549190612313565b6116ac5760405162461bcd60e51b8152602060048201526024808201527f5472616e7366657248656c7065723a205452414e534645525f46524f4d5f46416044820152631253115160e21b60648201526084016103e5565b505050505050565b6001600160a01b03841660009081526001602090815260408083208684529091528120906116ee60646116e8866002611d8d565b90611d99565b60035460045491925061170e916001600160a01b0391821691168361140a565b6001600160a01b038616600090815260026020908152604080832088845290915290205461198257604051639d95600760e01b8152600481018690526000906001600160a01b03881690639d95600790602401602060405180830381865afa15801561177e573d6000803e3d6000fd5b505050506040513d601f19601f820116820180604052508101906117a29190612209565b6001600160a01b0316141561184657611841600360009054906101000a90046001600160a01b0316876001600160a01b0316639b1879bc6040518163ffffffff1660e01b8152600401602060405180830381865afa158015611808573d6000803e3d6000fd5b505050506040513d601f19601f8201168201806040525081019061182c9190612209565b61183c60646116e8896062611d8d565b61140a565b611956565b6118d1600360009054906101000a90046001600160a01b0316876001600160a01b0316639b1879bc6040518163ffffffff1660e01b8152600401602060405180830381865afa15801561189d573d6000803e3d6000fd5b505050506040513d601f19601f820116820180604052508101906118c19190612209565b61183c60646116e889605a611d8d565b600354604051639d95600760e01b815260048101879052611956916001600160a01b039081169190891690639d95600790602401602060405180830381865afa158015611922573d6000803e3d6000fd5b505050506040513d601f19601f820116820180604052508101906119469190612209565b61183c60646116e8896008611d8d565b6001600160a01b0386166000908152600260209081526040808320888452909152902060019055611c9c565b6000611a056305f5e1006116e8896001600160a01b0316632eb5eca68a6040518263ffffffff1660e01b81526004016119bd91815260200190565b602060405180830381865afa1580156119da573d6000803e3d6000fd5b505050506040513d601f19601f820116820180604052508101906119fe91906121da565b8890611d8d565b90506000611a138683611da5565b604051639d95600760e01b8152600481018990529091506000906001600160a01b038a1690639d95600790602401602060405180830381865afa158015611a5e573d6000803e3d6000fd5b505050506040513d601f19601f82011682018060405250810190611a829190612209565b6001600160a01b03161415611b1757611b12600360009054906101000a90046001600160a01b0316896001600160a01b0316639b1879bc6040518163ffffffff1660e01b8152600401602060405180830381865afa158015611ae8573d6000803e3d6000fd5b505050506040513d601f19601f82011682018060405250810190611b0c9190612209565b8461140a565b611c27565b611ba2600360009054906101000a90046001600160a01b0316896001600160a01b0316639b1879bc6040518163ffffffff1660e01b8152600401602060405180830381865afa158015611b6e573d6000803e3d6000fd5b505050506040513d601f19601f82011682018060405250810190611b929190612209565b61183c60646116e8876050611d8d565b600354604051639d95600760e01b815260048101899052611c27916001600160a01b0390811691908b1690639d95600790602401602060405180830381865afa158015611bf3573d6000803e3d6000fd5b505050506040513d601f19601f82011682018060405250810190611c179190612209565b61183c60646116e8876014611d8d565b6003546008850154611c46916001600160a01b0390811691168361140a565b6001600160a01b03881660009081526002602090815260408083208a8452909152902054611c75906001612335565b6001600160a01b03891660009081526002602090815260408083208b845290915290205550505b6040516323b872dd60e01b81526001600160a01b038716906323b872dd90611ccc90309087908a90600401612226565b600060405180830381600087803b158015611ce657600080fd5b505af1158015611cfa573d6000803e3d6000fd5b5050505060088201546001600160a01b0387811660008181526002602090815260408083208b845282529182902054825189861681529490951690840152820187905260608201929092528691907f7062298a2434d7625655644057ed6ca128817e7a764914127cc37b5feb1058989060800160405180910390a35060080180546001600160a01b031916905550505050565b6000611581828461234d565b6000611581828461236c565b6000611581828461238e565b6001600160a01b03811681146113bb57600080fd5b8035611dd181611db1565b919050565b600080600080600060808688031215611dee57600080fd5b8535611df981611db1565b94506020860135611e0981611db1565b935060408601359250606086013567ffffffffffffffff80821115611e2d57600080fd5b818801915088601f830112611e4157600080fd5b813581811115611e5057600080fd5b896020828501011115611e6257600080fd5b9699959850939650602001949392505050565b60008060408385031215611e8857600080fd5b8235611e9381611db1565b91506020830135611ea381611db1565b809150509250929050565b634e487b7160e01b600052604160045260246000fd5b600082601f830112611ed557600080fd5b8135602067ffffffffffffffff80831115611ef257611ef2611eae565b8260051b604051601f19603f83011681018181108482111715611f1757611f17611eae565b604052938452858101830193838101925087851115611f3557600080fd5b83870191505b84821015611f5457813583529183019190830190611f3b565b979650505050505050565b600080600080600080600060e0888a031215611f7a57600080fd5b611f8388611dc6565b9650602088013567ffffffffffffffff80821115611fa057600080fd5b611fac8b838c01611ec4565b975060408a0135915080821115611fc257600080fd5b611fce8b838c01611ec4565b965060608a0135915080821115611fe457600080fd5b611ff08b838c01611ec4565b955060808a013591508082111561200657600080fd5b6120128b838c01611ec4565b945060a08a013591508082111561202857600080fd5b506120358a828b01611ec4565b92505061204460c08901611dc6565b905092959891949750929550565b6000806040838503121561206557600080fd5b823561207081611db1565b946020939093013593505050565b6000806000806080858703121561209457600080fd5b843561209f81611db1565b9350602085013592506040850135915060608501356120bd81611db1565b939692955090935050565b600080600080608085870312156120de57600080fd5b84356120e981611db1565b9350602085013567ffffffffffffffff8082111561210657600080fd5b61211288838901611ec4565b9450604087013591508082111561212857600080fd5b5061213587828801611ec4565b92505060608501356120bd81611db1565b60008060006060848603121561215b57600080fd5b833561216681611db1565b925060208401359150604084013561217d81611db1565b809150509250925092565b60006020828403121561219a57600080fd5b813561158181611db1565b6020808252818101527f4f776e61626c653a2063616c6c6572206973206e6f7420746865206f776e6572604082015260600190565b6000602082840312156121ec57600080fd5b5051919050565b634e487b7160e01b600052603260045260246000fd5b60006020828403121561221b57600080fd5b815161158181611db1565b6001600160a01b039384168152919092166020820152604081019190915260600190565b634e487b7160e01b600052601160045260246000fd5b60006000198214156122745761227461224a565b5060010190565b6020808252600c908201526b1b9bdd081bdb881cd85b195960a21b604082015260600190565b60208082526018908201527f746f6b656e206e6f7420696e2074686973206d61726b65740000000000000000604082015260600190565b6000825160005b818110156122f957602081860181015185830152016122df565b81811115612308576000828501525b509190910192915050565b60006020828403121561232557600080fd5b8151801515811461158157600080fd5b600082198211156123485761234861224a565b500190565b60008160001904831182151516156123675761236761224a565b500290565b60008261238957634e487b7160e01b600052601260045260246000fd5b500490565b6000828210156123a0576123a061224a565b50039056fea2646970667358221220e6cc2f566193d5270620ce356c34be311684bbd8962f87e047a09e6fbb0b5b6a64736f6c634300080a0033",
  "linkReferences": {},
  "deployedLinkReferences": {}
}