{
  "_format": "hh-sol-artifact-1",
  "contractName": "WertImpl",
  "sourceName": "contracts/maxity/wert/WertImpl.sol",
  "abi": [
    {
      "inputs": [
        {
          "internalType": "address",
          "name": "_feeTo",
          "type": "address"
        },
        {
          "internalType": "uint256",
          "name": "_feeRatio",
          "type": "uint256"
        },
        {
          "internalType": "uint256",
          "name": "_minalFeeAmount",
          "type": "uint256"
        }
      ],
      "stateMutability": "nonpayable",
      "type": "constructor"
    },
    {
      "anonymous": false,
      "inputs": [
        {
          "indexed": true,
          "internalType": "address",
          "name": "to",
          "type": "address"
        },
        {
          "indexed": true,
          "internalType": "address",
          "name": "token",
          "type": "address"
        },
        {
          "indexed": false,
          "internalType": "uint256",
          "name": "amount",
          "type": "uint256"
        }
      ],
      "name": "Deposit",
      "type": "event"
    },
    {
      "anonymous": false,
      "inputs": [
        {
          "indexed": true,
          "internalType": "address",
          "name": "previousOwner",
          "type": "address"
        },
        {
          "indexed": true,
          "internalType": "address",
          "name": "newOwner",
          "type": "address"
        }
      ],
      "name": "OwnershipTransferred",
      "type": "event"
    },
    {
      "inputs": [
        {
          "internalType": "address",
          "name": "token",
          "type": "address"
        },
        {
          "internalType": "address",
          "name": "to",
          "type": "address"
        },
        {
          "internalType": "uint256",
          "name": "amount",
          "type": "uint256"
        },
        {
          "internalType": "uint256",
          "name": "deadline",
          "type": "uint256"
        }
      ],
      "name": "deposit",
      "outputs": [],
      "stateMutability": "payable",
      "type": "function"
    },
    {
      "inputs": [
        {
          "internalType": "address",
          "name": "token",
          "type": "address"
        },
        {
          "internalType": "address",
          "name": "to",
          "type": "address"
        },
        {
          "internalType": "uint256",
          "name": "amount",
          "type": "uint256"
        },
        {
          "internalType": "uint256",
          "name": "deadline",
          "type": "uint256"
        }
      ],
      "name": "depositNative",
      "outputs": [],
      "stateMutability": "payable",
      "type": "function"
    },
    {
      "inputs": [
        {
          "internalType": "address",
          "name": "token",
          "type": "address"
        },
        {
          "internalType": "address",
          "name": "to",
          "type": "address"
        }
      ],
      "name": "emergencyWithdraw",
      "outputs": [],
      "stateMutability": "nonpayable",
      "type": "function"
    },
    {
      "inputs": [],
      "name": "feeRatio",
      "outputs": [
        {
          "internalType": "uint256",
          "name": "",
          "type": "uint256"
        }
      ],
      "stateMutability": "view",
      "type": "function"
    },
    {
      "inputs": [],
      "name": "feeTo",
      "outputs": [
        {
          "internalType": "address",
          "name": "",
          "type": "address"
        }
      ],
      "stateMutability": "view",
      "type": "function"
    },
    {
      "inputs": [],
      "name": "minalFeeAmount",
      "outputs": [
        {
          "internalType": "uint256",
          "name": "",
          "type": "uint256"
        }
      ],
      "stateMutability": "view",
      "type": "function"
    },
    {
      "inputs": [],
      "name": "owner",
      "outputs": [
        {
          "internalType": "address",
          "name": "",
          "type": "address"
        }
      ],
      "stateMutability": "view",
      "type": "function"
    },
    {
      "inputs": [],
      "name": "paused",
      "outputs": [
        {
          "internalType": "bool",
          "name": "",
          "type": "bool"
        }
      ],
      "stateMutability": "view",
      "type": "function"
    },
    {
      "inputs": [],
      "name": "renounceOwnership",
      "outputs": [],
      "stateMutability": "nonpayable",
      "type": "function"
    },
    {
      "inputs": [
        {
          "internalType": "uint256",
          "name": "_feeRatio",
          "type": "uint256"
        }
      ],
      "name": "setFeeRatio",
      "outputs": [],
      "stateMutability": "nonpayable",
      "type": "function"
    },
    {
      "inputs": [
        {
          "internalType": "address",
          "name": "_feeTo",
          "type": "address"
        }
      ],
      "name": "setFeeTo",
      "outputs": [],
      "stateMutability": "nonpayable",
      "type": "function"
    },
    {
      "inputs": [
        {
          "internalType": "uint256",
          "name": "_minalFeeAmount",
          "type": "uint256"
        }
      ],
      "name": "setMinalFeeAmount",
      "outputs": [],
      "stateMutability": "nonpayable",
      "type": "function"
    },
    {
      "inputs": [],
      "name": "setPause",
      "outputs": [],
      "stateMutability": "nonpayable",
      "type": "function"
    },
    {
      "inputs": [
        {
          "internalType": "address",
          "name": "newOwner",
          "type": "address"
        }
      ],
      "name": "transferOwnership",
      "outputs": [],
      "stateMutability": "nonpayable",
      "type": "function"
    },
    {
      "inputs": [
        {
          "internalType": "address",
          "name": "token",
          "type": "address"
        },
        {
          "internalType": "address",
          "name": "to",
          "type": "address"
        },
        {
          "internalType": "uint256",
          "name": "amount",
          "type": "uint256"
        },
        {
          "internalType": "uint256",
          "name": "deadline",
          "type": "uint256"
        }
      ],
      "name": "withdraw",
      "outputs": [],
      "stateMutability": "nonpayable",
      "type": "function"
    }
  ],
  "bytecode": "0x60806040526000805460ff60a01b1916905534801561001d57600080fd5b50604051610e4d380380610e4d83398101604081905261003c916100c1565b61004533610071565b600180546001600160a01b0319166001600160a01b039490941693909317909255600355600255610104565b600080546001600160a01b038381166001600160a01b0319831681178455604051919092169283917f8be0079c531659141344cd1fd0a4f28419497f9722a3daafe3b4186f6b6457e09190a35050565b6000806000606084860312156100d657600080fd5b83516001600160a01b03811681146100ed57600080fd5b602085015160409095015190969495509392505050565b610d3a806101136000396000f3fe6080604052600436106100e85760003560e01c8063715018a61161008a578063c3c40d7611610059578063c3c40d7614610250578063d431b1ac14610270578063f2fde38b14610285578063f46901ed146102a557600080fd5b8063715018a6146101e75780637bfe950c146101fc5780638da5cb5b1461021c578063a684bd9b1461023a57600080fd5b806341744dd4116100c657806341744dd41461015f5780635c975abb146101835780636382d9ad146101b4578063655ae51c146101d457600080fd5b8063017e7e58146100ed57806319f4ff2f1461012a57806320e8c5651461014c575b600080fd5b3480156100f957600080fd5b5060015461010d906001600160a01b031681565b6040516001600160a01b0390911681526020015b60405180910390f35b34801561013657600080fd5b5061014a610145366004610ab8565b6102c5565b005b61014a61015a366004610aed565b6102fd565b34801561016b57600080fd5b5061017560035481565b604051908152602001610121565b34801561018f57600080fd5b506000546101a490600160a01b900460ff1681565b6040519015158152602001610121565b3480156101c057600080fd5b5061014a6101cf366004610b2f565b6104c4565b61014a6101e2366004610aed565b610571565b3480156101f357600080fd5b5061014a610610565b34801561020857600080fd5b5061014a610217366004610aed565b610646565b34801561022857600080fd5b506000546001600160a01b031661010d565b34801561024657600080fd5b5061017560025481565b34801561025c57600080fd5b5061014a61026b366004610ab8565b610698565b34801561027c57600080fd5b5061014a6106c7565b34801561029157600080fd5b5061014a6102a0366004610b62565b610712565b3480156102b157600080fd5b5061014a6102c0366004610b62565b6107ad565b6000546001600160a01b031633146102f85760405162461bcd60e51b81526004016102ef90610b7d565b60405180910390fd5b600355565b804281101561031e5760405162461bcd60e51b81526004016102ef90610bb2565b600054600160a01b900460ff16156103485760405162461bcd60e51b81526004016102ef90610be9565b610354853330866107f9565b6000610378620186a06103726003548761092990919063ffffffff16565b9061093c565b905060025481116103cb5760405162461bcd60e51b815260206004820152601b60248201527f6c6f776572207468616e206d696e616c2066656520616d6f756e74000000000060448201526064016102ef565b6001546103e39087906001600160a01b031683610948565b600154604051634ed8c94560e11b81526001600160a01b0388811660048301526024820184905290911690639db1928a906044016020604051808303816000875af1158015610436573d6000803e3d6000fd5b505050506040513d601f19601f8201168201806040525081019061045a9190610c20565b5061046f868661046a8785610a5c565b610948565b856001600160a01b0316856001600160a01b03167f5548c837ab068cf56a2c2479df0882a4922fd203edb7517321831d95078c5f62866040516104b491815260200190565b60405180910390a3505050505050565b6000546001600160a01b031633146104ee5760405162461bcd60e51b81526004016102ef90610b7d565b6040516370a0823160e01b81523060048201526000906001600160a01b038416906370a0823190602401602060405180830381865afa158015610535573d6000803e3d6000fd5b505050506040513d601f19601f820116820180604052508101906105599190610c20565b9050801561056c5761056c838383610948565b505050565b80428110156105925760405162461bcd60e51b81526004016102ef90610bb2565b600054600160a01b900460ff16156105bc5760405162461bcd60e51b81526004016102ef90610be9565b846001600160a01b0316846001600160a01b03167f5548c837ab068cf56a2c2479df0882a4922fd203edb7517321831d95078c5f628560405161060191815260200190565b60405180910390a35050505050565b6000546001600160a01b0316331461063a5760405162461bcd60e51b81526004016102ef90610b7d565b6106446000610a68565b565b80428110156106675760405162461bcd60e51b81526004016102ef90610bb2565b600054600160a01b900460ff16156106915760405162461bcd60e51b81526004016102ef90610be9565b5050505050565b6000546001600160a01b031633146106c25760405162461bcd60e51b81526004016102ef90610b7d565b600255565b6000546001600160a01b031633146106f15760405162461bcd60e51b81526004016102ef90610b7d565b6000805460ff60a01b198116600160a01b9182900460ff1615909102179055565b6000546001600160a01b0316331461073c5760405162461bcd60e51b81526004016102ef90610b7d565b6001600160a01b0381166107a15760405162461bcd60e51b815260206004820152602660248201527f4f776e61626c653a206e6577206f776e657220697320746865207a65726f206160448201526564647265737360d01b60648201526084016102ef565b6107aa81610a68565b50565b6000546001600160a01b031633146107d75760405162461bcd60e51b81526004016102ef90610b7d565b600180546001600160a01b0319166001600160a01b0392909216919091179055565b604080516001600160a01b0385811660248301528481166044830152606480830185905283518084039091018152608490920183526020820180516001600160e01b03166323b872dd60e01b179052915160009283929088169161085d9190610c39565b6000604051808303816000865af19150503d806000811461089a576040519150601f19603f3d011682016040523d82523d6000602084013e61089f565b606091505b50915091508180156108c95750805115806108c95750808060200190518101906108c99190610c74565b6109215760405162461bcd60e51b8152602060048201526024808201527f5472616e7366657248656c7065723a205452414e534645525f46524f4d5f46416044820152631253115160e21b60648201526084016102ef565b505050505050565b60006109358284610cac565b9392505050565b60006109358284610ccb565b604080516001600160a01b038481166024830152604480830185905283518084039091018152606490920183526020820180516001600160e01b031663a9059cbb60e01b17905291516000928392908716916109a49190610c39565b6000604051808303816000865af19150503d80600081146109e1576040519150601f19603f3d011682016040523d82523d6000602084013e6109e6565b606091505b5091509150818015610a10575080511580610a10575080806020019051810190610a109190610c74565b6106915760405162461bcd60e51b815260206004820152601f60248201527f5472616e7366657248656c7065723a205452414e534645525f4641494c45440060448201526064016102ef565b60006109358284610ced565b600080546001600160a01b038381166001600160a01b0319831681178455604051919092169283917f8be0079c531659141344cd1fd0a4f28419497f9722a3daafe3b4186f6b6457e09190a35050565b600060208284031215610aca57600080fd5b5035919050565b80356001600160a01b0381168114610ae857600080fd5b919050565b60008060008060808587031215610b0357600080fd5b610b0c85610ad1565b9350610b1a60208601610ad1565b93969395505050506040820135916060013590565b60008060408385031215610b4257600080fd5b610b4b83610ad1565b9150610b5960208401610ad1565b90509250929050565b600060208284031215610b7457600080fd5b61093582610ad1565b6020808252818101527f4f776e61626c653a2063616c6c6572206973206e6f7420746865206f776e6572604082015260600190565b60208082526018908201527f556e69737761705632526f757465723a20455850495245440000000000000000604082015260600190565b60208082526019908201527f4d696e696e6720686173206265656e2073757370656e64656400000000000000604082015260600190565b600060208284031215610c3257600080fd5b5051919050565b6000825160005b81811015610c5a5760208186018101518583015201610c40565b81811115610c69576000828501525b509190910192915050565b600060208284031215610c8657600080fd5b8151801515811461093557600080fd5b634e487b7160e01b600052601160045260246000fd5b6000816000190483118215151615610cc657610cc6610c96565b500290565b600082610ce857634e487b7160e01b600052601260045260246000fd5b500490565b600082821015610cff57610cff610c96565b50039056fea26469706673582212201c67146216ff4b37bdf9cf44dff3e3f836668fbf99320088dd7193590e2cc42464736f6c634300080a0033",
  "linkReferences": {},
  "deployedLinkReferences": {}
}