{
  "_format": "hh-sol-artifact-1",
  "contractName": "Repurchase",
  "sourceName": "contracts/maxity/impl/Repurchase.sol",
  "abi": [
    {
      "inputs": [
        {
          "internalType": "address",
          "name": "_emergencyAddress",
          "type": "address"
        },
        {
          "internalType": "address",
          "name": "_masterChef",
          "type": "address"
        }
      ],
      "stateMutability": "nonpayable",
      "type": "constructor"
    },
    {
      "anonymous": false,
      "inputs": [
        {
          "indexed": true,
          "internalType": "address",
          "name": "previousOwner",
          "type": "address"
        },
        {
          "indexed": true,
          "internalType": "address",
          "name": "newOwner",
          "type": "address"
        }
      ],
      "name": "OwnershipTransferred",
      "type": "event"
    },
    {
      "anonymous": false,
      "inputs": [
        {
          "indexed": false,
          "internalType": "uint256",
          "name": "amountHalf",
          "type": "uint256"
        },
        {
          "indexed": false,
          "internalType": "uint256",
          "name": "amountHole",
          "type": "uint256"
        },
        {
          "indexed": false,
          "internalType": "uint256",
          "name": "amountDao",
          "type": "uint256"
        }
      ],
      "name": "RepurchaseSwap",
      "type": "event"
    },
    {
      "inputs": [],
      "name": "BASECOIN",
      "outputs": [
        {
          "internalType": "address",
          "name": "",
          "type": "address"
        }
      ],
      "stateMutability": "view",
      "type": "function"
    },
    {
      "inputs": [],
      "name": "DAOAddress",
      "outputs": [
        {
          "internalType": "address",
          "name": "",
          "type": "address"
        }
      ],
      "stateMutability": "view",
      "type": "function"
    },
    {
      "inputs": [],
      "name": "PAIR",
      "outputs": [
        {
          "internalType": "address",
          "name": "",
          "type": "address"
        }
      ],
      "stateMutability": "view",
      "type": "function"
    },
    {
      "inputs": [],
      "name": "REWARDTOKEN",
      "outputs": [
        {
          "internalType": "address",
          "name": "",
          "type": "address"
        }
      ],
      "stateMutability": "view",
      "type": "function"
    },
    {
      "inputs": [
        {
          "internalType": "address",
          "name": "_newCaller",
          "type": "address"
        }
      ],
      "name": "addCaller",
      "outputs": [
        {
          "internalType": "bool",
          "name": "",
          "type": "bool"
        }
      ],
      "stateMutability": "nonpayable",
      "type": "function"
    },
    {
      "inputs": [],
      "name": "blackHoleAddress",
      "outputs": [
        {
          "internalType": "address",
          "name": "",
          "type": "address"
        }
      ],
      "stateMutability": "view",
      "type": "function"
    },
    {
      "inputs": [
        {
          "internalType": "address",
          "name": "_delCaller",
          "type": "address"
        }
      ],
      "name": "delCaller",
      "outputs": [
        {
          "internalType": "bool",
          "name": "",
          "type": "bool"
        }
      ],
      "stateMutability": "nonpayable",
      "type": "function"
    },
    {
      "inputs": [],
      "name": "emergencyAddress",
      "outputs": [
        {
          "internalType": "address",
          "name": "",
          "type": "address"
        }
      ],
      "stateMutability": "view",
      "type": "function"
    },
    {
      "inputs": [
        {
          "internalType": "uint256",
          "name": "amount",
          "type": "uint256"
        }
      ],
      "name": "emergencyNative",
      "outputs": [],
      "stateMutability": "nonpayable",
      "type": "function"
    },
    {
      "inputs": [
        {
          "internalType": "address",
          "name": "_token",
          "type": "address"
        }
      ],
      "name": "emergencyWithdraw",
      "outputs": [],
      "stateMutability": "nonpayable",
      "type": "function"
    },
    {
      "inputs": [
        {
          "internalType": "uint256",
          "name": "_index",
          "type": "uint256"
        }
      ],
      "name": "getCaller",
      "outputs": [
        {
          "internalType": "address",
          "name": "",
          "type": "address"
        }
      ],
      "stateMutability": "view",
      "type": "function"
    },
    {
      "inputs": [],
      "name": "getCallerLength",
      "outputs": [
        {
          "internalType": "uint256",
          "name": "",
          "type": "uint256"
        }
      ],
      "stateMutability": "view",
      "type": "function"
    },
    {
      "inputs": [
        {
          "internalType": "address",
          "name": "_call",
          "type": "address"
        }
      ],
      "name": "isCaller",
      "outputs": [
        {
          "internalType": "bool",
          "name": "",
          "type": "bool"
        }
      ],
      "stateMutability": "view",
      "type": "function"
    },
    {
      "inputs": [],
      "name": "masterChef",
      "outputs": [
        {
          "internalType": "contract IMasterChef",
          "name": "",
          "type": "address"
        }
      ],
      "stateMutability": "view",
      "type": "function"
    },
    {
      "inputs": [],
      "name": "owner",
      "outputs": [
        {
          "internalType": "address",
          "name": "",
          "type": "address"
        }
      ],
      "stateMutability": "view",
      "type": "function"
    },
    {
      "inputs": [],
      "name": "renounceOwnership",
      "outputs": [],
      "stateMutability": "nonpayable",
      "type": "function"
    },
    {
      "inputs": [
        {
          "internalType": "address",
          "name": "_newAddress",
          "type": "address"
        }
      ],
      "name": "setEmergencyAddress",
      "outputs": [],
      "stateMutability": "nonpayable",
      "type": "function"
    },
    {
      "inputs": [
        {
          "internalType": "address",
          "name": "_masterChef",
          "type": "address"
        }
      ],
      "name": "setMasterChef",
      "outputs": [],
      "stateMutability": "nonpayable",
      "type": "function"
    },
    {
      "inputs": [],
      "name": "swap",
      "outputs": [
        {
          "internalType": "uint256",
          "name": "amountIn",
          "type": "uint256"
        },
        {
          "internalType": "uint256",
          "name": "amountOut",
          "type": "uint256"
        }
      ],
      "stateMutability": "nonpayable",
      "type": "function"
    },
    {
      "inputs": [],
      "name": "swapV",
      "outputs": [
        {
          "internalType": "uint256",
          "name": "amountOut",
          "type": "uint256"
        }
      ],
      "stateMutability": "view",
      "type": "function"
    },
    {
      "inputs": [
        {
          "internalType": "address",
          "name": "newOwner",
          "type": "address"
        }
      ],
      "name": "transferOwnership",
      "outputs": [],
      "stateMutability": "nonpayable",
      "type": "function"
    }
  ],
  "bytecode": "0x60806040523480156200001157600080fd5b50604051620018f6380380620018f6833981016040819052620000349162000120565b6200003f33620000b3565b6001600160a01b0382166200008c5760405162461bcd60e51b815260206004820152600f60248201526e4973207a65726f206164647265737360881b604482015260640160405180910390fd5b600180546001600160a01b0319166001600160a01b03929092169190911790555062000158565b600080546001600160a01b038381166001600160a01b0319831681178455604051919092169283917f8be0079c531659141344cd1fd0a4f28419497f9722a3daafe3b4186f6b6457e09190a35050565b80516001600160a01b03811681146200011b57600080fd5b919050565b600080604083850312156200013457600080fd5b6200013f8362000103565b91506200014f6020840162000103565b90509250929050565b61178e80620001686000396000f3fe608060405234801561001057600080fd5b50600436106101375760003560e01c80637ac07dcc116100b8578063a8b0b3ed1161007c578063a8b0b3ed1461028d578063ace3a8a7146102a0578063cc2ca7a5146102bb578063d392eab1146102d6578063f2fde38b146102f1578063fddf3f731461030457600080fd5b80637ac07dcc1461021e5780638119c065146102315780638da5cb5b1461024e57806399f7db7d1461025f578063a2d9f4dc1461027a57600080fd5b80636ff1c9bc116100ff5780636ff1c9bc146101d5578063715018a6146101e857806372e9188b146101f0578063747293fb146102035780637708c8601461021657600080fd5b8063032c32fc1461013c578063231a418c146101745780632aa11ffb1461019757806342177a58146101ac578063575a86b2146101c2575b600080fd5b61015773baee9b65349929bd78f9878555bf78027df7f10181565b6040516001600160a01b0390911681526020015b60405180910390f35b6101876101823660046114cb565b610317565b604051901515815260200161016b565b6101aa6101a53660046114cb565b6103b4565b005b6101b4610448565b60405190815260200161016b565b600154610157906001600160a01b031681565b6101aa6101e33660046114cb565b610459565b6101aa61062a565b6101aa6101fe3660046114f4565b610660565b6101876102113660046114cb565b610697565b6101b4610723565b61018761022c3660046114cb565b610886565b610239610893565b6040805192835260208301919091520161016b565b6000546001600160a01b0316610157565b61015773456d9efa4f8039de66c8fd4a6d22953d33c6977d81565b6101aa6102883660046114cb565b610dbe565b61015761029b3660046114f4565b610e0a565b610157737461714666ee7f2ef82c04a58d2c8c16ca0e6d8f81565b610157732d6e6a6430f0121d6949d743df54730b40c5c74f81565b610157730ef67c16904af312796560df80e60581c43c4e2481565b6101aa6102ff3660046114cb565b610e70565b600454610157906001600160a01b031681565b600080546001600160a01b0316331461034b5760405162461bcd60e51b81526004016103429061150d565b60405180910390fd5b6001600160a01b0382166103a15760405162461bcd60e51b815260206004820152601d60248201527f44656c43616c6c657220697320746865207a65726f20616464726573730000006044820152606401610342565b6103ac600283610f08565b90505b919050565b6000546001600160a01b031633146103de5760405162461bcd60e51b81526004016103429061150d565b6001600160a01b0381166104265760405162461bcd60e51b815260206004820152600f60248201526e4973207a65726f206164647265737360881b6044820152606401610342565b600480546001600160a01b0319166001600160a01b0392909216919091179055565b60006104546002610f26565b905090565b6000546001600160a01b031633146104835760405162461bcd60e51b81526004016103429061150d565b6040516370a0823160e01b81523060048201526000906001600160a01b038316906370a0823190602401602060405180830381865afa1580156104ca573d6000803e3d6000fd5b505050506040513d601f19601f820116820180604052508101906104ee9190611542565b1161053b5760405162461bcd60e51b815260206004820152601d60248201527f496e73756666696369656e7420636f6e74726163742062616c616e63650000006044820152606401610342565b600480546040516370a0823160e01b815230928101929092526001600160a01b038381169263a9059cbb92919091169083906370a0823190602401602060405180830381865afa158015610593573d6000803e3d6000fd5b505050506040513d601f19601f820116820180604052508101906105b79190611542565b6040516001600160e01b031960e085901b1681526001600160a01b03909216600483015260248201526044016020604051808303816000875af1158015610602573d6000803e3d6000fd5b505050506040513d601f19601f82011682018060405250810190610626919061155b565b5050565b6000546001600160a01b031633146106545760405162461bcd60e51b81526004016103429061150d565b61065e6000610f30565b565b6000546001600160a01b0316331461068a5760405162461bcd60e51b81526004016103429061150d565b6106943382610f80565b50565b600080546001600160a01b031633146106c25760405162461bcd60e51b81526004016103429061150d565b6001600160a01b0382166107185760405162461bcd60e51b815260206004820152601d60248201527f4e657743616c6c657220697320746865207a65726f20616464726573730000006044820152606401610342565b6103ac600283611051565b6040516370a0823160e01b8152306004820152600090819073baee9b65349929bd78f9878555bf78027df7f101906370a0823190602401602060405180830381865afa158015610777573d6000803e3d6000fd5b505050506040513d601f19601f8201168201806040525081019061079b9190611542565b905060006107aa826002611066565b9050600080737461714666ee7f2ef82c04a58d2c8c16ca0e6d8f6001600160a01b0316630902f1ac6040518163ffffffff1660e01b8152600401606060405180830381865afa158015610801573d6000803e3d6000fd5b505050506040513d601f19601f820116820180604052508101906108259190611594565b506001600160701b0391821693501690506000610844846126f7611072565b905061085c8161085684612710611072565b9061107e565b6108728461086c876126f7611072565b90611072565b61087c91906115fa565b9550505050505090565b60006103ac60028361108a565b60008061089f33610886565b6108dc5760405162461bcd60e51b815260206004820152600e60248201526d2737ba103a34329031b0b63632b960911b6044820152606401610342565b6040516370a0823160e01b815230600482015260009073baee9b65349929bd78f9878555bf78027df7f101906370a0823190602401602060405180830381865afa15801561092e573d6000803e3d6000fd5b505050506040513d601f19601f820116820180604052508101906109529190611542565b600154604051630441a3e760e41b815260006004820181905260248201529192506001600160a01b03169063441a3e7090604401600060405180830381600087803b1580156109a057600080fd5b505af11580156109b4573d6000803e3d6000fd5b50506040516370a0823160e01b81523060048201526000925073baee9b65349929bd78f9878555bf78027df7f10191506370a0823190602401602060405180830381865afa158015610a0a573d6000803e3d6000fd5b505050506040513d601f19601f82011682018060405250810190610a2e9190611542565b9050610a3a828261161c565b93508315610db8576000610a4f856002611066565b905060008080737461714666ee7f2ef82c04a58d2c8c16ca0e6d8f6001600160a01b0316630902f1ac6040518163ffffffff1660e01b8152600401606060405180830381865afa158015610aa7573d6000803e3d6000fd5b505050506040513d601f19601f82011682018060405250810190610acb9190611594565b506001600160701b0391821693501690506000610aea856126f7611072565b9050610afc8161085685612710611072565b610b0c8361086c886126f7611072565b610b1691906115fa565b9750610b4b732d6e6a6430f0121d6949d743df54730b40c5c74f737461714666ee7f2ef82c04a58d2c8c16ca0e6d8f876110ac565b604080516000808252602082019283905263022c0d9f60e01b909252737461714666ee7f2ef82c04a58d2c8c16ca0e6d8f9163022c0d9f91610ba991908c9073456d9efa4f8039de66c8fd4a6d22953d33c6977d906024810161168f565b600060405180830381600087803b158015610bc357600080fd5b505af1158015610bd7573d6000803e3d6000fd5b50505050879350505050600080737461714666ee7f2ef82c04a58d2c8c16ca0e6d8f6001600160a01b0316630902f1ac6040518163ffffffff1660e01b8152600401606060405180830381865afa158015610c36573d6000803e3d6000fd5b505050506040513d601f19601f82011682018060405250810190610c5a9190611594565b506001600160701b0391821693501690506000610c79856126f7611072565b9050610c8b8161085685612710611072565b610c9b8361086c886126f7611072565b610ca591906115fa565b9750610cda732d6e6a6430f0121d6949d743df54730b40c5c74f737461714666ee7f2ef82c04a58d2c8c16ca0e6d8f876110ac565b604080516000808252602082019283905263022c0d9f60e01b909252737461714666ee7f2ef82c04a58d2c8c16ca0e6d8f9163022c0d9f91610d3891908c90730ef67c16904af312796560df80e60581c43c4e24906024810161168f565b600060405180830381600087803b158015610d5257600080fd5b505af1158015610d66573d6000803e3d6000fd5b505060408051888152602081018890529081018b90527f44ab2708594fdf96f971bb3db4ba71f2922075c08b85451b199e36699e4c26d195506060019350610dad92505050565b60405180910390a150505b50509091565b6000546001600160a01b03163314610de85760405162461bcd60e51b81526004016103429061150d565b600180546001600160a01b0319166001600160a01b0392909216919091179055565b60006001610e16610448565b610e20919061161c565b821115610e655760405162461bcd60e51b8152602060048201526013602482015272696e646578206f7574206f6620626f756e647360681b6044820152606401610342565b6103ac6002836110fe565b6000546001600160a01b03163314610e9a5760405162461bcd60e51b81526004016103429061150d565b6001600160a01b038116610eff5760405162461bcd60e51b815260206004820152602660248201527f4f776e61626c653a206e6577206f776e657220697320746865207a65726f206160448201526564647265737360d01b6064820152608401610342565b61069481610f30565b6000610f1d836001600160a01b03841661110a565b90505b92915050565b60006103ac825490565b600080546001600160a01b038381166001600160a01b0319831681178455604051919092169283917f8be0079c531659141344cd1fd0a4f28419497f9722a3daafe3b4186f6b6457e09190a35050565b604080516000808252602082019092526001600160a01b038416908390604051610faa91906116c6565b60006040518083038185875af1925050503d8060008114610fe7576040519150601f19603f3d011682016040523d82523d6000602084013e610fec565b606091505b505090508061104c5760405162461bcd60e51b815260206004820152602660248201527f5472616e7366657248656c7065723a204e61746976655f5452414e534645525f60448201526511905253115160d21b6064820152608401610342565b505050565b6000610f1d836001600160a01b0384166111fd565b6000610f1d82846115fa565b6000610f1d82846116e2565b6000610f1d8284611701565b6001600160a01b03811660009081526001830160205260408120541515610f1d565b604080516001600160a01b038416602482015260448082018490528251808303909101815260649091019091526020810180516001600160e01b031663a9059cbb60e01b17905261104c90849061124c565b6000610f1d838361131e565b600081815260018301602052604081205480156111f357600061112e60018361161c565b85549091506000906111429060019061161c565b90508181146111a757600086600001828154811061116257611162611719565b906000526020600020015490508087600001848154811061118557611185611719565b6000918252602080832090910192909255918252600188019052604090208390555b85548690806111b8576111b861172f565b600190038181906000526020600020016000905590558560010160008681526020019081526020016000206000905560019350505050610f20565b6000915050610f20565b600081815260018301602052604081205461124457508154600181810184556000848152602080822090930184905584548482528286019093526040902091909155610f20565b506000610f20565b60006112a1826040518060400160405280602081526020017f5361666545524332303a206c6f772d6c6576656c2063616c6c206661696c6564815250856001600160a01b03166113489092919063ffffffff16565b80519091501561104c57808060200190518101906112bf919061155b565b61104c5760405162461bcd60e51b815260206004820152602a60248201527f5361666545524332303a204552433230206f7065726174696f6e20646964206e6044820152691bdd081cdd58d8d9595960b21b6064820152608401610342565b600082600001828154811061133557611335611719565b9060005260206000200154905092915050565b60606113578484600085611361565b90505b9392505050565b6060824710156113c25760405162461bcd60e51b815260206004820152602660248201527f416464726573733a20696e73756666696369656e742062616c616e636520666f6044820152651c8818d85b1b60d21b6064820152608401610342565b6001600160a01b0385163b6114195760405162461bcd60e51b815260206004820152601d60248201527f416464726573733a2063616c6c20746f206e6f6e2d636f6e74726163740000006044820152606401610342565b600080866001600160a01b0316858760405161143591906116c6565b60006040518083038185875af1925050503d8060008114611472576040519150601f19603f3d011682016040523d82523d6000602084013e611477565b606091505b5091509150611487828286611492565b979650505050505050565b606083156114a157508161135a565b8251156114b15782518084602001fd5b8160405162461bcd60e51b81526004016103429190611745565b6000602082840312156114dd57600080fd5b81356001600160a01b038116811461135a57600080fd5b60006020828403121561150657600080fd5b5035919050565b6020808252818101527f4f776e61626c653a2063616c6c6572206973206e6f7420746865206f776e6572604082015260600190565b60006020828403121561155457600080fd5b5051919050565b60006020828403121561156d57600080fd5b8151801515811461135a57600080fd5b80516001600160701b03811681146103af57600080fd5b6000806000606084860312156115a957600080fd5b6115b28461157d565b92506115c06020850161157d565b9150604084015163ffffffff811681146115d957600080fd5b809150509250925092565b634e487b7160e01b600052601160045260246000fd5b60008261161757634e487b7160e01b600052601260045260246000fd5b500490565b60008282101561162e5761162e6115e4565b500390565b60005b8381101561164e578181015183820152602001611636565b8381111561165d576000848401525b50505050565b6000815180845261167b816020860160208601611633565b601f01601f19169290920160200192915050565b84815283602082015260018060a01b03831660408201526080606082015260006116bc6080830184611663565b9695505050505050565b600082516116d8818460208701611633565b9190910192915050565b60008160001904831182151516156116fc576116fc6115e4565b500290565b60008219821115611714576117146115e4565b500190565b634e487b7160e01b600052603260045260246000fd5b634e487b7160e01b600052603160045260246000fd5b602081526000610f1d602083018461166356fea2646970667358221220b3c3d17785af30e8dacb894201e76fdd4b7464dd40532ef4f3fe27837125780f64736f6c634300080a0033",
  "linkReferences": {},
  "deployedLinkReferences": {}
}