{
  "_format": "hh-sol-artifact-1",
  "contractName": "ReferencesStore",
  "sourceName": "contracts/maxity/impl/ReferencesStore.sol",
  "abi": [
    {
      "inputs": [],
      "stateMutability": "nonpayable",
      "type": "constructor"
    },
    {
      "anonymous": false,
      "inputs": [
        {
          "indexed": true,
          "internalType": "address",
          "name": "previousOwner",
          "type": "address"
        },
        {
          "indexed": true,
          "internalType": "address",
          "name": "newOwner",
          "type": "address"
        }
      ],
      "name": "OwnershipTransferred",
      "type": "event"
    },
    {
      "anonymous": false,
      "inputs": [
        {
          "indexed": false,
          "internalType": "address",
          "name": "user",
          "type": "address"
        },
        {
          "indexed": false,
          "internalType": "address",
          "name": "lastReference",
          "type": "address"
        },
        {
          "indexed": false,
          "internalType": "address",
          "name": "changeReference",
          "type": "address"
        },
        {
          "indexed": false,
          "internalType": "address",
          "name": "distributor",
          "type": "address"
        }
      ],
      "name": "ReferenceUpdate",
      "type": "event"
    },
    {
      "anonymous": false,
      "inputs": [
        {
          "indexed": false,
          "internalType": "address",
          "name": "_user",
          "type": "address"
        },
        {
          "indexed": false,
          "internalType": "address",
          "name": "_upper",
          "type": "address"
        },
        {
          "indexed": false,
          "internalType": "address",
          "name": "_distributor",
          "type": "address"
        }
      ],
      "name": "UserReference",
      "type": "event"
    },
    {
      "inputs": [
        {
          "internalType": "address",
          "name": "_addCaller",
          "type": "address"
        }
      ],
      "name": "addCaller",
      "outputs": [
        {
          "internalType": "bool",
          "name": "",
          "type": "bool"
        }
      ],
      "stateMutability": "nonpayable",
      "type": "function"
    },
    {
      "inputs": [
        {
          "internalType": "address",
          "name": "ref",
          "type": "address"
        },
        {
          "internalType": "address",
          "name": "upper",
          "type": "address"
        },
        {
          "internalType": "address",
          "name": "_distributor",
          "type": "address"
        }
      ],
      "name": "changeUpper",
      "outputs": [],
      "stateMutability": "nonpayable",
      "type": "function"
    },
    {
      "inputs": [
        {
          "internalType": "address",
          "name": "ref",
          "type": "address"
        },
        {
          "internalType": "address",
          "name": "check",
          "type": "address"
        }
      ],
      "name": "checkLoop",
      "outputs": [
        {
          "internalType": "bool",
          "name": "",
          "type": "bool"
        }
      ],
      "stateMutability": "view",
      "type": "function"
    },
    {
      "inputs": [
        {
          "internalType": "address",
          "name": "_delCaller",
          "type": "address"
        }
      ],
      "name": "delCaller",
      "outputs": [
        {
          "internalType": "bool",
          "name": "",
          "type": "bool"
        }
      ],
      "stateMutability": "nonpayable",
      "type": "function"
    },
    {
      "inputs": [
        {
          "internalType": "uint256",
          "name": "_index",
          "type": "uint256"
        }
      ],
      "name": "getCaller",
      "outputs": [
        {
          "internalType": "address",
          "name": "",
          "type": "address"
        }
      ],
      "stateMutability": "view",
      "type": "function"
    },
    {
      "inputs": [],
      "name": "getCallerLength",
      "outputs": [
        {
          "internalType": "uint256",
          "name": "",
          "type": "uint256"
        }
      ],
      "stateMutability": "view",
      "type": "function"
    },
    {
      "inputs": [
        {
          "internalType": "address",
          "name": "_user",
          "type": "address"
        }
      ],
      "name": "getUpper",
      "outputs": [
        {
          "internalType": "address",
          "name": "",
          "type": "address"
        }
      ],
      "stateMutability": "view",
      "type": "function"
    },
    {
      "inputs": [
        {
          "internalType": "address",
          "name": "_user",
          "type": "address"
        }
      ],
      "name": "getUserExtData",
      "outputs": [
        {
          "internalType": "bytes",
          "name": "",
          "type": "bytes"
        }
      ],
      "stateMutability": "view",
      "type": "function"
    },
    {
      "inputs": [
        {
          "internalType": "address",
          "name": "account",
          "type": "address"
        }
      ],
      "name": "isCaller",
      "outputs": [
        {
          "internalType": "bool",
          "name": "",
          "type": "bool"
        }
      ],
      "stateMutability": "view",
      "type": "function"
    },
    {
      "inputs": [],
      "name": "owner",
      "outputs": [
        {
          "internalType": "address",
          "name": "",
          "type": "address"
        }
      ],
      "stateMutability": "view",
      "type": "function"
    },
    {
      "inputs": [],
      "name": "renounceOwnership",
      "outputs": [],
      "stateMutability": "nonpayable",
      "type": "function"
    },
    {
      "inputs": [
        {
          "internalType": "bytes",
          "name": "_extdata",
          "type": "bytes"
        }
      ],
      "name": "setExtData",
      "outputs": [],
      "stateMutability": "nonpayable",
      "type": "function"
    },
    {
      "inputs": [
        {
          "internalType": "address",
          "name": "_user",
          "type": "address"
        },
        {
          "internalType": "address",
          "name": "upper",
          "type": "address"
        },
        {
          "internalType": "address",
          "name": "distributor",
          "type": "address"
        },
        {
          "internalType": "bytes",
          "name": "_extdata",
          "type": "bytes"
        }
      ],
      "name": "setUpper",
      "outputs": [
        {
          "internalType": "bool",
          "name": "",
          "type": "bool"
        }
      ],
      "stateMutability": "nonpayable",
      "type": "function"
    },
    {
      "inputs": [
        {
          "internalType": "address",
          "name": "_user",
          "type": "address"
        },
        {
          "internalType": "bytes",
          "name": "_extdata",
          "type": "bytes"
        }
      ],
      "name": "setUserExtData",
      "outputs": [],
      "stateMutability": "nonpayable",
      "type": "function"
    },
    {
      "inputs": [
        {
          "internalType": "address",
          "name": "newOwner",
          "type": "address"
        }
      ],
      "name": "transferOwnership",
      "outputs": [],
      "stateMutability": "nonpayable",
      "type": "function"
    },
    {
      "inputs": [
        {
          "internalType": "address",
          "name": "",
          "type": "address"
        }
      ],
      "name": "userDistributors",
      "outputs": [
        {
          "internalType": "address",
          "name": "",
          "type": "address"
        }
      ],
      "stateMutability": "view",
      "type": "function"
    },
    {
      "inputs": [
        {
          "internalType": "address",
          "name": "",
          "type": "address"
        }
      ],
      "name": "userInfo",
      "outputs": [
        {
          "internalType": "address",
          "name": "upper",
          "type": "address"
        },
        {
          "internalType": "bytes",
          "name": "extdata",
          "type": "bytes"
        },
        {
          "internalType": "uint256",
          "name": "joinTimeStamp",
          "type": "uint256"
        }
      ],
      "stateMutability": "view",
      "type": "function"
    }
  ],
  "bytecode": "0x608060405234801561001057600080fd5b5061001a3361001f565b61006f565b600080546001600160a01b038381166001600160a01b0319831681178455604051919092169283917f8be0079c531659141344cd1fd0a4f28419497f9722a3daafe3b4186f6b6457e09190a35050565b6111948061007e6000396000f3fe608060405234801561001057600080fd5b506004361061010b5760003560e01c8063715018a6116100a25780639a68b847116100715780639a68b8471461025b578063a8b0b3ed1461027b578063c02146d31461028e578063d0724b4f146102a1578063f2fde38b146102b457600080fd5b8063715018a61461021c578063747293fb146102245780637ac07dcc146102375780638da5cb5b1461024a57600080fd5b80633bf880f3116100de5780633bf880f31461018657806341b5ff001461019957806342177a58146101dd5780636adca046146101f357600080fd5b806312717d87146101105780631959a00214610125578063231a418c146101505780633a9c716614610173575b600080fd5b61012361011e366004610e6d565b6102c7565b005b610138610133366004610ebb565b610352565b60405161014793929190610f23565b60405180910390f35b61016361015e366004610ebb565b610407565b6040519015158152602001610147565b610123610181366004610f57565b6104ae565b610163610194366004610f8c565b61051c565b6101c56101a7366004610ebb565b6001600160a01b039081166000908152600360205260409020541690565b6040516001600160a01b039091168152602001610147565b6101e56106b1565b604051908152602001610147565b6101c5610201366004610ebb565b6004602052600090815260409020546001600160a01b031681565b6101236106c2565b610163610232366004610ebb565b6106f8565b610163610245366004610ebb565b610797565b6000546001600160a01b03166101c5565b61026e610269366004610ebb565b6107a4565b6040516101479190610ffb565b6101c561028936600461100e565b610856565b61016361029c366004611027565b6108ef565b6101236102af36600461105a565b61095c565b6101236102c2366004610ebb565b610a5a565b6102d033610797565b61031c5760405162461bcd60e51b815260206004820152601860248201527731b0b63632b91034b9903737ba103a34329021b0b63632b960411b60448201526064015b60405180910390fd5b6001600160a01b03821660009081526003602090815260409091208251909161034c916001840191850190610d1a565b50505050565b600360205260009081526040902080546001820180546001600160a01b03909216929161037e9061109d565b80601f01602080910402602001604051908101604052809291908181526020018280546103aa9061109d565b80156103f75780601f106103cc576101008083540402835291602001916103f7565b820191906000526020600020905b8154815290600101906020018083116103da57829003601f168201915b5050505050908060020154905083565b600080546001600160a01b031633146104325760405162461bcd60e51b8152600401610313906110d8565b6001600160a01b03821661049b5760405162461bcd60e51b815260206004820152602a60248201527f5265666572656e6365733a205f64656c43616c6c657220697320746865207a65604482015269726f206164647265737360b01b6064820152608401610313565b6104a6600183610af5565b90505b919050565b33600090815260036020526040902060028101546105025760405162461bcd60e51b81526020600482015260116024820152703ab9b2b9103737ba103932b3b4b9ba32b960791b6044820152606401610313565b81516105179060018301906020850190610d1a565b505050565b600061052733610797565b61056e5760405162461bcd60e51b815260206004820152601860248201527731b0b63632b91034b9903737ba103a34329021b0b63632b960411b6044820152606401610313565b6001600160a01b03808616600090815260036020526040902080549091161561059b5760009150506106a9565b6001600160a01b038516156105e3576105b485876108ef565b156105e3576001600160a01b038516600090815260036020526040902060028101546105e1574260028201555b505b80546001600160a01b0319166001600160a01b03861617815542600282015582516106179060018301906020860190610d1a565b506001600160a01b03841615610656576001600160a01b03868116600090815260046020526040902080546001600160a01b0319169186169190911790555b8054604080516001600160a01b038981168252928316602082015291861682820152517f831f97376001b9845a9c6c912ffa15aa9ecaf22ac1bd7f74d4d62448ba490b7c9181900360600190a160019150505b949350505050565b60006106bd6001610b11565b905090565b6000546001600160a01b031633146106ec5760405162461bcd60e51b8152600401610313906110d8565b6106f66000610b1b565b565b600080546001600160a01b031633146107235760405162461bcd60e51b8152600401610313906110d8565b6001600160a01b03821661078c5760405162461bcd60e51b815260206004820152602a60248201527f5265666572656e6365733a205f61646443616c6c657220697320746865207a65604482015269726f206164647265737360b01b6064820152608401610313565b6104a6600183610b6b565b60006104a6600183610b80565b6001600160a01b038116600090815260036020526040902060018101805460609291906107d09061109d565b80601f01602080910402602001604051908101604052809291908181526020018280546107fc9061109d565b80156108495780601f1061081e57610100808354040283529160200191610849565b820191906000526020600020905b81548152906001019060200180831161082c57829003601f168201915b5050505050915050919050565b600080546001600160a01b031633146108815760405162461bcd60e51b8152600401610313906110d8565b600161088b6106b1565b610895919061110d565b8211156108e45760405162461bcd60e51b815260206004820152601f60248201527f5265666572656e6365733a20696e646578206f7574206f6620626f756e6473006044820152606401610313565b6104a6600183610ba2565b6001600160a01b03808316600090815260036020526040812080549192909181169084161415610923576000915050610956565b80546001600160a01b031615610950578054610948906001600160a01b0316846108ef565b915050610956565b60019150505b92915050565b6000546001600160a01b031633146109865760405162461bcd60e51b8152600401610313906110d8565b6001600160a01b038084166000908152600360205260409020908316156109dc576109b183856108ef565b506001600160a01b038316600090815260036020526040902060028101546109da574260028201555b505b8054604080516001600160a01b0387811682529283166020820152858316818301529184166060830152517fb02792afd8f2cb0405a1d00294880c09a1f7f71664f7916ed62089dc6533558f9181900360800190a180546001600160a01b0319166001600160a01b0393909316929092178255504260029091015550565b6000546001600160a01b03163314610a845760405162461bcd60e51b8152600401610313906110d8565b6001600160a01b038116610ae95760405162461bcd60e51b815260206004820152602660248201527f4f776e61626c653a206e6577206f776e657220697320746865207a65726f206160448201526564647265737360d01b6064820152608401610313565b610af281610b1b565b50565b6000610b0a836001600160a01b038416610bae565b9392505050565b60006104a6825490565b600080546001600160a01b038381166001600160a01b0319831681178455604051919092169283917f8be0079c531659141344cd1fd0a4f28419497f9722a3daafe3b4186f6b6457e09190a35050565b6000610b0a836001600160a01b038416610ca1565b6001600160a01b03811660009081526001830160205260408120541515610b0a565b6000610b0a8383610cf0565b60008181526001830160205260408120548015610c97576000610bd260018361110d565b8554909150600090610be69060019061110d565b9050818114610c4b576000866000018281548110610c0657610c06611132565b9060005260206000200154905080876000018481548110610c2957610c29611132565b6000918252602080832090910192909255918252600188019052604090208390555b8554869080610c5c57610c5c611148565b600190038181906000526020600020016000905590558560010160008681526020019081526020016000206000905560019350505050610956565b6000915050610956565b6000818152600183016020526040812054610ce857508154600181810184556000848152602080822090930184905584548482528286019093526040902091909155610956565b506000610956565b6000826000018281548110610d0757610d07611132565b9060005260206000200154905092915050565b828054610d269061109d565b90600052602060002090601f016020900481019282610d485760008555610d8e565b82601f10610d6157805160ff1916838001178555610d8e565b82800160010185558215610d8e579182015b82811115610d8e578251825591602001919060010190610d73565b50610d9a929150610d9e565b5090565b5b80821115610d9a5760008155600101610d9f565b80356001600160a01b03811681146104a957600080fd5b634e487b7160e01b600052604160045260246000fd5b600082601f830112610df157600080fd5b813567ffffffffffffffff80821115610e0c57610e0c610dca565b604051601f8301601f19908116603f01168101908282118183101715610e3457610e34610dca565b81604052838152866020858801011115610e4d57600080fd5b836020870160208301376000602085830101528094505050505092915050565b60008060408385031215610e8057600080fd5b610e8983610db3565b9150602083013567ffffffffffffffff811115610ea557600080fd5b610eb185828601610de0565b9150509250929050565b600060208284031215610ecd57600080fd5b610b0a82610db3565b6000815180845260005b81811015610efc57602081850181015186830182015201610ee0565b81811115610f0e576000602083870101525b50601f01601f19169290920160200192915050565b6001600160a01b0384168152606060208201819052600090610f4790830185610ed6565b9050826040830152949350505050565b600060208284031215610f6957600080fd5b813567ffffffffffffffff811115610f8057600080fd5b6106a984828501610de0565b60008060008060808587031215610fa257600080fd5b610fab85610db3565b9350610fb960208601610db3565b9250610fc760408601610db3565b9150606085013567ffffffffffffffff811115610fe357600080fd5b610fef87828801610de0565b91505092959194509250565b602081526000610b0a6020830184610ed6565b60006020828403121561102057600080fd5b5035919050565b6000806040838503121561103a57600080fd5b61104383610db3565b915061105160208401610db3565b90509250929050565b60008060006060848603121561106f57600080fd5b61107884610db3565b925061108660208501610db3565b915061109460408501610db3565b90509250925092565b600181811c908216806110b157607f821691505b602082108114156110d257634e487b7160e01b600052602260045260246000fd5b50919050565b6020808252818101527f4f776e61626c653a2063616c6c6572206973206e6f7420746865206f776e6572604082015260600190565b60008282101561112d57634e487b7160e01b600052601160045260246000fd5b500390565b634e487b7160e01b600052603260045260246000fd5b634e487b7160e01b600052603160045260246000fdfea26469706673582212207b53ee9587a5ad55b26ecb9c1f7b0ec7a352300b7c11198e8a07875e76a0d9fe64736f6c634300080a0033",
  "linkReferences": {},
  "deployedLinkReferences": {}
}