{
  "_format": "hh-sol-artifact-1",
  "contractName": "MReferences",
  "sourceName": "contracts/maxity/impl/MReferences.sol",
  "abi": [
    {
      "inputs": [
        {
          "internalType": "address",
          "name": "_refStore",
          "type": "address"
        },
        {
          "internalType": "address",
          "name": "_rewardToken",
          "type": "address"
        },
        {
          "internalType": "uint256",
          "name": "_MaxRewardAmount",
          "type": "uint256"
        }
      ],
      "stateMutability": "nonpayable",
      "type": "constructor"
    },
    {
      "anonymous": false,
      "inputs": [
        {
          "indexed": true,
          "internalType": "address",
          "name": "user",
          "type": "address"
        },
        {
          "indexed": false,
          "internalType": "uint256",
          "name": "amount",
          "type": "uint256"
        }
      ],
      "name": "EmergencyWithdraw",
      "type": "event"
    },
    {
      "anonymous": false,
      "inputs": [
        {
          "indexed": true,
          "internalType": "address",
          "name": "previousOwner",
          "type": "address"
        },
        {
          "indexed": true,
          "internalType": "address",
          "name": "newOwner",
          "type": "address"
        }
      ],
      "name": "OwnershipTransferred",
      "type": "event"
    },
    {
      "anonymous": false,
      "inputs": [
        {
          "indexed": true,
          "internalType": "address",
          "name": "user",
          "type": "address"
        },
        {
          "indexed": false,
          "internalType": "uint256",
          "name": "amount",
          "type": "uint256"
        }
      ],
      "name": "RequestWithdraw",
      "type": "event"
    },
    {
      "anonymous": false,
      "inputs": [
        {
          "indexed": false,
          "internalType": "address",
          "name": "ref",
          "type": "address"
        },
        {
          "indexed": false,
          "internalType": "uint256",
          "name": "layer",
          "type": "uint256"
        },
        {
          "indexed": false,
          "internalType": "uint256",
          "name": "rewardAmount",
          "type": "uint256"
        },
        {
          "indexed": false,
          "internalType": "uint256",
          "name": "transferAmount",
          "type": "uint256"
        }
      ],
      "name": "RewardLayers",
      "type": "event"
    },
    {
      "anonymous": false,
      "inputs": [
        {
          "indexed": true,
          "internalType": "address",
          "name": "user",
          "type": "address"
        },
        {
          "indexed": false,
          "internalType": "uint256",
          "name": "amount",
          "type": "uint256"
        }
      ],
      "name": "Withdraw",
      "type": "event"
    },
    {
      "inputs": [],
      "name": "MaxRewardAmount",
      "outputs": [
        {
          "internalType": "uint256",
          "name": "",
          "type": "uint256"
        }
      ],
      "stateMutability": "view",
      "type": "function"
    },
    {
      "inputs": [],
      "name": "MaxRewardLayer",
      "outputs": [
        {
          "internalType": "uint256",
          "name": "",
          "type": "uint256"
        }
      ],
      "stateMutability": "view",
      "type": "function"
    },
    {
      "inputs": [
        {
          "internalType": "address",
          "name": "_addCaller",
          "type": "address"
        }
      ],
      "name": "addCaller",
      "outputs": [
        {
          "internalType": "bool",
          "name": "",
          "type": "bool"
        }
      ],
      "stateMutability": "nonpayable",
      "type": "function"
    },
    {
      "inputs": [
        {
          "internalType": "address",
          "name": "_delCaller",
          "type": "address"
        }
      ],
      "name": "delCaller",
      "outputs": [
        {
          "internalType": "bool",
          "name": "",
          "type": "bool"
        }
      ],
      "stateMutability": "nonpayable",
      "type": "function"
    },
    {
      "inputs": [
        {
          "internalType": "uint256",
          "name": "_index",
          "type": "uint256"
        }
      ],
      "name": "getCaller",
      "outputs": [
        {
          "internalType": "address",
          "name": "",
          "type": "address"
        }
      ],
      "stateMutability": "view",
      "type": "function"
    },
    {
      "inputs": [],
      "name": "getCallerLength",
      "outputs": [
        {
          "internalType": "uint256",
          "name": "",
          "type": "uint256"
        }
      ],
      "stateMutability": "view",
      "type": "function"
    },
    {
      "inputs": [
        {
          "internalType": "uint256[]",
          "name": "rewards",
          "type": "uint256[]"
        }
      ],
      "name": "initRewardTable",
      "outputs": [],
      "stateMutability": "nonpayable",
      "type": "function"
    },
    {
      "inputs": [
        {
          "internalType": "address",
          "name": "account",
          "type": "address"
        }
      ],
      "name": "isCaller",
      "outputs": [
        {
          "internalType": "bool",
          "name": "",
          "type": "bool"
        }
      ],
      "stateMutability": "view",
      "type": "function"
    },
    {
      "inputs": [],
      "name": "owner",
      "outputs": [
        {
          "internalType": "address",
          "name": "",
          "type": "address"
        }
      ],
      "stateMutability": "view",
      "type": "function"
    },
    {
      "inputs": [
        {
          "internalType": "address",
          "name": "_user",
          "type": "address"
        }
      ],
      "name": "pendingWithdraw",
      "outputs": [
        {
          "internalType": "uint256",
          "name": "",
          "type": "uint256"
        }
      ],
      "stateMutability": "view",
      "type": "function"
    },
    {
      "inputs": [],
      "name": "refStore",
      "outputs": [
        {
          "internalType": "contract IReferenceStore",
          "name": "",
          "type": "address"
        }
      ],
      "stateMutability": "view",
      "type": "function"
    },
    {
      "inputs": [],
      "name": "renounceOwnership",
      "outputs": [],
      "stateMutability": "nonpayable",
      "type": "function"
    },
    {
      "inputs": [],
      "name": "rewardBase",
      "outputs": [
        {
          "internalType": "uint256",
          "name": "",
          "type": "uint256"
        }
      ],
      "stateMutability": "view",
      "type": "function"
    },
    {
      "inputs": [
        {
          "internalType": "uint256",
          "name": "",
          "type": "uint256"
        }
      ],
      "name": "rewardFeeRatio",
      "outputs": [
        {
          "internalType": "uint256",
          "name": "",
          "type": "uint256"
        }
      ],
      "stateMutability": "view",
      "type": "function"
    },
    {
      "inputs": [],
      "name": "rewardToken",
      "outputs": [
        {
          "internalType": "contract IMintableToken",
          "name": "",
          "type": "address"
        }
      ],
      "stateMutability": "view",
      "type": "function"
    },
    {
      "inputs": [
        {
          "internalType": "address",
          "name": "ref",
          "type": "address"
        },
        {
          "internalType": "uint256",
          "name": "amount",
          "type": "uint256"
        }
      ],
      "name": "rewardUpper",
      "outputs": [
        {
          "internalType": "uint256",
          "name": "mintAmount",
          "type": "uint256"
        }
      ],
      "stateMutability": "nonpayable",
      "type": "function"
    },
    {
      "inputs": [
        {
          "internalType": "uint256",
          "name": "_MaxRewardAmount",
          "type": "uint256"
        }
      ],
      "name": "setMaxRewardAmount",
      "outputs": [],
      "stateMutability": "nonpayable",
      "type": "function"
    },
    {
      "inputs": [
        {
          "internalType": "uint256",
          "name": "_rewardBase",
          "type": "uint256"
        }
      ],
      "name": "setRewardBase",
      "outputs": [],
      "stateMutability": "nonpayable",
      "type": "function"
    },
    {
      "inputs": [
        {
          "internalType": "address",
          "name": "_rewardToken",
          "type": "address"
        }
      ],
      "name": "setRewardToken",
      "outputs": [],
      "stateMutability": "nonpayable",
      "type": "function"
    },
    {
      "inputs": [
        {
          "internalType": "address",
          "name": "_refStore",
          "type": "address"
        }
      ],
      "name": "setStore",
      "outputs": [],
      "stateMutability": "nonpayable",
      "type": "function"
    },
    {
      "inputs": [
        {
          "internalType": "address",
          "name": "upper",
          "type": "address"
        },
        {
          "internalType": "address",
          "name": "distributor",
          "type": "address"
        },
        {
          "internalType": "bytes",
          "name": "extdata",
          "type": "bytes"
        }
      ],
      "name": "setUpper",
      "outputs": [],
      "stateMutability": "nonpayable",
      "type": "function"
    },
    {
      "inputs": [],
      "name": "totalRewardAmount",
      "outputs": [
        {
          "internalType": "uint256",
          "name": "",
          "type": "uint256"
        }
      ],
      "stateMutability": "view",
      "type": "function"
    },
    {
      "inputs": [],
      "name": "totalRewardDebt",
      "outputs": [
        {
          "internalType": "uint256",
          "name": "",
          "type": "uint256"
        }
      ],
      "stateMutability": "view",
      "type": "function"
    },
    {
      "inputs": [
        {
          "internalType": "address",
          "name": "newOwner",
          "type": "address"
        }
      ],
      "name": "transferOwnership",
      "outputs": [],
      "stateMutability": "nonpayable",
      "type": "function"
    },
    {
      "inputs": [
        {
          "internalType": "address",
          "name": "",
          "type": "address"
        }
      ],
      "name": "userInfo",
      "outputs": [
        {
          "internalType": "uint256",
          "name": "rewardDebt",
          "type": "uint256"
        },
        {
          "internalType": "uint256",
          "name": "rewardAmount",
          "type": "uint256"
        }
      ],
      "stateMutability": "view",
      "type": "function"
    },
    {
      "inputs": [],
      "name": "withdraw",
      "outputs": [],
      "stateMutability": "nonpayable",
      "type": "function"
    }
  ],
  "bytecode": "0x6080604052612710600a55600a600b553480156200001c57600080fd5b506040516200166b3803806200166b8339810160408190526200003f91620000f4565b6200004a3362000087565b60018055600480546001600160a01b039485166001600160a01b031991821617909155600580549390941692169190911790915560085562000135565b600080546001600160a01b038381166001600160a01b0319831681178455604051919092169283917f8be0079c531659141344cd1fd0a4f28419497f9722a3daafe3b4186f6b6457e09190a35050565b80516001600160a01b0381168114620000ef57600080fd5b919050565b6000806000606084860312156200010a57600080fd5b6200011584620000d7565b92506200012560208501620000d7565b9150604084015190509250925092565b61152680620001456000396000f3fe608060405234801561001057600080fd5b506004361061018e5760003560e01c806383bb3877116100de578063a8b0b3ed11610097578063e558bad811610071578063e558bad814610353578063f2fde38b14610366578063f308cfca14610379578063f7c618c11461038c57600080fd5b8063a8b0b3ed14610324578063abc726eb14610337578063e21d4e8d1461034a57600080fd5b806383bb3877146102d25780638aee8127146102db5780638bcee9d3146102ee5780638d4f44e5146103015780638da5cb5b1461030a5780638e73064f1461031b57600080fd5b806342177a581161014b5780635fe39f59116101255780635fe39f5914610291578063715018a6146102a4578063747293fb146102ac5780637ac07dcc146102bf57600080fd5b806342177a5814610260578063562dead2146102685780635a1ea7ca1461027157600080fd5b8063087cbd401461019357806316cad884146101a85780631959a002146101d8578063231a418c146102145780632929a96e146102375780633ccfd60b14610258575b600080fd5b6101a66101a1366004611113565b61039f565b005b6004546101bb906001600160a01b031681565b6040516001600160a01b0390911681526020015b60405180910390f35b6101ff6101e6366004611113565b6009602052600090815260409020805460019091015482565b604080519283526020830191909152016101cf565b610227610222366004611113565b6103f4565b60405190151581526020016101cf565b61024a610245366004611130565b610499565b6040519081526020016101cf565b6101a66105e7565b61024a610841565b61024a600a5481565b61024a61027f36600461115c565b600c6020526000908152604090205481565b6101a661029f3660046111bc565b610852565b6101a66108d0565b6102276102ba366004611113565b610906565b6102276102cd366004611113565b6109a5565b61024a60075481565b6101a66102e9366004611113565b6109b2565b6101a66102fc366004611276565b6109fe565b61024a600b5481565b6000546001600160a01b03166101bb565b61024a60065481565b6101bb61033236600461115c565b610a7c565b6101a661034536600461115c565b610b15565b61024a60085481565b6101a661036136600461115c565b610b44565b6101a6610374366004611113565b610b73565b61024a610387366004611113565b610c0e565b6005546101bb906001600160a01b031681565b6000546001600160a01b031633146103d25760405162461bcd60e51b81526004016103c99061131c565b60405180910390fd5b600480546001600160a01b0319166001600160a01b0392909216919091179055565b600080546001600160a01b0316331461041f5760405162461bcd60e51b81526004016103c99061131c565b6001600160a01b0382166104885760405162461bcd60e51b815260206004820152602a60248201527f5265666572656e6365733a205f64656c43616c6c657220697320746865207a65604482015269726f206164647265737360b01b60648201526084016103c9565b610493600283610c3d565b92915050565b60006104a4336109a5565b6104f05760405162461bcd60e51b815260206004820152601860248201527f63616c6c6572206973206e6f74207468652043616c6c6572000000000000000060448201526064016103c9565b600260015414156105435760405162461bcd60e51b815260206004820152601f60248201527f5265656e7472616e637947756172643a207265656e7472616e742063616c6c0060448201526064016103c9565b6002600155600480546040516241b5ff60e81b81526001600160a01b0386811693820193909352600092909116906341b5ff0090602401602060405180830381865afa158015610597573d6000803e3d6000fd5b505050506040513d601f19601f820116820180604052508101906105bb9190611351565b90506001600160a01b038116156105dc576105d881846000610c52565b9250505b506001805592915050565b6002600154141561063a5760405162461bcd60e51b815260206004820152601f60248201527f5265656e7472616e637947756172643a207265656e7472616e742063616c6c0060448201526064016103c9565b6002600190815533600090815260096020526040812080549281015490926106629190610d67565b9050600081116106a45760405162461bcd60e51b815260206004820152600d60248201526c4e6f206d6f726520626f6e757360981b60448201526064016103c9565b6005546040516370a0823160e01b81523060048201526000916001600160a01b0316906370a0823190602401602060405180830381865afa1580156106ed573d6000803e3d6000fd5b505050506040513d601f19601f82011682018060405250810190610711919061136e565b90508181101561071f578091505b600654600754610730908490610d73565b111561076f5760405162461bcd60e51b815260206004820152600e60248201526d746f6b656e20726577617264203f60901b60448201526064016103c9565b60075461077c9083610d73565b600755825461078b9083610d73565b83556005546040516340c10f1960e01b8152336004820152602481018490526001600160a01b03909116906340c10f19906044016020604051808303816000875af11580156107de573d6000803e3d6000fd5b505050506040513d601f19601f820116820180604052508101906108029190611387565b5060405182815233907f884edad9ce6fa2440d8a54cc123490eb96d2768479d49ff9c7366125a94243649060200160405180910390a250506001805550565b600061084d6002610d7f565b905090565b60048054604051633bf880f360e01b81526001600160a01b0390911691633bf880f391610887913391889188918891016113a9565b6020604051808303816000875af11580156108a6573d6000803e3d6000fd5b505050506040513d601f19601f820116820180604052508101906108ca9190611387565b50505050565b6000546001600160a01b031633146108fa5760405162461bcd60e51b81526004016103c99061131c565b6109046000610d89565b565b600080546001600160a01b031633146109315760405162461bcd60e51b81526004016103c99061131c565b6001600160a01b03821661099a5760405162461bcd60e51b815260206004820152602a60248201527f5265666572656e6365733a205f61646443616c6c657220697320746865207a65604482015269726f206164647265737360b01b60648201526084016103c9565b610493600283610dd9565b6000610493600283610dee565b6000546001600160a01b031633146109dc5760405162461bcd60e51b81526004016103c99061131c565b600580546001600160a01b0319166001600160a01b0392909216919091179055565b6000546001600160a01b03163314610a285760405162461bcd60e51b81526004016103c99061131c565b805160005b81811015610a7557828181518110610a4757610a47611423565b6020908102919091018101516000838152600c90925260409091205580610a6d8161144f565b915050610a2d565b50600b5550565b600080546001600160a01b03163314610aa75760405162461bcd60e51b81526004016103c99061131c565b6001610ab1610841565b610abb919061146a565b821115610b0a5760405162461bcd60e51b815260206004820152601f60248201527f5265666572656e6365733a20696e646578206f7574206f6620626f756e64730060448201526064016103c9565b610493600283610e10565b6000546001600160a01b03163314610b3f5760405162461bcd60e51b81526004016103c99061131c565b600a55565b6000546001600160a01b03163314610b6e5760405162461bcd60e51b81526004016103c99061131c565b600855565b6000546001600160a01b03163314610b9d5760405162461bcd60e51b81526004016103c99061131c565b6001600160a01b038116610c025760405162461bcd60e51b815260206004820152602660248201527f4f776e61626c653a206e6577206f776e657220697320746865207a65726f206160448201526564647265737360d01b60648201526084016103c9565b610c0b81610d89565b50565b6001600160a01b038116600090815260096020526040812080546001820154610c3691610d67565b9392505050565b6000610c36836001600160a01b038416610e1c565b600a546000828152600c602052604081205490918291610c7e9190610c78908790610f0f565b90610f1b565b91508115610c9457610c91858385610f27565b90505b610c9f836001610d73565b9250600b54831015610d5f57600480546040516241b5ff60e81b81526001600160a01b0388811693820193909352600092909116906341b5ff0090602401602060405180830381865afa158015610cfa573d6000803e3d6000fd5b505050506040513d601f19601f82011682018060405250810190610d1e9190611351565b90506001600160a01b03811615610d5d57600080610d3d838888610c52565b9092509050610d4c8583610d73565b9450610d588482610d73565b935050505b505b935093915050565b6000610c36828461146a565b6000610c368284611481565b6000610493825490565b600080546001600160a01b038381166001600160a01b0319831681178455604051919092169283917f8be0079c531659141344cd1fd0a4f28419497f9722a3daafe3b4186f6b6457e09190a35050565b6000610c36836001600160a01b038416611085565b6001600160a01b03811660009081526001830160205260408120541515610c36565b6000610c3683836110d4565b60008181526001830160205260408120548015610f05576000610e4060018361146a565b8554909150600090610e549060019061146a565b9050818114610eb9576000866000018281548110610e7457610e74611423565b9060005260206000200154905080876000018481548110610e9757610e97611423565b6000918252602080832090910192909255918252600188019052604090208390555b8554869080610eca57610eca611499565b600190038181906000526020600020016000905590558560010160008681526020019081526020016000206000905560019350505050610493565b6000915050610493565b6000610c3682846114af565b6000610c3682846114ce565b6001600160a01b038316600090815260096020526040902060085460065484929190610f539084610d73565b1115610f6b57600654600854610f6891610d67565b91505b811561107d57600654610f7e9083610d73565b6006556001810154610f909083610d73565b6001820155600754610fa29083610d73565b6007558054610fb19083610d73565b81556005546040516340c10f1960e01b81526001600160a01b03878116600483015260248201859052909116906340c10f19906044016020604051808303816000875af1158015611006573d6000803e3d6000fd5b505050506040513d601f19601f8201168201806040525081019061102a9190611387565b50604080516001600160a01b038716815260208101859052908101859052606081018390527f31cff2a62c687d49a0f1c29b6d72960f74a35eef76d7378546c68980a6d07f2f9060800160405180910390a15b509392505050565b60008181526001830160205260408120546110cc57508154600181810184556000848152602080822090930184905584548482528286019093526040902091909155610493565b506000610493565b60008260000182815481106110eb576110eb611423565b9060005260206000200154905092915050565b6001600160a01b0381168114610c0b57600080fd5b60006020828403121561112557600080fd5b8135610c36816110fe565b6000806040838503121561114357600080fd5b823561114e816110fe565b946020939093013593505050565b60006020828403121561116e57600080fd5b5035919050565b634e487b7160e01b600052604160045260246000fd5b604051601f8201601f1916810167ffffffffffffffff811182821017156111b4576111b4611175565b604052919050565b6000806000606084860312156111d157600080fd5b83356111dc816110fe565b92506020848101356111ed816110fe565b9250604085013567ffffffffffffffff8082111561120a57600080fd5b818701915087601f83011261121e57600080fd5b81358181111561123057611230611175565b611242601f8201601f1916850161118b565b9150808252888482850101111561125857600080fd5b80848401858401376000848284010152508093505050509250925092565b6000602080838503121561128957600080fd5b823567ffffffffffffffff808211156112a157600080fd5b818501915085601f8301126112b557600080fd5b8135818111156112c7576112c7611175565b8060051b91506112d884830161118b565b81815291830184019184810190888411156112f257600080fd5b938501935b83851015611310578435825293850193908501906112f7565b98975050505050505050565b6020808252818101527f4f776e61626c653a2063616c6c6572206973206e6f7420746865206f776e6572604082015260600190565b60006020828403121561136357600080fd5b8151610c36816110fe565b60006020828403121561138057600080fd5b5051919050565b60006020828403121561139957600080fd5b81518015158114610c3657600080fd5b600060018060a01b0380871683526020818716818501528186166040850152608060608501528451915081608085015260005b828110156113f85785810182015185820160a0015281016113dc565b8281111561140a57600060a084870101525b5050601f01601f19169190910160a00195945050505050565b634e487b7160e01b600052603260045260246000fd5b634e487b7160e01b600052601160045260246000fd5b600060001982141561146357611463611439565b5060010190565b60008282101561147c5761147c611439565b500390565b6000821982111561149457611494611439565b500190565b634e487b7160e01b600052603160045260246000fd5b60008160001904831182151516156114c9576114c9611439565b500290565b6000826114eb57634e487b7160e01b600052601260045260246000fd5b50049056fea26469706673582212205eb9875d4e4d8132c5ced5c83fa4c8d4ea68193a7c177f3d5a3a5958c239c84f64736f6c634300080a0033",
  "linkReferences": {},
  "deployedLinkReferences": {}
}