{
  "_format": "hh-sol-artifact-1",
  "contractName": "MaxityToken",
  "sourceName": "contracts/maxity/impl/MaxityToken.sol",
  "abi": [
    {
      "inputs": [
        {
          "internalType": "string",
          "name": "name",
          "type": "string"
        },
        {
          "internalType": "string",
          "name": "symbol",
          "type": "string"
        }
      ],
      "stateMutability": "nonpayable",
      "type": "constructor"
    },
    {
      "anonymous": false,
      "inputs": [
        {
          "indexed": true,
          "internalType": "address",
          "name": "owner",
          "type": "address"
        },
        {
          "indexed": true,
          "internalType": "address",
          "name": "spender",
          "type": "address"
        },
        {
          "indexed": false,
          "internalType": "uint256",
          "name": "value",
          "type": "uint256"
        }
      ],
      "name": "Approval",
      "type": "event"
    },
    {
      "anonymous": false,
      "inputs": [
        {
          "indexed": true,
          "internalType": "address",
          "name": "previousOwner",
          "type": "address"
        },
        {
          "indexed": true,
          "internalType": "address",
          "name": "newOwner",
          "type": "address"
        }
      ],
      "name": "OwnershipTransferred",
      "type": "event"
    },
    {
      "anonymous": false,
      "inputs": [
        {
          "indexed": true,
          "internalType": "address",
          "name": "from",
          "type": "address"
        },
        {
          "indexed": true,
          "internalType": "address",
          "name": "to",
          "type": "address"
        },
        {
          "indexed": false,
          "internalType": "uint256",
          "name": "value",
          "type": "uint256"
        }
      ],
      "name": "Transfer",
      "type": "event"
    },
    {
      "inputs": [
        {
          "internalType": "address",
          "name": "_addMinter",
          "type": "address"
        },
        {
          "internalType": "uint256",
          "name": "_maxMint",
          "type": "uint256"
        }
      ],
      "name": "addMinter",
      "outputs": [
        {
          "internalType": "bool",
          "name": "",
          "type": "bool"
        }
      ],
      "stateMutability": "nonpayable",
      "type": "function"
    },
    {
      "inputs": [
        {
          "internalType": "address",
          "name": "owner",
          "type": "address"
        },
        {
          "internalType": "address",
          "name": "spender",
          "type": "address"
        }
      ],
      "name": "allowance",
      "outputs": [
        {
          "internalType": "uint256",
          "name": "",
          "type": "uint256"
        }
      ],
      "stateMutability": "view",
      "type": "function"
    },
    {
      "inputs": [
        {
          "internalType": "address",
          "name": "spender",
          "type": "address"
        },
        {
          "internalType": "uint256",
          "name": "amount",
          "type": "uint256"
        }
      ],
      "name": "approve",
      "outputs": [
        {
          "internalType": "bool",
          "name": "",
          "type": "bool"
        }
      ],
      "stateMutability": "nonpayable",
      "type": "function"
    },
    {
      "inputs": [
        {
          "internalType": "address",
          "name": "account",
          "type": "address"
        }
      ],
      "name": "balanceOf",
      "outputs": [
        {
          "internalType": "uint256",
          "name": "",
          "type": "uint256"
        }
      ],
      "stateMutability": "view",
      "type": "function"
    },
    {
      "inputs": [],
      "name": "decimals",
      "outputs": [
        {
          "internalType": "uint8",
          "name": "",
          "type": "uint8"
        }
      ],
      "stateMutability": "view",
      "type": "function"
    },
    {
      "inputs": [
        {
          "internalType": "address",
          "name": "spender",
          "type": "address"
        },
        {
          "internalType": "uint256",
          "name": "subtractedValue",
          "type": "uint256"
        }
      ],
      "name": "decreaseAllowance",
      "outputs": [
        {
          "internalType": "bool",
          "name": "",
          "type": "bool"
        }
      ],
      "stateMutability": "nonpayable",
      "type": "function"
    },
    {
      "inputs": [
        {
          "internalType": "address",
          "name": "_delMinter",
          "type": "address"
        }
      ],
      "name": "delMinter",
      "outputs": [
        {
          "internalType": "bool",
          "name": "",
          "type": "bool"
        }
      ],
      "stateMutability": "nonpayable",
      "type": "function"
    },
    {
      "inputs": [
        {
          "internalType": "uint256",
          "name": "_index",
          "type": "uint256"
        }
      ],
      "name": "getMinter",
      "outputs": [
        {
          "internalType": "address",
          "name": "",
          "type": "address"
        }
      ],
      "stateMutability": "view",
      "type": "function"
    },
    {
      "inputs": [],
      "name": "getMinterLength",
      "outputs": [
        {
          "internalType": "uint256",
          "name": "",
          "type": "uint256"
        }
      ],
      "stateMutability": "view",
      "type": "function"
    },
    {
      "inputs": [
        {
          "internalType": "address",
          "name": "spender",
          "type": "address"
        },
        {
          "internalType": "uint256",
          "name": "addedValue",
          "type": "uint256"
        }
      ],
      "name": "increaseAllowance",
      "outputs": [
        {
          "internalType": "bool",
          "name": "",
          "type": "bool"
        }
      ],
      "stateMutability": "nonpayable",
      "type": "function"
    },
    {
      "inputs": [
        {
          "internalType": "address",
          "name": "account",
          "type": "address"
        }
      ],
      "name": "isMinter",
      "outputs": [
        {
          "internalType": "bool",
          "name": "",
          "type": "bool"
        }
      ],
      "stateMutability": "view",
      "type": "function"
    },
    {
      "inputs": [
        {
          "internalType": "address",
          "name": "_to",
          "type": "address"
        },
        {
          "internalType": "uint256",
          "name": "_amount",
          "type": "uint256"
        }
      ],
      "name": "mint",
      "outputs": [
        {
          "internalType": "bool",
          "name": "",
          "type": "bool"
        }
      ],
      "stateMutability": "nonpayable",
      "type": "function"
    },
    {
      "inputs": [],
      "name": "name",
      "outputs": [
        {
          "internalType": "string",
          "name": "",
          "type": "string"
        }
      ],
      "stateMutability": "view",
      "type": "function"
    },
    {
      "inputs": [],
      "name": "owner",
      "outputs": [
        {
          "internalType": "address",
          "name": "",
          "type": "address"
        }
      ],
      "stateMutability": "view",
      "type": "function"
    },
    {
      "inputs": [],
      "name": "renounceOwnership",
      "outputs": [],
      "stateMutability": "nonpayable",
      "type": "function"
    },
    {
      "inputs": [],
      "name": "symbol",
      "outputs": [
        {
          "internalType": "string",
          "name": "",
          "type": "string"
        }
      ],
      "stateMutability": "view",
      "type": "function"
    },
    {
      "inputs": [],
      "name": "totalSupply",
      "outputs": [
        {
          "internalType": "uint256",
          "name": "",
          "type": "uint256"
        }
      ],
      "stateMutability": "view",
      "type": "function"
    },
    {
      "inputs": [
        {
          "internalType": "address",
          "name": "to",
          "type": "address"
        },
        {
          "internalType": "uint256",
          "name": "amount",
          "type": "uint256"
        }
      ],
      "name": "transfer",
      "outputs": [
        {
          "internalType": "bool",
          "name": "",
          "type": "bool"
        }
      ],
      "stateMutability": "nonpayable",
      "type": "function"
    },
    {
      "inputs": [
        {
          "internalType": "address",
          "name": "from",
          "type": "address"
        },
        {
          "internalType": "address",
          "name": "to",
          "type": "address"
        },
        {
          "internalType": "uint256",
          "name": "amount",
          "type": "uint256"
        }
      ],
      "name": "transferFrom",
      "outputs": [
        {
          "internalType": "bool",
          "name": "",
          "type": "bool"
        }
      ],
      "stateMutability": "nonpayable",
      "type": "function"
    },
    {
      "inputs": [
        {
          "internalType": "address",
          "name": "newOwner",
          "type": "address"
        }
      ],
      "name": "transferOwnership",
      "outputs": [],
      "stateMutability": "nonpayable",
      "type": "function"
    }
  ],
  "bytecode": "0x60806040523480156200001157600080fd5b50604051620015b1380380620015b1833981016040819052620000349162000350565b8151829082906200004d906003906020850190620001dd565b50805162000063906004906020840190620001dd565b505050620000806200007a6200009f60201b60201c565b620000a3565b62000097336a108b2a2c28029094000000620000f5565b50506200041e565b3390565b600580546001600160a01b038381166001600160a01b0319831681179093556040519116919082907f8be0079c531659141344cd1fd0a4f28419497f9722a3daafe3b4186f6b6457e090600090a35050565b6001600160a01b038216620001505760405162461bcd60e51b815260206004820152601f60248201527f45524332303a206d696e7420746f20746865207a65726f206164647265737300604482015260640160405180910390fd5b8060026000828254620001649190620003ba565b90915550506001600160a01b0382166000908152602081905260408120805483929062000193908490620003ba565b90915550506040518181526001600160a01b038316906000907fddf252ad1be2c89b69c2b068fc378daa952ba7f163c4a11628f55a4df523b3ef9060200160405180910390a35050565b828054620001eb90620003e1565b90600052602060002090601f0160209004810192826200020f57600085556200025a565b82601f106200022a57805160ff19168380011785556200025a565b828001600101855582156200025a579182015b828111156200025a5782518255916020019190600101906200023d565b50620002689291506200026c565b5090565b5b808211156200026857600081556001016200026d565b634e487b7160e01b600052604160045260246000fd5b600082601f830112620002ab57600080fd5b81516001600160401b0380821115620002c857620002c862000283565b604051601f8301601f19908116603f01168101908282118183101715620002f357620002f362000283565b816040528381526020925086838588010111156200031057600080fd5b600091505b8382101562000334578582018301518183018401529082019062000315565b83821115620003465760008385830101525b9695505050505050565b600080604083850312156200036457600080fd5b82516001600160401b03808211156200037c57600080fd5b6200038a8683870162000299565b93506020850151915080821115620003a157600080fd5b50620003b08582860162000299565b9150509250929050565b60008219821115620003dc57634e487b7160e01b600052601160045260246000fd5b500190565b600181811c90821680620003f657607f821691505b602082108114156200041857634e487b7160e01b600052602260045260246000fd5b50919050565b611183806200042e6000396000f3fe608060405234801561001057600080fd5b506004361061012c5760003560e01c806370a08231116100ad578063a457c2d711610071578063a457c2d714610271578063a9059cbb14610284578063aa271e1a14610297578063dd62ed3e146102aa578063f2fde38b146102bd57600080fd5b806370a0823114610212578063715018a61461023b578063761248b4146102455780638da5cb5b1461025857806395d89b411461026957600080fd5b806323b872dd116100f457806323b872dd1461019f578063313ce567146101b257806339509351146101c157806340c10f19146101d45780635b7121f8146101e757600080fd5b80630323aac71461013157806306fdde031461014c578063095ea7b31461016157806318160ddd1461018457806323338b881461018c575b600080fd5b6101396102d0565b6040519081526020015b60405180910390f35b6101546102e1565b6040516101439190610f33565b61017461016f366004610f9f565b610373565b6040519015158152602001610143565b600254610139565b61017461019a366004610fc9565b61038d565b6101746101ad366004610fe4565b61043d565b60405160128152602001610143565b6101746101cf366004610f9f565b610461565b6101746101e2366004610f9f565b610483565b6101fa6101f5366004611020565b6105bf565b6040516001600160a01b039091168152602001610143565b610139610220366004610fc9565b6001600160a01b031660009081526020819052604090205490565b61024361065a565b005b610174610253366004610f9f565b610690565b6005546001600160a01b03166101fa565b610154610751565b61017461027f366004610f9f565b610760565b610174610292366004610f9f565b6107db565b6101746102a5366004610fc9565b6107e9565b6101396102b8366004611039565b6107f6565b6102436102cb366004610fc9565b610821565b60006102dc60066108bc565b905090565b6060600380546102f09061106c565b80601f016020809104026020016040519081016040528092919081815260200182805461031c9061106c565b80156103695780601f1061033e57610100808354040283529160200191610369565b820191906000526020600020905b81548152906001019060200180831161034c57829003601f168201915b5050505050905090565b6000336103818185856108c6565b60019150505b92915050565b6005546000906001600160a01b031633146103c35760405162461bcd60e51b81526004016103ba906110a7565b60405180910390fd5b6001600160a01b03821661042a5760405162461bcd60e51b815260206004820152602860248201527f42474d546f6b656e3a205f64656c4d696e74657220697320746865207a65726f604482015267206164647265737360c01b60648201526084016103ba565b6104356006836109ea565b90505b919050565b60003361044b8582856109ff565b610456858585610a79565b506001949350505050565b60003361038181858561047483836107f6565b61047e91906110f2565b6108c6565b600061048e336107e9565b6104da5760405162461bcd60e51b815260206004820152601860248201527f63616c6c6572206973206e6f7420746865206d696e746572000000000000000060448201526064016103ba565b6a52b7d2dcc80cd2e40000006104f96104f260025490565b8490610c47565b111561050457600080fd5b33600090815260086020526040902054156105ac5733600090815260086020908152604080832054600990925290912054610540908490610c47565b11156105815760405162461bcd60e51b815260206004820152601060248201526f1b5a5b9d195c881b585e081b1a5b5a5d60821b60448201526064016103ba565b3360009081526009602052604090205461059b9083610c47565b336000908152600960205260409020555b6105b68383610c53565b50600192915050565b6005546000906001600160a01b031633146105ec5760405162461bcd60e51b81526004016103ba906110a7565b60016105f66102d0565b610600919061110a565b82111561064f5760405162461bcd60e51b815260206004820152601d60248201527f42474d546f6b656e3a20696e646578206f7574206f6620626f756e647300000060448201526064016103ba565b610435600683610d32565b6005546001600160a01b031633146106845760405162461bcd60e51b81526004016103ba906110a7565b61068e6000610d3e565b565b6005546000906001600160a01b031633146106bd5760405162461bcd60e51b81526004016103ba906110a7565b6001600160a01b0383166107245760405162461bcd60e51b815260206004820152602860248201527f42474d546f6b656e3a205f6164644d696e74657220697320746865207a65726f604482015267206164647265737360c01b60648201526084016103ba565b6001600160a01b038316600090815260086020526040902082905561074a600684610d90565b9392505050565b6060600480546102f09061106c565b6000338161076e82866107f6565b9050838110156107ce5760405162461bcd60e51b815260206004820152602560248201527f45524332303a2064656372656173656420616c6c6f77616e63652062656c6f77604482015264207a65726f60d81b60648201526084016103ba565b61045682868684036108c6565b600033610381818585610a79565b6000610435600683610da5565b6001600160a01b03918216600090815260016020908152604080832093909416825291909152205490565b6005546001600160a01b0316331461084b5760405162461bcd60e51b81526004016103ba906110a7565b6001600160a01b0381166108b05760405162461bcd60e51b815260206004820152602660248201527f4f776e61626c653a206e6577206f776e657220697320746865207a65726f206160448201526564647265737360d01b60648201526084016103ba565b6108b981610d3e565b50565b6000610435825490565b6001600160a01b0383166109285760405162461bcd60e51b8152602060048201526024808201527f45524332303a20617070726f76652066726f6d20746865207a65726f206164646044820152637265737360e01b60648201526084016103ba565b6001600160a01b0382166109895760405162461bcd60e51b815260206004820152602260248201527f45524332303a20617070726f766520746f20746865207a65726f206164647265604482015261737360f01b60648201526084016103ba565b6001600160a01b0383811660008181526001602090815260408083209487168084529482529182902085905590518481527f8c5be1e5ebec7d5bd14f71427d1e84f3dd0314c0f7b2291e5b200ac8c7c3b925910160405180910390a3505050565b600061074a836001600160a01b038416610dc7565b6000610a0b84846107f6565b90506000198114610a735781811015610a665760405162461bcd60e51b815260206004820152601d60248201527f45524332303a20696e73756666696369656e7420616c6c6f77616e636500000060448201526064016103ba565b610a7384848484036108c6565b50505050565b6001600160a01b038316610add5760405162461bcd60e51b815260206004820152602560248201527f45524332303a207472616e736665722066726f6d20746865207a65726f206164604482015264647265737360d81b60648201526084016103ba565b6001600160a01b038216610b3f5760405162461bcd60e51b815260206004820152602360248201527f45524332303a207472616e7366657220746f20746865207a65726f206164647260448201526265737360e81b60648201526084016103ba565b6001600160a01b03831660009081526020819052604090205481811015610bb75760405162461bcd60e51b815260206004820152602660248201527f45524332303a207472616e7366657220616d6f756e7420657863656564732062604482015265616c616e636560d01b60648201526084016103ba565b6001600160a01b03808516600090815260208190526040808220858503905591851681529081208054849290610bee9084906110f2565b92505081905550826001600160a01b0316846001600160a01b03167fddf252ad1be2c89b69c2b068fc378daa952ba7f163c4a11628f55a4df523b3ef84604051610c3a91815260200190565b60405180910390a3610a73565b600061074a82846110f2565b6001600160a01b038216610ca95760405162461bcd60e51b815260206004820152601f60248201527f45524332303a206d696e7420746f20746865207a65726f20616464726573730060448201526064016103ba565b8060026000828254610cbb91906110f2565b90915550506001600160a01b03821660009081526020819052604081208054839290610ce89084906110f2565b90915550506040518181526001600160a01b038316906000907fddf252ad1be2c89b69c2b068fc378daa952ba7f163c4a11628f55a4df523b3ef9060200160405180910390a35050565b600061074a8383610eba565b600580546001600160a01b038381166001600160a01b0319831681179093556040519116919082907f8be0079c531659141344cd1fd0a4f28419497f9722a3daafe3b4186f6b6457e090600090a35050565b600061074a836001600160a01b038416610ee4565b6001600160a01b0381166000908152600183016020526040812054151561074a565b60008181526001830160205260408120548015610eb0576000610deb60018361110a565b8554909150600090610dff9060019061110a565b9050818114610e64576000866000018281548110610e1f57610e1f611121565b9060005260206000200154905080876000018481548110610e4257610e42611121565b6000918252602080832090910192909255918252600188019052604090208390555b8554869080610e7557610e75611137565b600190038181906000526020600020016000905590558560010160008681526020019081526020016000206000905560019350505050610387565b6000915050610387565b6000826000018281548110610ed157610ed1611121565b9060005260206000200154905092915050565b6000818152600183016020526040812054610f2b57508154600181810184556000848152602080822090930184905584548482528286019093526040902091909155610387565b506000610387565b600060208083528351808285015260005b81811015610f6057858101830151858201604001528201610f44565b81811115610f72576000604083870101525b50601f01601f1916929092016040019392505050565b80356001600160a01b038116811461043857600080fd5b60008060408385031215610fb257600080fd5b610fbb83610f88565b946020939093013593505050565b600060208284031215610fdb57600080fd5b61074a82610f88565b600080600060608486031215610ff957600080fd5b61100284610f88565b925061101060208501610f88565b9150604084013590509250925092565b60006020828403121561103257600080fd5b5035919050565b6000806040838503121561104c57600080fd5b61105583610f88565b915061106360208401610f88565b90509250929050565b600181811c9082168061108057607f821691505b602082108114156110a157634e487b7160e01b600052602260045260246000fd5b50919050565b6020808252818101527f4f776e61626c653a2063616c6c6572206973206e6f7420746865206f776e6572604082015260600190565b634e487b7160e01b600052601160045260246000fd5b60008219821115611105576111056110dc565b500190565b60008282101561111c5761111c6110dc565b500390565b634e487b7160e01b600052603260045260246000fd5b634e487b7160e01b600052603160045260246000fdfea2646970667358221220b71b97a23ce7bd2a4b23da79bd4fa7a1bf329a7290fa69f028d1a269915d56fc64736f6c634300080a0033",
  "linkReferences": {},
  "deployedLinkReferences": {}
}