{
  "_format": "hh-sol-artifact-1",
  "contractName": "GUTLender",
  "sourceName": "contracts/maxity/impl/GUTLender.sol",
  "abi": [
    {
      "inputs": [
        {
          "internalType": "address",
          "name": "_ut",
          "type": "address"
        },
        {
          "internalType": "address",
          "name": "_gut",
          "type": "address"
        },
        {
          "internalType": "address",
          "name": "_mPool",
          "type": "address"
        },
        {
          "internalType": "uint256",
          "name": "_lendUTRatio",
          "type": "uint256"
        },
        {
          "internalType": "uint256",
          "name": "_lendUTFee",
          "type": "uint256"
        },
        {
          "internalType": "address",
          "name": "_feeAddr",
          "type": "address"
        }
      ],
      "stateMutability": "nonpayable",
      "type": "constructor"
    },
    {
      "anonymous": false,
      "inputs": [
        {
          "indexed": true,
          "internalType": "address",
          "name": "previousOwner",
          "type": "address"
        },
        {
          "indexed": true,
          "internalType": "address",
          "name": "newOwner",
          "type": "address"
        }
      ],
      "name": "OwnershipTransferred",
      "type": "event"
    },
    {
      "anonymous": false,
      "inputs": [
        {
          "indexed": true,
          "internalType": "address",
          "name": "user",
          "type": "address"
        },
        {
          "indexed": false,
          "internalType": "uint256",
          "name": "utAmount",
          "type": "uint256"
        },
        {
          "indexed": false,
          "internalType": "uint256",
          "name": "unlockAmount",
          "type": "uint256"
        }
      ],
      "name": "Repayment",
      "type": "event"
    },
    {
      "anonymous": false,
      "inputs": [
        {
          "indexed": true,
          "internalType": "address",
          "name": "user",
          "type": "address"
        },
        {
          "indexed": true,
          "internalType": "address",
          "name": "lpToken",
          "type": "address"
        },
        {
          "indexed": false,
          "internalType": "uint256",
          "name": "lockAmount",
          "type": "uint256"
        },
        {
          "indexed": false,
          "internalType": "uint256",
          "name": "utAmount",
          "type": "uint256"
        },
        {
          "indexed": false,
          "internalType": "address",
          "name": "pool",
          "type": "address"
        }
      ],
      "name": "UserLend",
      "type": "event"
    },
    {
      "inputs": [],
      "name": "UT",
      "outputs": [
        {
          "internalType": "contract IMintableToken",
          "name": "",
          "type": "address"
        }
      ],
      "stateMutability": "view",
      "type": "function"
    },
    {
      "inputs": [],
      "name": "bgmRouter",
      "outputs": [
        {
          "internalType": "address",
          "name": "",
          "type": "address"
        }
      ],
      "stateMutability": "view",
      "type": "function"
    },
    {
      "inputs": [],
      "name": "blockTimeOut",
      "outputs": [
        {
          "internalType": "uint256",
          "name": "",
          "type": "uint256"
        }
      ],
      "stateMutability": "view",
      "type": "function"
    },
    {
      "inputs": [
        {
          "internalType": "uint256",
          "name": "amount",
          "type": "uint256"
        },
        {
          "internalType": "address",
          "name": "to",
          "type": "address"
        }
      ],
      "name": "emergencyUT",
      "outputs": [],
      "stateMutability": "nonpayable",
      "type": "function"
    },
    {
      "inputs": [],
      "name": "feeAddr",
      "outputs": [
        {
          "internalType": "address",
          "name": "",
          "type": "address"
        }
      ],
      "stateMutability": "view",
      "type": "function"
    },
    {
      "inputs": [],
      "name": "gUT",
      "outputs": [
        {
          "internalType": "contract IMintableToken",
          "name": "",
          "type": "address"
        }
      ],
      "stateMutability": "view",
      "type": "function"
    },
    {
      "inputs": [],
      "name": "lendUTFee",
      "outputs": [
        {
          "internalType": "uint256",
          "name": "",
          "type": "uint256"
        }
      ],
      "stateMutability": "view",
      "type": "function"
    },
    {
      "inputs": [],
      "name": "lendUTRatio",
      "outputs": [
        {
          "internalType": "uint256",
          "name": "",
          "type": "uint256"
        }
      ],
      "stateMutability": "view",
      "type": "function"
    },
    {
      "inputs": [],
      "name": "mPool",
      "outputs": [
        {
          "internalType": "address",
          "name": "",
          "type": "address"
        }
      ],
      "stateMutability": "view",
      "type": "function"
    },
    {
      "inputs": [],
      "name": "owner",
      "outputs": [
        {
          "internalType": "address",
          "name": "",
          "type": "address"
        }
      ],
      "stateMutability": "view",
      "type": "function"
    },
    {
      "inputs": [],
      "name": "renounceOwnership",
      "outputs": [],
      "stateMutability": "nonpayable",
      "type": "function"
    },
    {
      "inputs": [
        {
          "internalType": "address",
          "name": "_bgmRouter",
          "type": "address"
        }
      ],
      "name": "setBGMRouter",
      "outputs": [],
      "stateMutability": "nonpayable",
      "type": "function"
    },
    {
      "inputs": [
        {
          "internalType": "address",
          "name": "_feeAddr",
          "type": "address"
        }
      ],
      "name": "setFeeAddr",
      "outputs": [],
      "stateMutability": "nonpayable",
      "type": "function"
    },
    {
      "inputs": [
        {
          "internalType": "address",
          "name": "_gut",
          "type": "address"
        }
      ],
      "name": "setGUTToken",
      "outputs": [],
      "stateMutability": "nonpayable",
      "type": "function"
    },
    {
      "inputs": [
        {
          "internalType": "uint256",
          "name": "_blockTimeOut",
          "type": "uint256"
        }
      ],
      "name": "setLendBlockTimeOut",
      "outputs": [],
      "stateMutability": "nonpayable",
      "type": "function"
    },
    {
      "inputs": [
        {
          "internalType": "uint256",
          "name": "_lendUTFee",
          "type": "uint256"
        }
      ],
      "name": "setLendUTFee",
      "outputs": [],
      "stateMutability": "nonpayable",
      "type": "function"
    },
    {
      "inputs": [
        {
          "internalType": "uint256",
          "name": "_lendUTRatio",
          "type": "uint256"
        }
      ],
      "name": "setLendUTRatio",
      "outputs": [],
      "stateMutability": "nonpayable",
      "type": "function"
    },
    {
      "inputs": [
        {
          "internalType": "address",
          "name": "_ut",
          "type": "address"
        }
      ],
      "name": "setUTToken",
      "outputs": [],
      "stateMutability": "nonpayable",
      "type": "function"
    },
    {
      "inputs": [
        {
          "internalType": "address",
          "name": "_mPool",
          "type": "address"
        }
      ],
      "name": "setmPool",
      "outputs": [],
      "stateMutability": "nonpayable",
      "type": "function"
    },
    {
      "inputs": [
        {
          "internalType": "address",
          "name": "_user",
          "type": "address"
        },
        {
          "internalType": "address",
          "name": "_lpToken",
          "type": "address"
        }
      ],
      "name": "timeOutUserLender",
      "outputs": [
        {
          "internalType": "uint256",
          "name": "unlockAmount",
          "type": "uint256"
        }
      ],
      "stateMutability": "nonpayable",
      "type": "function"
    },
    {
      "inputs": [
        {
          "internalType": "address",
          "name": "newOwner",
          "type": "address"
        }
      ],
      "name": "transferOwnership",
      "outputs": [],
      "stateMutability": "nonpayable",
      "type": "function"
    },
    {
      "inputs": [
        {
          "internalType": "address",
          "name": "",
          "type": "address"
        },
        {
          "internalType": "address",
          "name": "",
          "type": "address"
        }
      ],
      "name": "userInfos",
      "outputs": [
        {
          "internalType": "uint256",
          "name": "lockAmount",
          "type": "uint256"
        },
        {
          "internalType": "uint256",
          "name": "utAmount",
          "type": "uint256"
        },
        {
          "internalType": "uint256",
          "name": "lendStartBlocks",
          "type": "uint256"
        }
      ],
      "stateMutability": "view",
      "type": "function"
    },
    {
      "inputs": [
        {
          "internalType": "address",
          "name": "_user",
          "type": "address"
        },
        {
          "internalType": "address",
          "name": "_lpToken",
          "type": "address"
        },
        {
          "internalType": "uint256",
          "name": "_lendAmount",
          "type": "uint256"
        },
        {
          "internalType": "address",
          "name": "_investpool",
          "type": "address"
        }
      ],
      "name": "userLockForLend",
      "outputs": [
        {
          "internalType": "uint256",
          "name": "utAmount",
          "type": "uint256"
        }
      ],
      "stateMutability": "nonpayable",
      "type": "function"
    },
    {
      "inputs": [
        {
          "internalType": "address",
          "name": "_user",
          "type": "address"
        },
        {
          "internalType": "address",
          "name": "_lpToken",
          "type": "address"
        },
        {
          "internalType": "uint256",
          "name": "_utAmount",
          "type": "uint256"
        }
      ],
      "name": "userPayFromRouter",
      "outputs": [],
      "stateMutability": "nonpayable",
      "type": "function"
    },
    {
      "inputs": [
        {
          "internalType": "address",
          "name": "_lpToken",
          "type": "address"
        },
        {
          "internalType": "uint256",
          "name": "_utAmount",
          "type": "uint256"
        }
      ],
      "name": "userRepay",
      "outputs": [
        {
          "internalType": "uint256",
          "name": "unlockAmount",
          "type": "uint256"
        }
      ],
      "stateMutability": "nonpayable",
      "type": "function"
    }
  ],
  "bytecode": "0x608060405262a066806007553480156200001857600080fd5b50604051620013b5380380620013b58339810160408190526200003b9162000110565b6200004633620000a3565b600280546001600160a01b039788166001600160a01b03199182161790915560018054968816968216969096179095556003805494871694861694909417909355600591909155600655600880549190931691161790556200017f565b600080546001600160a01b038381166001600160a01b0319831681178455604051919092169283917f8be0079c531659141344cd1fd0a4f28419497f9722a3daafe3b4186f6b6457e09190a35050565b80516001600160a01b03811681146200010b57600080fd5b919050565b60008060008060008060c087890312156200012a57600080fd5b6200013587620000f3565b95506200014560208801620000f3565b94506200015560408801620000f3565b935060608701519250608087015191506200017360a08801620000f3565b90509295509295509295565b611226806200018f6000396000f3fe608060405234801561001057600080fd5b50600436106101735760003560e01c806382498ad0116100de578063bcc286fd11610097578063c9b5279c11610071578063c9b5279c14610313578063da00096814610368578063e75175a014610371578063f2fde38b1461038457600080fd5b8063bcc286fd146102da578063c3b665f6146102ed578063c43ecb4b1461030057600080fd5b806382498ad0146102745780638da5cb5b14610287578063a4e118a614610298578063b2855b4f146102a1578063b53c0e26146102b4578063ba970ae6146102c757600080fd5b8063439b4dda11610130578063439b4dda146102095780634626ddb31461022a57806366e3821a1461023d578063715018a614610246578063739939021461024e578063771e901a1461026157600080fd5b8063055d536e1461017857806324080bbb1461018d5780632d2757e0146101bd578063356ae2c0146101d057806338dcd4fd146101e357806339e7fddc146101f6575b600080fd5b61018b610186366004610fbd565b610397565b005b6001546101a0906001600160a01b031681565b6040516001600160a01b0390911681526020015b60405180910390f35b61018b6101cb366004610ff9565b6103ff565b61018b6101de366004610ff9565b61042e565b6009546101a0906001600160a01b031681565b6008546101a0906001600160a01b031681565b61021c610217366004611012565b61045d565b6040519081526020016101b4565b61021c61023836600461103c565b610471565b61021c60075481565b61018b610648565b6002546101a0906001600160a01b031681565b61018b61026f366004611089565b61067e565b61021c6102823660046110a4565b6106ca565b6000546001600160a01b03166101a0565b61021c60065481565b61018b6102af366004611089565b6109a1565b61018b6102c2366004610ff9565b6109ed565b61018b6102d5366004611089565b610a1c565b61018b6102e8366004611089565b610a68565b61018b6102fb3660046110d7565b610ab4565b6003546101a0906001600160a01b031681565b61034d6103213660046110a4565b600460209081526000928352604080842090915290825290208054600182015460029092015490919083565b604080519384526020840192909252908201526060016101b4565b61021c60055481565b61018b61037f366004611089565b610c14565b61018b610392366004611089565b610c60565b6009546001600160a01b031633146103ee5760405162461bcd60e51b815260206004820152601560248201527437b7363c9031b0b63610333937b6903937baba32b960591b60448201526064015b60405180910390fd5b6103f9838383610cfb565b50505050565b6000546001600160a01b031633146104295760405162461bcd60e51b81526004016103e5906110fa565b600755565b6000546001600160a01b031633146104585760405162461bcd60e51b81526004016103e5906110fa565b600555565b600061046a338484610cfb565b9392505050565b6003546000906001600160a01b031633146104c45760405162461bcd60e51b81526020600482015260136024820152721bdb9b1e4818d85b1b08199c9bdb481c1bdbdb606a1b60448201526064016103e5565b506001600160a01b03808516600090815260046020908152604080832093871683529290529081206005548492906105089061050285612710610f21565b90610f2d565b90506000831161054b5760405162461bcd60e51b815260206004820152600e60248201526d757420616d6f756e74207a65726f60901b60448201526064016103e5565b81546105579082610f39565b825560018201546105689084610f39565b600183810191909155436002840155546040516340c10f1960e01b81526001600160a01b03898116600483015260248201869052909116906340c10f19906044016020604051808303816000875af11580156105c8573d6000803e3d6000fd5b505050506040513d601f19601f820116820180604052508101906105ec919061112f565b5060408051828152602081018590526001600160a01b03868116828401529151888316928a16917fd888a969925b3295882ecaa298403468b676702280a2d1f5c1e08387b80b6c39919081900360600190a35050949350505050565b6000546001600160a01b031633146106725760405162461bcd60e51b81526004016103e5906110fa565b61067c6000610f45565b565b6000546001600160a01b031633146106a85760405162461bcd60e51b81526004016103e5906110fa565b600380546001600160a01b0319166001600160a01b0392909216919091179055565b600080546001600160a01b031633146106f55760405162461bcd60e51b81526004016103e5906110fa565b6001600160a01b03808416600090815260046020908152604080832093861683529290522060018101548061075f5760405162461bcd60e51b815260206004820152601060248201526f1d5cd95c881a185cc81b9bc81b195b9960821b60448201526064016103e5565b436107796007548460020154610f3990919063ffffffff16565b116107ba5760405162461bcd60e51b81526020600482015260116024820152701d5cd95c881b9bdd08081d1a5b595bdd5d607a1b60448201526064016103e5565b6005546107cd9061050283612710610f21565b82549093508311156107de57815492505b60006108056107fe61271061050260065488610f2190919063ffffffff16565b8590610f95565b600154604051632770a7eb60e21b81526001600160a01b03898116600483015260248201869052929350911690639dc29fac906044016020604051808303816000875af115801561085a573d6000803e3d6000fd5b505050506040513d601f19601f8201168201806040525081019061087e919061112f565b50825461088b9085610f95565b8355600183015461089c9083610f95565b600184015560035460405163095ea7b360e01b81526001600160a01b039182166004820152602481018690529086169063095ea7b3906044016020604051808303816000875af11580156108f4573d6000803e3d6000fd5b505050506040513d601f19601f82011682018060405250810190610918919061112f565b5060035460085460405163f7cacda760e01b81526001600160a01b03888116600483015260248201889052604482018590529182166064820152888216608482015291169063f7cacda79060a401600060405180830381600087803b15801561098057600080fd5b505af1158015610994573d6000803e3d6000fd5b5050505050505092915050565b6000546001600160a01b031633146109cb5760405162461bcd60e51b81526004016103e5906110fa565b600880546001600160a01b0319166001600160a01b0392909216919091179055565b6000546001600160a01b03163314610a175760405162461bcd60e51b81526004016103e5906110fa565b600655565b6000546001600160a01b03163314610a465760405162461bcd60e51b81526004016103e5906110fa565b600280546001600160a01b0319166001600160a01b0392909216919091179055565b6000546001600160a01b03163314610a925760405162461bcd60e51b81526004016103e5906110fa565b600980546001600160a01b0319166001600160a01b0392909216919091179055565b6000546001600160a01b03163314610ade5760405162461bcd60e51b81526004016103e5906110fa565b6002546040516370a0823160e01b815230600482015283916001600160a01b0316906370a0823190602401602060405180830381865afa158015610b26573d6000803e3d6000fd5b505050506040513d601f19601f82011682018060405250810190610b4a9190611151565b1015610b985760405162461bcd60e51b815260206004820152601d60248201527f496e73756666696369656e7420636f6e74726163742062616c616e636500000060448201526064016103e5565b60025460405163a9059cbb60e01b81526001600160a01b038381166004830152602482018590529091169063a9059cbb906044016020604051808303816000875af1158015610beb573d6000803e3d6000fd5b505050506040513d601f19601f82011682018060405250810190610c0f919061112f565b505050565b6000546001600160a01b03163314610c3e5760405162461bcd60e51b81526004016103e5906110fa565b600180546001600160a01b0319166001600160a01b0392909216919091179055565b6000546001600160a01b03163314610c8a5760405162461bcd60e51b81526004016103e5906110fa565b6001600160a01b038116610cef5760405162461bcd60e51b815260206004820152602660248201527f4f776e61626c653a206e6577206f776e657220697320746865207a65726f206160448201526564647265737360d01b60648201526084016103e5565b610cf881610f45565b50565b6000808211610d425760405162461bcd60e51b81526020600482015260136024820152723ab9b2b9103aba20b6b7bab73a1032b93937b960691b60448201526064016103e5565b6001600160a01b0380851660009081526004602090815260408083209387168352929052206001810154831115610db15760405162461bcd60e51b81526020600482015260136024820152727573657220726570617920746f206c6172676560681b60448201526064016103e5565b600554610dc49061050285612710610f21565b8154909250821115610dd557805491505b6000610dfc610df561271061050260065487610f2190919063ffffffff16565b8490610f95565b8254909150610e0b9084610f95565b82556001820154610e1c9085610f95565b600183015560035460405163095ea7b360e01b81526001600160a01b039182166004820152602481018590529086169063095ea7b3906044016020604051808303816000875af1158015610e74573d6000803e3d6000fd5b505050506040513d601f19601f82011682018060405250810190610e98919061112f565b5060035460085460405163f7cacda760e01b81526001600160a01b03888116600483015260248201879052604482018590529182166064820152888216608482015291169063f7cacda79060a401600060405180830381600087803b158015610f0057600080fd5b505af1158015610f14573d6000803e3d6000fd5b5050505050509392505050565b600061046a8284611180565b600061046a828461119f565b600061046a82846111c1565b600080546001600160a01b038381166001600160a01b0319831681178455604051919092169283917f8be0079c531659141344cd1fd0a4f28419497f9722a3daafe3b4186f6b6457e09190a35050565b600061046a82846111d9565b80356001600160a01b0381168114610fb857600080fd5b919050565b600080600060608486031215610fd257600080fd5b610fdb84610fa1565b9250610fe960208501610fa1565b9150604084013590509250925092565b60006020828403121561100b57600080fd5b5035919050565b6000806040838503121561102557600080fd5b61102e83610fa1565b946020939093013593505050565b6000806000806080858703121561105257600080fd5b61105b85610fa1565b935061106960208601610fa1565b92506040850135915061107e60608601610fa1565b905092959194509250565b60006020828403121561109b57600080fd5b61046a82610fa1565b600080604083850312156110b757600080fd5b6110c083610fa1565b91506110ce60208401610fa1565b90509250929050565b600080604083850312156110ea57600080fd5b823591506110ce60208401610fa1565b6020808252818101527f4f776e61626c653a2063616c6c6572206973206e6f7420746865206f776e6572604082015260600190565b60006020828403121561114157600080fd5b8151801515811461046a57600080fd5b60006020828403121561116357600080fd5b5051919050565b634e487b7160e01b600052601160045260246000fd5b600081600019048311821515161561119a5761119a61116a565b500290565b6000826111bc57634e487b7160e01b600052601260045260246000fd5b500490565b600082198211156111d4576111d461116a565b500190565b6000828210156111eb576111eb61116a565b50039056fea26469706673582212205b43d82d344c50ff057458e2a7263afa8a110ecb60e9c5a2f6dbf9554e556d9e64736f6c634300080a0033",
  "linkReferences": {},
  "deployedLinkReferences": {}
}