{
  "_format": "hh-sol-artifact-1",
  "contractName": "AirdropPool",
  "sourceName": "contracts/maxity/airdrop/airdroppool.sol",
  "abi": [
    {
      "inputs": [
        {
          "internalType": "address",
          "name": "_bonusToken",
          "type": "address"
        },
        {
          "internalType": "uint256",
          "name": "_cycle",
          "type": "uint256"
        }
      ],
      "stateMutability": "nonpayable",
      "type": "constructor"
    },
    {
      "anonymous": false,
      "inputs": [
        {
          "indexed": true,
          "internalType": "address",
          "name": "user",
          "type": "address"
        },
        {
          "indexed": true,
          "internalType": "uint256",
          "name": "pid",
          "type": "uint256"
        },
        {
          "indexed": false,
          "internalType": "uint256",
          "name": "amount",
          "type": "uint256"
        }
      ],
      "name": "Deposit",
      "type": "event"
    },
    {
      "anonymous": false,
      "inputs": [
        {
          "indexed": true,
          "internalType": "address",
          "name": "user",
          "type": "address"
        },
        {
          "indexed": true,
          "internalType": "uint256",
          "name": "pid",
          "type": "uint256"
        },
        {
          "indexed": false,
          "internalType": "uint256",
          "name": "amount",
          "type": "uint256"
        }
      ],
      "name": "EmergencyWithdraw",
      "type": "event"
    },
    {
      "anonymous": false,
      "inputs": [
        {
          "indexed": true,
          "internalType": "address",
          "name": "previousOwner",
          "type": "address"
        },
        {
          "indexed": true,
          "internalType": "address",
          "name": "newOwner",
          "type": "address"
        }
      ],
      "name": "OwnershipTransferred",
      "type": "event"
    },
    {
      "anonymous": false,
      "inputs": [
        {
          "indexed": true,
          "internalType": "address",
          "name": "user",
          "type": "address"
        },
        {
          "indexed": true,
          "internalType": "uint256",
          "name": "pid",
          "type": "uint256"
        },
        {
          "indexed": false,
          "internalType": "uint256",
          "name": "amount",
          "type": "uint256"
        }
      ],
      "name": "Withdraw",
      "type": "event"
    },
    {
      "inputs": [
        {
          "internalType": "uint256",
          "name": "_allocPoint",
          "type": "uint256"
        },
        {
          "internalType": "contract IERC20",
          "name": "_lpToken",
          "type": "address"
        },
        {
          "internalType": "bool",
          "name": "_withUpdate",
          "type": "bool"
        }
      ],
      "name": "add",
      "outputs": [],
      "stateMutability": "nonpayable",
      "type": "function"
    },
    {
      "inputs": [],
      "name": "bonusPerBlock",
      "outputs": [
        {
          "internalType": "uint256",
          "name": "",
          "type": "uint256"
        }
      ],
      "stateMutability": "view",
      "type": "function"
    },
    {
      "inputs": [],
      "name": "bonusToken",
      "outputs": [
        {
          "internalType": "address",
          "name": "",
          "type": "address"
        }
      ],
      "stateMutability": "view",
      "type": "function"
    },
    {
      "inputs": [],
      "name": "cycle",
      "outputs": [
        {
          "internalType": "uint256",
          "name": "",
          "type": "uint256"
        }
      ],
      "stateMutability": "view",
      "type": "function"
    },
    {
      "inputs": [
        {
          "internalType": "uint256",
          "name": "_pid",
          "type": "uint256"
        },
        {
          "internalType": "uint256",
          "name": "_amount",
          "type": "uint256"
        }
      ],
      "name": "deposit",
      "outputs": [],
      "stateMutability": "nonpayable",
      "type": "function"
    },
    {
      "inputs": [
        {
          "internalType": "uint256",
          "name": "_pid",
          "type": "uint256"
        }
      ],
      "name": "emergencyWithdraw",
      "outputs": [],
      "stateMutability": "nonpayable",
      "type": "function"
    },
    {
      "inputs": [],
      "name": "endBlock",
      "outputs": [
        {
          "internalType": "uint256",
          "name": "",
          "type": "uint256"
        }
      ],
      "stateMutability": "view",
      "type": "function"
    },
    {
      "inputs": [],
      "name": "massUpdatePools",
      "outputs": [],
      "stateMutability": "nonpayable",
      "type": "function"
    },
    {
      "inputs": [
        {
          "internalType": "uint256",
          "name": "_tokenAmount",
          "type": "uint256"
        },
        {
          "internalType": "uint256",
          "name": "_newPerBlock",
          "type": "uint256"
        },
        {
          "internalType": "uint256",
          "name": "_startBlock",
          "type": "uint256"
        }
      ],
      "name": "newAirdrop",
      "outputs": [],
      "stateMutability": "nonpayable",
      "type": "function"
    },
    {
      "inputs": [],
      "name": "owner",
      "outputs": [
        {
          "internalType": "address",
          "name": "",
          "type": "address"
        }
      ],
      "stateMutability": "view",
      "type": "function"
    },
    {
      "inputs": [
        {
          "internalType": "uint256",
          "name": "_pid",
          "type": "uint256"
        },
        {
          "internalType": "address",
          "name": "_user",
          "type": "address"
        }
      ],
      "name": "pending",
      "outputs": [
        {
          "internalType": "uint256",
          "name": "",
          "type": "uint256"
        }
      ],
      "stateMutability": "view",
      "type": "function"
    },
    {
      "inputs": [
        {
          "internalType": "uint256",
          "name": "",
          "type": "uint256"
        }
      ],
      "name": "poolInfo",
      "outputs": [
        {
          "internalType": "contract IERC20",
          "name": "lpToken",
          "type": "address"
        },
        {
          "internalType": "uint256",
          "name": "allocPoint",
          "type": "uint256"
        },
        {
          "internalType": "uint256",
          "name": "lastRewardBlock",
          "type": "uint256"
        },
        {
          "internalType": "uint256",
          "name": "accBonusPerShare",
          "type": "uint256"
        }
      ],
      "stateMutability": "view",
      "type": "function"
    },
    {
      "inputs": [],
      "name": "poolLength",
      "outputs": [
        {
          "internalType": "uint256",
          "name": "",
          "type": "uint256"
        }
      ],
      "stateMutability": "view",
      "type": "function"
    },
    {
      "inputs": [],
      "name": "renounceOwnership",
      "outputs": [],
      "stateMutability": "nonpayable",
      "type": "function"
    },
    {
      "inputs": [
        {
          "internalType": "uint256",
          "name": "_pid",
          "type": "uint256"
        },
        {
          "internalType": "uint256",
          "name": "_allocPoint",
          "type": "uint256"
        },
        {
          "internalType": "bool",
          "name": "_withUpdate",
          "type": "bool"
        }
      ],
      "name": "set",
      "outputs": [],
      "stateMutability": "nonpayable",
      "type": "function"
    },
    {
      "inputs": [
        {
          "internalType": "uint256",
          "name": "_newCycle",
          "type": "uint256"
        }
      ],
      "name": "setCycle",
      "outputs": [],
      "stateMutability": "nonpayable",
      "type": "function"
    },
    {
      "inputs": [],
      "name": "startBlock",
      "outputs": [
        {
          "internalType": "uint256",
          "name": "",
          "type": "uint256"
        }
      ],
      "stateMutability": "view",
      "type": "function"
    },
    {
      "inputs": [],
      "name": "totalAllocPoint",
      "outputs": [
        {
          "internalType": "uint256",
          "name": "",
          "type": "uint256"
        }
      ],
      "stateMutability": "view",
      "type": "function"
    },
    {
      "inputs": [
        {
          "internalType": "address",
          "name": "newOwner",
          "type": "address"
        }
      ],
      "name": "transferOwnership",
      "outputs": [],
      "stateMutability": "nonpayable",
      "type": "function"
    },
    {
      "inputs": [
        {
          "internalType": "uint256",
          "name": "_pid",
          "type": "uint256"
        }
      ],
      "name": "updatePool",
      "outputs": [],
      "stateMutability": "nonpayable",
      "type": "function"
    },
    {
      "inputs": [
        {
          "internalType": "uint256",
          "name": "",
          "type": "uint256"
        },
        {
          "internalType": "address",
          "name": "",
          "type": "address"
        }
      ],
      "name": "userInfo",
      "outputs": [
        {
          "internalType": "uint256",
          "name": "amount",
          "type": "uint256"
        },
        {
          "internalType": "uint256",
          "name": "rewardDebt",
          "type": "uint256"
        }
      ],
      "stateMutability": "view",
      "type": "function"
    },
    {
      "inputs": [
        {
          "internalType": "uint256",
          "name": "_pid",
          "type": "uint256"
        },
        {
          "internalType": "uint256",
          "name": "_amount",
          "type": "uint256"
        }
      ],
      "name": "withdraw",
      "outputs": [],
      "stateMutability": "nonpayable",
      "type": "function"
    }
  ],
  "bytecode": "0x6080604052600060055534801561001557600080fd5b50604051611937380380611937833981016040819052610034916100b6565b61003d33610066565b600180546001600160a01b0319166001600160a01b0393909316929092179091556008556100f0565b600080546001600160a01b038381166001600160a01b0319831681178455604051919092169283917f8be0079c531659141344cd1fd0a4f28419497f9722a3daafe3b4186f6b6457e09190a35050565b600080604083850312156100c957600080fd5b82516001600160a01b03811681146100e057600080fd5b6020939093015192949293505050565b611838806100ff6000396000f3fe608060405234801561001057600080fd5b50600436106101425760003560e01c80636190c9d5116100b85780637d6c43321161007c5780637d6c4332146102815780638da5cb5b1461028a57806393f1a40b1461029b578063e2bbb158146102e2578063e4c75c27146102f5578063f2fde38b1461030857600080fd5b80636190c9d514610242578063630b5ba11461024b57806364482f79146102535780636d93c3ba14610266578063715018a61461027957600080fd5b806341d4a1ab1161010a57806341d4a1ab146101c2578063441a3e70146101ed57806348cd4cb1146102005780634ebe495c1461020957806351eb05a61461021c5780635312ea8e1461022f57600080fd5b8063081e3eda14610147578063083c63231461015e5780631526fe271461016757806317caf6f1146101a45780631eaaa045146101ad575b600080fd5b6003545b6040519081526020015b60405180910390f35b61014b60075481565b61017a61017536600461151e565b61031b565b604080516001600160a01b0390951685526020850193909352918301526060820152608001610155565b61014b60055481565b6101c06101bb36600461155a565b61035f565b005b6001546101d5906001600160a01b031681565b6040516001600160a01b039091168152602001610155565b6101c06101fb36600461159c565b61050b565b61014b60065481565b6101c06102173660046115be565b61066d565b6101c061022a36600461151e565b6108bb565b6101c061023d36600461151e565b6109fe565b61014b60085481565b6101c0610a9e565b6101c06102613660046115ea565b610ac9565b6101c061027436600461151e565b610b78565b6101c0610ba7565b61014b60025481565b6000546001600160a01b03166101d5565b6102cd6102a9366004611618565b60046020908152600092835260408084209091529082529020805460019091015482565b60408051928352602083019190915201610155565b6101c06102f036600461159c565b610bdd565b61014b610303366004611618565b610cec565b6101c0610316366004611648565b610e69565b6003818154811061032b57600080fd5b600091825260209091206004909102018054600182015460028301546003909301546001600160a01b039092169350919084565b6000546001600160a01b031633146103925760405162461bcd60e51b815260040161038990611665565b60405180910390fd5b6001600160a01b0382166103e85760405162461bcd60e51b815260206004820152601b60248201527f6c70546f6b656e20697320746865207a65726f206164647265737300000000006044820152606401610389565b80156103f6576103f6610a9e565b600060065443116104095760065461040b565b435b60055490915061041b9085610f04565b600555604080516080810182526001600160a01b0394851681526020810195865290810191825260006060820181815260038054600181018255925291517fc2575a0e9e593c00f959f8c92f12db2869c3395a3b0502d05e2516446f71f85b600490920291820180546001600160a01b031916919096161790945593517fc2575a0e9e593c00f959f8c92f12db2869c3395a3b0502d05e2516446f71f85c840155517fc2575a0e9e593c00f959f8c92f12db2869c3395a3b0502d05e2516446f71f85d8301555090517fc2575a0e9e593c00f959f8c92f12db2869c3395a3b0502d05e2516446f71f85e90910155565b6000600383815481106105205761052061169a565b60009182526020808320868452600480835260408086203387529093529190932080549290910290920192508311156105905760405162461bcd60e51b81526020600482015260126024820152711dda5d1a191c985dce881b9bdd0819dbdbd960721b6044820152606401610389565b610599846108bb565b60006105d382600101546105cd64e8d4a510006105c787600301548760000154610f1790919063ffffffff16565b90610f23565b90610f2f565b905080156105e5576105e53382610f3b565b831561060f5781546105f79085610f2f565b8255825461060f906001600160a01b0316338661106e565b6003830154825461062a9164e8d4a51000916105c791610f17565b6001830155604051848152859033907ff279e6a1f5e320cca91135676d9cb6e44ca8a08c0b88342bcdb1144f6511b5689060200160405180910390a35050505050565b6000546001600160a01b031633146106975760405162461bcd60e51b815260040161038990611665565b600754431180156106aa57506007548110155b6106e55760405162461bcd60e51b815260206004820152600c60248201526b139bdd08199a5b9a5cda195960a21b6044820152606401610389565b6106ed610a9e565b6001546040516370a0823160e01b81523060048201526000916001600160a01b0316906370a0823190602401602060405180830381865afa158015610736573d6000803e3d6000fd5b505050506040513d601f19601f8201168201806040525081019061075a91906116b0565b600154909150610775906001600160a01b03163330876110d1565b6001546040516370a0823160e01b81523060048201526000916001600160a01b0316906370a0823190602401602060405180830381865afa1580156107be573d6000803e3d6000fd5b505050506040513d601f19601f820116820180604052508101906107e291906116b0565b905060006107f08284610f2f565b90508581146108315760405162461bcd60e51b815260206004820152600d60248201526c4572726f722062616c616e636560981b6044820152606401610389565b60008111801561084e5750808560085461084b91906116df565b11155b61088f5760405162461bcd60e51b8152602060048201526012602482015271084c2d8c2dcc6ca40dcdee840cadcdeeaced60731b6044820152606401610389565b600285905560068490556008546108a7908590610f04565b6007556108b3846111f9565b505050505050565b6000600382815481106108d0576108d061169a565b90600052602060002090600402019050600060075443116108f157436108f5565b6007545b90508160020154811161090757505050565b81546040516370a0823160e01b81523060048201526000916001600160a01b0316906370a0823190602401602060405180830381865afa15801561094f573d6000803e3d6000fd5b505050506040513d601f19601f8201168201806040525081019061097391906116b0565b905080610984575060029091015550565b600061099d846002015484610f2f90919063ffffffff16565b905060006109ca6005546105c787600101546109c460025487610f1790919063ffffffff16565b90610f17565b90506109ed6109e2846105c78464e8d4a51000610f17565b600387015490610f04565b600386015550505060029091015550565b600060038281548110610a1357610a1361169a565b60009182526020808320858452600480835260408086203380885294528520805486825560018201969096559302018054909450919291610a60916001600160a01b03909116908361106e565b604051818152849033907fbb757047c2b5f3974fe26b7c10f732e7bce710b0952a71082702781e62ae0595906020015b60405180910390a350505050565b60035460005b81811015610ac557610ab5816108bb565b610abe816116fe565b9050610aa4565b5050565b6000546001600160a01b03163314610af35760405162461bcd60e51b815260040161038990611665565b8015610b0157610b01610a9e565b610b4482610b3e60038681548110610b1b57610b1b61169a565b906000526020600020906004020160010154600554610f2f90919063ffffffff16565b90610f04565b6005819055508160038481548110610b5e57610b5e61169a565b906000526020600020906004020160010181905550505050565b6000546001600160a01b03163314610ba25760405162461bcd60e51b815260040161038990611665565b600855565b6000546001600160a01b03163314610bd15760405162461bcd60e51b815260040161038990611665565b610bdb6000611243565b565b600060038381548110610bf257610bf261169a565b60009182526020808320868452600480835260408086203387529093529190932091029091019150610c23846108bb565b805415610c6c576000610c5882600101546105cd64e8d4a510006105c787600301548760000154610f1790919063ffffffff16565b90508015610c6a57610c6a3382610f3b565b505b8215610c98578154610c89906001600160a01b0316333086611293565b8054610c959084610f04565b81555b60038201548154610cb39164e8d4a51000916105c791610f17565b6001820155604051838152849033907f90890809c654f11d6e72a28fa60149770a0d11ec6c92319d6ceb2bb0a4ea1a1590602001610a90565b60008060038481548110610d0257610d0261169a565b60009182526020808320878452600480835260408086206001600160a01b038a8116885294528086209482029092016003810154815493516370a0823160e01b8152309381019390935290965093949291909116906370a0823190602401602060405180830381865afa158015610d7d573d6000803e3d6000fd5b505050506040513d601f19601f82011682018060405250810190610da191906116b0565b905060006007544311610db45743610db8565b6007545b9050846002015481118015610dcc57508115155b15610e35576000610dea866002015483610f2f90919063ffffffff16565b90506000610e116005546105c789600101546109c460025487610f1790919063ffffffff16565b9050610e30610e29856105c78464e8d4a51000610f17565b8690610f04565b945050505b610e5d84600101546105cd64e8d4a510006105c7878960000154610f1790919063ffffffff16565b98975050505050505050565b6000546001600160a01b03163314610e935760405162461bcd60e51b815260040161038990611665565b6001600160a01b038116610ef85760405162461bcd60e51b815260206004820152602660248201527f4f776e61626c653a206e6577206f776e657220697320746865207a65726f206160448201526564647265737360d01b6064820152608401610389565b610f0181611243565b50565b6000610f108284611719565b9392505050565b6000610f1082846116df565b6000610f108284611731565b6000610f108284611753565b6001546040516370a0823160e01b81523060048201526000916001600160a01b0316906370a0823190602401602060405180830381865afa158015610f84573d6000803e3d6000fd5b505050506040513d601f19601f82011682018060405250810190610fa891906116b0565b9050808211156110305760015460405163a9059cbb60e01b81526001600160a01b038581166004830152602482018490529091169063a9059cbb906044015b6020604051808303816000875af1158015611006573d6000803e3d6000fd5b505050506040513d601f19601f8201168201806040525081019061102a919061176a565b50505050565b60015460405163a9059cbb60e01b81526001600160a01b038581166004830152602482018590529091169063a9059cbb90604401610fe7565b505050565b6040516001600160a01b03831660248201526044810182905261106990849063a9059cbb60e01b906064015b60408051601f198184030181529190526020810180516001600160e01b03166001600160e01b0319909316929092179091526112cb565b604080516001600160a01b0385811660248301528481166044830152606480830185905283518084039091018152608490920183526020820180516001600160e01b03166323b872dd60e01b179052915160009283929088169161113591906117b3565b6000604051808303816000865af19150503d8060008114611172576040519150601f19603f3d011682016040523d82523d6000602084013e611177565b606091505b50915091508180156111a15750805115806111a15750808060200190518101906111a1919061176a565b6108b35760405162461bcd60e51b8152602060048201526024808201527f5472616e7366657248656c7065723a205452414e534645525f46524f4d5f46416044820152631253115160e21b6064820152608401610389565b60035460005b818110156110695760006003828154811061121c5761121c61169a565b600091825260209091206002600490920201018490555061123c816116fe565b90506111ff565b600080546001600160a01b038381166001600160a01b0319831681178455604051919092169283917f8be0079c531659141344cd1fd0a4f28419497f9722a3daafe3b4186f6b6457e09190a35050565b6040516001600160a01b038085166024830152831660448201526064810182905261102a9085906323b872dd60e01b9060840161109a565b6000611320826040518060400160405280602081526020017f5361666545524332303a206c6f772d6c6576656c2063616c6c206661696c6564815250856001600160a01b031661139d9092919063ffffffff16565b805190915015611069578080602001905181019061133e919061176a565b6110695760405162461bcd60e51b815260206004820152602a60248201527f5361666545524332303a204552433230206f7065726174696f6e20646964206e6044820152691bdd081cdd58d8d9595960b21b6064820152608401610389565b60606113ac84846000856113b4565b949350505050565b6060824710156114155760405162461bcd60e51b815260206004820152602660248201527f416464726573733a20696e73756666696369656e742062616c616e636520666f6044820152651c8818d85b1b60d21b6064820152608401610389565b6001600160a01b0385163b61146c5760405162461bcd60e51b815260206004820152601d60248201527f416464726573733a2063616c6c20746f206e6f6e2d636f6e74726163740000006044820152606401610389565b600080866001600160a01b0316858760405161148891906117b3565b60006040518083038185875af1925050503d80600081146114c5576040519150601f19603f3d011682016040523d82523d6000602084013e6114ca565b606091505b50915091506114da8282866114e5565b979650505050505050565b606083156114f4575081610f10565b8251156115045782518084602001fd5b8160405162461bcd60e51b815260040161038991906117cf565b60006020828403121561153057600080fd5b5035919050565b6001600160a01b0381168114610f0157600080fd5b8015158114610f0157600080fd5b60008060006060848603121561156f57600080fd5b83359250602084013561158181611537565b915060408401356115918161154c565b809150509250925092565b600080604083850312156115af57600080fd5b50508035926020909101359150565b6000806000606084860312156115d357600080fd5b505081359360208301359350604090920135919050565b6000806000606084860312156115ff57600080fd5b833592506020840135915060408401356115918161154c565b6000806040838503121561162b57600080fd5b82359150602083013561163d81611537565b809150509250929050565b60006020828403121561165a57600080fd5b8135610f1081611537565b6020808252818101527f4f776e61626c653a2063616c6c6572206973206e6f7420746865206f776e6572604082015260600190565b634e487b7160e01b600052603260045260246000fd5b6000602082840312156116c257600080fd5b5051919050565b634e487b7160e01b600052601160045260246000fd5b60008160001904831182151516156116f9576116f96116c9565b500290565b6000600019821415611712576117126116c9565b5060010190565b6000821982111561172c5761172c6116c9565b500190565b60008261174e57634e487b7160e01b600052601260045260246000fd5b500490565b600082821015611765576117656116c9565b500390565b60006020828403121561177c57600080fd5b8151610f108161154c565b60005b838110156117a257818101518382015260200161178a565b8381111561102a5750506000910152565b600082516117c5818460208701611787565b9190910192915050565b60208152600082518060208401526117ee816040850160208701611787565b601f01601f1916919091016040019291505056fea2646970667358221220288824c3dc2a992a3b8bedde7ac5c44c7461626c39e118723fc5a86c1910240e64736f6c634300080a0033",
  "linkReferences": {},
  "deployedLinkReferences": {}
}